{
  "_format": "hh-sol-artifact-1",
  "contractName": "PrimeToken",
  "sourceName": "contracts/test/PrimeToken.sol",
  "abi": [
    {
      "inputs": [
        {
          "internalType": "uint256",
          "name": "initialSupply",
          "type": "uint256"
        },
        {
          "internalType": "uint256",
          "name": "cap",
          "type": "uint256"
        },
        {
          "internalType": "address",
          "name": "genesisMultisig",
          "type": "address"
        }
      ],
      "stateMutability": "nonpayable",
      "type": "constructor"
    },
    {
      "anonymous": false,
      "inputs": [
        {
          "indexed": true,
          "internalType": "address",
          "name": "owner",
          "type": "address"
        },
        {
          "indexed": true,
          "internalType": "address",
          "name": "spender",
          "type": "address"
        },
        {
          "indexed": false,
          "internalType": "uint256",
          "name": "value",
          "type": "uint256"
        }
      ],
      "name": "Approval",
      "type": "event"
    },
    {
      "anonymous": false,
      "inputs": [
        {
          "indexed": true,
          "internalType": "address",
          "name": "from",
          "type": "address"
        },
        {
          "indexed": true,
          "internalType": "address",
          "name": "to",
          "type": "address"
        },
        {
          "indexed": false,
          "internalType": "uint256",
          "name": "value",
          "type": "uint256"
        }
      ],
      "name": "Transfer",
      "type": "event"
    },
    {
      "inputs": [
        {
          "internalType": "address",
          "name": "owner",
          "type": "address"
        },
        {
          "internalType": "address",
          "name": "spender",
          "type": "address"
        }
      ],
      "name": "allowance",
      "outputs": [
        {
          "internalType": "uint256",
          "name": "",
          "type": "uint256"
        }
      ],
      "stateMutability": "view",
      "type": "function"
    },
    {
      "inputs": [
        {
          "internalType": "address",
          "name": "spender",
          "type": "address"
        },
        {
          "internalType": "uint256",
          "name": "amount",
          "type": "uint256"
        }
      ],
      "name": "approve",
      "outputs": [
        {
          "internalType": "bool",
          "name": "",
          "type": "bool"
        }
      ],
      "stateMutability": "nonpayable",
      "type": "function"
    },
    {
      "inputs": [
        {
          "internalType": "address",
          "name": "account",
          "type": "address"
        }
      ],
      "name": "balanceOf",
      "outputs": [
        {
          "internalType": "uint256",
          "name": "",
          "type": "uint256"
        }
      ],
      "stateMutability": "view",
      "type": "function"
    },
    {
      "inputs": [],
      "name": "cap",
      "outputs": [
        {
          "internalType": "uint256",
          "name": "",
          "type": "uint256"
        }
      ],
      "stateMutability": "view",
      "type": "function"
    },
    {
      "inputs": [],
      "name": "decimals",
      "outputs": [
        {
          "internalType": "uint8",
          "name": "",
          "type": "uint8"
        }
      ],
      "stateMutability": "view",
      "type": "function"
    },
    {
      "inputs": [
        {
          "internalType": "address",
          "name": "spender",
          "type": "address"
        },
        {
          "internalType": "uint256",
          "name": "subtractedValue",
          "type": "uint256"
        }
      ],
      "name": "decreaseAllowance",
      "outputs": [
        {
          "internalType": "bool",
          "name": "",
          "type": "bool"
        }
      ],
      "stateMutability": "nonpayable",
      "type": "function"
    },
    {
      "inputs": [
        {
          "internalType": "address",
          "name": "spender",
          "type": "address"
        },
        {
          "internalType": "uint256",
          "name": "addedValue",
          "type": "uint256"
        }
      ],
      "name": "increaseAllowance",
      "outputs": [
        {
          "internalType": "bool",
          "name": "",
          "type": "bool"
        }
      ],
      "stateMutability": "nonpayable",
      "type": "function"
    },
    {
      "inputs": [],
      "name": "name",
      "outputs": [
        {
          "internalType": "string",
          "name": "",
          "type": "string"
        }
      ],
      "stateMutability": "view",
      "type": "function"
    },
    {
      "inputs": [],
      "name": "symbol",
      "outputs": [
        {
          "internalType": "string",
          "name": "",
          "type": "string"
        }
      ],
      "stateMutability": "view",
      "type": "function"
    },
    {
      "inputs": [],
      "name": "totalSupply",
      "outputs": [
        {
          "internalType": "uint256",
          "name": "",
          "type": "uint256"
        }
      ],
      "stateMutability": "view",
      "type": "function"
    },
    {
      "inputs": [
        {
          "internalType": "address",
          "name": "to",
          "type": "address"
        },
        {
          "internalType": "uint256",
          "name": "amount",
          "type": "uint256"
        }
      ],
      "name": "transfer",
      "outputs": [
        {
          "internalType": "bool",
          "name": "",
          "type": "bool"
        }
      ],
      "stateMutability": "nonpayable",
      "type": "function"
    },
    {
      "inputs": [
        {
          "internalType": "address",
          "name": "from",
          "type": "address"
        },
        {
          "internalType": "address",
          "name": "to",
          "type": "address"
        },
        {
          "internalType": "uint256",
          "name": "amount",
          "type": "uint256"
        }
      ],
      "name": "transferFrom",
      "outputs": [
        {
          "internalType": "bool",
          "name": "",
          "type": "bool"
        }
      ],
      "stateMutability": "nonpayable",
      "type": "function"
    }
  ],
  "bytecode": "0x60a06040523480156200001157600080fd5b5060405162001c2438038062001c2483398181016040528101906200003791906200042d565b816040518060400160405280600e81526020017f5072696d6544414f20546f6b656e0000000000000000000000000000000000008152506040518060400160405280600581526020017f5052494d450000000000000000000000000000000000000000000000000000008152508160039080519060200190620000bc929190620002d8565b508060049080519060200190620000d5929190620002d8565b505050600081116200011e576040517f08c379a00000000000000000000000000000000000000000000000000000000081526004016200011590620004ea565b60405180910390fd5b806080818152505050818311156200013557600080fd5b6200014c81846200015560201b620006d61760201c565b5050506200069d565b600073ffffffffffffffffffffffffffffffffffffffff168273ffffffffffffffffffffffffffffffffffffffff161415620001c8576040517f08c379a0000000000000000000000000000000000000000000000000000000008152600401620001bf906200055c565b60405180910390fd5b620001dc60008383620002ce60201b60201c565b8060026000828254620001f09190620005ad565b92505081905550806000808473ffffffffffffffffffffffffffffffffffffffff1673ffffffffffffffffffffffffffffffffffffffff1681526020019081526020016000206000828254620002479190620005ad565b925050819055508173ffffffffffffffffffffffffffffffffffffffff16600073ffffffffffffffffffffffffffffffffffffffff167fddf252ad1be2c89b69c2b068fc378daa952ba7f163c4a11628f55a4df523b3ef83604051620002ae91906200061b565b60405180910390a3620002ca60008383620002d360201b60201c565b5050565b505050565b505050565b828054620002e69062000667565b90600052602060002090601f0160209004810192826200030a576000855562000356565b82601f106200032557805160ff191683800117855562000356565b8280016001018555821562000356579182015b828111156200035557825182559160200191906001019062000338565b5b50905062000365919062000369565b5090565b5b80821115620003845760008160009055506001016200036a565b5090565b600080fd5b6000819050919050565b620003a2816200038d565b8114620003ae57600080fd5b50565b600081519050620003c28162000397565b92915050565b600073ffffffffffffffffffffffffffffffffffffffff82169050919050565b6000620003f582620003c8565b9050919050565b6200040781620003e8565b81146200041357600080fd5b50565b6000815190506200042781620003fc565b92915050565b60008060006060848603121562000449576200044862000388565b5b60006200045986828701620003b1565b93505060206200046c86828701620003b1565b92505060406200047f8682870162000416565b9150509250925092565b600082825260208201905092915050565b7f45524332304361707065643a2063617020697320300000000000000000000000600082015250565b6000620004d260158362000489565b9150620004df826200049a565b602082019050919050565b600060208201905081810360008301526200050581620004c3565b9050919050565b7f45524332303a206d696e7420746f20746865207a65726f206164647265737300600082015250565b600062000544601f8362000489565b915062000551826200050c565b602082019050919050565b60006020820190508181036000830152620005778162000535565b9050919050565b7f4e487b7100000000000000000000000000000000000000000000000000000000600052601160045260246000fd5b6000620005ba826200038d565b9150620005c7836200038d565b9250827fffffffffffffffffffffffffffffffffffffffffffffffffffffffffffffffff03821115620005ff57620005fe6200057e565b5b828201905092915050565b62000615816200038d565b82525050565b60006020820190506200063260008301846200060a565b92915050565b7f4e487b7100000000000000000000000000000000000000000000000000000000600052602260045260246000fd5b600060028204905060018216806200068057607f821691505b6020821081141562000697576200069662000638565b5b50919050565b60805161156b620006b9600039600061039a015261156b6000f3fe608060405234801561001057600080fd5b50600436106100b45760003560e01c80633950935111610071578063395093511461019157806370a08231146101c157806395d89b41146101f1578063a457c2d71461020f578063a9059cbb1461023f578063dd62ed3e1461026f576100b4565b806306fdde03146100b9578063095ea7b3146100d757806318160ddd1461010757806323b872dd14610125578063313ce56714610155578063355274ea14610173575b600080fd5b6100c161029f565b6040516100ce9190610db9565b60405180910390f35b6100f160048036038101906100ec9190610e74565b610331565b6040516100fe9190610ecf565b60405180910390f35b61010f610354565b60405161011c9190610ef9565b60405180910390f35b61013f600480360381019061013a9190610f14565b61035e565b60405161014c9190610ecf565b60405180910390f35b61015d61038d565b60405161016a9190610f83565b60405180910390f35b61017b610396565b6040516101889190610ef9565b60405180910390f35b6101ab60048036038101906101a69190610e74565b6103be565b6040516101b89190610ecf565b60405180910390f35b6101db60048036038101906101d69190610f9e565b610468565b6040516101e89190610ef9565b60405180910390f35b6101f96104b0565b6040516102069190610db9565b60405180910390f35b61022960048036038101906102249190610e74565b610542565b6040516102369190610ecf565b60405180910390f35b61025960048036038101906102549190610e74565b61062c565b6040516102669190610ecf565b60405180910390f35b61028960048036038101906102849190610fcb565b61064f565b6040516102969190610ef9565b60405180910390f35b6060600380546102ae9061103a565b80601f01602080910402602001604051908101604052809291908181526020018280546102da9061103a565b80156103275780601f106102fc57610100808354040283529160200191610327565b820191906000526020600020905b81548152906001019060200180831161030a57829003601f168201915b5050505050905090565b60008061033c610836565b905061034981858561083e565b600191505092915050565b6000600254905090565b600080610369610836565b9050610376858285610a09565b610381858585610a95565b60019150509392505050565b60006012905090565b60007f0000000000000000000000000000000000000000000000000000000000000000905090565b6000806103c9610836565b905061045d818585600160008673ffffffffffffffffffffffffffffffffffffffff1673ffffffffffffffffffffffffffffffffffffffff16815260200190815260200160002060008973ffffffffffffffffffffffffffffffffffffffff1673ffffffffffffffffffffffffffffffffffffffff16815260200190815260200160002054610458919061109b565b61083e565b600191505092915050565b60008060008373ffffffffffffffffffffffffffffffffffffffff1673ffffffffffffffffffffffffffffffffffffffff168152602001908152602001600020549050919050565b6060600480546104bf9061103a565b80601f01602080910402602001604051908101604052809291908181526020018280546104eb9061103a565b80156105385780601f1061050d57610100808354040283529160200191610538565b820191906000526020600020905b81548152906001019060200180831161051b57829003601f168201915b5050505050905090565b60008061054d610836565b90506000600160008373ffffffffffffffffffffffffffffffffffffffff1673ffffffffffffffffffffffffffffffffffffffff16815260200190815260200160002060008673ffffffffffffffffffffffffffffffffffffffff1673ffffffffffffffffffffffffffffffffffffffff16815260200190815260200160002054905083811015610613576040517f08c379a000000000000000000000000000000000000000000000000000000000815260040161060a90611163565b60405180910390fd5b610620828686840361083e565b60019250505092915050565b600080610637610836565b9050610644818585610a95565b600191505092915050565b6000600160008473ffffffffffffffffffffffffffffffffffffffff1673ffffffffffffffffffffffffffffffffffffffff16815260200190815260200160002060008373ffffffffffffffffffffffffffffffffffffffff1673ffffffffffffffffffffffffffffffffffffffff16815260200190815260200160002054905092915050565b600073ffffffffffffffffffffffffffffffffffffffff168273ffffffffffffffffffffffffffffffffffffffff161415610746576040517f08c379a000000000000000000000000000000000000000000000000000000000815260040161073d906111cf565b60405180910390fd5b61075260008383610d16565b8060026000828254610764919061109b565b92505081905550806000808473ffffffffffffffffffffffffffffffffffffffff1673ffffffffffffffffffffffffffffffffffffffff16815260200190815260200160002060008282546107b9919061109b565b925050819055508173ffffffffffffffffffffffffffffffffffffffff16600073ffffffffffffffffffffffffffffffffffffffff167fddf252ad1be2c89b69c2b068fc378daa952ba7f163c4a11628f55a4df523b3ef8360405161081e9190610ef9565b60405180910390a361083260008383610d1b565b5050565b600033905090565b600073ffffffffffffffffffffffffffffffffffffffff168373ffffffffffffffffffffffffffffffffffffffff1614156108ae576040517f08c379a00000000000000000000000000000000000000000000000000000000081526004016108a590611261565b60405180910390fd5b600073ffffffffffffffffffffffffffffffffffffffff168273ffffffffffffffffffffffffffffffffffffffff16141561091e576040517f08c379a0000000000000000000000000000000000000000000000000000000008152600401610915906112f3565b60405180910390fd5b80600160008573ffffffffffffffffffffffffffffffffffffffff1673ffffffffffffffffffffffffffffffffffffffff16815260200190815260200160002060008473ffffffffffffffffffffffffffffffffffffffff1673ffffffffffffffffffffffffffffffffffffffff168152602001908152602001600020819055508173ffffffffffffffffffffffffffffffffffffffff168373ffffffffffffffffffffffffffffffffffffffff167f8c5be1e5ebec7d5bd14f71427d1e84f3dd0314c0f7b2291e5b200ac8c7c3b925836040516109fc9190610ef9565b60405180910390a3505050565b6000610a15848461064f565b90507fffffffffffffffffffffffffffffffffffffffffffffffffffffffffffffffff8114610a8f5781811015610a81576040517f08c379a0000000000000000000000000000000000000000000000000000000008152600401610a789061135f565b60405180910390fd5b610a8e848484840361083e565b5b50505050565b600073ffffffffffffffffffffffffffffffffffffffff168373ffffffffffffffffffffffffffffffffffffffff161415610b05576040517f08c379a0000000000000000000000000000000000000000000000000000000008152600401610afc906113f1565b60405180910390fd5b600073ffffffffffffffffffffffffffffffffffffffff168273ffffffffffffffffffffffffffffffffffffffff161415610b75576040517f08c379a0000000000000000000000000000000000000000000000000000000008152600401610b6c90611483565b60405180910390fd5b610b80838383610d16565b60008060008573ffffffffffffffffffffffffffffffffffffffff1673ffffffffffffffffffffffffffffffffffffffff16815260200190815260200160002054905081811015610c06576040517f08c379a0000000000000000000000000000000000000000000000000000000008152600401610bfd90611515565b60405180910390fd5b8181036000808673ffffffffffffffffffffffffffffffffffffffff1673ffffffffffffffffffffffffffffffffffffffff16815260200190815260200160002081905550816000808573ffffffffffffffffffffffffffffffffffffffff1673ffffffffffffffffffffffffffffffffffffffff1681526020019081526020016000206000828254610c99919061109b565b925050819055508273ffffffffffffffffffffffffffffffffffffffff168473ffffffffffffffffffffffffffffffffffffffff167fddf252ad1be2c89b69c2b068fc378daa952ba7f163c4a11628f55a4df523b3ef84604051610cfd9190610ef9565b60405180910390a3610d10848484610d1b565b50505050565b505050565b505050565b600081519050919050565b600082825260208201905092915050565b60005b83811015610d5a578082015181840152602081019050610d3f565b83811115610d69576000848401525b50505050565b6000601f19601f8301169050919050565b6000610d8b82610d20565b610d958185610d2b565b9350610da5818560208601610d3c565b610dae81610d6f565b840191505092915050565b60006020820190508181036000830152610dd38184610d80565b905092915050565b600080fd5b600073ffffffffffffffffffffffffffffffffffffffff82169050919050565b6000610e0b82610de0565b9050919050565b610e1b81610e00565b8114610e2657600080fd5b50565b600081359050610e3881610e12565b92915050565b6000819050919050565b610e5181610e3e565b8114610e5c57600080fd5b50565b600081359050610e6e81610e48565b92915050565b60008060408385031215610e8b57610e8a610ddb565b5b6000610e9985828601610e29565b9250506020610eaa85828601610e5f565b9150509250929050565b60008115159050919050565b610ec981610eb4565b82525050565b6000602082019050610ee46000830184610ec0565b92915050565b610ef381610e3e565b82525050565b6000602082019050610f0e6000830184610eea565b92915050565b600080600060608486031215610f2d57610f2c610ddb565b5b6000610f3b86828701610e29565b9350506020610f4c86828701610e29565b9250506040610f5d86828701610e5f565b9150509250925092565b600060ff82169050919050565b610f7d81610f67565b82525050565b6000602082019050610f986000830184610f74565b92915050565b600060208284031215610fb457610fb3610ddb565b5b6000610fc284828501610e29565b91505092915050565b60008060408385031215610fe257610fe1610ddb565b5b6000610ff085828601610e29565b925050602061100185828601610e29565b9150509250929050565b7f4e487b7100000000000000000000000000000000000000000000000000000000600052602260045260246000fd5b6000600282049050600182168061105257607f821691505b602082108114156110665761106561100b565b5b50919050565b7f4e487b7100000000000000000000000000000000000000000000000000000000600052601160045260246000fd5b60006110a682610e3e565b91506110b183610e3e565b9250827fffffffffffffffffffffffffffffffffffffffffffffffffffffffffffffffff038211156110e6576110e561106c565b5b828201905092915050565b7f45524332303a2064656372656173656420616c6c6f77616e63652062656c6f7760008201527f207a65726f000000000000000000000000000000000000000000000000000000602082015250565b600061114d602583610d2b565b9150611158826110f1565b604082019050919050565b6000602082019050818103600083015261117c81611140565b9050919050565b7f45524332303a206d696e7420746f20746865207a65726f206164647265737300600082015250565b60006111b9601f83610d2b565b91506111c482611183565b602082019050919050565b600060208201905081810360008301526111e8816111ac565b9050919050565b7f45524332303a20617070726f76652066726f6d20746865207a65726f2061646460008201527f7265737300000000000000000000000000000000000000000000000000000000602082015250565b600061124b602483610d2b565b9150611256826111ef565b604082019050919050565b6000602082019050818103600083015261127a8161123e565b9050919050565b7f45524332303a20617070726f766520746f20746865207a65726f20616464726560008201527f7373000000000000000000000000000000000000000000000000000000000000602082015250565b60006112dd602283610d2b565b91506112e882611281565b604082019050919050565b6000602082019050818103600083015261130c816112d0565b9050919050565b7f45524332303a20696e73756666696369656e7420616c6c6f77616e6365000000600082015250565b6000611349601d83610d2b565b915061135482611313565b602082019050919050565b600060208201905081810360008301526113788161133c565b9050919050565b7f45524332303a207472616e736665722066726f6d20746865207a65726f20616460008201527f6472657373000000000000000000000000000000000000000000000000000000602082015250565b60006113db602583610d2b565b91506113e68261137f565b604082019050919050565b6000602082019050818103600083015261140a816113ce565b9050919050565b7f45524332303a207472616e7366657220746f20746865207a65726f206164647260008201527f6573730000000000000000000000000000000000000000000000000000000000602082015250565b600061146d602383610d2b565b915061147882611411565b604082019050919050565b6000602082019050818103600083015261149c81611460565b9050919050565b7f45524332303a207472616e7366657220616d6f756e742065786365656473206260008201527f616c616e63650000000000000000000000000000000000000000000000000000602082015250565b60006114ff602683610d2b565b915061150a826114a3565b604082019050919050565b6000602082019050818103600083015261152e816114f2565b905091905056fea264697066735822122034e433cc6ee8c5a1ef33d0deb302081476fedc1dc40aca029ddd46171453c8e664736f6c63430008090033",
  "linkReferences": {},
  "deployedLinkReferences": {}
}