{
  "_format": "hh-sol-artifact-1",
  "contractName": "Seed",
  "sourceName": "contracts/seed/Seed.sol",
  "abi": [
    {
      "anonymous": false,
      "inputs": [
        {
          "indexed": true,
          "internalType": "address",
          "name": "recipient",
          "type": "address"
        },
        {
          "indexed": false,
          "internalType": "uint256",
          "name": "amountReclaimed",
          "type": "uint256"
        }
      ],
      "name": "FundingReclaimed",
      "type": "event"
    },
    {
      "anonymous": false,
      "inputs": [
        {
          "indexed": true,
          "internalType": "bytes",
          "name": "metadata",
          "type": "bytes"
        }
      ],
      "name": "MetadataUpdated",
      "type": "event"
    },
    {
      "anonymous": false,
      "inputs": [
        {
          "indexed": true,
          "internalType": "address",
          "name": "recipient",
          "type": "address"
        },
        {
          "indexed": false,
          "internalType": "uint256",
          "name": "amountPurchased",
          "type": "uint256"
        }
      ],
      "name": "SeedsPurchased",
      "type": "event"
    },
    {
      "anonymous": false,
      "inputs": [
        {
          "indexed": true,
          "internalType": "address",
          "name": "recipient",
          "type": "address"
        },
        {
          "indexed": false,
          "internalType": "uint256",
          "name": "amount",
          "type": "uint256"
        },
        {
          "indexed": true,
          "internalType": "address",
          "name": "beneficiary",
          "type": "address"
        },
        {
          "indexed": false,
          "internalType": "uint256",
          "name": "feeAmount",
          "type": "uint256"
        }
      ],
      "name": "TokensClaimed",
      "type": "event"
    },
    {
      "inputs": [
        {
          "internalType": "uint256",
          "name": "_cap",
          "type": "uint256"
        },
        {
          "internalType": "uint256",
          "name": "_personalCap",
          "type": "uint256"
        },
        {
          "internalType": "uint256",
          "name": "_rate",
          "type": "uint256"
        },
        {
          "internalType": "uint256",
          "name": "_vestingDuration",
          "type": "uint256"
        }
      ],
      "name": "addClass",
      "outputs": [],
      "stateMutability": "nonpayable",
      "type": "function"
    },
    {
      "inputs": [],
      "name": "admin",
      "outputs": [
        {
          "internalType": "address",
          "name": "",
          "type": "address"
        }
      ],
      "stateMutability": "view",
      "type": "function"
    },
    {
      "inputs": [],
      "name": "beneficiary",
      "outputs": [
        {
          "internalType": "address",
          "name": "",
          "type": "address"
        }
      ],
      "stateMutability": "view",
      "type": "function"
    },
    {
      "inputs": [
        {
          "internalType": "uint256",
          "name": "_fundingAmount",
          "type": "uint256"
        }
      ],
      "name": "buy",
      "outputs": [
        {
          "internalType": "uint256",
          "name": "",
          "type": "uint256"
        },
        {
          "internalType": "uint256",
          "name": "",
          "type": "uint256"
        }
      ],
      "stateMutability": "nonpayable",
      "type": "function"
    },
    {
      "inputs": [
        {
          "internalType": "address",
          "name": "_funder",
          "type": "address"
        }
      ],
      "name": "calculateClaim",
      "outputs": [
        {
          "internalType": "uint256",
          "name": "",
          "type": "uint256"
        }
      ],
      "stateMutability": "view",
      "type": "function"
    },
    {
      "inputs": [
        {
          "internalType": "address",
          "name": "_funder",
          "type": "address"
        },
        {
          "internalType": "uint256",
          "name": "_claimAmount",
          "type": "uint256"
        }
      ],
      "name": "claim",
      "outputs": [
        {
          "internalType": "uint256",
          "name": "",
          "type": "uint256"
        }
      ],
      "stateMutability": "nonpayable",
      "type": "function"
    },
    {
      "inputs": [],
      "name": "close",
      "outputs": [],
      "stateMutability": "nonpayable",
      "type": "function"
    },
    {
      "inputs": [],
      "name": "closed",
      "outputs": [
        {
          "internalType": "bool",
          "name": "",
          "type": "bool"
        }
      ],
      "stateMutability": "view",
      "type": "function"
    },
    {
      "inputs": [],
      "name": "endTime",
      "outputs": [
        {
          "internalType": "uint256",
          "name": "",
          "type": "uint256"
        }
      ],
      "stateMutability": "view",
      "type": "function"
    },
    {
      "inputs": [],
      "name": "fee",
      "outputs": [
        {
          "internalType": "uint256",
          "name": "",
          "type": "uint256"
        }
      ],
      "stateMutability": "view",
      "type": "function"
    },
    {
      "inputs": [],
      "name": "feeAmountRequired",
      "outputs": [
        {
          "internalType": "uint256",
          "name": "",
          "type": "uint256"
        }
      ],
      "stateMutability": "view",
      "type": "function"
    },
    {
      "inputs": [],
      "name": "feeClaimed",
      "outputs": [
        {
          "internalType": "uint256",
          "name": "",
          "type": "uint256"
        }
      ],
      "stateMutability": "view",
      "type": "function"
    },
    {
      "inputs": [
        {
          "internalType": "address",
          "name": "_funder",
          "type": "address"
        }
      ],
      "name": "feeClaimedForFunder",
      "outputs": [
        {
          "internalType": "uint256",
          "name": "",
          "type": "uint256"
        }
      ],
      "stateMutability": "view",
      "type": "function"
    },
    {
      "inputs": [
        {
          "internalType": "address",
          "name": "_funder",
          "type": "address"
        }
      ],
      "name": "feeForFunder",
      "outputs": [
        {
          "internalType": "uint256",
          "name": "",
          "type": "uint256"
        }
      ],
      "stateMutability": "view",
      "type": "function"
    },
    {
      "inputs": [],
      "name": "feeRemainder",
      "outputs": [
        {
          "internalType": "uint256",
          "name": "",
          "type": "uint256"
        }
      ],
      "stateMutability": "view",
      "type": "function"
    },
    {
      "inputs": [
        {
          "internalType": "address",
          "name": "",
          "type": "address"
        }
      ],
      "name": "funders",
      "outputs": [
        {
          "internalType": "uint8",
          "name": "class",
          "type": "uint8"
        },
        {
          "internalType": "uint256",
          "name": "totalClaimed",
          "type": "uint256"
        },
        {
          "internalType": "uint256",
          "name": "fundingAmount",
          "type": "uint256"
        }
      ],
      "stateMutability": "view",
      "type": "function"
    },
    {
      "inputs": [],
      "name": "fundingCollected",
      "outputs": [
        {
          "internalType": "uint256",
          "name": "",
          "type": "uint256"
        }
      ],
      "stateMutability": "view",
      "type": "function"
    },
    {
      "inputs": [],
      "name": "fundingToken",
      "outputs": [
        {
          "internalType": "contract IERC20",
          "name": "",
          "type": "address"
        }
      ],
      "stateMutability": "view",
      "type": "function"
    },
    {
      "inputs": [],
      "name": "fundingWithdrawn",
      "outputs": [
        {
          "internalType": "uint256",
          "name": "",
          "type": "uint256"
        }
      ],
      "stateMutability": "view",
      "type": "function"
    },
    {
      "inputs": [],
      "name": "hardCap",
      "outputs": [
        {
          "internalType": "uint256",
          "name": "",
          "type": "uint256"
        }
      ],
      "stateMutability": "view",
      "type": "function"
    },
    {
      "inputs": [
        {
          "internalType": "address",
          "name": "_beneficiary",
          "type": "address"
        },
        {
          "internalType": "address",
          "name": "_admin",
          "type": "address"
        },
        {
          "internalType": "address[]",
          "name": "_tokens",
          "type": "address[]"
        },
        {
          "internalType": "uint256[]",
          "name": "_softHardThresholds",
          "type": "uint256[]"
        },
        {
          "internalType": "uint256",
          "name": "_price",
          "type": "uint256"
        },
        {
          "internalType": "uint256",
          "name": "_startTime",
          "type": "uint256"
        },
        {
          "internalType": "uint256",
          "name": "_endTime",
          "type": "uint256"
        },
        {
          "internalType": "uint32",
          "name": "_vestingDuration",
          "type": "uint32"
        },
        {
          "internalType": "uint32",
          "name": "_vestingCliff",
          "type": "uint32"
        },
        {
          "internalType": "bool",
          "name": "_permissionedSeed",
          "type": "bool"
        },
        {
          "internalType": "uint256",
          "name": "_fee",
          "type": "uint256"
        }
      ],
      "name": "initialize",
      "outputs": [],
      "stateMutability": "nonpayable",
      "type": "function"
    },
    {
      "inputs": [],
      "name": "initialized",
      "outputs": [
        {
          "internalType": "bool",
          "name": "",
          "type": "bool"
        }
      ],
      "stateMutability": "view",
      "type": "function"
    },
    {
      "inputs": [],
      "name": "isFunded",
      "outputs": [
        {
          "internalType": "bool",
          "name": "",
          "type": "bool"
        }
      ],
      "stateMutability": "view",
      "type": "function"
    },
    {
      "inputs": [],
      "name": "isWhitelistBatchInvoked",
      "outputs": [
        {
          "internalType": "bool",
          "name": "",
          "type": "bool"
        }
      ],
      "stateMutability": "view",
      "type": "function"
    },
    {
      "inputs": [],
      "name": "maximumReached",
      "outputs": [
        {
          "internalType": "bool",
          "name": "",
          "type": "bool"
        }
      ],
      "stateMutability": "view",
      "type": "function"
    },
    {
      "inputs": [],
      "name": "metadata",
      "outputs": [
        {
          "internalType": "bytes",
          "name": "",
          "type": "bytes"
        }
      ],
      "stateMutability": "view",
      "type": "function"
    },
    {
      "inputs": [],
      "name": "minimumReached",
      "outputs": [
        {
          "internalType": "bool",
          "name": "",
          "type": "bool"
        }
      ],
      "stateMutability": "view",
      "type": "function"
    },
    {
      "inputs": [],
      "name": "pause",
      "outputs": [],
      "stateMutability": "nonpayable",
      "type": "function"
    },
    {
      "inputs": [],
      "name": "paused",
      "outputs": [
        {
          "internalType": "bool",
          "name": "",
          "type": "bool"
        }
      ],
      "stateMutability": "view",
      "type": "function"
    },
    {
      "inputs": [],
      "name": "permissionedSeed",
      "outputs": [
        {
          "internalType": "bool",
          "name": "",
          "type": "bool"
        }
      ],
      "stateMutability": "view",
      "type": "function"
    },
    {
      "inputs": [],
      "name": "price",
      "outputs": [
        {
          "internalType": "uint256",
          "name": "",
          "type": "uint256"
        }
      ],
      "stateMutability": "view",
      "type": "function"
    },
    {
      "inputs": [],
      "name": "retrieveFundingTokens",
      "outputs": [
        {
          "internalType": "uint256",
          "name": "",
          "type": "uint256"
        }
      ],
      "stateMutability": "nonpayable",
      "type": "function"
    },
    {
      "inputs": [
        {
          "internalType": "address",
          "name": "_refundReceiver",
          "type": "address"
        }
      ],
      "name": "retrieveSeedTokens",
      "outputs": [],
      "stateMutability": "nonpayable",
      "type": "function"
    },
    {
      "inputs": [
        {
          "internalType": "address",
          "name": "_funder",
          "type": "address"
        }
      ],
      "name": "seedAmountForFunder",
      "outputs": [
        {
          "internalType": "uint256",
          "name": "",
          "type": "uint256"
        }
      ],
      "stateMutability": "view",
      "type": "function"
    },
    {
      "inputs": [],
      "name": "seedAmountRequired",
      "outputs": [
        {
          "internalType": "uint256",
          "name": "",
          "type": "uint256"
        }
      ],
      "stateMutability": "view",
      "type": "function"
    },
    {
      "inputs": [],
      "name": "seedClaimed",
      "outputs": [
        {
          "internalType": "uint256",
          "name": "",
          "type": "uint256"
        }
      ],
      "stateMutability": "view",
      "type": "function"
    },
    {
      "inputs": [],
      "name": "seedRemainder",
      "outputs": [
        {
          "internalType": "uint256",
          "name": "",
          "type": "uint256"
        }
      ],
      "stateMutability": "view",
      "type": "function"
    },
    {
      "inputs": [],
      "name": "seedToken",
      "outputs": [
        {
          "internalType": "contract IERC20",
          "name": "",
          "type": "address"
        }
      ],
      "stateMutability": "view",
      "type": "function"
    },
    {
      "inputs": [],
      "name": "softCap",
      "outputs": [
        {
          "internalType": "uint256",
          "name": "",
          "type": "uint256"
        }
      ],
      "stateMutability": "view",
      "type": "function"
    },
    {
      "inputs": [],
      "name": "startTime",
      "outputs": [
        {
          "internalType": "uint256",
          "name": "",
          "type": "uint256"
        }
      ],
      "stateMutability": "view",
      "type": "function"
    },
    {
      "inputs": [],
      "name": "totalFunderCount",
      "outputs": [
        {
          "internalType": "uint256",
          "name": "",
          "type": "uint256"
        }
      ],
      "stateMutability": "view",
      "type": "function"
    },
    {
      "inputs": [],
      "name": "unpause",
      "outputs": [],
      "stateMutability": "nonpayable",
      "type": "function"
    },
    {
      "inputs": [
        {
          "internalType": "address",
          "name": "buyer",
          "type": "address"
        }
      ],
      "name": "unwhitelist",
      "outputs": [],
      "stateMutability": "nonpayable",
      "type": "function"
    },
    {
      "inputs": [
        {
          "internalType": "bytes",
          "name": "_metadata",
          "type": "bytes"
        }
      ],
      "name": "updateMetadata",
      "outputs": [],
      "stateMutability": "nonpayable",
      "type": "function"
    },
    {
      "inputs": [],
      "name": "vestingCliff",
      "outputs": [
        {
          "internalType": "uint32",
          "name": "",
          "type": "uint32"
        }
      ],
      "stateMutability": "view",
      "type": "function"
    },
    {
      "inputs": [],
      "name": "vestingDuration",
      "outputs": [
        {
          "internalType": "uint32",
          "name": "",
          "type": "uint32"
        }
      ],
      "stateMutability": "view",
      "type": "function"
    },
    {
      "inputs": [],
      "name": "vestingStartTime",
      "outputs": [
        {
          "internalType": "uint256",
          "name": "",
          "type": "uint256"
        }
      ],
      "stateMutability": "view",
      "type": "function"
    },
    {
      "inputs": [
        {
          "internalType": "address",
          "name": "_buyer",
          "type": "address"
        }
      ],
      "name": "whitelist",
      "outputs": [],
      "stateMutability": "nonpayable",
      "type": "function"
    },
    {
      "inputs": [
        {
          "internalType": "address[]",
          "name": "_buyers",
          "type": "address[]"
        }
      ],
      "name": "whitelistBatch",
      "outputs": [],
      "stateMutability": "nonpayable",
      "type": "function"
    },
    {
      "inputs": [
        {
          "internalType": "address",
          "name": "",
          "type": "address"
        }
      ],
      "name": "whitelisted",
      "outputs": [
        {
          "internalType": "bool",
          "name": "",
          "type": "bool"
        }
      ],
      "stateMutability": "view",
      "type": "function"
    },
    {
      "inputs": [],
      "name": "withdraw",
      "outputs": [],
      "stateMutability": "nonpayable",
      "type": "function"
    }
  ],
  "bytecode": "0x608060405234801561001057600080fd5b50612c0c806100206000396000f3fe608060405234801561001057600080fd5b50600436106102f15760003560e01c80637c6543031161019d578063d936547e116100e9578063e6e36ebb116100a2578063f3640e741161007c578063f3640e7414610757578063f851a4401461076e578063fb86a40414610781578063fc582d411461078a57600080fd5b8063e6e36ebb14610728578063ea34554014610731578063eaa535231461074457600080fd5b8063d936547e14610695578063d96a094a146106b8578063dc4b9e38146106e0578063ddca3f43146106f3578063e5087c60146106fc578063e565eb4c1461071357600080fd5b80639a59042711610156578063a8660a7811610130578063a8660a7814610667578063aad3ec9614610670578063b774682f14610683578063bc0f5f841461068c57600080fd5b80639a590427146106385780639b19251a1461064b578063a035b1fe1461065e57600080fd5b80637c654303146104fa5780637eb71b0d1461050d57806383d59e00146106165780638456cb591461061f5780638a2448aa14610627578063906a26e01461062f57600080fd5b80633dba9e411161025c578063597e1fb5116102155780635e9777e8116101ef5780635e9777e8146104cd57806371f4b8e8146104d657806378065f27146104de57806378e97925146104f157600080fd5b8063597e1fb51461049b5780635c975abb146104a85780635d85ac0d146104ba57600080fd5b80633dba9e411461044f5780633f4ba83a1461045c578063430e99a41461046457806343d726d61461047757806344f9abb81461047f57806347d02f1b1461049257600080fd5b80631cfe562e116102ae5780631cfe562e146103db578063311f8483146103e45780633197cbb61461041657806338af3eed1461041f578063392f37e9146104325780633ccfd60b1461044757600080fd5b8063031b3677146102f657806303aabe311461034d5780630826d2c714610362578063117a36d1146103795780631514617e1461039d578063158ef93e146103c7575b600080fd5b610329610304366004612575565b60176020526000908152604090208054600182015460029092015460ff909116919083565b6040805160ff90941684526020840192909252908201526060015b60405180910390f35b61036061035b366004612575565b61079d565b005b61036b60105481565b604051908152602001610344565b600d5461038d90600160281b900460ff1681565b6040519015158152602001610344565b6009546103b290610100900463ffffffff1681565b60405163ffffffff9091168152602001610344565b600d5461038d906301000000900460ff1681565b61036b60135481565b6009546103fe90600160481b90046001600160a01b031681565b6040516001600160a01b039091168152602001610344565b61036b60085481565b6000546103fe906001600160a01b031681565b61043a610b44565b60405161034491906125c7565b610360610bd2565b60095461038d9060ff1681565b610360610d58565b61036b610472366004612575565b610e0d565b610360610e52565b61036061048d36600461275f565b610eaf565b61036b60115481565b600d5461038d9060ff1681565b600d5461038d90610100900460ff1681565b61036b6104c8366004612575565b611319565b61036b600f5481565b61036b61133a565b600a546103fe906001600160a01b031681565b61036b60075481565b600d5461038d9062010000900460ff1681565b61036061051b366004612843565b6040805160a0810182529485526020850193845284019182526060840190815260006080850181815260158054600181018255925294517f55f448fdea98c4d29eb340757ef0a66cd03dbb9538908a6a81d96026b71ec47560059092029182015592517f55f448fdea98c4d29eb340757ef0a66cd03dbb9538908a6a81d96026b71ec47684015590517f55f448fdea98c4d29eb340757ef0a66cd03dbb9538908a6a81d96026b71ec477830155517f55f448fdea98c4d29eb340757ef0a66cd03dbb9538908a6a81d96026b71ec47882015590517f55f448fdea98c4d29eb340757ef0a66cd03dbb9538908a6a81d96026b71ec47990910155565b61036b60145481565b610360611364565b61036b61141a565b61036b60025481565b610360610646366004612575565b6116ce565b610360610659366004612575565b611763565b61036b60065481565b61036b600e5481565b61036b61067e366004612875565b6117fb565b61036b60125481565b61036b60045481565b61038d6106a3366004612575565b60166020526000908152604090205460ff1681565b6106cb6106c636600461289f565b611bd5565b60408051928352602083019190915201610344565b61036b6106ee366004612575565b6121c0565b61036b600b5481565b600d5461038d906601000000000000900460ff1681565b600d5461038d90640100000000900460ff1681565b61036b60055481565b61036b61073f366004612575565b6121f5565b6103606107523660046128b8565b6122d1565b6009546103b290600160281b900463ffffffff1681565b6001546103fe906001600160a01b031681565b61036b60035481565b6103606107983660046128ed565b6123c6565b6001546001600160a01b031633146107d05760405162461bcd60e51b81526004016107c790612982565b60405180910390fd5b600d5460ff16806107ea5750600d54600160281b900460ff165b806107f757506008544210155b61089a5760405162461bcd60e51b815260206004820152606260248201527f536565643a20546865206162696c69747920746f20627579207365656420746f60448201527f6b656e73206d757374206861766520656e646564206265666f72652072656d6160648201527f696e696e67207365656420746f6b656e732063616e20626520776974686472616084820152613bb760f11b60a482015260c4016107c7565b600d54640100000000900460ff166109d4576009546040516370a0823160e01b8152306004820152600160481b9091046001600160a01b03169063a9059cbb90839083906370a082319060240160206040518083038186803b1580156108ff57600080fd5b505afa158015610913573d6000803e3d6000fd5b505050506040513d601f19601f8201168201806040525081019061093791906129b9565b6040516001600160e01b031960e085901b1681526001600160a01b0390921660048301526024820152604401602060405180830381600087803b15801561097d57600080fd5b505af1158015610991573d6000803e3d6000fd5b505050506040513d601f19601f820116820180604052508101906109b591906129d2565b6109d15760405162461bcd60e51b81526004016107c7906129ef565b50565b60006012546010546109e69190612a59565b6005546004546109f69190612a59565b610a009190612a71565b6009546040516370a0823160e01b81523060048201529192506000918391600160481b90046001600160a01b0316906370a082319060240160206040518083038186803b158015610a5057600080fd5b505afa158015610a64573d6000803e3d6000fd5b505050506040513d601f19601f82011682018060405250810190610a8891906129b9565b610a929190612a71565b60095460405163a9059cbb60e01b81526001600160a01b03868116600483015260248201849052929350600160481b9091049091169063a9059cbb90604401602060405180830381600087803b158015610aeb57600080fd5b505af1158015610aff573d6000803e3d6000fd5b505050506040513d601f19601f82011682018060405250810190610b2391906129d2565b610b3f5760405162461bcd60e51b81526004016107c7906129ef565b505050565b600c8054610b5190612a88565b80601f0160208091040260200160405190810160405280929190818152602001828054610b7d90612a88565b8015610bca5780601f10610b9f57610100808354040283529160200191610bca565b820191906000526020600020905b815481529060010190602001808311610bad57829003601f168201915b505050505081565b6001546001600160a01b03163314610bfc5760405162461bcd60e51b81526004016107c790612982565b600d54600160281b900460ff1680610c2b5750600d54640100000000900460ff168015610c2b57506008544210155b610cb75760405162461bcd60e51b815260206004820152605160248201527f536565643a2063616e6e6f74207769746864726177207768696c652066756e6460448201527f696e6720746f6b656e732063616e207374696c6c2062652077697468647261776064820152706e20627920636f6e7472696275746f727360781b608482015260a4016107c7565b6000601454601354610cc99190612a71565b601354601455600a5460405163a9059cbb60e01b8152336004820152602481018390529192506001600160a01b03169063a9059cbb90604401602060405180830381600087803b158015610d1c57600080fd5b505af1158015610d30573d6000803e3d6000fd5b505050506040513d601f19601f82011682018060405250810190610d5491906129d2565b5050565b6001546001600160a01b03163314610d825760405162461bcd60e51b81526004016107c790612982565b600d5460ff16151560011415610daa5760405162461bcd60e51b81526004016107c790612ac3565b600d5460ff610100909104161515600114610e005760405162461bcd60e51b815260206004820152601660248201527514d959590e881cda1bdd5b19081899481c185d5cd95960521b60448201526064016107c7565b600d805461ff0019169055565b600b546001600160a01b0382166000908152601760205260408120600101549091670de0b6b3a764000091610e429190612afa565b610e4c9190612b19565b92915050565b6001546001600160a01b03163314610e7c5760405162461bcd60e51b81526004016107c790612982565b600d5460ff1615610e9f5760405162461bcd60e51b81526004016107c790612ac3565b600d805461ffff19166001179055565b600d546301000000900460ff1615610f145760405162461bcd60e51b815260206004820152602260248201527f536565643a20636f6e747261637420616c726561647920696e697469616c697a604482015261195960f21b60648201526084016107c7565b600d805463ff00000019166301000000179055885189906001908110610f3c57610f3c612b3b565b60200260200101516001600160a01b031689600081518110610f6057610f60612b3b565b60200260200101516001600160a01b03161415610fd55760405162461bcd60e51b815260206004820152602d60248201527f53656564466163746f72793a2073656564546f6b656e2063616e6e6f7420626560448201526c10333ab73234b733aa37b5b2b760991b60648201526084016107c7565b87600081518110610fe857610fe8612b3b565b60200260200101518860018151811061100357611003612b3b565b602002602001015110156110725760405162461bcd60e51b815260206004820152603060248201527f53656564466163746f72793a20686172644361702063616e6e6f74206265206c60448201526f0657373207468616e20736f66744361760841b60648201526084016107c7565b8263ffffffff168463ffffffff1610156110f45760405162461bcd60e51b815260206004820152603d60248201527f53656564466163746f72793a2076657374696e674475726174696f6e2063616e60448201527f6e6f74206265206c657373207468616e2076657374696e67436c69666600000060648201526084016107c7565b8585116111695760405162461bcd60e51b815260206004820152603b60248201527f53656564466163746f72793a20656e6454696d652063616e6e6f74206265206c60448201527f657373207468616e20657175616c20746f20737461727454696d65000000000060648201526084016107c7565b600080546001600160a01b03808e166001600160a01b031992831617835560018054918e169190921617905588518991906111a6576111a6612b3b565b6020026020010151600281905550876001815181106111c7576111c7612b3b565b6020908102919091010151600355600687905560078690556008859055600e8590556009805468ffffffffffffffff00191661010063ffffffff8781169190910268ffffffff0000000000191691909117600160281b918616919091021760ff19168315151790558851899060009061124257611242612b3b565b60200260200101516009806101000a8154816001600160a01b0302191690836001600160a01b031602179055508860018151811061128257611282612b3b565b6020026020010151600a60006101000a8154816001600160a01b0302191690836001600160a01b0316021790555080600b8190555086670de0b6b3a76400006003546112ce9190612afa565b6112d89190612b19565b6004819055600b54670de0b6b3a7640000916112f49190612afa565b6112fe9190612b19565b60058190556004546010556012555050505050505050505050565b6000670de0b6b3a7640000600b54611330846121c0565b610e429190612afa565b6000670de0b6b3a7640000600b546011546113559190612afa565b61135f9190612b19565b905090565b6001546001600160a01b0316331461138e5760405162461bcd60e51b81526004016107c790612982565b600d5460ff16156113b15760405162461bcd60e51b81526004016107c790612ac3565b600d54610100900460ff16156114095760405162461bcd60e51b815260206004820152601a60248201527f536565643a2073686f756c64206e6f742062652070617573656400000000000060448201526064016107c7565b600d805461ff001916610100179055565b60004260075411156114795760405162461bcd60e51b815260206004820152602260248201527f536565643a20646973747269627574696f6e20686176656e2774207374617274604482015261195960f21b60648201526084016107c7565b600d54640100000000900460ff16156114d45760405162461bcd60e51b815260206004820181905260248201527f536565643a206d696e696d756d2066756e64696e6720616d6f756e74206d657460448201526064016107c7565b3360009081526017602052604090206002810154806115355760405162461bcd60e51b815260206004820152601960248201527f536565643a207a65726f2066756e64696e6720616d6f756e740000000000000060448201526064016107c7565b61153e336121c0565b6010600082825461154f9190612a59565b9091555061155e905033611319565b6012600082825461156f9190612a59565b9091555050600f805490600061158483612b51565b91905055506000826002018190555080601360008282546115a59190612a71565b9091555050600a5460405163a9059cbb60e01b8152336004820152602481018390526001600160a01b039091169063a9059cbb90604401602060405180830381600087803b1580156115f657600080fd5b505af115801561160a573d6000803e3d6000fd5b505050506040513d601f19601f8201168201806040525081019061162e91906129d2565b6116935760405162461bcd60e51b815260206004820152603060248201527f536565643a2063616e6e6f742072657475726e2066756e64696e6720746f6b6560448201526f3739903a379036b9b39739b2b73232b960811b60648201526084016107c7565b60405181815233907f1a689b1a62e3bb77f9c98d8759c04f341a67deb5cc63cf53be8324b6910649509060200160405180910390a292915050565b6001546001600160a01b031633146116f85760405162461bcd60e51b81526004016107c790612982565b600d5460ff161561171b5760405162461bcd60e51b81526004016107c790612ac3565b60095460ff1615156001146117425760405162461bcd60e51b81526004016107c790612b68565b6001600160a01b03166000908152601660205260409020805460ff19169055565b6001546001600160a01b0316331461178d5760405162461bcd60e51b81526004016107c790612982565b600d5460ff16156117b05760405162461bcd60e51b81526004016107c790612ac3565b60095460ff1615156001146117d75760405162461bcd60e51b81526004016107c790612b68565b6001600160a01b03166000908152601660205260409020805460ff19166001179055565b600d54600090640100000000900460ff166118645760405162461bcd60e51b8152602060048201526024808201527f536565643a206d696e696d756d2066756e64696e6720616d6f756e74206e6f74604482015263081b595d60e21b60648201526084016107c7565b42600854108061187d5750600d54600160281b900460ff165b6118dd5760405162461bcd60e51b815260206004820152602b60248201527f536565643a2074686520646973747269627574696f6e20686173206e6f74207960448201526a195d08199a5b9a5cda195960aa1b60648201526084016107c7565b60006118e8846121f5565b90506000811161193a5760405162461bcd60e51b815260206004820152601b60248201527f536565643a20616d6f756e7420636c61696d61626c652069732030000000000060448201526064016107c7565b828110156119a15760405162461bcd60e51b815260206004820152602e60248201527f536565643a20726571756573742069732067726561746572207468616e20636c60448201526d185a5b58589b1948185b5bdd5b9d60921b60648201526084016107c7565b6000670de0b6b3a7640000600b54856119ba9190612afa565b6119c49190612b19565b6001600160a01b0386166000908152601760205260408120600101805492935086929091906119f4908490612a59565b925050819055508360116000828254611a0d9190612a59565b909155505060095460005460405163a9059cbb60e01b81526001600160a01b03918216600482015260248101849052600160481b909204169063a9059cbb90604401602060405180830381600087803b158015611a6957600080fd5b505af1158015611a7d573d6000803e3d6000fd5b505050506040513d601f19601f82011682018060405250810190611aa191906129d2565b8015611b36575060095460405163a9059cbb60e01b81526001600160a01b03878116600483015260248201879052600160481b9092049091169063a9059cbb90604401602060405180830381600087803b158015611afe57600080fd5b505af1158015611b12573d6000803e3d6000fd5b505050506040513d601f19601f82011682018060405250810190611b3691906129d2565b611b825760405162461bcd60e51b815260206004820181905260248201527f536565643a207365656420746f6b656e207472616e73666572206661696c656460448201526064016107c7565b60005460408051868152602081018490526001600160a01b03928316928816917f9bd10be98695714f5cb43cefb59ba6417808b354710acafafe05e81b26492231910160405180910390a3949350505050565b600d54600090819060ff1615611bfd5760405162461bcd60e51b81526004016107c790612ac3565b600d54610100900460ff1615611c555760405162461bcd60e51b815260206004820152601a60248201527f536565643a2073686f756c64206e6f742062652070617573656400000000000060448201526064016107c7565b600d54600160281b900460ff1615611caf5760405162461bcd60e51b815260206004820152601d60248201527f536565643a206d6178696d756d2066756e64696e67207265616368656400000060448201526064016107c7565b60095460ff161580611cd057503360009081526016602052604090205460ff165b611d1c5760405162461bcd60e51b815260206004820152601a60248201527f536565643a2073656e64657220686173206e6f2072696768747300000000000060448201526064016107c7565b4260085410158015611d3057504260075411155b611d925760405162461bcd60e51b815260206004820152602d60248201527f536565643a206f6e6c7920616c6c6f77656420647572696e672064697374726960448201526c189d5d1a5bdb881c195c9a5bd9609a1b60648201526084016107c7565b600d5462010000900460ff16611e9f57600554600454611db29190612a59565b6009546040516370a0823160e01b8152306004820152600160481b9091046001600160a01b0316906370a082319060240160206040518083038186803b158015611dfb57600080fd5b505afa158015611e0f573d6000803e3d6000fd5b505050506040513d601f19601f82011682018060405250810190611e3391906129b9565b1015611e8d5760405162461bcd60e51b815260206004820152602360248201527f536565643a2073756666696369656e74207365656473206e6f742070726f766960448201526219195960ea1b60648201526084016107c7565b600d805462ff00001916620100001790555b600654600090611eb7670de0b6b3a764000086612afa565b611ec19190612b19565b90506000670de0b6b3a7640000600b5483611edc9190612afa565b611ee69190612b19565b600954909150610100900463ffffffff16821015611f465760405162461bcd60e51b815260206004820152601f60248201527f536565643a20616d6f756e745665737465645065725365636f6e64203e20300060448201526064016107c7565b60035485601354611f579190612a59565b1115611fb85760405162461bcd60e51b815260206004820152602a60248201527f536565643a20616d6f756e74206578636565647320636f6e747261637420736160448201526906c6520686172644361760b41b60648201526084016107c7565b8460136000828254611fca9190612a59565b925050819055508160106000828254611fe39190612a71565b925050819055508060126000828254611ffc9190612a71565b90915550506002546013541061202257600d805464ff0000000019166401000000001790555b6003546013541061204757600d805465ff00000000001916600160281b17905542600e555b3360009081526017602052604090206002015461207457600f805490600061206e83612b9f565b91905055505b3360009081526017602052604081206002018054879290612096908490612a59565b9091555050600a546040516323b872dd60e01b8152336004820152306024820152604481018790526001600160a01b03909116906323b872dd90606401602060405180830381600087803b1580156120ed57600080fd5b505af1158015612101573d6000803e3d6000fd5b505050506040513d601f19601f8201168201806040525081019061212591906129d2565b6121815760405162461bcd60e51b815260206004820152602760248201527f536565643a2066756e64696e6720746f6b656e207472616e7366657246726f6d6044820152660819985a5b195960ca1b60648201526084016107c7565b60405182815233907fcf5ef2b227e797b567f0df4c49cc8b6207cfb60054eb899e5608de08e5dcb1ef9060200160405180910390a29092509050915091565b6006546001600160a01b038216600090815260176020526040812060020154909190610e4290670de0b6b3a764000090612afa565b6001600160a01b0381166000908152601760205260408120600e544210156122205750600092915050565b6000600e54426122309190612a71565b600954909150600160281b900463ffffffff16811015612254575060009392505050565b600954610100900463ffffffff168110612288578160010154612276856121c0565b6122809190612a71565b949350505050565b600954600090610100900463ffffffff166122a2866121c0565b6122ac9084612afa565b6122b69190612b19565b90508260010154816122c89190612a71565b95945050505050565b6001546001600160a01b031633146122fb5760405162461bcd60e51b81526004016107c790612982565b600d5460ff161561231e5760405162461bcd60e51b81526004016107c790612ac3565b60095460ff1615156001146123455760405162461bcd60e51b81526004016107c790612b68565b600d805466ff0000000000001916660100000000000017905560005b8151811015610d545760016016600084848151811061238257612382612b3b565b6020908102919091018101516001600160a01b03168252810191909152604001600020805460ff1916911515919091179055806123be81612b9f565b915050612361565b600d546301000000900460ff16151560011415806123ee57506001546001600160a01b031633145b61246b5760405162461bcd60e51b815260206004820152604260248201527f536565643a20636f6e74726163742073686f756c64206e6f7420626520696e6960448201527f7469616c697a6564206f722063616c6c65722073686f756c642062652061646d60648201526134b760f11b608482015260a4016107c7565b805161247e90600c9060208401906124c0565b508060405161248d9190612bba565b604051908190038120907f09f579b21815d3f81581d32e97736ccba1cc89d1918e48da28e6e206acd9686490600090a250565b8280546124cc90612a88565b90600052602060002090601f0160209004810192826124ee5760008555612534565b82601f1061250757805160ff1916838001178555612534565b82800160010185558215612534579182015b82811115612534578251825591602001919060010190612519565b50612540929150612544565b5090565b5b808211156125405760008155600101612545565b80356001600160a01b038116811461257057600080fd5b919050565b60006020828403121561258757600080fd5b61259082612559565b9392505050565b60005b838110156125b257818101518382015260200161259a565b838111156125c1576000848401525b50505050565b60208152600082518060208401526125e6816040850160208701612597565b601f01601f19169190910160400192915050565b634e487b7160e01b600052604160045260246000fd5b604051601f8201601f1916810167ffffffffffffffff81118282101715612639576126396125fa565b604052919050565b600067ffffffffffffffff82111561265b5761265b6125fa565b5060051b60200190565b600082601f83011261267657600080fd5b8135602061268b61268683612641565b612610565b82815260059290921b840181019181810190868411156126aa57600080fd5b8286015b848110156126cc576126bf81612559565b83529183019183016126ae565b509695505050505050565b600082601f8301126126e857600080fd5b813560206126f861268683612641565b82815260059290921b8401810191818101908684111561271757600080fd5b8286015b848110156126cc578035835291830191830161271b565b803563ffffffff8116811461257057600080fd5b80151581146109d157600080fd5b803561257081612746565b60008060008060008060008060008060006101608c8e03121561278157600080fd5b61278a8c612559565b9a5061279860208d01612559565b995067ffffffffffffffff8060408e013511156127b457600080fd5b6127c48e60408f01358f01612665565b99508060608e013511156127d757600080fd5b506127e88d60608e01358e016126d7565b975060808c0135965060a08c0135955060c08c0135945061280b60e08d01612732565b935061281a6101008d01612732565b92506128296101208d01612754565b91506101408c013590509295989b509295989b9093969950565b6000806000806080858703121561285957600080fd5b5050823594602084013594506040840135936060013592509050565b6000806040838503121561288857600080fd5b61289183612559565b946020939093013593505050565b6000602082840312156128b157600080fd5b5035919050565b6000602082840312156128ca57600080fd5b813567ffffffffffffffff8111156128e157600080fd5b61228084828501612665565b6000602080838503121561290057600080fd5b823567ffffffffffffffff8082111561291857600080fd5b818501915085601f83011261292c57600080fd5b81358181111561293e5761293e6125fa565b612950601f8201601f19168501612610565b9150808252868482850101111561296657600080fd5b8084840185840137600090820190930192909252509392505050565b6020808252601c908201527f536565643a2063616c6c65722073686f756c642062652061646d696e00000000604082015260600190565b6000602082840312156129cb57600080fd5b5051919050565b6000602082840312156129e457600080fd5b815161259081612746565b60208082526034908201527f536565643a2073686f756c64207472616e73666572207365656420746f6b656e60408201527339903a37903932b33ab732103932b1b2b4bb32b960611b606082015260800190565b634e487b7160e01b600052601160045260246000fd5b60008219821115612a6c57612a6c612a43565b500190565b600082821015612a8357612a83612a43565b500390565b600181811c90821680612a9c57607f821691505b60208210811415612abd57634e487b7160e01b600052602260045260246000fd5b50919050565b6020808252601a908201527f536565643a2073686f756c64206e6f7420626520636c6f736564000000000000604082015260600190565b6000816000190483118215151615612b1457612b14612a43565b500290565b600082612b3657634e487b7160e01b600052601260045260246000fd5b500490565b634e487b7160e01b600052603260045260246000fd5b600081612b6057612b60612a43565b506000190190565b6020808252601d908201527f536565643a2073656564206973206e6f742077686974656c6973746564000000604082015260600190565b6000600019821415612bb357612bb3612a43565b5060010190565b60008251612bcc818460208701612597565b919091019291505056fea26469706673582212206257458d859c26ee876fd6fb76ef6994f0f5370c9ffae16defdeea1232454a7d64736f6c63430008090033",
  "linkReferences": {},
  "deployedLinkReferences": {}
}