{
  "_format": "hh-sol-artifact-1",
  "contractName": "Seed",
  "sourceName": "contracts/seed/Seed.sol",
  "abi": [
    {
      "anonymous": false,
      "inputs": [
        {
          "indexed": true,
          "internalType": "address",
          "name": "recipient",
          "type": "address"
        },
        {
          "indexed": false,
          "internalType": "uint256",
          "name": "amountReclaimed",
          "type": "uint256"
        }
      ],
      "name": "FundingReclaimed",
      "type": "event"
    },
    {
      "anonymous": false,
      "inputs": [
        {
          "indexed": true,
          "internalType": "bytes",
          "name": "metadata",
          "type": "bytes"
        }
      ],
      "name": "MetadataUpdated",
      "type": "event"
    },
    {
      "anonymous": false,
      "inputs": [
        {
          "indexed": true,
          "internalType": "address",
          "name": "recipient",
          "type": "address"
        },
        {
          "indexed": false,
          "internalType": "uint256",
          "name": "amountPurchased",
          "type": "uint256"
        }
      ],
      "name": "SeedsPurchased",
      "type": "event"
    },
    {
      "anonymous": false,
      "inputs": [
        {
          "indexed": true,
          "internalType": "address",
          "name": "recipient",
          "type": "address"
        },
        {
          "indexed": false,
          "internalType": "uint256",
          "name": "amount",
          "type": "uint256"
        },
        {
          "indexed": true,
          "internalType": "address",
          "name": "beneficiary",
          "type": "address"
        },
        {
          "indexed": false,
          "internalType": "uint256",
          "name": "feeAmount",
          "type": "uint256"
        }
      ],
      "name": "TokensClaimed",
      "type": "event"
    },
    {
      "inputs": [
        {
          "internalType": "uint256",
          "name": "_cap",
          "type": "uint256"
        },
        {
          "internalType": "uint256",
          "name": "_personalCap",
          "type": "uint256"
        },
        {
          "internalType": "uint256",
          "name": "_price",
          "type": "uint256"
        },
        {
          "internalType": "uint256",
          "name": "_vestingDuration",
          "type": "uint256"
        }
      ],
      "name": "addClass",
      "outputs": [],
      "stateMutability": "nonpayable",
      "type": "function"
    },
    {
      "inputs": [
        {
          "internalType": "uint256[]",
          "name": "_caps",
          "type": "uint256[]"
        },
        {
          "internalType": "uint256[]",
          "name": "_personalCaps",
          "type": "uint256[]"
        },
        {
          "internalType": "uint256[]",
          "name": "_prices",
          "type": "uint256[]"
        },
        {
          "internalType": "uint256[]",
          "name": "_vestingDurations",
          "type": "uint256[]"
        }
      ],
      "name": "addClassBatch",
      "outputs": [],
      "stateMutability": "nonpayable",
      "type": "function"
    },
    {
      "inputs": [],
      "name": "admin",
      "outputs": [
        {
          "internalType": "address",
          "name": "",
          "type": "address"
        }
      ],
      "stateMutability": "view",
      "type": "function"
    },
    {
      "inputs": [],
      "name": "beneficiary",
      "outputs": [
        {
          "internalType": "address",
          "name": "",
          "type": "address"
        }
      ],
      "stateMutability": "view",
      "type": "function"
    },
    {
      "inputs": [
        {
          "internalType": "uint256",
          "name": "_fundingAmount",
          "type": "uint256"
        }
      ],
      "name": "buy",
      "outputs": [
        {
          "internalType": "uint256",
          "name": "",
          "type": "uint256"
        },
        {
          "internalType": "uint256",
          "name": "",
          "type": "uint256"
        }
      ],
      "stateMutability": "nonpayable",
      "type": "function"
    },
    {
      "inputs": [
        {
          "internalType": "address",
          "name": "_funder",
          "type": "address"
        }
      ],
      "name": "calculateClaim",
      "outputs": [
        {
          "internalType": "uint256",
          "name": "",
          "type": "uint256"
        }
      ],
      "stateMutability": "view",
      "type": "function"
    },
    {
      "inputs": [
        {
          "internalType": "address",
          "name": "_funder",
          "type": "address"
        },
        {
          "internalType": "uint256",
          "name": "_claimAmount",
          "type": "uint256"
        }
      ],
      "name": "claim",
      "outputs": [
        {
          "internalType": "uint256",
          "name": "",
          "type": "uint256"
        }
      ],
      "stateMutability": "nonpayable",
      "type": "function"
    },
    {
      "inputs": [],
      "name": "close",
      "outputs": [],
      "stateMutability": "nonpayable",
      "type": "function"
    },
    {
      "inputs": [],
      "name": "closed",
      "outputs": [
        {
          "internalType": "bool",
          "name": "",
          "type": "bool"
        }
      ],
      "stateMutability": "view",
      "type": "function"
    },
    {
      "inputs": [],
      "name": "endTime",
      "outputs": [
        {
          "internalType": "uint256",
          "name": "",
          "type": "uint256"
        }
      ],
      "stateMutability": "view",
      "type": "function"
    },
    {
      "inputs": [],
      "name": "fee",
      "outputs": [
        {
          "internalType": "uint256",
          "name": "",
          "type": "uint256"
        }
      ],
      "stateMutability": "view",
      "type": "function"
    },
    {
      "inputs": [],
      "name": "feeAmountRequired",
      "outputs": [
        {
          "internalType": "uint256",
          "name": "",
          "type": "uint256"
        }
      ],
      "stateMutability": "view",
      "type": "function"
    },
    {
      "inputs": [],
      "name": "feeClaimed",
      "outputs": [
        {
          "internalType": "uint256",
          "name": "",
          "type": "uint256"
        }
      ],
      "stateMutability": "view",
      "type": "function"
    },
    {
      "inputs": [
        {
          "internalType": "address",
          "name": "_funder",
          "type": "address"
        }
      ],
      "name": "feeClaimedForFunder",
      "outputs": [
        {
          "internalType": "uint256",
          "name": "",
          "type": "uint256"
        }
      ],
      "stateMutability": "view",
      "type": "function"
    },
    {
      "inputs": [
        {
          "internalType": "address",
          "name": "_funder",
          "type": "address"
        }
      ],
      "name": "feeForFunder",
      "outputs": [
        {
          "internalType": "uint256",
          "name": "",
          "type": "uint256"
        }
      ],
      "stateMutability": "view",
      "type": "function"
    },
    {
      "inputs": [],
      "name": "feeRemainder",
      "outputs": [
        {
          "internalType": "uint256",
          "name": "",
          "type": "uint256"
        }
      ],
      "stateMutability": "view",
      "type": "function"
    },
    {
      "inputs": [
        {
          "internalType": "address",
          "name": "",
          "type": "address"
        }
      ],
      "name": "funders",
      "outputs": [
        {
          "internalType": "uint8",
          "name": "class",
          "type": "uint8"
        },
        {
          "internalType": "uint256",
          "name": "totalClaimed",
          "type": "uint256"
        },
        {
          "internalType": "uint256",
          "name": "fundingAmount",
          "type": "uint256"
        }
      ],
      "stateMutability": "view",
      "type": "function"
    },
    {
      "inputs": [],
      "name": "fundingCollected",
      "outputs": [
        {
          "internalType": "uint256",
          "name": "",
          "type": "uint256"
        }
      ],
      "stateMutability": "view",
      "type": "function"
    },
    {
      "inputs": [],
      "name": "fundingToken",
      "outputs": [
        {
          "internalType": "contract IERC20",
          "name": "",
          "type": "address"
        }
      ],
      "stateMutability": "view",
      "type": "function"
    },
    {
      "inputs": [],
      "name": "fundingWithdrawn",
      "outputs": [
        {
          "internalType": "uint256",
          "name": "",
          "type": "uint256"
        }
      ],
      "stateMutability": "view",
      "type": "function"
    },
    {
      "inputs": [
        {
          "internalType": "uint8",
          "name": "_id",
          "type": "uint8"
        }
      ],
      "name": "getClass",
      "outputs": [
        {
          "internalType": "uint256",
          "name": "",
          "type": "uint256"
        },
        {
          "internalType": "uint256",
          "name": "",
          "type": "uint256"
        },
        {
          "internalType": "uint256",
          "name": "",
          "type": "uint256"
        },
        {
          "internalType": "uint256",
          "name": "",
          "type": "uint256"
        },
        {
          "internalType": "uint256",
          "name": "",
          "type": "uint256"
        }
      ],
      "stateMutability": "view",
      "type": "function"
    },
    {
      "inputs": [],
      "name": "hardCap",
      "outputs": [
        {
          "internalType": "uint256",
          "name": "",
          "type": "uint256"
        }
      ],
      "stateMutability": "view",
      "type": "function"
    },
    {
      "inputs": [
        {
          "internalType": "address",
          "name": "_beneficiary",
          "type": "address"
        },
        {
          "internalType": "address",
          "name": "_admin",
          "type": "address"
        },
        {
          "internalType": "address[]",
          "name": "_tokens",
          "type": "address[]"
        },
        {
          "internalType": "uint256[]",
          "name": "_softHardThresholds",
          "type": "uint256[]"
        },
        {
          "internalType": "uint256",
          "name": "_price",
          "type": "uint256"
        },
        {
          "internalType": "uint256",
          "name": "_startTime",
          "type": "uint256"
        },
        {
          "internalType": "uint256",
          "name": "_endTime",
          "type": "uint256"
        },
        {
          "internalType": "uint32",
          "name": "_vestingDuration",
          "type": "uint32"
        },
        {
          "internalType": "uint32",
          "name": "_vestingCliff",
          "type": "uint32"
        },
        {
          "internalType": "bool",
          "name": "_permissionedSeed",
          "type": "bool"
        },
        {
          "internalType": "uint256",
          "name": "_fee",
          "type": "uint256"
        }
      ],
      "name": "initialize",
      "outputs": [],
      "stateMutability": "nonpayable",
      "type": "function"
    },
    {
      "inputs": [],
      "name": "initialized",
      "outputs": [
        {
          "internalType": "bool",
          "name": "",
          "type": "bool"
        }
      ],
      "stateMutability": "view",
      "type": "function"
    },
    {
      "inputs": [],
      "name": "isFunded",
      "outputs": [
        {
          "internalType": "bool",
          "name": "",
          "type": "bool"
        }
      ],
      "stateMutability": "view",
      "type": "function"
    },
    {
      "inputs": [],
      "name": "isWhitelistBatchInvoked",
      "outputs": [
        {
          "internalType": "bool",
          "name": "",
          "type": "bool"
        }
      ],
      "stateMutability": "view",
      "type": "function"
    },
    {
      "inputs": [],
      "name": "maximumReached",
      "outputs": [
        {
          "internalType": "bool",
          "name": "",
          "type": "bool"
        }
      ],
      "stateMutability": "view",
      "type": "function"
    },
    {
      "inputs": [],
      "name": "metadata",
      "outputs": [
        {
          "internalType": "bytes",
          "name": "",
          "type": "bytes"
        }
      ],
      "stateMutability": "view",
      "type": "function"
    },
    {
      "inputs": [],
      "name": "minimumReached",
      "outputs": [
        {
          "internalType": "bool",
          "name": "",
          "type": "bool"
        }
      ],
      "stateMutability": "view",
      "type": "function"
    },
    {
      "inputs": [],
      "name": "pause",
      "outputs": [],
      "stateMutability": "nonpayable",
      "type": "function"
    },
    {
      "inputs": [],
      "name": "paused",
      "outputs": [
        {
          "internalType": "bool",
          "name": "",
          "type": "bool"
        }
      ],
      "stateMutability": "view",
      "type": "function"
    },
    {
      "inputs": [],
      "name": "permissionedSeed",
      "outputs": [
        {
          "internalType": "bool",
          "name": "",
          "type": "bool"
        }
      ],
      "stateMutability": "view",
      "type": "function"
    },
    {
      "inputs": [],
      "name": "price",
      "outputs": [
        {
          "internalType": "uint256",
          "name": "",
          "type": "uint256"
        }
      ],
      "stateMutability": "view",
      "type": "function"
    },
    {
      "inputs": [],
      "name": "retrieveFundingTokens",
      "outputs": [
        {
          "internalType": "uint256",
          "name": "",
          "type": "uint256"
        }
      ],
      "stateMutability": "nonpayable",
      "type": "function"
    },
    {
      "inputs": [
        {
          "internalType": "address",
          "name": "_refundReceiver",
          "type": "address"
        }
      ],
      "name": "retrieveSeedTokens",
      "outputs": [],
      "stateMutability": "nonpayable",
      "type": "function"
    },
    {
      "inputs": [
        {
          "internalType": "address",
          "name": "_funder",
          "type": "address"
        }
      ],
      "name": "seedAmountForFunder",
      "outputs": [
        {
          "internalType": "uint256",
          "name": "",
          "type": "uint256"
        }
      ],
      "stateMutability": "view",
      "type": "function"
    },
    {
      "inputs": [],
      "name": "seedAmountRequired",
      "outputs": [
        {
          "internalType": "uint256",
          "name": "",
          "type": "uint256"
        }
      ],
      "stateMutability": "view",
      "type": "function"
    },
    {
      "inputs": [],
      "name": "seedClaimed",
      "outputs": [
        {
          "internalType": "uint256",
          "name": "",
          "type": "uint256"
        }
      ],
      "stateMutability": "view",
      "type": "function"
    },
    {
      "inputs": [],
      "name": "seedRemainder",
      "outputs": [
        {
          "internalType": "uint256",
          "name": "",
          "type": "uint256"
        }
      ],
      "stateMutability": "view",
      "type": "function"
    },
    {
      "inputs": [],
      "name": "seedToken",
      "outputs": [
        {
          "internalType": "contract IERC20",
          "name": "",
          "type": "address"
        }
      ],
      "stateMutability": "view",
      "type": "function"
    },
    {
      "inputs": [],
      "name": "softCap",
      "outputs": [
        {
          "internalType": "uint256",
          "name": "",
          "type": "uint256"
        }
      ],
      "stateMutability": "view",
      "type": "function"
    },
    {
      "inputs": [],
      "name": "startTime",
      "outputs": [
        {
          "internalType": "uint256",
          "name": "",
          "type": "uint256"
        }
      ],
      "stateMutability": "view",
      "type": "function"
    },
    {
      "inputs": [],
      "name": "totalFunderCount",
      "outputs": [
        {
          "internalType": "uint256",
          "name": "",
          "type": "uint256"
        }
      ],
      "stateMutability": "view",
      "type": "function"
    },
    {
      "inputs": [],
      "name": "unpause",
      "outputs": [],
      "stateMutability": "nonpayable",
      "type": "function"
    },
    {
      "inputs": [
        {
          "internalType": "address",
          "name": "buyer",
          "type": "address"
        }
      ],
      "name": "unwhitelist",
      "outputs": [],
      "stateMutability": "nonpayable",
      "type": "function"
    },
    {
      "inputs": [
        {
          "internalType": "bytes",
          "name": "_metadata",
          "type": "bytes"
        }
      ],
      "name": "updateMetadata",
      "outputs": [],
      "stateMutability": "nonpayable",
      "type": "function"
    },
    {
      "inputs": [],
      "name": "vestingCliff",
      "outputs": [
        {
          "internalType": "uint32",
          "name": "",
          "type": "uint32"
        }
      ],
      "stateMutability": "view",
      "type": "function"
    },
    {
      "inputs": [],
      "name": "vestingDuration",
      "outputs": [
        {
          "internalType": "uint32",
          "name": "",
          "type": "uint32"
        }
      ],
      "stateMutability": "view",
      "type": "function"
    },
    {
      "inputs": [],
      "name": "vestingStartTime",
      "outputs": [
        {
          "internalType": "uint256",
          "name": "",
          "type": "uint256"
        }
      ],
      "stateMutability": "view",
      "type": "function"
    },
    {
      "inputs": [
        {
          "internalType": "address",
          "name": "_buyer",
          "type": "address"
        }
      ],
      "name": "whitelist",
      "outputs": [],
      "stateMutability": "nonpayable",
      "type": "function"
    },
    {
      "inputs": [
        {
          "internalType": "address[]",
          "name": "_buyers",
          "type": "address[]"
        }
      ],
      "name": "whitelistBatch",
      "outputs": [],
      "stateMutability": "nonpayable",
      "type": "function"
    },
    {
      "inputs": [
        {
          "internalType": "address",
          "name": "",
          "type": "address"
        }
      ],
      "name": "whitelisted",
      "outputs": [
        {
          "internalType": "bool",
          "name": "",
          "type": "bool"
        }
      ],
      "stateMutability": "view",
      "type": "function"
    },
    {
      "inputs": [],
      "name": "withdraw",
      "outputs": [],
      "stateMutability": "nonpayable",
      "type": "function"
    }
  ],
  "bytecode": "0x608060405234801561001057600080fd5b50613046806100206000396000f3fe608060405234801561001057600080fd5b50600436106103275760003560e01c80637c654303116101b8578063bc0f5f8411610104578063e6e36ebb116100a2578063f3640e741161007c578063f3640e74146106e5578063f851a440146106fc578063fb86a4041461070f578063fc582d411461071857600080fd5b8063e6e36ebb146106b6578063ea345540146106bf578063eaa53523146106d257600080fd5b8063dc4b9e38116100de578063dc4b9e381461066e578063ddca3f4314610681578063e5087c601461068a578063e565eb4c146106a157600080fd5b8063bc0f5f841461061a578063d936547e14610623578063d96a094a1461064657600080fd5b8063906a26e011610171578063a035b1fe1161014b578063a035b1fe146105ec578063a8660a78146105f5578063aad3ec96146105fe578063b774682f1461061157600080fd5b8063906a26e0146105bd5780639a590427146105c65780639b19251a146105d957600080fd5b80637c654303146105435780637eb71b0d1461055657806383d59e00146105695780638456cb59146105725780638a2448aa1461057a5780638bb5ad961461058257600080fd5b80633dba9e4111610277578063597e1fb5116102305780635e9777e81161020a5780635e9777e81461051657806371f4b8e81461051f57806378065f271461052757806378e979251461053a57600080fd5b8063597e1fb5146104e45780635c975abb146104f15780635d85ac0d1461050357600080fd5b80633dba9e41146104985780633f4ba83a146104a5578063430e99a4146104ad57806343d726d6146104c057806344f9abb8146104c857806347d02f1b146104db57600080fd5b80631cfe562e116102e4578063351998cb116102be578063351998cb1461045557806338af3eed14610468578063392f37e91461047b5780633ccfd60b1461049057600080fd5b80631cfe562e14610411578063311f84831461041a5780633197cbb61461044c57600080fd5b8063031b36771461032c57806303aabe31146103835780630826d2c714610398578063117a36d1146103af5780631514617e146103d3578063158ef93e146103fd575b600080fd5b61035f61033a3660046128bf565b60176020526000908152604090208054600182015460029092015460ff909116919083565b6040805160ff90941684526020840192909252908201526060015b60405180910390f35b6103966103913660046128bf565b61072b565b005b6103a160105481565b60405190815260200161037a565b600d546103c390600160281b900460ff1681565b604051901515815260200161037a565b6009546103e890610100900463ffffffff1681565b60405163ffffffff909116815260200161037a565b600d546103c3906301000000900460ff1681565b6103a160135481565b60095461043490600160481b90046001600160a01b031681565b6040516001600160a01b03909116815260200161037a565b6103a160085481565b6103966104633660046129b7565b610ad2565b600054610434906001600160a01b031681565b610483610c86565b60405161037a9190612a94565b610396610d14565b6009546103c39060ff1681565b610396610e9a565b6103a16104bb3660046128bf565b610f4f565b610396610f94565b6103966104d6366004612b56565b610ff1565b6103a160115481565b600d546103c39060ff1681565b600d546103c390610100900460ff1681565b6103a16105113660046128bf565b61145b565b6103a1600f5481565b6103a161147c565b600a54610434906001600160a01b031681565b6103a160075481565b600d546103c39062010000900460ff1681565b610396610564366004612c3a565b6114a6565b6103a160145481565b6103966115cb565b6103a1611681565b610595610590366004612c6c565b611935565b604080519586526020860194909452928401919091526060830152608082015260a00161037a565b6103a160025481565b6103966105d43660046128bf565b611a18565b6103966105e73660046128bf565b611aad565b6103a160065481565b6103a1600e5481565b6103a161060c366004612c8f565b611b45565b6103a160125481565b6103a160045481565b6103c36106313660046128bf565b60166020526000908152604090205460ff1681565b610659610654366004612cb9565b611f1f565b6040805192835260208301919091520161037a565b6103a161067c3660046128bf565b61250a565b6103a1600b5481565b600d546103c3906601000000000000900460ff1681565b600d546103c390640100000000900460ff1681565b6103a160055481565b6103a16106cd3660046128bf565b61253f565b6103966106e0366004612cd2565b61261b565b6009546103e890600160281b900463ffffffff1681565b600154610434906001600160a01b031681565b6103a160035481565b610396610726366004612d07565b612710565b6001546001600160a01b0316331461075e5760405162461bcd60e51b815260040161075590612d9c565b60405180910390fd5b600d5460ff16806107785750600d54600160281b900460ff165b8061078557506008544210155b6108285760405162461bcd60e51b815260206004820152606260248201527f536565643a20546865206162696c69747920746f20627579207365656420746f60448201527f6b656e73206d757374206861766520656e646564206265666f72652072656d6160648201527f696e696e67207365656420746f6b656e732063616e20626520776974686472616084820152613bb760f11b60a482015260c401610755565b600d54640100000000900460ff16610962576009546040516370a0823160e01b8152306004820152600160481b9091046001600160a01b03169063a9059cbb90839083906370a082319060240160206040518083038186803b15801561088d57600080fd5b505afa1580156108a1573d6000803e3d6000fd5b505050506040513d601f19601f820116820180604052508101906108c59190612dd3565b6040516001600160e01b031960e085901b1681526001600160a01b0390921660048301526024820152604401602060405180830381600087803b15801561090b57600080fd5b505af115801561091f573d6000803e3d6000fd5b505050506040513d601f19601f820116820180604052508101906109439190612dec565b61095f5760405162461bcd60e51b815260040161075590612e09565b50565b60006012546010546109749190612e73565b6005546004546109849190612e73565b61098e9190612e8b565b6009546040516370a0823160e01b81523060048201529192506000918391600160481b90046001600160a01b0316906370a082319060240160206040518083038186803b1580156109de57600080fd5b505afa1580156109f2573d6000803e3d6000fd5b505050506040513d601f19601f82011682018060405250810190610a169190612dd3565b610a209190612e8b565b60095460405163a9059cbb60e01b81526001600160a01b03868116600483015260248201849052929350600160481b9091049091169063a9059cbb90604401602060405180830381600087803b158015610a7957600080fd5b505af1158015610a8d573d6000803e3d6000fd5b505050506040513d601f19601f82011682018060405250810190610ab19190612dec565b610acd5760405162461bcd60e51b815260040161075590612e09565b505050565b6001546001600160a01b03163314610afc5760405162461bcd60e51b815260040161075590612d9c565b82518451148015610b0e575081518451145b8015610b1b575080518451145b610b7d5760405162461bcd60e51b815260206004820152602d60248201527f536565643a20416c6c2070726f7669646564206172726179732073686f756c6460448201526c2062652073616d652073697a6560981b6064820152608401610755565b60005b84518160ff161015610c7f5760156040518060a00160405280878460ff1681518110610bae57610bae612ea2565b60200260200101518152602001868460ff1681518110610bd057610bd0612ea2565b60200260200101518152602001858460ff1681518110610bf257610bf2612ea2565b60200260200101518152602001848460ff1681518110610c1457610c14612ea2565b602090810291909101810151825260009181018290528354600181810186559483529181902083516005909302019182558201519281019290925560408101516002830155606081015160038301556080015160049091015580610c7781612eb8565b915050610b80565b5050505050565b600c8054610c9390612ed8565b80601f0160208091040260200160405190810160405280929190818152602001828054610cbf90612ed8565b8015610d0c5780601f10610ce157610100808354040283529160200191610d0c565b820191906000526020600020905b815481529060010190602001808311610cef57829003601f168201915b505050505081565b6001546001600160a01b03163314610d3e5760405162461bcd60e51b815260040161075590612d9c565b600d54600160281b900460ff1680610d6d5750600d54640100000000900460ff168015610d6d57506008544210155b610df95760405162461bcd60e51b815260206004820152605160248201527f536565643a2063616e6e6f74207769746864726177207768696c652066756e6460448201527f696e6720746f6b656e732063616e207374696c6c2062652077697468647261776064820152706e20627920636f6e7472696275746f727360781b608482015260a401610755565b6000601454601354610e0b9190612e8b565b601354601455600a5460405163a9059cbb60e01b8152336004820152602481018390529192506001600160a01b03169063a9059cbb90604401602060405180830381600087803b158015610e5e57600080fd5b505af1158015610e72573d6000803e3d6000fd5b505050506040513d601f19601f82011682018060405250810190610e969190612dec565b5050565b6001546001600160a01b03163314610ec45760405162461bcd60e51b815260040161075590612d9c565b600d5460ff16151560011415610eec5760405162461bcd60e51b815260040161075590612f13565b600d5460ff610100909104161515600114610f425760405162461bcd60e51b815260206004820152601660248201527514d959590e881cda1bdd5b19081899481c185d5cd95960521b6044820152606401610755565b600d805461ff0019169055565b600b546001600160a01b0382166000908152601760205260408120600101549091670de0b6b3a764000091610f849190612f4a565b610f8e9190612f69565b92915050565b6001546001600160a01b03163314610fbe5760405162461bcd60e51b815260040161075590612d9c565b600d5460ff1615610fe15760405162461bcd60e51b815260040161075590612f13565b600d805461ffff19166001179055565b600d546301000000900460ff16156110565760405162461bcd60e51b815260206004820152602260248201527f536565643a20636f6e747261637420616c726561647920696e697469616c697a604482015261195960f21b6064820152608401610755565b600d805463ff0000001916630100000017905588518990600190811061107e5761107e612ea2565b60200260200101516001600160a01b0316896000815181106110a2576110a2612ea2565b60200260200101516001600160a01b031614156111175760405162461bcd60e51b815260206004820152602d60248201527f53656564466163746f72793a2073656564546f6b656e2063616e6e6f7420626560448201526c10333ab73234b733aa37b5b2b760991b6064820152608401610755565b8760008151811061112a5761112a612ea2565b60200260200101518860018151811061114557611145612ea2565b602002602001015110156111b45760405162461bcd60e51b815260206004820152603060248201527f53656564466163746f72793a20686172644361702063616e6e6f74206265206c60448201526f0657373207468616e20736f66744361760841b6064820152608401610755565b8263ffffffff168463ffffffff1610156112365760405162461bcd60e51b815260206004820152603d60248201527f53656564466163746f72793a2076657374696e674475726174696f6e2063616e60448201527f6e6f74206265206c657373207468616e2076657374696e67436c6966660000006064820152608401610755565b8585116112ab5760405162461bcd60e51b815260206004820152603b60248201527f53656564466163746f72793a20656e6454696d652063616e6e6f74206265206c60448201527f657373207468616e20657175616c20746f20737461727454696d6500000000006064820152608401610755565b600080546001600160a01b03808e166001600160a01b031992831617835560018054918e169190921617905588518991906112e8576112e8612ea2565b60200260200101516002819055508760018151811061130957611309612ea2565b6020908102919091010151600355600687905560078690556008859055600e8590556009805468ffffffffffffffff00191661010063ffffffff8781169190910268ffffffff0000000000191691909117600160281b918616919091021760ff19168315151790558851899060009061138457611384612ea2565b60200260200101516009806101000a8154816001600160a01b0302191690836001600160a01b03160217905550886001815181106113c4576113c4612ea2565b6020026020010151600a60006101000a8154816001600160a01b0302191690836001600160a01b0316021790555080600b8190555086670de0b6b3a76400006003546114109190612f4a565b61141a9190612f69565b6004819055600b54670de0b6b3a7640000916114369190612f4a565b6114409190612f69565b60058190556004546010556012555050505050505050505050565b6000670de0b6b3a7640000600b546114728461250a565b610f849190612f4a565b6000670de0b6b3a7640000600b546011546114979190612f4a565b6114a19190612f69565b905090565b6001546001600160a01b031633146114d05760405162461bcd60e51b815260040161075590612d9c565b6040805160a0810182529485526020850193845284019182526060840190815260006080850181815260158054600181018255925294517f55f448fdea98c4d29eb340757ef0a66cd03dbb9538908a6a81d96026b71ec47560059092029182015592517f55f448fdea98c4d29eb340757ef0a66cd03dbb9538908a6a81d96026b71ec47684015590517f55f448fdea98c4d29eb340757ef0a66cd03dbb9538908a6a81d96026b71ec477830155517f55f448fdea98c4d29eb340757ef0a66cd03dbb9538908a6a81d96026b71ec47882015590517f55f448fdea98c4d29eb340757ef0a66cd03dbb9538908a6a81d96026b71ec47990910155565b6001546001600160a01b031633146115f55760405162461bcd60e51b815260040161075590612d9c565b600d5460ff16156116185760405162461bcd60e51b815260040161075590612f13565b600d54610100900460ff16156116705760405162461bcd60e51b815260206004820152601a60248201527f536565643a2073686f756c64206e6f74206265207061757365640000000000006044820152606401610755565b600d805461ff001916610100179055565b60004260075411156116e05760405162461bcd60e51b815260206004820152602260248201527f536565643a20646973747269627574696f6e20686176656e2774207374617274604482015261195960f21b6064820152608401610755565b600d54640100000000900460ff161561173b5760405162461bcd60e51b815260206004820181905260248201527f536565643a206d696e696d756d2066756e64696e6720616d6f756e74206d65746044820152606401610755565b33600090815260176020526040902060028101548061179c5760405162461bcd60e51b815260206004820152601960248201527f536565643a207a65726f2066756e64696e6720616d6f756e74000000000000006044820152606401610755565b6117a53361250a565b601060008282546117b69190612e73565b909155506117c590503361145b565b601260008282546117d69190612e73565b9091555050600f80549060006117eb83612f8b565b919050555060008260020181905550806013600082825461180c9190612e8b565b9091555050600a5460405163a9059cbb60e01b8152336004820152602481018390526001600160a01b039091169063a9059cbb90604401602060405180830381600087803b15801561185d57600080fd5b505af1158015611871573d6000803e3d6000fd5b505050506040513d601f19601f820116820180604052508101906118959190612dec565b6118fa5760405162461bcd60e51b815260206004820152603060248201527f536565643a2063616e6e6f742072657475726e2066756e64696e6720746f6b6560448201526f3739903a379036b9b39739b2b73232b960811b6064820152608401610755565b60405181815233907f1a689b1a62e3bb77f9c98d8759c04f341a67deb5cc63cf53be8324b6910649509060200160405180910390a292915050565b600080600080600060158660ff168154811061195357611953612ea2565b90600052602060002090600502016000015460158760ff168154811061197b5761197b612ea2565b90600052602060002090600502016001015460158860ff16815481106119a3576119a3612ea2565b90600052602060002090600502016002015460158960ff16815481106119cb576119cb612ea2565b90600052602060002090600502016003015460158a60ff16815481106119f3576119f3612ea2565b9060005260206000209060050201600401549450945094509450945091939590929450565b6001546001600160a01b03163314611a425760405162461bcd60e51b815260040161075590612d9c565b600d5460ff1615611a655760405162461bcd60e51b815260040161075590612f13565b60095460ff161515600114611a8c5760405162461bcd60e51b815260040161075590612fa2565b6001600160a01b03166000908152601660205260409020805460ff19169055565b6001546001600160a01b03163314611ad75760405162461bcd60e51b815260040161075590612d9c565b600d5460ff1615611afa5760405162461bcd60e51b815260040161075590612f13565b60095460ff161515600114611b215760405162461bcd60e51b815260040161075590612fa2565b6001600160a01b03166000908152601660205260409020805460ff19166001179055565b600d54600090640100000000900460ff16611bae5760405162461bcd60e51b8152602060048201526024808201527f536565643a206d696e696d756d2066756e64696e6720616d6f756e74206e6f74604482015263081b595d60e21b6064820152608401610755565b426008541080611bc75750600d54600160281b900460ff165b611c275760405162461bcd60e51b815260206004820152602b60248201527f536565643a2074686520646973747269627574696f6e20686173206e6f74207960448201526a195d08199a5b9a5cda195960aa1b6064820152608401610755565b6000611c328461253f565b905060008111611c845760405162461bcd60e51b815260206004820152601b60248201527f536565643a20616d6f756e7420636c61696d61626c65206973203000000000006044820152606401610755565b82811015611ceb5760405162461bcd60e51b815260206004820152602e60248201527f536565643a20726571756573742069732067726561746572207468616e20636c60448201526d185a5b58589b1948185b5bdd5b9d60921b6064820152608401610755565b6000670de0b6b3a7640000600b5485611d049190612f4a565b611d0e9190612f69565b6001600160a01b038616600090815260176020526040812060010180549293508692909190611d3e908490612e73565b925050819055508360116000828254611d579190612e73565b909155505060095460005460405163a9059cbb60e01b81526001600160a01b03918216600482015260248101849052600160481b909204169063a9059cbb90604401602060405180830381600087803b158015611db357600080fd5b505af1158015611dc7573d6000803e3d6000fd5b505050506040513d601f19601f82011682018060405250810190611deb9190612dec565b8015611e80575060095460405163a9059cbb60e01b81526001600160a01b03878116600483015260248201879052600160481b9092049091169063a9059cbb90604401602060405180830381600087803b158015611e4857600080fd5b505af1158015611e5c573d6000803e3d6000fd5b505050506040513d601f19601f82011682018060405250810190611e809190612dec565b611ecc5760405162461bcd60e51b815260206004820181905260248201527f536565643a207365656420746f6b656e207472616e73666572206661696c65646044820152606401610755565b60005460408051868152602081018490526001600160a01b03928316928816917f9bd10be98695714f5cb43cefb59ba6417808b354710acafafe05e81b26492231910160405180910390a3949350505050565b600d54600090819060ff1615611f475760405162461bcd60e51b815260040161075590612f13565b600d54610100900460ff1615611f9f5760405162461bcd60e51b815260206004820152601a60248201527f536565643a2073686f756c64206e6f74206265207061757365640000000000006044820152606401610755565b600d54600160281b900460ff1615611ff95760405162461bcd60e51b815260206004820152601d60248201527f536565643a206d6178696d756d2066756e64696e6720726561636865640000006044820152606401610755565b60095460ff16158061201a57503360009081526016602052604090205460ff165b6120665760405162461bcd60e51b815260206004820152601a60248201527f536565643a2073656e64657220686173206e6f207269676874730000000000006044820152606401610755565b426008541015801561207a57504260075411155b6120dc5760405162461bcd60e51b815260206004820152602d60248201527f536565643a206f6e6c7920616c6c6f77656420647572696e672064697374726960448201526c189d5d1a5bdb881c195c9a5bd9609a1b6064820152608401610755565b600d5462010000900460ff166121e9576005546004546120fc9190612e73565b6009546040516370a0823160e01b8152306004820152600160481b9091046001600160a01b0316906370a082319060240160206040518083038186803b15801561214557600080fd5b505afa158015612159573d6000803e3d6000fd5b505050506040513d601f19601f8201168201806040525081019061217d9190612dd3565b10156121d75760405162461bcd60e51b815260206004820152602360248201527f536565643a2073756666696369656e74207365656473206e6f742070726f766960448201526219195960ea1b6064820152608401610755565b600d805462ff00001916620100001790555b600654600090612201670de0b6b3a764000086612f4a565b61220b9190612f69565b90506000670de0b6b3a7640000600b54836122269190612f4a565b6122309190612f69565b600954909150610100900463ffffffff168210156122905760405162461bcd60e51b815260206004820152601f60248201527f536565643a20616d6f756e745665737465645065725365636f6e64203e2030006044820152606401610755565b600354856013546122a19190612e73565b11156123025760405162461bcd60e51b815260206004820152602a60248201527f536565643a20616d6f756e74206578636565647320636f6e747261637420736160448201526906c6520686172644361760b41b6064820152608401610755565b84601360008282546123149190612e73565b92505081905550816010600082825461232d9190612e8b565b9250508190555080601260008282546123469190612e8b565b90915550506002546013541061236c57600d805464ff0000000019166401000000001790555b6003546013541061239157600d805465ff00000000001916600160281b17905542600e555b336000908152601760205260409020600201546123be57600f80549060006123b883612fd9565b91905055505b33600090815260176020526040812060020180548792906123e0908490612e73565b9091555050600a546040516323b872dd60e01b8152336004820152306024820152604481018790526001600160a01b03909116906323b872dd90606401602060405180830381600087803b15801561243757600080fd5b505af115801561244b573d6000803e3d6000fd5b505050506040513d601f19601f8201168201806040525081019061246f9190612dec565b6124cb5760405162461bcd60e51b815260206004820152602760248201527f536565643a2066756e64696e6720746f6b656e207472616e7366657246726f6d6044820152660819985a5b195960ca1b6064820152608401610755565b60405182815233907fcf5ef2b227e797b567f0df4c49cc8b6207cfb60054eb899e5608de08e5dcb1ef9060200160405180910390a29092509050915091565b6006546001600160a01b038216600090815260176020526040812060020154909190610f8490670de0b6b3a764000090612f4a565b6001600160a01b0381166000908152601760205260408120600e5442101561256a5750600092915050565b6000600e544261257a9190612e8b565b600954909150600160281b900463ffffffff1681101561259e575060009392505050565b600954610100900463ffffffff1681106125d25781600101546125c08561250a565b6125ca9190612e8b565b949350505050565b600954600090610100900463ffffffff166125ec8661250a565b6125f69084612f4a565b6126009190612f69565b90508260010154816126129190612e8b565b95945050505050565b6001546001600160a01b031633146126455760405162461bcd60e51b815260040161075590612d9c565b600d5460ff16156126685760405162461bcd60e51b815260040161075590612f13565b60095460ff16151560011461268f5760405162461bcd60e51b815260040161075590612fa2565b600d805466ff0000000000001916660100000000000017905560005b8151811015610e96576001601660008484815181106126cc576126cc612ea2565b6020908102919091018101516001600160a01b03168252810191909152604001600020805460ff19169115159190911790558061270881612fd9565b9150506126ab565b600d546301000000900460ff161515600114158061273857506001546001600160a01b031633145b6127b55760405162461bcd60e51b815260206004820152604260248201527f536565643a20636f6e74726163742073686f756c64206e6f7420626520696e6960448201527f7469616c697a6564206f722063616c6c65722073686f756c642062652061646d60648201526134b760f11b608482015260a401610755565b80516127c890600c90602084019061280a565b50806040516127d79190612ff4565b604051908190038120907f09f579b21815d3f81581d32e97736ccba1cc89d1918e48da28e6e206acd9686490600090a250565b82805461281690612ed8565b90600052602060002090601f016020900481019282612838576000855561287e565b82601f1061285157805160ff191683800117855561287e565b8280016001018555821561287e579182015b8281111561287e578251825591602001919060010190612863565b5061288a92915061288e565b5090565b5b8082111561288a576000815560010161288f565b80356001600160a01b03811681146128ba57600080fd5b919050565b6000602082840312156128d157600080fd5b6128da826128a3565b9392505050565b634e487b7160e01b600052604160045260246000fd5b604051601f8201601f1916810167ffffffffffffffff81118282101715612920576129206128e1565b604052919050565b600067ffffffffffffffff821115612942576129426128e1565b5060051b60200190565b600082601f83011261295d57600080fd5b8135602061297261296d83612928565b6128f7565b82815260059290921b8401810191818101908684111561299157600080fd5b8286015b848110156129ac5780358352918301918301612995565b509695505050505050565b600080600080608085870312156129cd57600080fd5b843567ffffffffffffffff808211156129e557600080fd5b6129f18883890161294c565b95506020870135915080821115612a0757600080fd5b612a138883890161294c565b94506040870135915080821115612a2957600080fd5b612a358883890161294c565b93506060870135915080821115612a4b57600080fd5b50612a588782880161294c565b91505092959194509250565b60005b83811015612a7f578181015183820152602001612a67565b83811115612a8e576000848401525b50505050565b6020815260008251806020840152612ab3816040850160208701612a64565b601f01601f19169190910160400192915050565b600082601f830112612ad857600080fd5b81356020612ae861296d83612928565b82815260059290921b84018101918181019086841115612b0757600080fd5b8286015b848110156129ac57612b1c816128a3565b8352918301918301612b0b565b803563ffffffff811681146128ba57600080fd5b801515811461095f57600080fd5b80356128ba81612b3d565b60008060008060008060008060008060006101608c8e031215612b7857600080fd5b612b818c6128a3565b9a50612b8f60208d016128a3565b995067ffffffffffffffff8060408e01351115612bab57600080fd5b612bbb8e60408f01358f01612ac7565b99508060608e01351115612bce57600080fd5b50612bdf8d60608e01358e0161294c565b975060808c0135965060a08c0135955060c08c01359450612c0260e08d01612b29565b9350612c116101008d01612b29565b9250612c206101208d01612b4b565b91506101408c013590509295989b509295989b9093969950565b60008060008060808587031215612c5057600080fd5b5050823594602084013594506040840135936060013592509050565b600060208284031215612c7e57600080fd5b813560ff811681146128da57600080fd5b60008060408385031215612ca257600080fd5b612cab836128a3565b946020939093013593505050565b600060208284031215612ccb57600080fd5b5035919050565b600060208284031215612ce457600080fd5b813567ffffffffffffffff811115612cfb57600080fd5b6125ca84828501612ac7565b60006020808385031215612d1a57600080fd5b823567ffffffffffffffff80821115612d3257600080fd5b818501915085601f830112612d4657600080fd5b813581811115612d5857612d586128e1565b612d6a601f8201601f191685016128f7565b91508082528684828501011115612d8057600080fd5b8084840185840137600090820190930192909252509392505050565b6020808252601c908201527f536565643a2063616c6c65722073686f756c642062652061646d696e00000000604082015260600190565b600060208284031215612de557600080fd5b5051919050565b600060208284031215612dfe57600080fd5b81516128da81612b3d565b60208082526034908201527f536565643a2073686f756c64207472616e73666572207365656420746f6b656e60408201527339903a37903932b33ab732103932b1b2b4bb32b960611b606082015260800190565b634e487b7160e01b600052601160045260246000fd5b60008219821115612e8657612e86612e5d565b500190565b600082821015612e9d57612e9d612e5d565b500390565b634e487b7160e01b600052603260045260246000fd5b600060ff821660ff811415612ecf57612ecf612e5d565b60010192915050565b600181811c90821680612eec57607f821691505b60208210811415612f0d57634e487b7160e01b600052602260045260246000fd5b50919050565b6020808252601a908201527f536565643a2073686f756c64206e6f7420626520636c6f736564000000000000604082015260600190565b6000816000190483118215151615612f6457612f64612e5d565b500290565b600082612f8657634e487b7160e01b600052601260045260246000fd5b500490565b600081612f9a57612f9a612e5d565b506000190190565b6020808252601d908201527f536565643a2073656564206973206e6f742077686974656c6973746564000000604082015260600190565b6000600019821415612fed57612fed612e5d565b5060010190565b60008251613006818460208701612a64565b919091019291505056fea2646970667358221220971db09b3a0e5d1b91f3e7cd83ae8e7a34c64d10c2b5bb828580edd43455771d64736f6c63430008090033",
  "linkReferences": {},
  "deployedLinkReferences": {}
}