{
  "_format": "hh-sol-artifact-1",
  "contractName": "GnosisSafe",
  "sourceName": "@gnosis.pm/safe-contracts/contracts/GnosisSafe.sol",
  "abi": [
    {
      "inputs": [],
      "stateMutability": "nonpayable",
      "type": "constructor"
    },
    {
      "anonymous": false,
      "inputs": [
        {
          "indexed": false,
          "internalType": "address",
          "name": "owner",
          "type": "address"
        }
      ],
      "name": "AddedOwner",
      "type": "event"
    },
    {
      "anonymous": false,
      "inputs": [
        {
          "indexed": true,
          "internalType": "bytes32",
          "name": "approvedHash",
          "type": "bytes32"
        },
        {
          "indexed": true,
          "internalType": "address",
          "name": "owner",
          "type": "address"
        }
      ],
      "name": "ApproveHash",
      "type": "event"
    },
    {
      "anonymous": false,
      "inputs": [
        {
          "indexed": false,
          "internalType": "address",
          "name": "handler",
          "type": "address"
        }
      ],
      "name": "ChangedFallbackHandler",
      "type": "event"
    },
    {
      "anonymous": false,
      "inputs": [
        {
          "indexed": false,
          "internalType": "address",
          "name": "guard",
          "type": "address"
        }
      ],
      "name": "ChangedGuard",
      "type": "event"
    },
    {
      "anonymous": false,
      "inputs": [
        {
          "indexed": false,
          "internalType": "uint256",
          "name": "threshold",
          "type": "uint256"
        }
      ],
      "name": "ChangedThreshold",
      "type": "event"
    },
    {
      "anonymous": false,
      "inputs": [
        {
          "indexed": false,
          "internalType": "address",
          "name": "module",
          "type": "address"
        }
      ],
      "name": "DisabledModule",
      "type": "event"
    },
    {
      "anonymous": false,
      "inputs": [
        {
          "indexed": false,
          "internalType": "address",
          "name": "module",
          "type": "address"
        }
      ],
      "name": "EnabledModule",
      "type": "event"
    },
    {
      "anonymous": false,
      "inputs": [
        {
          "indexed": false,
          "internalType": "bytes32",
          "name": "txHash",
          "type": "bytes32"
        },
        {
          "indexed": false,
          "internalType": "uint256",
          "name": "payment",
          "type": "uint256"
        }
      ],
      "name": "ExecutionFailure",
      "type": "event"
    },
    {
      "anonymous": false,
      "inputs": [
        {
          "indexed": true,
          "internalType": "address",
          "name": "module",
          "type": "address"
        }
      ],
      "name": "ExecutionFromModuleFailure",
      "type": "event"
    },
    {
      "anonymous": false,
      "inputs": [
        {
          "indexed": true,
          "internalType": "address",
          "name": "module",
          "type": "address"
        }
      ],
      "name": "ExecutionFromModuleSuccess",
      "type": "event"
    },
    {
      "anonymous": false,
      "inputs": [
        {
          "indexed": false,
          "internalType": "bytes32",
          "name": "txHash",
          "type": "bytes32"
        },
        {
          "indexed": false,
          "internalType": "uint256",
          "name": "payment",
          "type": "uint256"
        }
      ],
      "name": "ExecutionSuccess",
      "type": "event"
    },
    {
      "anonymous": false,
      "inputs": [
        {
          "indexed": false,
          "internalType": "address",
          "name": "owner",
          "type": "address"
        }
      ],
      "name": "RemovedOwner",
      "type": "event"
    },
    {
      "anonymous": false,
      "inputs": [
        {
          "indexed": true,
          "internalType": "address",
          "name": "sender",
          "type": "address"
        },
        {
          "indexed": false,
          "internalType": "uint256",
          "name": "value",
          "type": "uint256"
        }
      ],
      "name": "SafeReceived",
      "type": "event"
    },
    {
      "anonymous": false,
      "inputs": [
        {
          "indexed": true,
          "internalType": "address",
          "name": "initiator",
          "type": "address"
        },
        {
          "indexed": false,
          "internalType": "address[]",
          "name": "owners",
          "type": "address[]"
        },
        {
          "indexed": false,
          "internalType": "uint256",
          "name": "threshold",
          "type": "uint256"
        },
        {
          "indexed": false,
          "internalType": "address",
          "name": "initializer",
          "type": "address"
        },
        {
          "indexed": false,
          "internalType": "address",
          "name": "fallbackHandler",
          "type": "address"
        }
      ],
      "name": "SafeSetup",
      "type": "event"
    },
    {
      "anonymous": false,
      "inputs": [
        {
          "indexed": true,
          "internalType": "bytes32",
          "name": "msgHash",
          "type": "bytes32"
        }
      ],
      "name": "SignMsg",
      "type": "event"
    },
    {
      "stateMutability": "nonpayable",
      "type": "fallback"
    },
    {
      "inputs": [],
      "name": "VERSION",
      "outputs": [
        {
          "internalType": "string",
          "name": "",
          "type": "string"
        }
      ],
      "stateMutability": "view",
      "type": "function"
    },
    {
      "inputs": [
        {
          "internalType": "address",
          "name": "owner",
          "type": "address"
        },
        {
          "internalType": "uint256",
          "name": "_threshold",
          "type": "uint256"
        }
      ],
      "name": "addOwnerWithThreshold",
      "outputs": [],
      "stateMutability": "nonpayable",
      "type": "function"
    },
    {
      "inputs": [
        {
          "internalType": "bytes32",
          "name": "hashToApprove",
          "type": "bytes32"
        }
      ],
      "name": "approveHash",
      "outputs": [],
      "stateMutability": "nonpayable",
      "type": "function"
    },
    {
      "inputs": [
        {
          "internalType": "address",
          "name": "",
          "type": "address"
        },
        {
          "internalType": "bytes32",
          "name": "",
          "type": "bytes32"
        }
      ],
      "name": "approvedHashes",
      "outputs": [
        {
          "internalType": "uint256",
          "name": "",
          "type": "uint256"
        }
      ],
      "stateMutability": "view",
      "type": "function"
    },
    {
      "inputs": [
        {
          "internalType": "uint256",
          "name": "_threshold",
          "type": "uint256"
        }
      ],
      "name": "changeThreshold",
      "outputs": [],
      "stateMutability": "nonpayable",
      "type": "function"
    },
    {
      "inputs": [
        {
          "internalType": "bytes32",
          "name": "dataHash",
          "type": "bytes32"
        },
        {
          "internalType": "bytes",
          "name": "data",
          "type": "bytes"
        },
        {
          "internalType": "bytes",
          "name": "signatures",
          "type": "bytes"
        },
        {
          "internalType": "uint256",
          "name": "requiredSignatures",
          "type": "uint256"
        }
      ],
      "name": "checkNSignatures",
      "outputs": [],
      "stateMutability": "view",
      "type": "function"
    },
    {
      "inputs": [
        {
          "internalType": "bytes32",
          "name": "dataHash",
          "type": "bytes32"
        },
        {
          "internalType": "bytes",
          "name": "data",
          "type": "bytes"
        },
        {
          "internalType": "bytes",
          "name": "signatures",
          "type": "bytes"
        }
      ],
      "name": "checkSignatures",
      "outputs": [],
      "stateMutability": "view",
      "type": "function"
    },
    {
      "inputs": [
        {
          "internalType": "address",
          "name": "prevModule",
          "type": "address"
        },
        {
          "internalType": "address",
          "name": "module",
          "type": "address"
        }
      ],
      "name": "disableModule",
      "outputs": [],
      "stateMutability": "nonpayable",
      "type": "function"
    },
    {
      "inputs": [],
      "name": "domainSeparator",
      "outputs": [
        {
          "internalType": "bytes32",
          "name": "",
          "type": "bytes32"
        }
      ],
      "stateMutability": "view",
      "type": "function"
    },
    {
      "inputs": [
        {
          "internalType": "address",
          "name": "module",
          "type": "address"
        }
      ],
      "name": "enableModule",
      "outputs": [],
      "stateMutability": "nonpayable",
      "type": "function"
    },
    {
      "inputs": [
        {
          "internalType": "address",
          "name": "to",
          "type": "address"
        },
        {
          "internalType": "uint256",
          "name": "value",
          "type": "uint256"
        },
        {
          "internalType": "bytes",
          "name": "data",
          "type": "bytes"
        },
        {
          "internalType": "enum Enum.Operation",
          "name": "operation",
          "type": "uint8"
        },
        {
          "internalType": "uint256",
          "name": "safeTxGas",
          "type": "uint256"
        },
        {
          "internalType": "uint256",
          "name": "baseGas",
          "type": "uint256"
        },
        {
          "internalType": "uint256",
          "name": "gasPrice",
          "type": "uint256"
        },
        {
          "internalType": "address",
          "name": "gasToken",
          "type": "address"
        },
        {
          "internalType": "address",
          "name": "refundReceiver",
          "type": "address"
        },
        {
          "internalType": "uint256",
          "name": "_nonce",
          "type": "uint256"
        }
      ],
      "name": "encodeTransactionData",
      "outputs": [
        {
          "internalType": "bytes",
          "name": "",
          "type": "bytes"
        }
      ],
      "stateMutability": "view",
      "type": "function"
    },
    {
      "inputs": [
        {
          "internalType": "address",
          "name": "to",
          "type": "address"
        },
        {
          "internalType": "uint256",
          "name": "value",
          "type": "uint256"
        },
        {
          "internalType": "bytes",
          "name": "data",
          "type": "bytes"
        },
        {
          "internalType": "enum Enum.Operation",
          "name": "operation",
          "type": "uint8"
        },
        {
          "internalType": "uint256",
          "name": "safeTxGas",
          "type": "uint256"
        },
        {
          "internalType": "uint256",
          "name": "baseGas",
          "type": "uint256"
        },
        {
          "internalType": "uint256",
          "name": "gasPrice",
          "type": "uint256"
        },
        {
          "internalType": "address",
          "name": "gasToken",
          "type": "address"
        },
        {
          "internalType": "address payable",
          "name": "refundReceiver",
          "type": "address"
        },
        {
          "internalType": "bytes",
          "name": "signatures",
          "type": "bytes"
        }
      ],
      "name": "execTransaction",
      "outputs": [
        {
          "internalType": "bool",
          "name": "success",
          "type": "bool"
        }
      ],
      "stateMutability": "payable",
      "type": "function"
    },
    {
      "inputs": [
        {
          "internalType": "address",
          "name": "to",
          "type": "address"
        },
        {
          "internalType": "uint256",
          "name": "value",
          "type": "uint256"
        },
        {
          "internalType": "bytes",
          "name": "data",
          "type": "bytes"
        },
        {
          "internalType": "enum Enum.Operation",
          "name": "operation",
          "type": "uint8"
        }
      ],
      "name": "execTransactionFromModule",
      "outputs": [
        {
          "internalType": "bool",
          "name": "success",
          "type": "bool"
        }
      ],
      "stateMutability": "nonpayable",
      "type": "function"
    },
    {
      "inputs": [
        {
          "internalType": "address",
          "name": "to",
          "type": "address"
        },
        {
          "internalType": "uint256",
          "name": "value",
          "type": "uint256"
        },
        {
          "internalType": "bytes",
          "name": "data",
          "type": "bytes"
        },
        {
          "internalType": "enum Enum.Operation",
          "name": "operation",
          "type": "uint8"
        }
      ],
      "name": "execTransactionFromModuleReturnData",
      "outputs": [
        {
          "internalType": "bool",
          "name": "success",
          "type": "bool"
        },
        {
          "internalType": "bytes",
          "name": "returnData",
          "type": "bytes"
        }
      ],
      "stateMutability": "nonpayable",
      "type": "function"
    },
    {
      "inputs": [],
      "name": "getChainId",
      "outputs": [
        {
          "internalType": "uint256",
          "name": "",
          "type": "uint256"
        }
      ],
      "stateMutability": "view",
      "type": "function"
    },
    {
      "inputs": [
        {
          "internalType": "address",
          "name": "start",
          "type": "address"
        },
        {
          "internalType": "uint256",
          "name": "pageSize",
          "type": "uint256"
        }
      ],
      "name": "getModulesPaginated",
      "outputs": [
        {
          "internalType": "address[]",
          "name": "array",
          "type": "address[]"
        },
        {
          "internalType": "address",
          "name": "next",
          "type": "address"
        }
      ],
      "stateMutability": "view",
      "type": "function"
    },
    {
      "inputs": [],
      "name": "getOwners",
      "outputs": [
        {
          "internalType": "address[]",
          "name": "",
          "type": "address[]"
        }
      ],
      "stateMutability": "view",
      "type": "function"
    },
    {
      "inputs": [
        {
          "internalType": "uint256",
          "name": "offset",
          "type": "uint256"
        },
        {
          "internalType": "uint256",
          "name": "length",
          "type": "uint256"
        }
      ],
      "name": "getStorageAt",
      "outputs": [
        {
          "internalType": "bytes",
          "name": "",
          "type": "bytes"
        }
      ],
      "stateMutability": "view",
      "type": "function"
    },
    {
      "inputs": [],
      "name": "getThreshold",
      "outputs": [
        {
          "internalType": "uint256",
          "name": "",
          "type": "uint256"
        }
      ],
      "stateMutability": "view",
      "type": "function"
    },
    {
      "inputs": [
        {
          "internalType": "address",
          "name": "to",
          "type": "address"
        },
        {
          "internalType": "uint256",
          "name": "value",
          "type": "uint256"
        },
        {
          "internalType": "bytes",
          "name": "data",
          "type": "bytes"
        },
        {
          "internalType": "enum Enum.Operation",
          "name": "operation",
          "type": "uint8"
        },
        {
          "internalType": "uint256",
          "name": "safeTxGas",
          "type": "uint256"
        },
        {
          "internalType": "uint256",
          "name": "baseGas",
          "type": "uint256"
        },
        {
          "internalType": "uint256",
          "name": "gasPrice",
          "type": "uint256"
        },
        {
          "internalType": "address",
          "name": "gasToken",
          "type": "address"
        },
        {
          "internalType": "address",
          "name": "refundReceiver",
          "type": "address"
        },
        {
          "internalType": "uint256",
          "name": "_nonce",
          "type": "uint256"
        }
      ],
      "name": "getTransactionHash",
      "outputs": [
        {
          "internalType": "bytes32",
          "name": "",
          "type": "bytes32"
        }
      ],
      "stateMutability": "view",
      "type": "function"
    },
    {
      "inputs": [
        {
          "internalType": "address",
          "name": "module",
          "type": "address"
        }
      ],
      "name": "isModuleEnabled",
      "outputs": [
        {
          "internalType": "bool",
          "name": "",
          "type": "bool"
        }
      ],
      "stateMutability": "view",
      "type": "function"
    },
    {
      "inputs": [
        {
          "internalType": "address",
          "name": "owner",
          "type": "address"
        }
      ],
      "name": "isOwner",
      "outputs": [
        {
          "internalType": "bool",
          "name": "",
          "type": "bool"
        }
      ],
      "stateMutability": "view",
      "type": "function"
    },
    {
      "inputs": [],
      "name": "nonce",
      "outputs": [
        {
          "internalType": "uint256",
          "name": "",
          "type": "uint256"
        }
      ],
      "stateMutability": "view",
      "type": "function"
    },
    {
      "inputs": [
        {
          "internalType": "address",
          "name": "prevOwner",
          "type": "address"
        },
        {
          "internalType": "address",
          "name": "owner",
          "type": "address"
        },
        {
          "internalType": "uint256",
          "name": "_threshold",
          "type": "uint256"
        }
      ],
      "name": "removeOwner",
      "outputs": [],
      "stateMutability": "nonpayable",
      "type": "function"
    },
    {
      "inputs": [
        {
          "internalType": "address",
          "name": "to",
          "type": "address"
        },
        {
          "internalType": "uint256",
          "name": "value",
          "type": "uint256"
        },
        {
          "internalType": "bytes",
          "name": "data",
          "type": "bytes"
        },
        {
          "internalType": "enum Enum.Operation",
          "name": "operation",
          "type": "uint8"
        }
      ],
      "name": "requiredTxGas",
      "outputs": [
        {
          "internalType": "uint256",
          "name": "",
          "type": "uint256"
        }
      ],
      "stateMutability": "nonpayable",
      "type": "function"
    },
    {
      "inputs": [
        {
          "internalType": "address",
          "name": "handler",
          "type": "address"
        }
      ],
      "name": "setFallbackHandler",
      "outputs": [],
      "stateMutability": "nonpayable",
      "type": "function"
    },
    {
      "inputs": [
        {
          "internalType": "address",
          "name": "guard",
          "type": "address"
        }
      ],
      "name": "setGuard",
      "outputs": [],
      "stateMutability": "nonpayable",
      "type": "function"
    },
    {
      "inputs": [
        {
          "internalType": "address[]",
          "name": "_owners",
          "type": "address[]"
        },
        {
          "internalType": "uint256",
          "name": "_threshold",
          "type": "uint256"
        },
        {
          "internalType": "address",
          "name": "to",
          "type": "address"
        },
        {
          "internalType": "bytes",
          "name": "data",
          "type": "bytes"
        },
        {
          "internalType": "address",
          "name": "fallbackHandler",
          "type": "address"
        },
        {
          "internalType": "address",
          "name": "paymentToken",
          "type": "address"
        },
        {
          "internalType": "uint256",
          "name": "payment",
          "type": "uint256"
        },
        {
          "internalType": "address payable",
          "name": "paymentReceiver",
          "type": "address"
        }
      ],
      "name": "setup",
      "outputs": [],
      "stateMutability": "nonpayable",
      "type": "function"
    },
    {
      "inputs": [
        {
          "internalType": "bytes32",
          "name": "",
          "type": "bytes32"
        }
      ],
      "name": "signedMessages",
      "outputs": [
        {
          "internalType": "uint256",
          "name": "",
          "type": "uint256"
        }
      ],
      "stateMutability": "view",
      "type": "function"
    },
    {
      "inputs": [
        {
          "internalType": "address",
          "name": "targetContract",
          "type": "address"
        },
        {
          "internalType": "bytes",
          "name": "calldataPayload",
          "type": "bytes"
        }
      ],
      "name": "simulateAndRevert",
      "outputs": [],
      "stateMutability": "nonpayable",
      "type": "function"
    },
    {
      "inputs": [
        {
          "internalType": "address",
          "name": "prevOwner",
          "type": "address"
        },
        {
          "internalType": "address",
          "name": "oldOwner",
          "type": "address"
        },
        {
          "internalType": "address",
          "name": "newOwner",
          "type": "address"
        }
      ],
      "name": "swapOwner",
      "outputs": [],
      "stateMutability": "nonpayable",
      "type": "function"
    },
    {
      "stateMutability": "payable",
      "type": "receive"
    }
  ],
  "bytecode": "0x608060405234801561001057600080fd5b5060016004819055506160fd80620000296000396000f3fe6080604052600436106101dc5760003560e01c8063affed0e011610102578063e19a9dd911610095578063f08a032311610064578063f08a0323146107de578063f698da2514610807578063f8dc5dd914610832578063ffa1ad741461085b57610231565b8063e19a9dd914610724578063e318b52b1461074d578063e75235b814610776578063e86637db146107a157610231565b8063cc2f8452116100d1578063cc2f845214610657578063d4d9bdcd14610695578063d8d11f78146106be578063e009cfde146106fb57610231565b8063affed0e01461059d578063b4faba09146105c8578063b63e800d146105f1578063c4ca3a9c1461061a57610231565b80635624b25b1161017a5780636a761202116101495780636a761202146104dc5780637d8329741461050c578063934f3a1114610549578063a0e67e2b1461057257610231565b80635624b25b146104105780635ae6bd371461044d578063610b59251461048a578063694e80c3146104b357610231565b80632f54bf6e116101b65780632f54bf6e1461032d5780633408e4701461036a578063468721a7146103955780635229073f146103d257610231565b80630d582f131461029e57806312fb68e0146102c75780632d9ad53d146102f057610231565b36610231573373ffffffffffffffffffffffffffffffffffffffff167f3d0ce9bfc3ed7d6862dbb28b2dea94561fe714a1b4d019aa8af39730d1ad7c3d346040516102279190613e9e565b60405180910390a2005b34801561023d57600080fd5b5060007f6c9a6c4a39284e37ed1cf53d337577d14212a4870fb976a4366c693b939918d560001b905080548061027257600080f35b36600080373360601b365260008060143601600080855af13d6000803e80610299573d6000fd5b3d6000f35b3480156102aa57600080fd5b506102c560048036038101906102c09190613f57565b610886565b005b3480156102d357600080fd5b506102ee60048036038101906102e99190614113565b610c00565b005b3480156102fc57600080fd5b50610317600480360381019061031291906141b2565b611207565b60405161032491906141fa565b60405180910390f35b34801561033957600080fd5b50610354600480360381019061034f91906141b2565b6112d9565b60405161036191906141fa565b60405180910390f35b34801561037657600080fd5b5061037f6113ab565b60405161038c9190613e9e565b60405180910390f35b3480156103a157600080fd5b506103bc60048036038101906103b7919061423a565b6113b8565b6040516103c991906141fa565b60405180910390f35b3480156103de57600080fd5b506103f960048036038101906103f4919061423a565b61156b565b604051610407929190614345565b60405180910390f35b34801561041c57600080fd5b5061043760048036038101906104329190614375565b6115a1565b60405161044491906143b5565b60405180910390f35b34801561045957600080fd5b50610474600480360381019061046f91906143d7565b611639565b6040516104819190613e9e565b60405180910390f35b34801561049657600080fd5b506104b160048036038101906104ac91906141b2565b611651565b005b3480156104bf57600080fd5b506104da60048036038101906104d59190614404565b611967565b005b6104f660048036038101906104f191906144cf565b611a3b565b60405161050391906141fa565b60405180910390f35b34801561051857600080fd5b50610533600480360381019061052e91906145eb565b611dfc565b6040516105409190613e9e565b60405180910390f35b34801561055557600080fd5b50610570600480360381019061056b919061462b565b611e21565b005b34801561057e57600080fd5b50610587611e7d565b6040516105949190614774565b60405180910390f35b3480156105a957600080fd5b506105b2612035565b6040516105bf9190613e9e565b60405180910390f35b3480156105d457600080fd5b506105ef60048036038101906105ea9190614796565b61203b565b005b3480156105fd57600080fd5b5061061860048036038101906106139190614848565b61205d565b005b34801561062657600080fd5b50610641600480360381019061063c919061493f565b6121b0565b60405161064e9190613e9e565b60405180910390f35b34801561066357600080fd5b5061067e60048036038101906106799190613f57565b61227c565b60405161068c9291906149d6565b60405180910390f35b3480156106a157600080fd5b506106bc60048036038101906106b791906143d7565b61247d565b005b3480156106ca57600080fd5b506106e560048036038101906106e09190614a06565b6125e9565b6040516106f29190614b15565b60405180910390f35b34801561070757600080fd5b50610722600480360381019061071d9190614b30565b612616565b005b34801561073057600080fd5b5061074b600480360381019061074691906141b2565b61292b565b005b34801561075957600080fd5b50610774600480360381019061076f9190614b70565b612999565b005b34801561078257600080fd5b5061078b612f13565b6040516107989190613e9e565b60405180910390f35b3480156107ad57600080fd5b506107c860048036038101906107c39190614a06565b612f1d565b6040516107d591906143b5565b60405180910390f35b3480156107ea57600080fd5b50610805600480360381019061080091906141b2565b612fdf565b005b34801561081357600080fd5b5061081c61302a565b6040516108299190614b15565b60405180910390f35b34801561083e57600080fd5b5061085960048036038101906108549190614bc3565b613086565b005b34801561086757600080fd5b50610870613418565b60405161087d9190614c6b565b60405180910390f35b61088e613451565b600073ffffffffffffffffffffffffffffffffffffffff168273ffffffffffffffffffffffffffffffffffffffff16141580156108f85750600173ffffffffffffffffffffffffffffffffffffffff168273ffffffffffffffffffffffffffffffffffffffff1614155b801561093057503073ffffffffffffffffffffffffffffffffffffffff168273ffffffffffffffffffffffffffffffffffffffff1614155b61096f576040517f08c379a000000000000000000000000000000000000000000000000000000000815260040161096690614cd9565b60405180910390fd5b600073ffffffffffffffffffffffffffffffffffffffff16600260008473ffffffffffffffffffffffffffffffffffffffff1673ffffffffffffffffffffffffffffffffffffffff16815260200190815260200160002060009054906101000a900473ffffffffffffffffffffffffffffffffffffffff1673ffffffffffffffffffffffffffffffffffffffff1614610a3d576040517f08c379a0000000000000000000000000000000000000000000000000000000008152600401610a3490614d45565b60405180910390fd5b60026000600173ffffffffffffffffffffffffffffffffffffffff1673ffffffffffffffffffffffffffffffffffffffff16815260200190815260200160002060009054906101000a900473ffffffffffffffffffffffffffffffffffffffff16600260008473ffffffffffffffffffffffffffffffffffffffff1673ffffffffffffffffffffffffffffffffffffffff16815260200190815260200160002060006101000a81548173ffffffffffffffffffffffffffffffffffffffff021916908373ffffffffffffffffffffffffffffffffffffffff1602179055508160026000600173ffffffffffffffffffffffffffffffffffffffff1673ffffffffffffffffffffffffffffffffffffffff16815260200190815260200160002060006101000a81548173ffffffffffffffffffffffffffffffffffffffff021916908373ffffffffffffffffffffffffffffffffffffffff16021790555060036000815480929190610bad90614d94565b91905055507f9465fa0c962cc76958e6373a993326400c1c94f8be2fe3a952adfa7f60b2ea2682604051610be19190614ddd565b60405180910390a18060045414610bfc57610bfb81611967565b5b5050565b610c146041826134c190919063ffffffff16565b82511015610c57576040517f08c379a0000000000000000000000000000000000000000000000000000000008152600401610c4e90614e44565b60405180910390fd5b6000808060008060005b868110156111fb57610c738882613506565b80945081955082965050505060008460ff161415610edd578260001c9450610ca56041886134c190919063ffffffff16565b8260001c1015610cea576040517f08c379a0000000000000000000000000000000000000000000000000000000008152600401610ce190614eb0565b60405180910390fd5b8751610d0360208460001c61353590919063ffffffff16565b1115610d44576040517f08c379a0000000000000000000000000000000000000000000000000000000008152600401610d3b90614f1c565b60405180910390fd5b60006020838a01015190508851610d7a82610d6c60208760001c61353590919063ffffffff16565b61353590919063ffffffff16565b1115610dbb576040517f08c379a0000000000000000000000000000000000000000000000000000000008152600401610db290614f88565b60405180910390fd5b60606020848b010190506320c13b0b60e01b7bffffffffffffffffffffffffffffffffffffffffffffffffffffffff19168773ffffffffffffffffffffffffffffffffffffffff166320c13b0b8d846040518363ffffffff1660e01b8152600401610e27929190614fa8565b60206040518083038186803b158015610e3f57600080fd5b505afa158015610e53573d6000803e3d6000fd5b505050506040513d601f19601f82011682018060405250810190610e779190615037565b7bffffffffffffffffffffffffffffffffffffffffffffffffffffffff191614610ed6576040517f08c379a0000000000000000000000000000000000000000000000000000000008152600401610ecd906150b0565b60405180910390fd5b50506110a6565b60018460ff161415610fbe578260001c94508473ffffffffffffffffffffffffffffffffffffffff163373ffffffffffffffffffffffffffffffffffffffff161480610f7a57506000600860008773ffffffffffffffffffffffffffffffffffffffff1673ffffffffffffffffffffffffffffffffffffffff16815260200190815260200160002060008c81526020019081526020016000205414155b610fb9576040517f08c379a0000000000000000000000000000000000000000000000000000000008152600401610fb09061511c565b60405180910390fd5b6110a5565b601e8460ff1611156110525760018a604051602001610fdd91906151b4565b6040516020818303038152906040528051906020012060048661100091906151e7565b85856040516000815260200160405260405161101f949392919061522a565b6020604051602081039080840390855afa158015611041573d6000803e3d6000fd5b5050506020604051035194506110a4565b60018a85858560405160008152602001604052604051611075949392919061522a565b6020604051602081039080840390855afa158015611097573d6000803e3d6000fd5b5050506020604051035194505b5b5b8573ffffffffffffffffffffffffffffffffffffffff168573ffffffffffffffffffffffffffffffffffffffff1611801561116d5750600073ffffffffffffffffffffffffffffffffffffffff16600260008773ffffffffffffffffffffffffffffffffffffffff1673ffffffffffffffffffffffffffffffffffffffff16815260200190815260200160002060009054906101000a900473ffffffffffffffffffffffffffffffffffffffff1673ffffffffffffffffffffffffffffffffffffffff1614155b80156111a65750600173ffffffffffffffffffffffffffffffffffffffff168573ffffffffffffffffffffffffffffffffffffffff1614155b6111e5576040517f08c379a00000000000000000000000000000000000000000000000000000000081526004016111dc906152bb565b60405180910390fd5b84955080806111f390614d94565b915050610c61565b50505050505050505050565b60008173ffffffffffffffffffffffffffffffffffffffff16600173ffffffffffffffffffffffffffffffffffffffff16141580156112d25750600073ffffffffffffffffffffffffffffffffffffffff16600160008473ffffffffffffffffffffffffffffffffffffffff1673ffffffffffffffffffffffffffffffffffffffff16815260200190815260200160002060009054906101000a900473ffffffffffffffffffffffffffffffffffffffff1673ffffffffffffffffffffffffffffffffffffffff1614155b9050919050565b6000600173ffffffffffffffffffffffffffffffffffffffff168273ffffffffffffffffffffffffffffffffffffffff16141580156113a45750600073ffffffffffffffffffffffffffffffffffffffff16600260008473ffffffffffffffffffffffffffffffffffffffff1673ffffffffffffffffffffffffffffffffffffffff16815260200190815260200160002060009054906101000a900473ffffffffffffffffffffffffffffffffffffffff1673ffffffffffffffffffffffffffffffffffffffff1614155b9050919050565b6000804690508091505090565b6000600173ffffffffffffffffffffffffffffffffffffffff163373ffffffffffffffffffffffffffffffffffffffff16141580156114835750600073ffffffffffffffffffffffffffffffffffffffff16600160003373ffffffffffffffffffffffffffffffffffffffff1673ffffffffffffffffffffffffffffffffffffffff16815260200190815260200160002060009054906101000a900473ffffffffffffffffffffffffffffffffffffffff1673ffffffffffffffffffffffffffffffffffffffff1614155b6114c2576040517f08c379a00000000000000000000000000000000000000000000000000000000081526004016114b990615327565b60405180910390fd5b6114cf858585855a61355d565b9050801561151f573373ffffffffffffffffffffffffffffffffffffffff167f6895c13664aa4f67288b25d7a21d7aaa34916e355fb9b6fae0a139a9085becb860405160405180910390a2611563565b3373ffffffffffffffffffffffffffffffffffffffff167facd2c8702804128fdb0db2bb49f6d127dd0181c13fd45dbfe16de0930e2bd37560405160405180910390a25b949350505050565b6000606061157b868686866113b8565b915060405160203d0181016040523d81523d6000602083013e8091505094509492505050565b606060006020836115b29190615347565b67ffffffffffffffff8111156115cb576115ca613fe8565b5b6040519080825280601f01601f1916602001820160405280156115fd5781602001600182028036833780820191505090505b50905060005b8381101561162e5780850154806020830260208501015250808061162690614d94565b915050611603565b508091505092915050565b60076020528060005260406000206000915090505481565b611659613451565b600073ffffffffffffffffffffffffffffffffffffffff168173ffffffffffffffffffffffffffffffffffffffff16141580156116c35750600173ffffffffffffffffffffffffffffffffffffffff168173ffffffffffffffffffffffffffffffffffffffff1614155b611702576040517f08c379a00000000000000000000000000000000000000000000000000000000081526004016116f9906153ed565b60405180910390fd5b600073ffffffffffffffffffffffffffffffffffffffff16600160008373ffffffffffffffffffffffffffffffffffffffff1673ffffffffffffffffffffffffffffffffffffffff16815260200190815260200160002060009054906101000a900473ffffffffffffffffffffffffffffffffffffffff1673ffffffffffffffffffffffffffffffffffffffff16146117d0576040517f08c379a00000000000000000000000000000000000000000000000000000000081526004016117c790615459565b60405180910390fd5b60016000600173ffffffffffffffffffffffffffffffffffffffff1673ffffffffffffffffffffffffffffffffffffffff16815260200190815260200160002060009054906101000a900473ffffffffffffffffffffffffffffffffffffffff16600160008373ffffffffffffffffffffffffffffffffffffffff1673ffffffffffffffffffffffffffffffffffffffff16815260200190815260200160002060006101000a81548173ffffffffffffffffffffffffffffffffffffffff021916908373ffffffffffffffffffffffffffffffffffffffff1602179055508060016000600173ffffffffffffffffffffffffffffffffffffffff1673ffffffffffffffffffffffffffffffffffffffff16815260200190815260200160002060006101000a81548173ffffffffffffffffffffffffffffffffffffffff021916908373ffffffffffffffffffffffffffffffffffffffff1602179055507fecdf3a3effea5783a3c4c2140e677577666428d44ed9d474a0b3a4c9943f84408160405161195c9190614ddd565b60405180910390a150565b61196f613451565b6003548111156119b4576040517f08c379a00000000000000000000000000000000000000000000000000000000081526004016119ab906154c5565b60405180910390fd5b60018110156119f8576040517f08c379a00000000000000000000000000000000000000000000000000000000081526004016119ef90615531565b60405180910390fd5b806004819055507f610f7ff2b304ae8903c3de74c60c6ab1f7d6226b3f52c5161905bb5ad4039c93600454604051611a309190613e9e565b60405180910390a150565b6000806000611a558e8e8e8e8e8e8e8e8e8e600554612f1d565b905060056000815480929190611a6a90614d94565b919050555080805190602001209150611a84828286611e21565b506000611a8f6135b7565b9050600073ffffffffffffffffffffffffffffffffffffffff168173ffffffffffffffffffffffffffffffffffffffff1614611b47578073ffffffffffffffffffffffffffffffffffffffff166375f0bb528f8f8f8f8f8f8f8f8f8f8f336040518d63ffffffff1660e01b8152600401611b149c9b9a99989796959493929190615604565b600060405180830381600087803b158015611b2e57600080fd5b505af1158015611b42573d6000803e3d6000fd5b505050505b6101f4611b826109c48b611b5b91906156bf565b603f60408d611b6a9190615347565b611b749190615744565b6135e890919063ffffffff16565b611b8c91906156bf565b5a1015611bce576040517f08c379a0000000000000000000000000000000000000000000000000000000008152600401611bc5906157c1565b60405180910390fd5b60005a9050611c408f8f8f8f8080601f016020809104026020016040519081016040528093929190818152602001838380828437600081840152601f19601f820116905080830192505050505050508e60008d14611c2c578e611c3b565b6109c45a611c3a91906157e1565b5b61355d565b9350611c555a8261360290919063ffffffff16565b90508380611c64575060008a14155b80611c70575060008814155b611caf576040517f08c379a0000000000000000000000000000000000000000000000000000000008152600401611ca690615861565b60405180910390fd5b600080891115611cc957611cc6828b8b8b8b61362b565b90505b8415611d0d577f442e715f626346e8c54381002da614f62bee8d27386535b2521ec8540898556e8482604051611d00929190615881565b60405180910390a1611d47565b7f23428b18acfb3ea64b08dc0c1d296ea9c09702c09083ca5272e64d115b687d238482604051611d3e929190615881565b60405180910390a15b5050600073ffffffffffffffffffffffffffffffffffffffff168173ffffffffffffffffffffffffffffffffffffffff1614611deb578073ffffffffffffffffffffffffffffffffffffffff16639327136883856040518363ffffffff1660e01b8152600401611db89291906158aa565b600060405180830381600087803b158015611dd257600080fd5b505af1158015611de6573d6000803e3d6000fd5b505050505b50509b9a5050505050505050505050565b6008602052816000526040600020602052806000526040600020600091509150505481565b6000600454905060008111611e6b576040517f08c379a0000000000000000000000000000000000000000000000000000000008152600401611e629061591f565b60405180910390fd5b611e7784848484610c00565b50505050565b6060600060035467ffffffffffffffff811115611e9d57611e9c613fe8565b5b604051908082528060200260200182016040528015611ecb5781602001602082028036833780820191505090505b50905060008060026000600173ffffffffffffffffffffffffffffffffffffffff1673ffffffffffffffffffffffffffffffffffffffff16815260200190815260200160002060009054906101000a900473ffffffffffffffffffffffffffffffffffffffff1690505b600173ffffffffffffffffffffffffffffffffffffffff168173ffffffffffffffffffffffffffffffffffffffff161461202c5780838381518110611f7d57611f7c61593f565b5b602002602001019073ffffffffffffffffffffffffffffffffffffffff16908173ffffffffffffffffffffffffffffffffffffffff1681525050600260008273ffffffffffffffffffffffffffffffffffffffff1673ffffffffffffffffffffffffffffffffffffffff16815260200190815260200160002060009054906101000a900473ffffffffffffffffffffffffffffffffffffffff169050818061202490614d94565b925050611f35565b82935050505090565b60055481565b600080825160208401855af4806000523d6020523d600060403e60403d016000fd5b6120a88a8a80806020026020016040519081016040528093929190818152602001838360200280828437600081840152601f19601f82011690508083019250505050505050896137cb565b600073ffffffffffffffffffffffffffffffffffffffff168473ffffffffffffffffffffffffffffffffffffffff16146120e6576120e584613bd9565b5b6121348787878080601f016020809104026020016040519081016040528093929190818152602001838380828437600081840152601f19601f82011690508083019250505050505050613c08565b600082111561214e5761214c8260006001868561362b565b505b3373ffffffffffffffffffffffffffffffffffffffff167f141df868a6331af528e38c83b7aa03edc19be66e37ae67f9285bf4f8e3c6a1a88b8b8b8b8960405161219c9594939291906159f9565b60405180910390a250505050505050505050565b6000805a9050612207878787878080601f016020809104026020016040519081016040528093929190818152602001838380828437600081840152601f19601f82011690508083019250505050505050865a61355d565b61221057600080fd5b60005a8261221e91906157e1565b9050806040516020016122319190615a68565b6040516020818303038152906040526040517f08c379a00000000000000000000000000000000000000000000000000000000081526004016122739190614c6b565b60405180910390fd5b606060008267ffffffffffffffff81111561229a57612299613fe8565b5b6040519080825280602002602001820160405280156122c85781602001602082028036833780820191505090505b509150600080600160008773ffffffffffffffffffffffffffffffffffffffff1673ffffffffffffffffffffffffffffffffffffffff16815260200190815260200160002060009054906101000a900473ffffffffffffffffffffffffffffffffffffffff1690505b600073ffffffffffffffffffffffffffffffffffffffff168173ffffffffffffffffffffffffffffffffffffffff161415801561239b5750600173ffffffffffffffffffffffffffffffffffffffff168173ffffffffffffffffffffffffffffffffffffffff1614155b80156123a657508482105b1561246e57808483815181106123bf576123be61593f565b5b602002602001019073ffffffffffffffffffffffffffffffffffffffff16908173ffffffffffffffffffffffffffffffffffffffff1681525050600160008273ffffffffffffffffffffffffffffffffffffffff1673ffffffffffffffffffffffffffffffffffffffff16815260200190815260200160002060009054906101000a900473ffffffffffffffffffffffffffffffffffffffff169050818061246690614d94565b925050612331565b80925081845250509250929050565b600073ffffffffffffffffffffffffffffffffffffffff16600260003373ffffffffffffffffffffffffffffffffffffffff1673ffffffffffffffffffffffffffffffffffffffff16815260200190815260200160002060009054906101000a900473ffffffffffffffffffffffffffffffffffffffff1673ffffffffffffffffffffffffffffffffffffffff16141561254c576040517f08c379a000000000000000000000000000000000000000000000000000000000815260040161254390615acf565b60405180910390fd5b6001600860003373ffffffffffffffffffffffffffffffffffffffff1673ffffffffffffffffffffffffffffffffffffffff1681526020019081526020016000206000838152602001908152602001600020819055503373ffffffffffffffffffffffffffffffffffffffff16817ff2a0eb156472d1440255b0d7c1e19cc07115d1051fe605b0dce69acfec884d9c60405160405180910390a350565b60006125fe8c8c8c8c8c8c8c8c8c8c8c612f1d565b8051906020012090509b9a5050505050505050505050565b61261e613451565b600073ffffffffffffffffffffffffffffffffffffffff168173ffffffffffffffffffffffffffffffffffffffff16141580156126885750600173ffffffffffffffffffffffffffffffffffffffff168173ffffffffffffffffffffffffffffffffffffffff1614155b6126c7576040517f08c379a00000000000000000000000000000000000000000000000000000000081526004016126be906153ed565b60405180910390fd5b8073ffffffffffffffffffffffffffffffffffffffff16600160008473ffffffffffffffffffffffffffffffffffffffff1673ffffffffffffffffffffffffffffffffffffffff16815260200190815260200160002060009054906101000a900473ffffffffffffffffffffffffffffffffffffffff1673ffffffffffffffffffffffffffffffffffffffff1614612794576040517f08c379a000000000000000000000000000000000000000000000000000000000815260040161278b90615b3b565b60405180910390fd5b600160008273ffffffffffffffffffffffffffffffffffffffff1673ffffffffffffffffffffffffffffffffffffffff16815260200190815260200160002060009054906101000a900473ffffffffffffffffffffffffffffffffffffffff16600160008473ffffffffffffffffffffffffffffffffffffffff1673ffffffffffffffffffffffffffffffffffffffff16815260200190815260200160002060006101000a81548173ffffffffffffffffffffffffffffffffffffffff021916908373ffffffffffffffffffffffffffffffffffffffff1602179055506000600160008373ffffffffffffffffffffffffffffffffffffffff1673ffffffffffffffffffffffffffffffffffffffff16815260200190815260200160002060006101000a81548173ffffffffffffffffffffffffffffffffffffffff021916908373ffffffffffffffffffffffffffffffffffffffff1602179055507faab4fa2b463f581b2b32cb3b7e3b704b9ce37cc209b5fb4d77e593ace40542768160405161291f9190614ddd565b60405180910390a15050565b612933613451565b60007f4a204f620c8c5ccdca3fd54d003badd85ba500436a431f0cbda4f558c93c34c860001b90508181557f1151116914515bc0891ff9047a6cb32cf902546f83066499bcf8ba33d2353fa28260405161298d9190614ddd565b60405180910390a15050565b6129a1613451565b600073ffffffffffffffffffffffffffffffffffffffff168173ffffffffffffffffffffffffffffffffffffffff1614158015612a0b5750600173ffffffffffffffffffffffffffffffffffffffff168173ffffffffffffffffffffffffffffffffffffffff1614155b8015612a4357503073ffffffffffffffffffffffffffffffffffffffff168173ffffffffffffffffffffffffffffffffffffffff1614155b612a82576040517f08c379a0000000000000000000000000000000000000000000000000000000008152600401612a7990614cd9565b60405180910390fd5b600073ffffffffffffffffffffffffffffffffffffffff16600260008373ffffffffffffffffffffffffffffffffffffffff1673ffffffffffffffffffffffffffffffffffffffff16815260200190815260200160002060009054906101000a900473ffffffffffffffffffffffffffffffffffffffff1673ffffffffffffffffffffffffffffffffffffffff1614612b50576040517f08c379a0000000000000000000000000000000000000000000000000000000008152600401612b4790614d45565b60405180910390fd5b600073ffffffffffffffffffffffffffffffffffffffff168273ffffffffffffffffffffffffffffffffffffffff1614158015612bba5750600173ffffffffffffffffffffffffffffffffffffffff168273ffffffffffffffffffffffffffffffffffffffff1614155b612bf9576040517f08c379a0000000000000000000000000000000000000000000000000000000008152600401612bf090614cd9565b60405180910390fd5b8173ffffffffffffffffffffffffffffffffffffffff16600260008573ffffffffffffffffffffffffffffffffffffffff1673ffffffffffffffffffffffffffffffffffffffff16815260200190815260200160002060009054906101000a900473ffffffffffffffffffffffffffffffffffffffff1673ffffffffffffffffffffffffffffffffffffffff1614612cc6576040517f08c379a0000000000000000000000000000000000000000000000000000000008152600401612cbd90615ba7565b60405180910390fd5b600260008373ffffffffffffffffffffffffffffffffffffffff1673ffffffffffffffffffffffffffffffffffffffff16815260200190815260200160002060009054906101000a900473ffffffffffffffffffffffffffffffffffffffff16600260008373ffffffffffffffffffffffffffffffffffffffff1673ffffffffffffffffffffffffffffffffffffffff16815260200190815260200160002060006101000a81548173ffffffffffffffffffffffffffffffffffffffff021916908373ffffffffffffffffffffffffffffffffffffffff16021790555080600260008573ffffffffffffffffffffffffffffffffffffffff1673ffffffffffffffffffffffffffffffffffffffff16815260200190815260200160002060006101000a81548173ffffffffffffffffffffffffffffffffffffffff021916908373ffffffffffffffffffffffffffffffffffffffff1602179055506000600260008473ffffffffffffffffffffffffffffffffffffffff1673ffffffffffffffffffffffffffffffffffffffff16815260200190815260200160002060006101000a81548173ffffffffffffffffffffffffffffffffffffffff021916908373ffffffffffffffffffffffffffffffffffffffff1602179055507ff8d49fc529812e9a7c5c50e69c20f0dccc0db8fa95c98bc58cc9a4f1c1299eaf82604051612ecf9190614ddd565b60405180910390a17f9465fa0c962cc76958e6373a993326400c1c94f8be2fe3a952adfa7f60b2ea2681604051612f069190614ddd565b60405180910390a1505050565b6000600454905090565b606060007fbb8310d486368db6bd6f849402fdd73ad53d316b5a4b2644ad6efe0f941286d860001b8d8d8d8d604051612f57929190615bf7565b60405180910390208c8c8c8c8c8c8c604051602001612f809b9a99989796959493929190615c10565b604051602081830303815290604052805190602001209050601960f81b600160f81b612faa61302a565b83604051602001612fbe9493929190615d08565b6040516020818303038152906040529150509b9a5050505050505050505050565b612fe7613451565b612ff081613bd9565b7f5ac6c46c93c8d0e53714ba3b53db3e7c046da994313d7ed0d192028bc7c228b08160405161301f9190614ddd565b60405180910390a150565b60007f47e79534a245952e8b16893a336b85a3d9ea9fa8c573f3d803afb92a7946921860001b6130586113ab565b3060405160200161306b93929190615db5565b60405160208183030381529060405280519060200120905090565b61308e613451565b80600160035461309e91906157e1565b10156130df576040517f08c379a00000000000000000000000000000000000000000000000000000000081526004016130d6906154c5565b60405180910390fd5b600073ffffffffffffffffffffffffffffffffffffffff168273ffffffffffffffffffffffffffffffffffffffff16141580156131495750600173ffffffffffffffffffffffffffffffffffffffff168273ffffffffffffffffffffffffffffffffffffffff1614155b613188576040517f08c379a000000000000000000000000000000000000000000000000000000000815260040161317f90614cd9565b60405180910390fd5b8173ffffffffffffffffffffffffffffffffffffffff16600260008573ffffffffffffffffffffffffffffffffffffffff1673ffffffffffffffffffffffffffffffffffffffff16815260200190815260200160002060009054906101000a900473ffffffffffffffffffffffffffffffffffffffff1673ffffffffffffffffffffffffffffffffffffffff1614613255576040517f08c379a000000000000000000000000000000000000000000000000000000000815260040161324c90615ba7565b60405180910390fd5b600260008373ffffffffffffffffffffffffffffffffffffffff1673ffffffffffffffffffffffffffffffffffffffff16815260200190815260200160002060009054906101000a900473ffffffffffffffffffffffffffffffffffffffff16600260008573ffffffffffffffffffffffffffffffffffffffff1673ffffffffffffffffffffffffffffffffffffffff16815260200190815260200160002060006101000a81548173ffffffffffffffffffffffffffffffffffffffff021916908373ffffffffffffffffffffffffffffffffffffffff1602179055506000600260008473ffffffffffffffffffffffffffffffffffffffff1673ffffffffffffffffffffffffffffffffffffffff16815260200190815260200160002060006101000a81548173ffffffffffffffffffffffffffffffffffffffff021916908373ffffffffffffffffffffffffffffffffffffffff160217905550600360008154809291906133c490615dec565b91905055507ff8d49fc529812e9a7c5c50e69c20f0dccc0db8fa95c98bc58cc9a4f1c1299eaf826040516133f89190614ddd565b60405180910390a180600454146134135761341281611967565b5b505050565b6040518060400160405280600581526020017f312e332e3000000000000000000000000000000000000000000000000000000081525081565b3073ffffffffffffffffffffffffffffffffffffffff163373ffffffffffffffffffffffffffffffffffffffff16146134bf576040517f08c379a00000000000000000000000000000000000000000000000000000000081526004016134b690615e62565b60405180910390fd5b565b6000808314156134d45760009050613500565b600082846134e29190615347565b90508284826134f19190615744565b146134fb57600080fd5b809150505b92915050565b60008060008360410260208101860151925060408101860151915060ff60418201870151169350509250925092565b600080828461354491906156bf565b90508381101561355357600080fd5b8091505092915050565b60006001808111156135725761357161557e565b5b8360018111156135855761358461557e565b5b141561359e576000808551602087018986f490506135ae565b600080855160208701888a87f190505b95945050505050565b6000807f4a204f620c8c5ccdca3fd54d003badd85ba500436a431f0cbda4f558c93c34c860001b9050805491505090565b6000818310156135f857816135fa565b825b905092915050565b60008282111561361157600080fd5b6000828461361f91906157e1565b90508091505092915050565b600080600073ffffffffffffffffffffffffffffffffffffffff168373ffffffffffffffffffffffffffffffffffffffff1614613668578261366a565b325b9050600073ffffffffffffffffffffffffffffffffffffffff168473ffffffffffffffffffffffffffffffffffffffff16141561374f576136d43a86106136b1573a6136b3565b855b6136c6888a61353590919063ffffffff16565b6134c190919063ffffffff16565b91508073ffffffffffffffffffffffffffffffffffffffff166108fc839081150290604051600060405180830381858888f1935050505061374a576040517f08c379a000000000000000000000000000000000000000000000000000000000815260040161374190615ece565b60405180910390fd5b6137c1565b61377485613766888a61353590919063ffffffff16565b6134c190919063ffffffff16565b9150613781848284613ddd565b6137c0576040517f08c379a00000000000000000000000000000000000000000000000000000000081526004016137b790615f3a565b60405180910390fd5b5b5095945050505050565b600060045414613810576040517f08c379a000000000000000000000000000000000000000000000000000000000815260040161380790615fa6565b60405180910390fd5b8151811115613854576040517f08c379a000000000000000000000000000000000000000000000000000000000815260040161384b906154c5565b60405180910390fd5b6001811015613898576040517f08c379a000000000000000000000000000000000000000000000000000000000815260040161388f90615531565b60405180910390fd5b60006001905060005b8351811015613b455760008482815181106138bf576138be61593f565b5b60200260200101519050600073ffffffffffffffffffffffffffffffffffffffff168173ffffffffffffffffffffffffffffffffffffffff16141580156139335750600173ffffffffffffffffffffffffffffffffffffffff168173ffffffffffffffffffffffffffffffffffffffff1614155b801561396b57503073ffffffffffffffffffffffffffffffffffffffff168173ffffffffffffffffffffffffffffffffffffffff1614155b80156139a357508073ffffffffffffffffffffffffffffffffffffffff168373ffffffffffffffffffffffffffffffffffffffff1614155b6139e2576040517f08c379a00000000000000000000000000000000000000000000000000000000081526004016139d990614cd9565b60405180910390fd5b600073ffffffffffffffffffffffffffffffffffffffff16600260008373ffffffffffffffffffffffffffffffffffffffff1673ffffffffffffffffffffffffffffffffffffffff16815260200190815260200160002060009054906101000a900473ffffffffffffffffffffffffffffffffffffffff1673ffffffffffffffffffffffffffffffffffffffff1614613ab0576040517f08c379a0000000000000000000000000000000000000000000000000000000008152600401613aa790614d45565b60405180910390fd5b80600260008573ffffffffffffffffffffffffffffffffffffffff1673ffffffffffffffffffffffffffffffffffffffff16815260200190815260200160002060006101000a81548173ffffffffffffffffffffffffffffffffffffffff021916908373ffffffffffffffffffffffffffffffffffffffff160217905550809250508080613b3d90614d94565b9150506138a1565b506001600260008373ffffffffffffffffffffffffffffffffffffffff1673ffffffffffffffffffffffffffffffffffffffff16815260200190815260200160002060006101000a81548173ffffffffffffffffffffffffffffffffffffffff021916908373ffffffffffffffffffffffffffffffffffffffff160217905550825160038190555081600481905550505050565b60007f6c9a6c4a39284e37ed1cf53d337577d14212a4870fb976a4366c693b939918d560001b90508181555050565b600073ffffffffffffffffffffffffffffffffffffffff1660016000600173ffffffffffffffffffffffffffffffffffffffff1673ffffffffffffffffffffffffffffffffffffffff16815260200190815260200160002060009054906101000a900473ffffffffffffffffffffffffffffffffffffffff1673ffffffffffffffffffffffffffffffffffffffff1614613cd7576040517f08c379a0000000000000000000000000000000000000000000000000000000008152600401613cce90616012565b60405180910390fd5b6001806000600173ffffffffffffffffffffffffffffffffffffffff1673ffffffffffffffffffffffffffffffffffffffff16815260200190815260200160002060006101000a81548173ffffffffffffffffffffffffffffffffffffffff021916908373ffffffffffffffffffffffffffffffffffffffff160217905550600073ffffffffffffffffffffffffffffffffffffffff168273ffffffffffffffffffffffffffffffffffffffff1614613dd957613d998260008360015a61355d565b613dd8576040517f08c379a0000000000000000000000000000000000000000000000000000000008152600401613dcf9061607e565b60405180910390fd5b5b5050565b60008063a9059cbb8484604051602401613df892919061609e565b6040516020818303038152906040529060e01b6020820180517bffffffffffffffffffffffffffffffffffffffffffffffffffffffff83818316178352505050509050602060008251602084016000896127105a03f13d60008114613e685760208114613e705760009350613e7b565b819350613e7b565b600051158215171593505b5050509392505050565b6000819050919050565b613e9881613e85565b82525050565b6000602082019050613eb36000830184613e8f565b92915050565b6000604051905090565b600080fd5b600080fd5b600073ffffffffffffffffffffffffffffffffffffffff82169050919050565b6000613ef882613ecd565b9050919050565b613f0881613eed565b8114613f1357600080fd5b50565b600081359050613f2581613eff565b92915050565b613f3481613e85565b8114613f3f57600080fd5b50565b600081359050613f5181613f2b565b92915050565b60008060408385031215613f6e57613f6d613ec3565b5b6000613f7c85828601613f16565b9250506020613f8d85828601613f42565b9150509250929050565b6000819050919050565b613faa81613f97565b8114613fb557600080fd5b50565b600081359050613fc781613fa1565b92915050565b600080fd5b600080fd5b6000601f19601f8301169050919050565b7f4e487b7100000000000000000000000000000000000000000000000000000000600052604160045260246000fd5b61402082613fd7565b810181811067ffffffffffffffff8211171561403f5761403e613fe8565b5b80604052505050565b6000614052613eb9565b905061405e8282614017565b919050565b600067ffffffffffffffff82111561407e5761407d613fe8565b5b61408782613fd7565b9050602081019050919050565b82818337600083830152505050565b60006140b66140b184614063565b614048565b9050828152602081018484840111156140d2576140d1613fd2565b5b6140dd848285614094565b509392505050565b600082601f8301126140fa576140f9613fcd565b5b813561410a8482602086016140a3565b91505092915050565b6000806000806080858703121561412d5761412c613ec3565b5b600061413b87828801613fb8565b945050602085013567ffffffffffffffff81111561415c5761415b613ec8565b5b614168878288016140e5565b935050604085013567ffffffffffffffff81111561418957614188613ec8565b5b614195878288016140e5565b92505060606141a687828801613f42565b91505092959194509250565b6000602082840312156141c8576141c7613ec3565b5b60006141d684828501613f16565b91505092915050565b60008115159050919050565b6141f4816141df565b82525050565b600060208201905061420f60008301846141eb565b92915050565b6002811061422257600080fd5b50565b60008135905061423481614215565b92915050565b6000806000806080858703121561425457614253613ec3565b5b600061426287828801613f16565b945050602061427387828801613f42565b935050604085013567ffffffffffffffff81111561429457614293613ec8565b5b6142a0878288016140e5565b92505060606142b187828801614225565b91505092959194509250565b600081519050919050565b600082825260208201905092915050565b60005b838110156142f75780820151818401526020810190506142dc565b83811115614306576000848401525b50505050565b6000614317826142bd565b61432181856142c8565b93506143318185602086016142d9565b61433a81613fd7565b840191505092915050565b600060408201905061435a60008301856141eb565b818103602083015261436c818461430c565b90509392505050565b6000806040838503121561438c5761438b613ec3565b5b600061439a85828601613f42565b92505060206143ab85828601613f42565b9150509250929050565b600060208201905081810360008301526143cf818461430c565b905092915050565b6000602082840312156143ed576143ec613ec3565b5b60006143fb84828501613fb8565b91505092915050565b60006020828403121561441a57614419613ec3565b5b600061442884828501613f42565b91505092915050565b600080fd5b600080fd5b60008083601f84011261445157614450613fcd565b5b8235905067ffffffffffffffff81111561446e5761446d614431565b5b60208301915083600182028301111561448a57614489614436565b5b9250929050565b600061449c82613ecd565b9050919050565b6144ac81614491565b81146144b757600080fd5b50565b6000813590506144c9816144a3565b92915050565b60008060008060008060008060008060006101408c8e0312156144f5576144f4613ec3565b5b60006145038e828f01613f16565b9b505060206145148e828f01613f42565b9a505060408c013567ffffffffffffffff81111561453557614534613ec8565b5b6145418e828f0161443b565b995099505060606145548e828f01614225565b97505060806145658e828f01613f42565b96505060a06145768e828f01613f42565b95505060c06145878e828f01613f42565b94505060e06145988e828f01613f16565b9350506101006145aa8e828f016144ba565b9250506101208c013567ffffffffffffffff8111156145cc576145cb613ec8565b5b6145d88e828f016140e5565b9150509295989b509295989b9093969950565b6000806040838503121561460257614601613ec3565b5b600061461085828601613f16565b925050602061462185828601613fb8565b9150509250929050565b60008060006060848603121561464457614643613ec3565b5b600061465286828701613fb8565b935050602084013567ffffffffffffffff81111561467357614672613ec8565b5b61467f868287016140e5565b925050604084013567ffffffffffffffff8111156146a05761469f613ec8565b5b6146ac868287016140e5565b9150509250925092565b600081519050919050565b600082825260208201905092915050565b6000819050602082019050919050565b6146eb81613eed565b82525050565b60006146fd83836146e2565b60208301905092915050565b6000602082019050919050565b6000614721826146b6565b61472b81856146c1565b9350614736836146d2565b8060005b8381101561476757815161474e88826146f1565b975061475983614709565b92505060018101905061473a565b5085935050505092915050565b6000602082019050818103600083015261478e8184614716565b905092915050565b600080604083850312156147ad576147ac613ec3565b5b60006147bb85828601613f16565b925050602083013567ffffffffffffffff8111156147dc576147db613ec8565b5b6147e8858286016140e5565b9150509250929050565b60008083601f84011261480857614807613fcd565b5b8235905067ffffffffffffffff81111561482557614824614431565b5b60208301915083602082028301111561484157614840614436565b5b9250929050565b6000806000806000806000806000806101008b8d03121561486c5761486b613ec3565b5b60008b013567ffffffffffffffff81111561488a57614889613ec8565b5b6148968d828e016147f2565b9a509a505060206148a98d828e01613f42565b98505060406148ba8d828e01613f16565b97505060608b013567ffffffffffffffff8111156148db576148da613ec8565b5b6148e78d828e0161443b565b965096505060806148fa8d828e01613f16565b94505060a061490b8d828e01613f16565b93505060c061491c8d828e01613f42565b92505060e061492d8d828e016144ba565b9150509295989b9194979a5092959850565b60008060008060006080868803121561495b5761495a613ec3565b5b600061496988828901613f16565b955050602061497a88828901613f42565b945050604086013567ffffffffffffffff81111561499b5761499a613ec8565b5b6149a78882890161443b565b935093505060606149ba88828901614225565b9150509295509295909350565b6149d081613eed565b82525050565b600060408201905081810360008301526149f08185614716565b90506149ff60208301846149c7565b9392505050565b60008060008060008060008060008060006101408c8e031215614a2c57614a2b613ec3565b5b6000614a3a8e828f01613f16565b9b50506020614a4b8e828f01613f42565b9a505060408c013567ffffffffffffffff811115614a6c57614a6b613ec8565b5b614a788e828f0161443b565b99509950506060614a8b8e828f01614225565b9750506080614a9c8e828f01613f42565b96505060a0614aad8e828f01613f42565b95505060c0614abe8e828f01613f42565b94505060e0614acf8e828f01613f16565b935050610100614ae18e828f01613f16565b925050610120614af38e828f01613f42565b9150509295989b509295989b9093969950565b614b0f81613f97565b82525050565b6000602082019050614b2a6000830184614b06565b92915050565b60008060408385031215614b4757614b46613ec3565b5b6000614b5585828601613f16565b9250506020614b6685828601613f16565b9150509250929050565b600080600060608486031215614b8957614b88613ec3565b5b6000614b9786828701613f16565b9350506020614ba886828701613f16565b9250506040614bb986828701613f16565b9150509250925092565b600080600060608486031215614bdc57614bdb613ec3565b5b6000614bea86828701613f16565b9350506020614bfb86828701613f16565b9250506040614c0c86828701613f42565b9150509250925092565b600081519050919050565b600082825260208201905092915050565b6000614c3d82614c16565b614c478185614c21565b9350614c578185602086016142d9565b614c6081613fd7565b840191505092915050565b60006020820190508181036000830152614c858184614c32565b905092915050565b7f4753323033000000000000000000000000000000000000000000000000000000600082015250565b6000614cc3600583614c21565b9150614cce82614c8d565b602082019050919050565b60006020820190508181036000830152614cf281614cb6565b9050919050565b7f4753323034000000000000000000000000000000000000000000000000000000600082015250565b6000614d2f600583614c21565b9150614d3a82614cf9565b602082019050919050565b60006020820190508181036000830152614d5e81614d22565b9050919050565b7f4e487b7100000000000000000000000000000000000000000000000000000000600052601160045260246000fd5b6000614d9f82613e85565b91507fffffffffffffffffffffffffffffffffffffffffffffffffffffffffffffffff821415614dd257614dd1614d65565b5b600182019050919050565b6000602082019050614df260008301846149c7565b92915050565b7f4753303230000000000000000000000000000000000000000000000000000000600082015250565b6000614e2e600583614c21565b9150614e3982614df8565b602082019050919050565b60006020820190508181036000830152614e5d81614e21565b9050919050565b7f4753303231000000000000000000000000000000000000000000000000000000600082015250565b6000614e9a600583614c21565b9150614ea582614e64565b602082019050919050565b60006020820190508181036000830152614ec981614e8d565b9050919050565b7f4753303232000000000000000000000000000000000000000000000000000000600082015250565b6000614f06600583614c21565b9150614f1182614ed0565b602082019050919050565b60006020820190508181036000830152614f3581614ef9565b9050919050565b7f4753303233000000000000000000000000000000000000000000000000000000600082015250565b6000614f72600583614c21565b9150614f7d82614f3c565b602082019050919050565b60006020820190508181036000830152614fa181614f65565b9050919050565b60006040820190508181036000830152614fc2818561430c565b90508181036020830152614fd6818461430c565b90509392505050565b60007fffffffff0000000000000000000000000000000000000000000000000000000082169050919050565b61501481614fdf565b811461501f57600080fd5b50565b6000815190506150318161500b565b92915050565b60006020828403121561504d5761504c613ec3565b5b600061505b84828501615022565b91505092915050565b7f4753303234000000000000000000000000000000000000000000000000000000600082015250565b600061509a600583614c21565b91506150a582615064565b602082019050919050565b600060208201905081810360008301526150c98161508d565b9050919050565b7f4753303235000000000000000000000000000000000000000000000000000000600082015250565b6000615106600583614c21565b9150615111826150d0565b602082019050919050565b60006020820190508181036000830152615135816150f9565b9050919050565b600081905092915050565b7f19457468657265756d205369676e6564204d6573736167653a0a333200000000600082015250565b600061517d601c8361513c565b915061518882615147565b601c82019050919050565b6000819050919050565b6151ae6151a982613f97565b615193565b82525050565b60006151bf82615170565b91506151cb828461519d565b60208201915081905092915050565b600060ff82169050919050565b60006151f2826151da565b91506151fd836151da565b9250828210156152105761520f614d65565b5b828203905092915050565b615224816151da565b82525050565b600060808201905061523f6000830187614b06565b61524c602083018661521b565b6152596040830185614b06565b6152666060830184614b06565b95945050505050565b7f4753303236000000000000000000000000000000000000000000000000000000600082015250565b60006152a5600583614c21565b91506152b08261526f565b602082019050919050565b600060208201905081810360008301526152d481615298565b9050919050565b7f4753313034000000000000000000000000000000000000000000000000000000600082015250565b6000615311600583614c21565b915061531c826152db565b602082019050919050565b6000602082019050818103600083015261534081615304565b9050919050565b600061535282613e85565b915061535d83613e85565b9250817fffffffffffffffffffffffffffffffffffffffffffffffffffffffffffffffff048311821515161561539657615395614d65565b5b828202905092915050565b7f4753313031000000000000000000000000000000000000000000000000000000600082015250565b60006153d7600583614c21565b91506153e2826153a1565b602082019050919050565b60006020820190508181036000830152615406816153ca565b9050919050565b7f4753313032000000000000000000000000000000000000000000000000000000600082015250565b6000615443600583614c21565b915061544e8261540d565b602082019050919050565b6000602082019050818103600083015261547281615436565b9050919050565b7f4753323031000000000000000000000000000000000000000000000000000000600082015250565b60006154af600583614c21565b91506154ba82615479565b602082019050919050565b600060208201905081810360008301526154de816154a2565b9050919050565b7f4753323032000000000000000000000000000000000000000000000000000000600082015250565b600061551b600583614c21565b9150615526826154e5565b602082019050919050565b6000602082019050818103600083015261554a8161550e565b9050919050565b600061555d83856142c8565b935061556a838584614094565b61557383613fd7565b840190509392505050565b7f4e487b7100000000000000000000000000000000000000000000000000000000600052602160045260246000fd5b600281106155be576155bd61557e565b5b50565b60008190506155cf826155ad565b919050565b60006155df826155c1565b9050919050565b6155ef816155d4565b82525050565b6155fe81614491565b82525050565b60006101608201905061561a600083018f6149c7565b615627602083018e613e8f565b818103604083015261563a818c8e615551565b9050615649606083018b6155e6565b615656608083018a613e8f565b61566360a0830189613e8f565b61567060c0830188613e8f565b61567d60e08301876149c7565b61568b6101008301866155f5565b81810361012083015261569e818561430c565b90506156ae6101408301846149c7565b9d9c50505050505050505050505050565b60006156ca82613e85565b91506156d583613e85565b9250827fffffffffffffffffffffffffffffffffffffffffffffffffffffffffffffffff0382111561570a57615709614d65565b5b828201905092915050565b7f4e487b7100000000000000000000000000000000000000000000000000000000600052601260045260246000fd5b600061574f82613e85565b915061575a83613e85565b92508261576a57615769615715565b5b828204905092915050565b7f4753303130000000000000000000000000000000000000000000000000000000600082015250565b60006157ab600583614c21565b91506157b682615775565b602082019050919050565b600060208201905081810360008301526157da8161579e565b9050919050565b60006157ec82613e85565b91506157f783613e85565b92508282101561580a57615809614d65565b5b828203905092915050565b7f4753303133000000000000000000000000000000000000000000000000000000600082015250565b600061584b600583614c21565b915061585682615815565b602082019050919050565b6000602082019050818103600083015261587a8161583e565b9050919050565b60006040820190506158966000830185614b06565b6158a36020830184613e8f565b9392505050565b60006040820190506158bf6000830185614b06565b6158cc60208301846141eb565b9392505050565b7f4753303031000000000000000000000000000000000000000000000000000000600082015250565b6000615909600583614c21565b9150615914826158d3565b602082019050919050565b60006020820190508181036000830152615938816158fc565b9050919050565b7f4e487b7100000000000000000000000000000000000000000000000000000000600052603260045260246000fd5b6000819050919050565b60006159876020840184613f16565b905092915050565b6000602082019050919050565b60006159a883856146c1565b93506159b38261596e565b8060005b858110156159ec576159c98284615978565b6159d388826146f1565b97506159de8361598f565b9250506001810190506159b7565b5085925050509392505050565b60006080820190508181036000830152615a1481878961599c565b9050615a236020830186613e8f565b615a3060408301856149c7565b615a3d60608301846149c7565b9695505050505050565b6000819050919050565b615a62615a5d82613e85565b615a47565b82525050565b6000615a748284615a51565b60208201915081905092915050565b7f4753303330000000000000000000000000000000000000000000000000000000600082015250565b6000615ab9600583614c21565b9150615ac482615a83565b602082019050919050565b60006020820190508181036000830152615ae881615aac565b9050919050565b7f4753313033000000000000000000000000000000000000000000000000000000600082015250565b6000615b25600583614c21565b9150615b3082615aef565b602082019050919050565b60006020820190508181036000830152615b5481615b18565b9050919050565b7f4753323035000000000000000000000000000000000000000000000000000000600082015250565b6000615b91600583614c21565b9150615b9c82615b5b565b602082019050919050565b60006020820190508181036000830152615bc081615b84565b9050919050565b600081905092915050565b6000615bde8385615bc7565b9350615beb838584614094565b82840190509392505050565b6000615c04828486615bd2565b91508190509392505050565b600061016082019050615c26600083018e614b06565b615c33602083018d6149c7565b615c40604083018c613e8f565b615c4d606083018b614b06565b615c5a608083018a6155e6565b615c6760a0830189613e8f565b615c7460c0830188613e8f565b615c8160e0830187613e8f565b615c8f6101008301866149c7565b615c9d6101208301856149c7565b615cab610140830184613e8f565b9c9b505050505050505050505050565b60007fff0000000000000000000000000000000000000000000000000000000000000082169050919050565b6000819050919050565b615d02615cfd82615cbb565b615ce7565b82525050565b6000615d148287615cf1565b600182019150615d248286615cf1565b600182019150615d34828561519d565b602082019150615d44828461519d565b60208201915081905095945050505050565b6000819050919050565b6000615d7b615d76615d7184613ecd565b615d56565b613ecd565b9050919050565b6000615d8d82615d60565b9050919050565b6000615d9f82615d82565b9050919050565b615daf81615d94565b82525050565b6000606082019050615dca6000830186614b06565b615dd76020830185613e8f565b615de46040830184615da6565b949350505050565b6000615df782613e85565b91506000821415615e0b57615e0a614d65565b5b600182039050919050565b7f4753303331000000000000000000000000000000000000000000000000000000600082015250565b6000615e4c600583614c21565b9150615e5782615e16565b602082019050919050565b60006020820190508181036000830152615e7b81615e3f565b9050919050565b7f4753303131000000000000000000000000000000000000000000000000000000600082015250565b6000615eb8600583614c21565b9150615ec382615e82565b602082019050919050565b60006020820190508181036000830152615ee781615eab565b9050919050565b7f4753303132000000000000000000000000000000000000000000000000000000600082015250565b6000615f24600583614c21565b9150615f2f82615eee565b602082019050919050565b60006020820190508181036000830152615f5381615f17565b9050919050565b7f4753323030000000000000000000000000000000000000000000000000000000600082015250565b6000615f90600583614c21565b9150615f9b82615f5a565b602082019050919050565b60006020820190508181036000830152615fbf81615f83565b9050919050565b7f4753313030000000000000000000000000000000000000000000000000000000600082015250565b6000615ffc600583614c21565b915061600782615fc6565b602082019050919050565b6000602082019050818103600083015261602b81615fef565b9050919050565b7f4753303030000000000000000000000000000000000000000000000000000000600082015250565b6000616068600583614c21565b915061607382616032565b602082019050919050565b600060208201905081810360008301526160978161605b565b9050919050565b60006040820190506160b360008301856149c7565b6160c06020830184613e8f565b939250505056fea26469706673582212208cdd20277f9cdc1e51a1fbb09d8304c840a692d8b914904cafbe0e38c29c808264736f6c63430008090033",
  "linkReferences": {},
  "deployedLinkReferences": {}
}