{
  "address": "0x8717635e4337E4381A2Aed75aFCbc3a6D0998948",
  "abi": [
    {
      "inputs": [
        {
          "internalType": "address",
          "name": "_lbpFactory",
          "type": "address"
        }
      ],
      "stateMutability": "nonpayable",
      "type": "constructor"
    },
    {
      "anonymous": false,
      "inputs": [
        {
          "indexed": true,
          "internalType": "address",
          "name": "oldLBPFactory",
          "type": "address"
        },
        {
          "indexed": true,
          "internalType": "address",
          "name": "newLBPFactory",
          "type": "address"
        }
      ],
      "name": "LBPFactoryChanged",
      "type": "event"
    },
    {
      "anonymous": false,
      "inputs": [
        {
          "indexed": true,
          "internalType": "address",
          "name": "lbpManager",
          "type": "address"
        },
        {
          "indexed": true,
          "internalType": "address",
          "name": "admin",
          "type": "address"
        },
        {
          "indexed": false,
          "internalType": "bytes",
          "name": "metadata",
          "type": "bytes"
        }
      ],
      "name": "LBPManagerDeployed",
      "type": "event"
    },
    {
      "anonymous": false,
      "inputs": [
        {
          "indexed": true,
          "internalType": "address",
          "name": "oldMasterCopy",
          "type": "address"
        },
        {
          "indexed": true,
          "internalType": "address",
          "name": "newMasterCopy",
          "type": "address"
        }
      ],
      "name": "MastercopyChanged",
      "type": "event"
    },
    {
      "anonymous": false,
      "inputs": [
        {
          "indexed": true,
          "internalType": "address",
          "name": "previousOwner",
          "type": "address"
        },
        {
          "indexed": true,
          "internalType": "address",
          "name": "newOwner",
          "type": "address"
        }
      ],
      "name": "OwnershipTransferred",
      "type": "event"
    },
    {
      "inputs": [
        {
          "internalType": "address",
          "name": "_admin",
          "type": "address"
        },
        {
          "internalType": "address",
          "name": "_beneficiary",
          "type": "address"
        },
        {
          "internalType": "string",
          "name": "_name",
          "type": "string"
        },
        {
          "internalType": "string",
          "name": "_symbol",
          "type": "string"
        },
        {
          "internalType": "contract IERC20[]",
          "name": "_tokenList",
          "type": "address[]"
        },
        {
          "internalType": "uint256[]",
          "name": "_amounts",
          "type": "uint256[]"
        },
        {
          "internalType": "uint256[]",
          "name": "_startWeights",
          "type": "uint256[]"
        },
        {
          "internalType": "uint256[]",
          "name": "_startTimeEndtime",
          "type": "uint256[]"
        },
        {
          "internalType": "uint256[]",
          "name": "_endWeights",
          "type": "uint256[]"
        },
        {
          "internalType": "uint256[]",
          "name": "_fees",
          "type": "uint256[]"
        },
        {
          "internalType": "bytes",
          "name": "_metadata",
          "type": "bytes"
        }
      ],
      "name": "deployLBPManager",
      "outputs": [],
      "stateMutability": "nonpayable",
      "type": "function"
    },
    {
      "inputs": [],
      "name": "lbpFactory",
      "outputs": [
        {
          "internalType": "address",
          "name": "",
          "type": "address"
        }
      ],
      "stateMutability": "view",
      "type": "function"
    },
    {
      "inputs": [],
      "name": "masterCopy",
      "outputs": [
        {
          "internalType": "address",
          "name": "",
          "type": "address"
        }
      ],
      "stateMutability": "view",
      "type": "function"
    },
    {
      "inputs": [],
      "name": "owner",
      "outputs": [
        {
          "internalType": "address",
          "name": "",
          "type": "address"
        }
      ],
      "stateMutability": "view",
      "type": "function"
    },
    {
      "inputs": [],
      "name": "renounceOwnership",
      "outputs": [],
      "stateMutability": "nonpayable",
      "type": "function"
    },
    {
      "inputs": [
        {
          "internalType": "address",
          "name": "_lbpFactory",
          "type": "address"
        }
      ],
      "name": "setLBPFactory",
      "outputs": [],
      "stateMutability": "nonpayable",
      "type": "function"
    },
    {
      "inputs": [
        {
          "internalType": "address",
          "name": "_masterCopy",
          "type": "address"
        }
      ],
      "name": "setMasterCopy",
      "outputs": [],
      "stateMutability": "nonpayable",
      "type": "function"
    },
    {
      "inputs": [
        {
          "internalType": "address",
          "name": "newOwner",
          "type": "address"
        }
      ],
      "name": "transferOwnership",
      "outputs": [],
      "stateMutability": "nonpayable",
      "type": "function"
    }
  ],
  "transactionHash": "0x16a122c023cf419aae32574f823b6118d31cfed14a93aabef230eca54b797f0a",
  "args": [
    "0xdF87a2369FAa3140613c3C5D008A9F50B3303fD3"
  ],
  "solcInputHash": "bf89fe6a61a7d22f31b24d3cee885a8d",
  "bytecode": "0x608060405234801561001057600080fd5b50604051610d47380380610d4783398101604081905261002f91610107565b610038336100b7565b6001600160a01b0381166100925760405162461bcd60e51b815260206004820152601f60248201527f4c42504d466163746f72793a204c4250466163746f7279206973207a65726f00604482015260640160405180910390fd5b600280546001600160a01b0319166001600160a01b0392909216919091179055610137565b600080546001600160a01b038381166001600160a01b0319831681178455604051919092169283917f8be0079c531659141344cd1fd0a4f28419497f9722a3daafe3b4186f6b6457e09190a35050565b60006020828403121561011957600080fd5b81516001600160a01b038116811461013057600080fd5b9392505050565b610c01806101466000396000f3fe608060405234801561001057600080fd5b50600436106100885760003560e01c8063c18b51511161005b578063c18b5151146100e6578063cf497e6c146100f9578063f2fde38b1461010c578063fd3bd38a1461011f57600080fd5b8063715018a61461008d5780637679a4c1146100975780638da5cb5b146100aa578063a619486e146100d3575b600080fd5b610095610132565b005b6100956100a5366004610665565b610146565b6000546001600160a01b03165b6040516001600160a01b03909116815260200160405180910390f35b6001546100b7906001600160a01b031681565b6002546100b7906001600160a01b031681565b610095610107366004610665565b61022f565b61009561011a366004610665565b610313565b61009561012d366004610833565b61038c565b61013a610544565b610144600061059e565b565b61014e610544565b806001600160a01b0381166101aa5760405162461bcd60e51b815260206004820152601c60248201527f4c42504d466163746f72793a2061646472657373206973207a65726f0000000060448201526064015b60405180910390fd5b306001600160a01b038216036101d25760405162461bcd60e51b81526004016101a1906109c9565b6002546040516001600160a01b038085169216907f877e5d562f57d3294803fbbd1e6715a2342eedb560cc540e97a9b77f03d12cbf90600090a350600280546001600160a01b0319166001600160a01b0392909216919091179055565b610237610544565b806001600160a01b03811661028e5760405162461bcd60e51b815260206004820152601c60248201527f4c42504d466163746f72793a2061646472657373206973207a65726f0000000060448201526064016101a1565b306001600160a01b038216036102b65760405162461bcd60e51b81526004016101a1906109c9565b6001546040516001600160a01b038085169216907fb8c954c26b96c632ba5e28e879f889c124225199d6787047500b1eef41ff464190600090a350600180546001600160a01b0319166001600160a01b0392909216919091179055565b61031b610544565b6001600160a01b0381166103805760405162461bcd60e51b815260206004820152602660248201527f4f776e61626c653a206e6577206f776e657220697320746865207a65726f206160448201526564647265737360d01b60648201526084016101a1565b6103898161059e565b50565b610394610544565b6001546001600160a01b03166103ff5760405162461bcd60e51b815260206004820152602a60248201527f4c42504d466163746f72793a204c42504d616e61676572206d6173746572636f6044820152691c1e481b9bdd081cd95d60b21b60648201526084016101a1565b600154600090610417906001600160a01b03166105ee565b600254604051638638fe3160e01b81529192506001600160a01b0380841692638638fe319261045e9216908f908f908f908f908f908f908f908f908f908f90600401610ad1565b600060405180830381600087803b15801561047857600080fd5b505af115801561048c573d6000803e3d6000fd5b505060405163b5106add60e01b81526001600160a01b038f811660048301528416925063b5106add9150602401600060405180830381600087803b1580156104d357600080fd5b505af11580156104e7573d6000803e3d6000fd5b505050508b6001600160a01b0316816001600160a01b03167f8b8a9c158a44eff86c91705dbc9c0479504c8de441156f3c2c21a6ed00e1627a8460405161052e9190610bb8565b60405180910390a3505050505050505050505050565b6000546001600160a01b031633146101445760405162461bcd60e51b815260206004820181905260248201527f4f776e61626c653a2063616c6c6572206973206e6f7420746865206f776e657260448201526064016101a1565b600080546001600160a01b038381166001600160a01b0319831681178455604051919092169283917f8be0079c531659141344cd1fd0a4f28419497f9722a3daafe3b4186f6b6457e09190a35050565b6000808260601b9050604051733d602d80600a3d3981f3363d3d373d3d3d363d7360601b81528160148201526e5af43d82803e903d91602b57fd5bf360881b60288201526037816000f0949350505050565b6001600160a01b038116811461038957600080fd5b803561066081610640565b919050565b60006020828403121561067757600080fd5b813561068281610640565b9392505050565b634e487b7160e01b600052604160045260246000fd5b604051601f8201601f1916810167ffffffffffffffff811182821017156106c8576106c8610689565b604052919050565b600082601f8301126106e157600080fd5b813567ffffffffffffffff8111156106fb576106fb610689565b61070e601f8201601f191660200161069f565b81815284602083860101111561072357600080fd5b816020850160208301376000918101602001919091529392505050565b600067ffffffffffffffff82111561075a5761075a610689565b5060051b60200190565b600082601f83011261077557600080fd5b8135602061078a61078583610740565b61069f565b82815260059290921b840181019181810190868411156107a957600080fd5b8286015b848110156107cd5780356107c081610640565b83529183019183016107ad565b509695505050505050565b600082601f8301126107e957600080fd5b813560206107f961078583610740565b82815260059290921b8401810191818101908684111561081857600080fd5b8286015b848110156107cd578035835291830191830161081c565b60008060008060008060008060008060006101608c8e03121561085557600080fd5b61085e8c610655565b9a5061086c60208d01610655565b995067ffffffffffffffff8060408e0135111561088857600080fd5b6108988e60408f01358f016106d0565b99508060608e013511156108ab57600080fd5b6108bb8e60608f01358f016106d0565b98508060808e013511156108ce57600080fd5b6108de8e60808f01358f01610764565b97508060a08e013511156108f157600080fd5b6109018e60a08f01358f016107d8565b96508060c08e0135111561091457600080fd5b6109248e60c08f01358f016107d8565b95508060e08e0135111561093757600080fd5b6109478e60e08f01358f016107d8565b9450806101008e0135111561095b57600080fd5b61096c8e6101008f01358f016107d8565b9350806101208e0135111561098057600080fd5b6109918e6101208f01358f016107d8565b9250806101408e013511156109a557600080fd5b506109b78d6101408e01358e016106d0565b90509295989b509295989b9093969950565b6020808252602e908201527f4c42504d466163746f72793a20616464726573732073616d65206173204c425060408201526d4d616e61676572466163746f727960901b606082015260800190565b6000815180845260005b81811015610a3d57602081850181015186830182015201610a21565b506000602082860101526020601f19601f83011685010191505092915050565b600081518084526020808501945080840160005b83811015610a965781516001600160a01b031687529582019590820190600101610a71565b509495945050505050565b600081518084526020808501945080840160005b83811015610a9657815187529582019590820190600101610ab5565b6001600160a01b038c16815260006101606001600160a01b038d166020840152806040840152610b038184018d610a17565b90508281036060840152610b17818c610a17565b90508281036080840152610b2b818b610a5d565b905082810360a0840152610b3f818a610aa1565b905082810360c0840152610b538189610aa1565b905082810360e0840152610b678188610aa1565b9050828103610100840152610b7c8187610aa1565b9050828103610120840152610b918186610aa1565b9050828103610140840152610ba68185610a17565b9e9d5050505050505050505050505050565b6020815260006106826020830184610a1756fea2646970667358221220ae5e8810a577600a3790682907f2d9f1dcee3d560c0fa5535b5ed0bf67e7803464736f6c63430008110033",
  "devdoc": {
    "details": "Governance to create new LBPManager contracts.",
    "kind": "dev",
    "methods": {
      "constructor": {
        "details": "Constructor.",
        "params": {
          "_lbpFactory": "The address of Balancers LBP factory."
        }
      },
      "deployLBPManager(address,address,string,string,address[],uint256[],uint256[],uint256[],uint256[],uint256[],bytes)": {
        "details": "Deploy and initialize LBPManager.",
        "params": {
          "_admin": "The address of the admin of the LBPManager.",
          "_amounts": "Sorted array to match the _tokenList, containing two parameters: - The amounts of project token to be added as liquidity to the LBP. - The amounts of funding token to be added as liquidity to the LBP.",
          "_beneficiary": "The address that receives the _fees.",
          "_endWeights": "Sorted array to match the _tokenList, containing two parametes: - The end weight for the project token in the LBP. - The end weight for the funding token in the LBP.",
          "_fees": "Array containing two parameters: - Percentage of fee paid for every swap in the LBP. - Percentage of fee paid to the _beneficiary for providing the service of the LBP Manager.",
          "_metadata": "IPFS Hash of the LBP creation wizard information.",
          "_name": "Name of the LBP.",
          "_startTimeEndtime": "Array containing two parameters: - Start time for the LBP. - End time for the LBP.",
          "_startWeights": "Sorted array to match the _tokenList, containing two parametes: - The start weight for the project token in the LBP. - The start weight for the funding token in the LBP.",
          "_symbol": "Symbol of the LBP.",
          "_tokenList": "Numerically sorted array (ascending) containing two addresses: - The address of the project token being distributed. - The address of the funding token being exchanged for the project token."
        }
      },
      "owner()": {
        "details": "Returns the address of the current owner."
      },
      "renounceOwnership()": {
        "details": "Leaves the contract without owner. It will not be possible to call `onlyOwner` functions anymore. Can only be called by the current owner. NOTE: Renouncing ownership will leave the contract without an owner, thereby removing any functionality that is only available to the owner."
      },
      "setLBPFactory(address)": {
        "details": "Set Balancers LBP Factory contract as basis for deploying LBPs.",
        "params": {
          "_lbpFactory": "The address of Balancers LBP factory."
        }
      },
      "setMasterCopy(address)": {
        "details": "Set LBPManager contract which works as a base for clones.",
        "params": {
          "_masterCopy": "The address of the new LBPManager basis."
        }
      },
      "transferOwnership(address)": {
        "details": "Transfers ownership of the contract to a new account (`newOwner`). Can only be called by the current owner."
      }
    },
    "title": "LBPManager Factory",
    "version": 1
  },
  "userdoc": {
    "kind": "user",
    "methods": {},
    "version": 1
  },
  "storageLayout": {
    "storage": [
      {
        "astId": 2584,
        "contract": "contracts/lbp/LBPManagerFactory.sol:LBPManagerFactory",
        "label": "_owner",
        "offset": 0,
        "slot": "0",
        "type": "t_address"
      },
      {
        "astId": 4898,
        "contract": "contracts/lbp/LBPManagerFactory.sol:LBPManagerFactory",
        "label": "masterCopy",
        "offset": 0,
        "slot": "1",
        "type": "t_address"
      },
      {
        "astId": 4900,
        "contract": "contracts/lbp/LBPManagerFactory.sol:LBPManagerFactory",
        "label": "lbpFactory",
        "offset": 0,
        "slot": "2",
        "type": "t_address"
      }
    ],
    "types": {
      "t_address": {
        "encoding": "inplace",
        "label": "address",
        "numberOfBytes": "20"
      }
    }
  }
}