{
  "address": "0x49ED64a98FA5E298384000A92CD4A0B0fECeA9b9",
  "abi": [
    {
      "anonymous": false,
      "inputs": [
        {
          "indexed": true,
          "internalType": "address",
          "name": "beneficiary",
          "type": "address"
        },
        {
          "indexed": false,
          "internalType": "address",
          "name": "tokenAddress",
          "type": "address"
        },
        {
          "indexed": false,
          "internalType": "uint256",
          "name": "amount",
          "type": "uint256"
        }
      ],
      "name": "FeeTransferred",
      "type": "event"
    },
    {
      "anonymous": false,
      "inputs": [
        {
          "indexed": true,
          "internalType": "address",
          "name": "oldAdmin",
          "type": "address"
        },
        {
          "indexed": true,
          "internalType": "address",
          "name": "newAdmin",
          "type": "address"
        }
      ],
      "name": "LBPManagerAdminChanged",
      "type": "event"
    },
    {
      "anonymous": false,
      "inputs": [
        {
          "indexed": true,
          "internalType": "bytes",
          "name": "metadata",
          "type": "bytes"
        }
      ],
      "name": "MetadataUpdated",
      "type": "event"
    },
    {
      "anonymous": false,
      "inputs": [
        {
          "indexed": true,
          "internalType": "address",
          "name": "lbpAddress",
          "type": "address"
        },
        {
          "indexed": false,
          "internalType": "uint256",
          "name": "amount",
          "type": "uint256"
        }
      ],
      "name": "PoolTokensWithdrawn",
      "type": "event"
    },
    {
      "inputs": [],
      "name": "admin",
      "outputs": [
        {
          "internalType": "address",
          "name": "",
          "type": "address"
        }
      ],
      "stateMutability": "view",
      "type": "function"
    },
    {
      "inputs": [
        {
          "internalType": "uint256",
          "name": "",
          "type": "uint256"
        }
      ],
      "name": "amounts",
      "outputs": [
        {
          "internalType": "uint256",
          "name": "",
          "type": "uint256"
        }
      ],
      "stateMutability": "view",
      "type": "function"
    },
    {
      "inputs": [],
      "name": "beneficiary",
      "outputs": [
        {
          "internalType": "address",
          "name": "",
          "type": "address"
        }
      ],
      "stateMutability": "view",
      "type": "function"
    },
    {
      "inputs": [
        {
          "internalType": "uint256",
          "name": "",
          "type": "uint256"
        }
      ],
      "name": "endWeights",
      "outputs": [
        {
          "internalType": "uint256",
          "name": "",
          "type": "uint256"
        }
      ],
      "stateMutability": "view",
      "type": "function"
    },
    {
      "inputs": [],
      "name": "feePercentage",
      "outputs": [
        {
          "internalType": "uint256",
          "name": "",
          "type": "uint256"
        }
      ],
      "stateMutability": "view",
      "type": "function"
    },
    {
      "inputs": [],
      "name": "getSwapEnabled",
      "outputs": [
        {
          "internalType": "bool",
          "name": "",
          "type": "bool"
        }
      ],
      "stateMutability": "view",
      "type": "function"
    },
    {
      "inputs": [
        {
          "internalType": "address",
          "name": "_sender",
          "type": "address"
        }
      ],
      "name": "initializeLBP",
      "outputs": [],
      "stateMutability": "nonpayable",
      "type": "function"
    },
    {
      "inputs": [
        {
          "internalType": "address",
          "name": "_lbpFactory",
          "type": "address"
        },
        {
          "internalType": "address",
          "name": "_beneficiary",
          "type": "address"
        },
        {
          "internalType": "string",
          "name": "_name",
          "type": "string"
        },
        {
          "internalType": "string",
          "name": "_symbol",
          "type": "string"
        },
        {
          "internalType": "contract IERC20[]",
          "name": "_tokenList",
          "type": "address[]"
        },
        {
          "internalType": "uint256[]",
          "name": "_amounts",
          "type": "uint256[]"
        },
        {
          "internalType": "uint256[]",
          "name": "_startWeights",
          "type": "uint256[]"
        },
        {
          "internalType": "uint256[]",
          "name": "_startTimeEndTime",
          "type": "uint256[]"
        },
        {
          "internalType": "uint256[]",
          "name": "_endWeights",
          "type": "uint256[]"
        },
        {
          "internalType": "uint256[]",
          "name": "_fees",
          "type": "uint256[]"
        },
        {
          "internalType": "bytes",
          "name": "_metadata",
          "type": "bytes"
        }
      ],
      "name": "initializeLBPManager",
      "outputs": [],
      "stateMutability": "nonpayable",
      "type": "function"
    },
    {
      "inputs": [],
      "name": "initialized",
      "outputs": [
        {
          "internalType": "bool",
          "name": "",
          "type": "bool"
        }
      ],
      "stateMutability": "view",
      "type": "function"
    },
    {
      "inputs": [],
      "name": "lbp",
      "outputs": [
        {
          "internalType": "contract ILBP",
          "name": "",
          "type": "address"
        }
      ],
      "stateMutability": "view",
      "type": "function"
    },
    {
      "inputs": [],
      "name": "lbpFactory",
      "outputs": [
        {
          "internalType": "address",
          "name": "",
          "type": "address"
        }
      ],
      "stateMutability": "view",
      "type": "function"
    },
    {
      "inputs": [],
      "name": "metadata",
      "outputs": [
        {
          "internalType": "bytes",
          "name": "",
          "type": "bytes"
        }
      ],
      "stateMutability": "view",
      "type": "function"
    },
    {
      "inputs": [],
      "name": "name",
      "outputs": [
        {
          "internalType": "string",
          "name": "",
          "type": "string"
        }
      ],
      "stateMutability": "view",
      "type": "function"
    },
    {
      "inputs": [],
      "name": "poolFunded",
      "outputs": [
        {
          "internalType": "bool",
          "name": "",
          "type": "bool"
        }
      ],
      "stateMutability": "view",
      "type": "function"
    },
    {
      "inputs": [],
      "name": "projectTokenIndex",
      "outputs": [
        {
          "internalType": "uint8",
          "name": "",
          "type": "uint8"
        }
      ],
      "stateMutability": "view",
      "type": "function"
    },
    {
      "inputs": [],
      "name": "projectTokensRequired",
      "outputs": [
        {
          "internalType": "uint256",
          "name": "projectTokenAmounts",
          "type": "uint256"
        }
      ],
      "stateMutability": "view",
      "type": "function"
    },
    {
      "inputs": [
        {
          "internalType": "address",
          "name": "_receiver",
          "type": "address"
        }
      ],
      "name": "removeLiquidity",
      "outputs": [],
      "stateMutability": "nonpayable",
      "type": "function"
    },
    {
      "inputs": [
        {
          "internalType": "bool",
          "name": "_swapEnabled",
          "type": "bool"
        }
      ],
      "name": "setSwapEnabled",
      "outputs": [],
      "stateMutability": "nonpayable",
      "type": "function"
    },
    {
      "inputs": [
        {
          "internalType": "uint256",
          "name": "",
          "type": "uint256"
        }
      ],
      "name": "startTimeEndTime",
      "outputs": [
        {
          "internalType": "uint256",
          "name": "",
          "type": "uint256"
        }
      ],
      "stateMutability": "view",
      "type": "function"
    },
    {
      "inputs": [
        {
          "internalType": "uint256",
          "name": "",
          "type": "uint256"
        }
      ],
      "name": "startWeights",
      "outputs": [
        {
          "internalType": "uint256",
          "name": "",
          "type": "uint256"
        }
      ],
      "stateMutability": "view",
      "type": "function"
    },
    {
      "inputs": [],
      "name": "swapFeePercentage",
      "outputs": [
        {
          "internalType": "uint256",
          "name": "",
          "type": "uint256"
        }
      ],
      "stateMutability": "view",
      "type": "function"
    },
    {
      "inputs": [],
      "name": "symbol",
      "outputs": [
        {
          "internalType": "string",
          "name": "",
          "type": "string"
        }
      ],
      "stateMutability": "view",
      "type": "function"
    },
    {
      "inputs": [
        {
          "internalType": "uint256",
          "name": "",
          "type": "uint256"
        }
      ],
      "name": "tokenList",
      "outputs": [
        {
          "internalType": "contract IERC20",
          "name": "",
          "type": "address"
        }
      ],
      "stateMutability": "view",
      "type": "function"
    },
    {
      "inputs": [
        {
          "internalType": "address",
          "name": "_newAdmin",
          "type": "address"
        }
      ],
      "name": "transferAdminRights",
      "outputs": [],
      "stateMutability": "nonpayable",
      "type": "function"
    },
    {
      "inputs": [
        {
          "internalType": "bytes",
          "name": "_metadata",
          "type": "bytes"
        }
      ],
      "name": "updateMetadata",
      "outputs": [],
      "stateMutability": "nonpayable",
      "type": "function"
    },
    {
      "inputs": [],
      "name": "version",
      "outputs": [
        {
          "internalType": "bytes6",
          "name": "",
          "type": "bytes6"
        }
      ],
      "stateMutability": "view",
      "type": "function"
    },
    {
      "inputs": [
        {
          "internalType": "address",
          "name": "_receiver",
          "type": "address"
        }
      ],
      "name": "withdrawPoolTokens",
      "outputs": [],
      "stateMutability": "nonpayable",
      "type": "function"
    }
  ],
  "transactionHash": "0x1a47460b1b1c5c910e3b302e90d70121876abfcdd078afdd375055a07cd7fc1a",
  "args": [],
  "solcInputHash": "752d54b8f64e3608832db5b1be68e60f",
  "bytecode": "0x60806040526000805465ffffffffffff191665312e302e300017905534801561002757600080fd5b506128e2806100376000396000f3fe608060405234801561001057600080fd5b50600436106101a95760003560e01c80639ead7222116100f9578063c9d8616f11610097578063d798f86e11610071578063d798f86e1461038c578063e01af92c1461039f578063f851a440146103b2578063fc582d41146103c557600080fd5b8063c9d8616f14610347578063cb209b6c1461035a578063cd2055e51461037957600080fd5b8063a88971fa116100d3578063a88971fa146102f5578063b5106add14610309578063bb7bfb0c1461031c578063c18b51511461032f57600080fd5b80639ead7222146102d0578063a001ecdd146102e3578063a4ac0d49146102ec57600080fd5b80633facbb851161016657806354fd4d501161014057806354fd4d501461027c5780638638fe31146102a25780638bfd5289146102b557806395d89b41146102c857600080fd5b80633facbb851461024c57806345f0a44f1461026157806347bc4d921461027457600080fd5b806306fdde03146101ae578063092f7de7146101cc578063158ef93e146101f75780633281f3ec1461021b57806338af3eed14610231578063392f37e914610244575b600080fd5b6101b66103d8565b6040516101c39190611f4c565b60405180910390f35b600c546101df906001600160a01b031681565b6040516001600160a01b0390911681526020016101c3565b600e5461020b90600160b01b900460ff1681565b60405190151581526020016101c3565b610223610466565b6040519081526020016101c3565b6004546101df906001600160a01b031681565b6101b66104a5565b61025f61025a366004611f8e565b6104b2565b005b61022361026f366004611fab565b6107f3565b61020b610814565b6000546102899060d01b81565b6040516001600160d01b031990911681526020016101c3565b61025f6102b036600461216e565b6108e7565b61025f6102c3366004611f8e565b610fca565b6101b661175b565b6101df6102de366004611fab565b611768565b61022360055481565b61022360065481565b600e5461020b90600160a81b900460ff1681565b61025f610317366004611f8e565b611792565b61022361032a366004611fab565b61186e565b600e546101df9061010090046001600160a01b031681565b610223610355366004611fab565b61187e565b600e546103679060ff1681565b60405160ff90911681526020016101c3565b610223610387366004611fab565b61188e565b61025f61039a366004611f8e565b61189e565b61025f6103ad366004612312565b611cf6565b6003546101df906001600160a01b031681565b61025f6103d336600461232f565b611d82565b600280546103e59061236c565b80601f01602080910402602001604051908101604052809291908181526020018280546104119061236c565b801561045e5780601f106104335761010080835404028352916020019161045e565b820191906000526020600020905b81548152906001019060200180831161044157829003601f168201915b505050505081565b6000610470611dfa565b600e5460088054909160ff1690811061048b5761048b6123a6565b90600052602060002001546104a091906123d2565b905090565b600d80546103e59061236c565b6003546001600160a01b031633146104e55760405162461bcd60e51b81526004016104dc906123eb565b60405180910390fd5b6001600160a01b03811661053b5760405162461bcd60e51b815260206004820152601c60248201527f4c42504d616e616765723a207265636569766572206973207a65726f0000000060448201526064016104dc565b6000600b600181548110610551576105516123a6565b90600052602060002001549050804210156105ae5760405162461bcd60e51b815260206004820152601f60248201527f4c42504d616e616765723a20656e6474696d65206e6f7420726561636865640060448201526064016104dc565b600c546040516370a0823160e01b81523060048201526000916001600160a01b0316906370a0823190602401602060405180830381865afa1580156105f7573d6000803e3d6000fd5b505050506040513d601f19601f8201168201806040525081019061061b9190612422565b116106685760405162461bcd60e51b815260206004820181905260248201527f4c42504d616e616765723a206e6f2042505420746f6b656e2062616c616e636560448201526064016104dc565b600c546040516370a0823160e01b81523060048201526001600160a01b03909116907fd0b72dd3c0f971f9cf266fee8e4c7660231316a67c88a587fa8dfa398c9e13749082906370a0823190602401602060405180830381865afa1580156106d4573d6000803e3d6000fd5b505050506040513d601f19601f820116820180604052508101906106f89190612422565b60405190815260200160405180910390a2600c546040516370a0823160e01b81523060048201526001600160a01b039091169063a9059cbb90849083906370a0823190602401602060405180830381865afa15801561075b573d6000803e3d6000fd5b505050506040513d601f19601f8201168201806040525081019061077f9190612422565b6040516001600160e01b031960e085901b1681526001600160a01b03909216600483015260248201526044016020604051808303816000875af11580156107ca573d6000803e3d6000fd5b505050506040513d601f19601f820116820180604052508101906107ee919061243b565b505050565b6008818154811061080357600080fd5b600091825260209091200154905081565b600e54600090600160a81b900460ff166108705760405162461bcd60e51b815260206004820181905260248201527f4c42504d616e616765723a204c4250206e6f7420696e697469616c697a65642e60448201526064016104dc565b600c60009054906101000a90046001600160a01b03166001600160a01b03166347bc4d926040518163ffffffff1660e01b8152600401602060405180830381865afa1580156108c3573d6000803e3d6000fd5b505050506040513d601f19601f820116820180604052508101906104a0919061243b565b600e54600160b01b900460ff16156109415760405162461bcd60e51b815260206004820152601f60248201527f4c42504d616e616765723a20616c726561647920696e697469616c697a65640060448201526064016104dc565b6001600160a01b038a166109975760405162461bcd60e51b815260206004820181905260248201527f4c42504d616e616765723a205f62656e6566696369617279206973207a65726f60448201526064016104dc565b64e8d4a51000826000815181106109b0576109b06123a6565b60200260200101511015610a125760405162461bcd60e51b8152602060048201526024808201527f4c42504d616e616765723a207377617046656550657263656e7461676520746f604482015263206c6f7760e01b60648201526084016104dc565b67016345785d8a000082600081518110610a2e57610a2e6123a6565b60200260200101511115610a925760405162461bcd60e51b815260206004820152602560248201527f4c42504d616e616765723a207377617046656550657263656e7461676520746f604482015264040d0d2ced60db1b60648201526084016104dc565b86516002148015610aa4575085516002145b8015610ab1575084516002145b8015610abe575083516002145b8015610acb575082516002145b8015610ad8575081516002145b610b245760405162461bcd60e51b815260206004820152601d60248201527f4c42504d616e616765723a206172726179732077726f6e672073697a6500000060448201526064016104dc565b86600181518110610b3757610b376123a6565b60200260200101516001600160a01b031687600081518110610b5b57610b5b6123a6565b60200260200101516001600160a01b031603610bb95760405162461bcd60e51b815260206004820181905260248201527f4c42504d616e616765723a20746f6b656e732063616e27742062652073616d6560448201526064016104dc565b83600181518110610bcc57610bcc6123a6565b602002602001015184600081518110610be757610be76123a6565b602002602001015110610c3c5760405162461bcd60e51b815260206004820152601f60248201527f4c42504d616e616765723a20737461727454696d65203e20656e6454696d650060448201526064016104dc565b600e805460ff60b01b1916600160b01b179055600380546001600160a01b0319163317905581518290600090610c7457610c746123a6565b602002602001015160068190555081600181518110610c9557610c956123a6565b6020908102919091010151600555600480546001600160a01b0319166001600160a01b038c16179055600d610cca82826124a6565b508351610cde90600b906020870190611e47565b506002610ceb8a826124a6565b506001610cf889826124a6565b50600e8054610100600160a81b0319166101006001600160a01b038e1602179055865187906001908110610d2e57610d2e6123a6565b60200260200101516001600160a01b031687600081518110610d5257610d526123a6565b60200260200101516001600160a01b03161115610f6257600e805460ff19166001908117909155875160079189918110610d8e57610d8e6123a6565b6020908102919091018101518254600181018455600093845291832090910180546001600160a01b0319166001600160a01b0390921691909117905587516007918991610ddd57610ddd6123a6565b60209081029190910181015182546001808201855560009485529290932090920180546001600160a01b0319166001600160a01b0390931692909217909155865160089188918110610e3157610e316123a6565b602090810291909101810151825460018101845560009384529183209091015586516008918891610e6457610e646123a6565b60209081029190910181015182546001818101855560009485529290932090920191909155855160099187918110610e9e57610e9e6123a6565b602090810291909101810151825460018101845560009384529183209091015585516009918791610ed157610ed16123a6565b602090810291909101810151825460018181018555600094855292909320909201919091558351600a9185918110610f0b57610f0b6123a6565b60209081029190910181015182546001810184556000938452918320909101558351600a918591610f3e57610f3e6123a6565b60209081029190910181015182546001810184556000938452919092200155610fbd565b600e805460ff191690558651610f7f9060079060208a0190611e92565b508551610f93906008906020890190611e47565b508451610fa7906009906020880190611e47565b508251610fbb90600a906020860190611e47565b505b5050505050505050505050565b6003546001600160a01b03163314610ff45760405162461bcd60e51b81526004016104dc906123eb565b600e54600160b01b900460ff1615156001146110615760405162461bcd60e51b815260206004820152602660248201527f4c42504d616e616765723a204c42504d616e61676572206e6f7420696e697469604482015265185b1a5e995960d21b60648201526084016104dc565b600e54600160a81b900460ff16156110bb5760405162461bcd60e51b815260206004820152601f60248201527f4c42504d616e616765723a20706f6f6c20616c72656164792066756e6465640060448201526064016104dc565b600e8054600160a81b60ff60a81b199091161790819055600654604051632367971960e01b81526101009092046001600160a01b031691632367971991611115916002916001916007916009913090600090600401612623565b6020604051808303816000875af1158015611134573d6000803e3d6000fd5b505050506040513d601f19601f8201168201806040525081019061115891906126d4565b600c80546001600160a01b0319166001600160a01b03929092169182179055600b8054633e5692059190600090611191576111916123a6565b9060005260206000200154600b6001815481106111b0576111b06123a6565b9060005260206000200154600a6040518463ffffffff1660e01b81526004016111db939291906126f1565b600060405180830381600087803b1580156111f557600080fd5b505af1158015611209573d6000803e3d6000fd5b505050506000600c60009054906101000a90046001600160a01b03166001600160a01b0316638d928af86040518163ffffffff1660e01b8152600401602060405180830381865afa158015611262573d6000803e3d6000fd5b505050506040513d601f19601f8201168201806040525081019061128691906126d4565b90506005546000146113c257600061129c611dfa565b600e54600780549293509160ff9091169081106112bb576112bb6123a6565b600091825260209091200154600480546040516323b872dd60e01b81526001600160a01b03878116938201939093529082166024820152604481018490529116906323b872dd906064016020604051808303816000875af1158015611324573d6000803e3d6000fd5b505050506040513d601f19601f82011682018060405250810190611348919061243b565b50600454600e54600780546001600160a01b03909316927f1d6298f49fc15449b78df91fcca6812136edc2972366cb70aa0d9145a308cd319260ff16908110611393576113936123a6565b60009182526020918290200154604080516001600160a01b0390921682529181018590520160405180910390a2505b60005b60075460ff8216101561158c5760078160ff16815481106113e8576113e86123a6565b9060005260206000200160009054906101000a90046001600160a01b03166001600160a01b03166323b872dd843060088560ff168154811061142c5761142c6123a6565b6000918252602090912001546040516001600160e01b031960e086901b1681526001600160a01b03938416600482015292909116602483015260448201526064016020604051808303816000875af115801561148c573d6000803e3d6000fd5b505050506040513d601f19601f820116820180604052508101906114b0919061243b565b5060078160ff16815481106114c7576114c76123a6565b600091825260209091200154600880546001600160a01b039092169163095ea7b391859160ff86169081106114fe576114fe6123a6565b6000918252602090912001546040516001600160e01b031960e085901b1681526001600160a01b03909216600483015260248201526044016020604051808303816000875af1158015611555573d6000803e3d6000fd5b505050506040513d601f19601f82011682018060405250810190611579919061243b565b508061158481612719565b9150506113c5565b50604080516007805460a060208202840181019094526080830181815260009484939192908401828280156115ea57602002820191906000526020600020905b81546001600160a01b031681526001909101906020018083116115cc575b50505050508152602001600880548060200260200160405190810160405280929190818152602001828054801561164057602002820191906000526020600020905b81548152602001906001019080831161162c575b505050505081526020016000600860405160200161165f929190612738565b6040516020818303038152906040528152602001600015158152509050816001600160a01b031663b95cac28600c60009054906101000a90046001600160a01b03166001600160a01b03166338fff2d06040518163ffffffff1660e01b8152600401602060405180830381865afa1580156116de573d6000803e3d6000fd5b505050506040513d601f19601f820116820180604052508101906117029190612422565b3030856040518563ffffffff1660e01b8152600401611724949392919061281b565b600060405180830381600087803b15801561173e57600080fd5b505af1158015611752573d6000803e3d6000fd5b50505050505050565b600180546103e59061236c565b6007818154811061177857600080fd5b6000918252602090912001546001600160a01b0316905081565b6003546001600160a01b031633146117bc5760405162461bcd60e51b81526004016104dc906123eb565b6001600160a01b0381166118125760405162461bcd60e51b815260206004820152601d60248201527f4c42504d616e616765723a206e65772061646d696e206973207a65726f00000060448201526064016104dc565b6003546040516001600160a01b038084169216907f39324b4c6f0dfe086be64dee1dd0fff15f9055828415513052c73d8e178c75f590600090a3600380546001600160a01b0319166001600160a01b0392909216919091179055565b6009818154811061080357600080fd5b600a818154811061080357600080fd5b600b818154811061080357600080fd5b6003546001600160a01b031633146118c85760405162461bcd60e51b81526004016104dc906123eb565b6001600160a01b03811661191e5760405162461bcd60e51b815260206004820152601c60248201527f4c42504d616e616765723a207265636569766572206973207a65726f0000000060448201526064016104dc565b600c546040516370a0823160e01b81523060048201526000916001600160a01b0316906370a0823190602401602060405180830381865afa158015611967573d6000803e3d6000fd5b505050506040513d601f19601f8201168201806040525081019061198b9190612422565b116119d85760405162461bcd60e51b815260206004820181905260248201527f4c42504d616e616765723a206e6f2042505420746f6b656e2062616c616e636560448201526064016104dc565b6000600b6001815481106119ee576119ee6123a6565b9060005260206000200154905080421015611a4b5760405162461bcd60e51b815260206004820152601f60248201527f4c42504d616e616765723a20656e6474696d65206e6f7420726561636865640060448201526064016104dc565b600c54604080516311b2515f60e31b815290516000926001600160a01b031691638d928af89160048083019260209291908290030181865afa158015611a95573d6000803e3d6000fd5b505050506040513d601f19601f82011682018060405250810190611ab991906126d4565b9050600060405180608001604052806007805480602002602001604051908101604052809291908181526020018280548015611b1e57602002820191906000526020600020905b81546001600160a01b03168152600190910190602001808311611b00575b5050505050815260200160078054905067ffffffffffffffff811115611b4657611b46611fc4565b604051908082528060200260200182016040528015611b6f578160200160208202803683370190505b508152600c546040516370a0823160e01b81523060048201526020909201916001916001600160a01b0316906370a0823190602401602060405180830381865afa158015611bc1573d6000803e3d6000fd5b505050506040513d601f19601f82011682018060405250810190611be59190612422565b6040805160ff90931660208401528201526060016040516020818303038152906040528152602001600015158152509050816001600160a01b0316638bdb3913600c60009054906101000a90046001600160a01b03166001600160a01b03166338fff2d06040518163ffffffff1660e01b8152600401602060405180830381865afa158015611c78573d6000803e3d6000fd5b505050506040513d601f19601f82011682018060405250810190611c9c9190612422565b3087856040518563ffffffff1660e01b8152600401611cbe949392919061281b565b600060405180830381600087803b158015611cd857600080fd5b505af1158015611cec573d6000803e3d6000fd5b5050505050505050565b6003546001600160a01b03163314611d205760405162461bcd60e51b81526004016104dc906123eb565b600c54604051633806be4b60e21b815282151560048201526001600160a01b039091169063e01af92c90602401600060405180830381600087803b158015611d6757600080fd5b505af1158015611d7b573d6000803e3d6000fd5b5050505050565b6003546001600160a01b03163314611dac5760405162461bcd60e51b81526004016104dc906123eb565b600d611db882826124a6565b5080604051611dc79190612857565b604051908190038120907f09f579b21815d3f81581d32e97736ccba1cc89d1918e48da28e6e206acd9686490600090a250565b600554600e5460088054600093670de0b6b3a76400009390929160ff909116908110611e2857611e286123a6565b9060005260206000200154611e3d9190612873565b6104a0919061288a565b828054828255906000526020600020908101928215611e82579160200282015b82811115611e82578251825591602001919060010190611e67565b50611e8e929150611ee7565b5090565b828054828255906000526020600020908101928215611e82579160200282015b82811115611e8257825182546001600160a01b0319166001600160a01b03909116178255602090920191600190910190611eb2565b5b80821115611e8e5760008155600101611ee8565b60005b83811015611f17578181015183820152602001611eff565b50506000910152565b60008151808452611f38816020860160208601611efc565b601f01601f19169290920160200192915050565b602081526000611f5f6020830184611f20565b9392505050565b6001600160a01b0381168114611f7b57600080fd5b50565b8035611f8981611f66565b919050565b600060208284031215611fa057600080fd5b8135611f5f81611f66565b600060208284031215611fbd57600080fd5b5035919050565b634e487b7160e01b600052604160045260246000fd5b604051601f8201601f1916810167ffffffffffffffff8111828210171561200357612003611fc4565b604052919050565b600082601f83011261201c57600080fd5b813567ffffffffffffffff81111561203657612036611fc4565b612049601f8201601f1916602001611fda565b81815284602083860101111561205e57600080fd5b816020850160208301376000918101602001919091529392505050565b600067ffffffffffffffff82111561209557612095611fc4565b5060051b60200190565b600082601f8301126120b057600080fd5b813560206120c56120c08361207b565b611fda565b82815260059290921b840181019181810190868411156120e457600080fd5b8286015b848110156121085780356120fb81611f66565b83529183019183016120e8565b509695505050505050565b600082601f83011261212457600080fd5b813560206121346120c08361207b565b82815260059290921b8401810191818101908684111561215357600080fd5b8286015b848110156121085780358352918301918301612157565b60008060008060008060008060008060006101608c8e03121561219057600080fd5b6121998c611f7e565b9a506121a760208d01611f7e565b995067ffffffffffffffff8060408e013511156121c357600080fd5b6121d38e60408f01358f0161200b565b99508060608e013511156121e657600080fd5b6121f68e60608f01358f0161200b565b98508060808e0135111561220957600080fd5b6122198e60808f01358f0161209f565b97508060a08e0135111561222c57600080fd5b61223c8e60a08f01358f01612113565b96508060c08e0135111561224f57600080fd5b61225f8e60c08f01358f01612113565b95508060e08e0135111561227257600080fd5b6122828e60e08f01358f01612113565b9450806101008e0135111561229657600080fd5b6122a78e6101008f01358f01612113565b9350806101208e013511156122bb57600080fd5b6122cc8e6101208f01358f01612113565b9250806101408e013511156122e057600080fd5b506122f28d6101408e01358e0161200b565b90509295989b509295989b9093969950565b8015158114611f7b57600080fd5b60006020828403121561232457600080fd5b8135611f5f81612304565b60006020828403121561234157600080fd5b813567ffffffffffffffff81111561235857600080fd5b6123648482850161200b565b949350505050565b600181811c9082168061238057607f821691505b6020821081036123a057634e487b7160e01b600052602260045260246000fd5b50919050565b634e487b7160e01b600052603260045260246000fd5b634e487b7160e01b600052601160045260246000fd5b808201808211156123e5576123e56123bc565b92915050565b6020808252601f908201527f4c42504d616e616765723a2063616c6c6572206973206e6f742061646d696e00604082015260600190565b60006020828403121561243457600080fd5b5051919050565b60006020828403121561244d57600080fd5b8151611f5f81612304565b601f8211156107ee57600081815260208120601f850160051c8101602086101561247f5750805b601f850160051c820191505b8181101561249e5782815560010161248b565b505050505050565b815167ffffffffffffffff8111156124c0576124c0611fc4565b6124d4816124ce845461236c565b84612458565b602080601f83116001811461250957600084156124f15750858301515b600019600386901b1c1916600185901b17855561249e565b600085815260208120601f198616915b8281101561253857888601518255948401946001909101908401612519565b50858210156125565787850151600019600388901b60f8161c191681555b5050505050600190811b01905550565b600081546125738161236c565b80855260206001838116801561259057600181146125aa576125d8565b60ff1985168884015283151560051b8801830195506125d8565b866000528260002060005b858110156125d05781548a82018601529083019084016125b5565b890184019650505b505050505092915050565b6000815480845260208085019450836000528060002060005b83811015612618578154875295820195600191820191016125fc565b509495945050505050565b60e08152600061263660e083018a612566565b8281036020840152612648818a612566565b8381036040850152885480825260008a815260208082209450909201915b8181101561268d5783546001600160a01b0316835260019384019360209093019201612666565b505083810360608501526126a181896125e3565b925050508460808301526126c060a08301856001600160a01b03169052565b82151560c083015298975050505050505050565b6000602082840312156126e657600080fd5b8151611f5f81611f66565b83815282602082015260606040820152600061271060608301846125e3565b95945050505050565b600060ff821660ff810361272f5761272f6123bc565b60010192915050565b60ff8316815260406020820152600061236460408301846125e3565b600081518084526020808501945080840160005b8381101561261857815187529582019590820190600101612768565b8051608080845281519084018190526000916020919082019060a0860190845b818110156127c95783516001600160a01b0316835292840192918401916001016127a4565b5050828501519150858103838701526127e28183612754565b92505050604083015184820360408601526127fd8282611f20565b9150506060830151612813606086018215159052565b509392505050565b8481526001600160a01b0384811660208301528316604082015260806060820181905260009061284d90830184612784565b9695505050505050565b60008251612869818460208701611efc565b9190910192915050565b80820281158282048414176123e5576123e56123bc565b6000826128a757634e487b7160e01b600052601260045260246000fd5b50049056fea2646970667358221220eb6a5eda73e8fe17bd4c717b89e7802172bdb3b8f73914eef5f8c1f8fd93f13664736f6c63430008110033",
  "devdoc": {
    "details": "Smart contract for managing interactions with a Balancer LBP.",
    "kind": "dev",
    "methods": {
      "getSwapEnabled()": {
        "details": "Tells whether swaps are enabled or not for the LBP"
      },
      "initializeLBP(address)": {
        "details": "Subtracts the fee, deploys the LBP and adds liquidity to it.",
        "params": {
          "_sender": "Address of the liquidity provider."
        }
      },
      "initializeLBPManager(address,address,string,string,address[],uint256[],uint256[],uint256[],uint256[],uint256[],bytes)": {
        "details": "Initialize LBPManager.",
        "params": {
          "_amounts": "Array containing two parameters in order of: 1. The amounts of project token to be added as liquidity to the LBP. 2. The amounts of funding token to be added as liquidity to the LBP.",
          "_beneficiary": "The address that receives the feePercentage.",
          "_endWeights": "Array containing two parametes in order of: 1. The end weight for the project token in the LBP. 2. The end weight for the funding token in the LBP.",
          "_fees": "Array containing two parameters in order of: 1. Percentage of fee paid for every swap in the LBP. 2. Percentage of fee paid to the _beneficiary for providing the service of the LBP Manager.",
          "_lbpFactory": "LBP factory address.",
          "_metadata": "IPFS Hash of the LBP creation wizard information.",
          "_name": "Name of the LBP.",
          "_startTimeEndTime": "Array containing two parameters in order of: 1. Start time for the LBP. 2. End time for the LBP.",
          "_startWeights": "Array containing two parametes in order of: 1. The start weight for the project token in the LBP. 2. The start weight for the funding token in the LBP.",
          "_symbol": "Symbol of the LBP.",
          "_tokenList": "Array containing two addresses in order of: 1. The address of the project token being distributed. 2. The address of the funding token being exchanged for the project token."
        }
      },
      "projectTokensRequired()": {
        "details": "Get required amount of project tokens to cover for fees and the actual LBP."
      },
      "removeLiquidity(address)": {
        "details": "Exit pool or remove liquidity from pool.",
        "params": {
          "_receiver": "Address of the liquidity receiver, after exiting the LBP."
        }
      },
      "setSwapEnabled(bool)": {
        "details": "Can pause/unpause trading.",
        "params": {
          "_swapEnabled": "Enables/disables swapping."
        }
      },
      "transferAdminRights(address)": {
        "details": "Transfer admin rights.",
        "params": {
          "_newAdmin": "Address of the new admin."
        }
      },
      "updateMetadata(bytes)": {
        "details": "Updates metadata.",
        "params": {
          "_metadata": "LBP wizard contract metadata, that is an IPFS Hash."
        }
      },
      "withdrawPoolTokens(address)": {
        "details": "Withdraw pool tokens if available.",
        "params": {
          "_receiver": "Address of the BPT tokens receiver."
        }
      }
    },
    "title": "LBPManager contract version 1",
    "version": 1
  },
  "userdoc": {
    "kind": "user",
    "methods": {},
    "version": 1
  },
  "storageLayout": {
    "storage": [
      {
        "astId": 638,
        "contract": "contracts/lbp/LBPManagerV1.sol:LBPManagerV1",
        "label": "version",
        "offset": 0,
        "slot": "0",
        "type": "t_bytes6"
      },
      {
        "astId": 643,
        "contract": "contracts/lbp/LBPManagerV1.sol:LBPManagerV1",
        "label": "symbol",
        "offset": 0,
        "slot": "1",
        "type": "t_string_storage"
      },
      {
        "astId": 645,
        "contract": "contracts/lbp/LBPManagerV1.sol:LBPManagerV1",
        "label": "name",
        "offset": 0,
        "slot": "2",
        "type": "t_string_storage"
      },
      {
        "astId": 647,
        "contract": "contracts/lbp/LBPManagerV1.sol:LBPManagerV1",
        "label": "admin",
        "offset": 0,
        "slot": "3",
        "type": "t_address"
      },
      {
        "astId": 649,
        "contract": "contracts/lbp/LBPManagerV1.sol:LBPManagerV1",
        "label": "beneficiary",
        "offset": 0,
        "slot": "4",
        "type": "t_address"
      },
      {
        "astId": 651,
        "contract": "contracts/lbp/LBPManagerV1.sol:LBPManagerV1",
        "label": "feePercentage",
        "offset": 0,
        "slot": "5",
        "type": "t_uint256"
      },
      {
        "astId": 653,
        "contract": "contracts/lbp/LBPManagerV1.sol:LBPManagerV1",
        "label": "swapFeePercentage",
        "offset": 0,
        "slot": "6",
        "type": "t_uint256"
      },
      {
        "astId": 657,
        "contract": "contracts/lbp/LBPManagerV1.sol:LBPManagerV1",
        "label": "tokenList",
        "offset": 0,
        "slot": "7",
        "type": "t_array(t_contract(IERC20)190)dyn_storage"
      },
      {
        "astId": 660,
        "contract": "contracts/lbp/LBPManagerV1.sol:LBPManagerV1",
        "label": "amounts",
        "offset": 0,
        "slot": "8",
        "type": "t_array(t_uint256)dyn_storage"
      },
      {
        "astId": 663,
        "contract": "contracts/lbp/LBPManagerV1.sol:LBPManagerV1",
        "label": "startWeights",
        "offset": 0,
        "slot": "9",
        "type": "t_array(t_uint256)dyn_storage"
      },
      {
        "astId": 666,
        "contract": "contracts/lbp/LBPManagerV1.sol:LBPManagerV1",
        "label": "endWeights",
        "offset": 0,
        "slot": "10",
        "type": "t_array(t_uint256)dyn_storage"
      },
      {
        "astId": 669,
        "contract": "contracts/lbp/LBPManagerV1.sol:LBPManagerV1",
        "label": "startTimeEndTime",
        "offset": 0,
        "slot": "11",
        "type": "t_array(t_uint256)dyn_storage"
      },
      {
        "astId": 672,
        "contract": "contracts/lbp/LBPManagerV1.sol:LBPManagerV1",
        "label": "lbp",
        "offset": 0,
        "slot": "12",
        "type": "t_contract(ILBP)1530"
      },
      {
        "astId": 674,
        "contract": "contracts/lbp/LBPManagerV1.sol:LBPManagerV1",
        "label": "metadata",
        "offset": 0,
        "slot": "13",
        "type": "t_bytes_storage"
      },
      {
        "astId": 676,
        "contract": "contracts/lbp/LBPManagerV1.sol:LBPManagerV1",
        "label": "projectTokenIndex",
        "offset": 0,
        "slot": "14",
        "type": "t_uint8"
      },
      {
        "astId": 678,
        "contract": "contracts/lbp/LBPManagerV1.sol:LBPManagerV1",
        "label": "lbpFactory",
        "offset": 1,
        "slot": "14",
        "type": "t_address"
      },
      {
        "astId": 680,
        "contract": "contracts/lbp/LBPManagerV1.sol:LBPManagerV1",
        "label": "poolFunded",
        "offset": 21,
        "slot": "14",
        "type": "t_bool"
      },
      {
        "astId": 682,
        "contract": "contracts/lbp/LBPManagerV1.sol:LBPManagerV1",
        "label": "initialized",
        "offset": 22,
        "slot": "14",
        "type": "t_bool"
      }
    ],
    "types": {
      "t_address": {
        "encoding": "inplace",
        "label": "address",
        "numberOfBytes": "20"
      },
      "t_array(t_contract(IERC20)190)dyn_storage": {
        "base": "t_contract(IERC20)190",
        "encoding": "dynamic_array",
        "label": "contract IERC20[]",
        "numberOfBytes": "32"
      },
      "t_array(t_uint256)dyn_storage": {
        "base": "t_uint256",
        "encoding": "dynamic_array",
        "label": "uint256[]",
        "numberOfBytes": "32"
      },
      "t_bool": {
        "encoding": "inplace",
        "label": "bool",
        "numberOfBytes": "1"
      },
      "t_bytes6": {
        "encoding": "inplace",
        "label": "bytes6",
        "numberOfBytes": "6"
      },
      "t_bytes_storage": {
        "encoding": "bytes",
        "label": "bytes",
        "numberOfBytes": "32"
      },
      "t_contract(IERC20)190": {
        "encoding": "inplace",
        "label": "contract IERC20",
        "numberOfBytes": "20"
      },
      "t_contract(ILBP)1530": {
        "encoding": "inplace",
        "label": "contract ILBP",
        "numberOfBytes": "20"
      },
      "t_string_storage": {
        "encoding": "bytes",
        "label": "string",
        "numberOfBytes": "32"
      },
      "t_uint256": {
        "encoding": "inplace",
        "label": "uint256",
        "numberOfBytes": "32"
      },
      "t_uint8": {
        "encoding": "inplace",
        "label": "uint8",
        "numberOfBytes": "1"
      }
    }
  }
}