{
  "address": "0x36C94d5e38c377dD5CAEf83032df12fB5560c63D",
  "abi": [
    {
      "anonymous": false,
      "inputs": [
        {
          "indexed": true,
          "internalType": "address",
          "name": "recipient",
          "type": "address"
        },
        {
          "indexed": true,
          "internalType": "uint256",
          "name": "amountReclaimed",
          "type": "uint256"
        }
      ],
      "name": "FundingReclaimed",
      "type": "event"
    },
    {
      "anonymous": false,
      "inputs": [
        {
          "indexed": true,
          "internalType": "bytes",
          "name": "metadata",
          "type": "bytes"
        }
      ],
      "name": "MetadataUpdated",
      "type": "event"
    },
    {
      "anonymous": false,
      "inputs": [
        {
          "indexed": true,
          "internalType": "address",
          "name": "recipient",
          "type": "address"
        },
        {
          "indexed": true,
          "internalType": "uint256",
          "name": "amountPurchased",
          "type": "uint256"
        },
        {
          "indexed": true,
          "internalType": "uint256",
          "name": "seedRemainder",
          "type": "uint256"
        }
      ],
      "name": "SeedsPurchased",
      "type": "event"
    },
    {
      "anonymous": false,
      "inputs": [
        {
          "indexed": true,
          "internalType": "uint256",
          "name": "amountClaimed",
          "type": "uint256"
        }
      ],
      "name": "TipClaimed",
      "type": "event"
    },
    {
      "anonymous": false,
      "inputs": [
        {
          "indexed": true,
          "internalType": "address",
          "name": "recipient",
          "type": "address"
        },
        {
          "indexed": true,
          "internalType": "uint256",
          "name": "amount",
          "type": "uint256"
        }
      ],
      "name": "TokensClaimed",
      "type": "event"
    },
    {
      "inputs": [
        {
          "internalType": "bytes32[]",
          "name": "_classNames",
          "type": "bytes32[]"
        },
        {
          "internalType": "uint256[]",
          "name": "_classCaps",
          "type": "uint256[]"
        },
        {
          "internalType": "uint256[]",
          "name": "_individualCaps",
          "type": "uint256[]"
        },
        {
          "internalType": "uint256[]",
          "name": "_vestingCliffs",
          "type": "uint256[]"
        },
        {
          "internalType": "uint256[]",
          "name": "_vestingDurations",
          "type": "uint256[]"
        },
        {
          "internalType": "address[][]",
          "name": "_allowlist",
          "type": "address[][]"
        }
      ],
      "name": "addClassesAndAllowlists",
      "outputs": [],
      "stateMutability": "nonpayable",
      "type": "function"
    },
    {
      "inputs": [],
      "name": "admin",
      "outputs": [
        {
          "internalType": "address",
          "name": "",
          "type": "address"
        }
      ],
      "stateMutability": "view",
      "type": "function"
    },
    {
      "inputs": [
        {
          "internalType": "address[]",
          "name": "_buyers",
          "type": "address[]"
        },
        {
          "internalType": "uint8[]",
          "name": "_classes",
          "type": "uint8[]"
        }
      ],
      "name": "allowlist",
      "outputs": [],
      "stateMutability": "nonpayable",
      "type": "function"
    },
    {
      "inputs": [],
      "name": "beneficiary",
      "outputs": [
        {
          "internalType": "address",
          "name": "",
          "type": "address"
        }
      ],
      "stateMutability": "view",
      "type": "function"
    },
    {
      "inputs": [
        {
          "internalType": "uint256",
          "name": "_fundingAmount",
          "type": "uint256"
        }
      ],
      "name": "buy",
      "outputs": [
        {
          "internalType": "uint256",
          "name": "",
          "type": "uint256"
        }
      ],
      "stateMutability": "nonpayable",
      "type": "function"
    },
    {
      "inputs": [],
      "name": "calculateClaimBeneficiary",
      "outputs": [
        {
          "internalType": "uint256",
          "name": "",
          "type": "uint256"
        }
      ],
      "stateMutability": "view",
      "type": "function"
    },
    {
      "inputs": [
        {
          "internalType": "address",
          "name": "_funder",
          "type": "address"
        }
      ],
      "name": "calculateClaimFunder",
      "outputs": [
        {
          "internalType": "uint256",
          "name": "",
          "type": "uint256"
        }
      ],
      "stateMutability": "view",
      "type": "function"
    },
    {
      "inputs": [
        {
          "internalType": "uint8[]",
          "name": "_classes",
          "type": "uint8[]"
        },
        {
          "internalType": "bytes32[]",
          "name": "_classNames",
          "type": "bytes32[]"
        },
        {
          "internalType": "uint256[]",
          "name": "_classCaps",
          "type": "uint256[]"
        },
        {
          "internalType": "uint256[]",
          "name": "_individualCaps",
          "type": "uint256[]"
        },
        {
          "internalType": "uint256[]",
          "name": "_vestingCliffs",
          "type": "uint256[]"
        },
        {
          "internalType": "uint256[]",
          "name": "_vestingDurations",
          "type": "uint256[]"
        },
        {
          "internalType": "address[][]",
          "name": "_allowlists",
          "type": "address[][]"
        }
      ],
      "name": "changeClassesAndAllowlists",
      "outputs": [],
      "stateMutability": "nonpayable",
      "type": "function"
    },
    {
      "inputs": [
        {
          "internalType": "uint256",
          "name": "_claimAmount",
          "type": "uint256"
        }
      ],
      "name": "claim",
      "outputs": [],
      "stateMutability": "nonpayable",
      "type": "function"
    },
    {
      "inputs": [],
      "name": "claimTip",
      "outputs": [
        {
          "internalType": "uint256",
          "name": "",
          "type": "uint256"
        }
      ],
      "stateMutability": "nonpayable",
      "type": "function"
    },
    {
      "inputs": [
        {
          "internalType": "uint256",
          "name": "",
          "type": "uint256"
        }
      ],
      "name": "classes",
      "outputs": [
        {
          "internalType": "bytes32",
          "name": "className",
          "type": "bytes32"
        },
        {
          "internalType": "uint256",
          "name": "classCap",
          "type": "uint256"
        },
        {
          "internalType": "uint256",
          "name": "individualCap",
          "type": "uint256"
        },
        {
          "internalType": "uint256",
          "name": "vestingCliff",
          "type": "uint256"
        },
        {
          "internalType": "uint256",
          "name": "vestingDuration",
          "type": "uint256"
        },
        {
          "internalType": "uint256",
          "name": "classFundingCollected",
          "type": "uint256"
        }
      ],
      "stateMutability": "view",
      "type": "function"
    },
    {
      "inputs": [],
      "name": "close",
      "outputs": [],
      "stateMutability": "nonpayable",
      "type": "function"
    },
    {
      "inputs": [],
      "name": "closed",
      "outputs": [
        {
          "internalType": "bool",
          "name": "",
          "type": "bool"
        }
      ],
      "stateMutability": "view",
      "type": "function"
    },
    {
      "inputs": [],
      "name": "endTime",
      "outputs": [
        {
          "internalType": "uint256",
          "name": "",
          "type": "uint256"
        }
      ],
      "stateMutability": "view",
      "type": "function"
    },
    {
      "inputs": [
        {
          "internalType": "address",
          "name": "",
          "type": "address"
        }
      ],
      "name": "funders",
      "outputs": [
        {
          "internalType": "uint8",
          "name": "class",
          "type": "uint8"
        },
        {
          "internalType": "uint256",
          "name": "totalClaimed",
          "type": "uint256"
        },
        {
          "internalType": "uint256",
          "name": "fundingAmount",
          "type": "uint256"
        },
        {
          "internalType": "bool",
          "name": "allowlist",
          "type": "bool"
        }
      ],
      "stateMutability": "view",
      "type": "function"
    },
    {
      "inputs": [],
      "name": "fundingCollected",
      "outputs": [
        {
          "internalType": "uint256",
          "name": "",
          "type": "uint256"
        }
      ],
      "stateMutability": "view",
      "type": "function"
    },
    {
      "inputs": [],
      "name": "fundingToken",
      "outputs": [
        {
          "internalType": "contract IERC20",
          "name": "",
          "type": "address"
        }
      ],
      "stateMutability": "view",
      "type": "function"
    },
    {
      "inputs": [],
      "name": "fundingWithdrawn",
      "outputs": [
        {
          "internalType": "uint256",
          "name": "",
          "type": "uint256"
        }
      ],
      "stateMutability": "view",
      "type": "function"
    },
    {
      "inputs": [],
      "name": "getAllClasses",
      "outputs": [
        {
          "internalType": "bytes32[]",
          "name": "classNames",
          "type": "bytes32[]"
        },
        {
          "internalType": "uint256[]",
          "name": "classCaps",
          "type": "uint256[]"
        },
        {
          "internalType": "uint256[]",
          "name": "individualCaps",
          "type": "uint256[]"
        },
        {
          "internalType": "uint256[]",
          "name": "vestingCliffs",
          "type": "uint256[]"
        },
        {
          "internalType": "uint256[]",
          "name": "vestingDurations",
          "type": "uint256[]"
        },
        {
          "internalType": "uint256[]",
          "name": "classFundingsCollected",
          "type": "uint256[]"
        }
      ],
      "stateMutability": "view",
      "type": "function"
    },
    {
      "inputs": [],
      "name": "hardCap",
      "outputs": [
        {
          "internalType": "uint256",
          "name": "",
          "type": "uint256"
        }
      ],
      "stateMutability": "view",
      "type": "function"
    },
    {
      "inputs": [
        {
          "internalType": "address",
          "name": "_beneficiary",
          "type": "address"
        },
        {
          "internalType": "address",
          "name": "_admin",
          "type": "address"
        },
        {
          "internalType": "address[]",
          "name": "_tokens",
          "type": "address[]"
        },
        {
          "internalType": "uint256[]",
          "name": "_softAndHardCap",
          "type": "uint256[]"
        },
        {
          "internalType": "uint256",
          "name": "_price",
          "type": "uint256"
        },
        {
          "internalType": "uint256[]",
          "name": "_startTimeAndEndTime",
          "type": "uint256[]"
        },
        {
          "internalType": "uint256[]",
          "name": "_defaultClassParameters",
          "type": "uint256[]"
        },
        {
          "internalType": "bool",
          "name": "_permissionedSeed",
          "type": "bool"
        },
        {
          "internalType": "address[]",
          "name": "_allowlistAddresses",
          "type": "address[]"
        },
        {
          "internalType": "uint256[]",
          "name": "_tip",
          "type": "uint256[]"
        }
      ],
      "name": "initialize",
      "outputs": [],
      "stateMutability": "nonpayable",
      "type": "function"
    },
    {
      "inputs": [],
      "name": "initialized",
      "outputs": [
        {
          "internalType": "bool",
          "name": "",
          "type": "bool"
        }
      ],
      "stateMutability": "view",
      "type": "function"
    },
    {
      "inputs": [],
      "name": "isFunded",
      "outputs": [
        {
          "internalType": "bool",
          "name": "",
          "type": "bool"
        }
      ],
      "stateMutability": "view",
      "type": "function"
    },
    {
      "inputs": [],
      "name": "maximumReached",
      "outputs": [
        {
          "internalType": "bool",
          "name": "",
          "type": "bool"
        }
      ],
      "stateMutability": "view",
      "type": "function"
    },
    {
      "inputs": [],
      "name": "metadata",
      "outputs": [
        {
          "internalType": "bytes",
          "name": "",
          "type": "bytes"
        }
      ],
      "stateMutability": "view",
      "type": "function"
    },
    {
      "inputs": [],
      "name": "minimumReached",
      "outputs": [
        {
          "internalType": "bool",
          "name": "",
          "type": "bool"
        }
      ],
      "stateMutability": "view",
      "type": "function"
    },
    {
      "inputs": [],
      "name": "pause",
      "outputs": [],
      "stateMutability": "nonpayable",
      "type": "function"
    },
    {
      "inputs": [],
      "name": "paused",
      "outputs": [
        {
          "internalType": "bool",
          "name": "",
          "type": "bool"
        }
      ],
      "stateMutability": "view",
      "type": "function"
    },
    {
      "inputs": [],
      "name": "permissionedSeed",
      "outputs": [
        {
          "internalType": "bool",
          "name": "",
          "type": "bool"
        }
      ],
      "stateMutability": "view",
      "type": "function"
    },
    {
      "inputs": [],
      "name": "price",
      "outputs": [
        {
          "internalType": "uint256",
          "name": "",
          "type": "uint256"
        }
      ],
      "stateMutability": "view",
      "type": "function"
    },
    {
      "inputs": [],
      "name": "retrieveFundingTokens",
      "outputs": [
        {
          "internalType": "uint256",
          "name": "",
          "type": "uint256"
        }
      ],
      "stateMutability": "nonpayable",
      "type": "function"
    },
    {
      "inputs": [
        {
          "internalType": "address",
          "name": "_refundReceiver",
          "type": "address"
        }
      ],
      "name": "retrieveSeedTokens",
      "outputs": [],
      "stateMutability": "nonpayable",
      "type": "function"
    },
    {
      "inputs": [
        {
          "internalType": "address",
          "name": "_funder",
          "type": "address"
        }
      ],
      "name": "seedAmountForFunder",
      "outputs": [
        {
          "internalType": "uint256",
          "name": "",
          "type": "uint256"
        }
      ],
      "stateMutability": "view",
      "type": "function"
    },
    {
      "inputs": [],
      "name": "seedAmountRequired",
      "outputs": [
        {
          "internalType": "uint256",
          "name": "",
          "type": "uint256"
        }
      ],
      "stateMutability": "view",
      "type": "function"
    },
    {
      "inputs": [],
      "name": "seedClaimed",
      "outputs": [
        {
          "internalType": "uint256",
          "name": "",
          "type": "uint256"
        }
      ],
      "stateMutability": "view",
      "type": "function"
    },
    {
      "inputs": [],
      "name": "seedRemainder",
      "outputs": [
        {
          "internalType": "uint256",
          "name": "",
          "type": "uint256"
        }
      ],
      "stateMutability": "view",
      "type": "function"
    },
    {
      "inputs": [],
      "name": "seedToken",
      "outputs": [
        {
          "internalType": "contract IERC20",
          "name": "",
          "type": "address"
        }
      ],
      "stateMutability": "view",
      "type": "function"
    },
    {
      "inputs": [],
      "name": "softCap",
      "outputs": [
        {
          "internalType": "uint256",
          "name": "",
          "type": "uint256"
        }
      ],
      "stateMutability": "view",
      "type": "function"
    },
    {
      "inputs": [],
      "name": "startTime",
      "outputs": [
        {
          "internalType": "uint256",
          "name": "",
          "type": "uint256"
        }
      ],
      "stateMutability": "view",
      "type": "function"
    },
    {
      "inputs": [],
      "name": "tip",
      "outputs": [
        {
          "internalType": "uint256",
          "name": "tipPercentage",
          "type": "uint256"
        },
        {
          "internalType": "uint256",
          "name": "vestingCliff",
          "type": "uint256"
        },
        {
          "internalType": "uint256",
          "name": "vestingDuration",
          "type": "uint256"
        },
        {
          "internalType": "uint256",
          "name": "tipAmount",
          "type": "uint256"
        },
        {
          "internalType": "uint256",
          "name": "totalClaimed",
          "type": "uint256"
        }
      ],
      "stateMutability": "view",
      "type": "function"
    },
    {
      "inputs": [],
      "name": "totalBuyableSeed",
      "outputs": [
        {
          "internalType": "uint256",
          "name": "",
          "type": "uint256"
        }
      ],
      "stateMutability": "view",
      "type": "function"
    },
    {
      "inputs": [],
      "name": "totalFunderCount",
      "outputs": [
        {
          "internalType": "uint256",
          "name": "",
          "type": "uint256"
        }
      ],
      "stateMutability": "view",
      "type": "function"
    },
    {
      "inputs": [
        {
          "internalType": "address",
          "name": "_buyer",
          "type": "address"
        }
      ],
      "name": "unAllowlist",
      "outputs": [],
      "stateMutability": "nonpayable",
      "type": "function"
    },
    {
      "inputs": [],
      "name": "unpause",
      "outputs": [],
      "stateMutability": "nonpayable",
      "type": "function"
    },
    {
      "inputs": [
        {
          "internalType": "bytes",
          "name": "_metadata",
          "type": "bytes"
        }
      ],
      "name": "updateMetadata",
      "outputs": [],
      "stateMutability": "nonpayable",
      "type": "function"
    },
    {
      "inputs": [],
      "name": "vestingStartTime",
      "outputs": [
        {
          "internalType": "uint256",
          "name": "",
          "type": "uint256"
        }
      ],
      "stateMutability": "view",
      "type": "function"
    },
    {
      "inputs": [],
      "name": "withdraw",
      "outputs": [],
      "stateMutability": "nonpayable",
      "type": "function"
    }
  ],
  "transactionHash": "0x825e61957d80f4de584082e61872467f4effb4873d2787cacdb54ac80b444074",
  "args": [],
  "solcInputHash": "23c915c953aae4f34894c76e4394243e",
  "bytecode": "0x608060405234801561001057600080fd5b5061388c806100206000396000f3fe608060405234801561001057600080fd5b50600436106102955760003560e01c806378e9792511610167578063bc0f5f84116100ce578063e5652b3811610087578063e5652b38146105c9578063e565eb4c146105dc578063ec11d726146105f1578063f851a44014610604578063fb86a40414610617578063fc582d411461062057600080fd5b8063bc0f5f8414610577578063c24ffe3d14610580578063c934b7b814610588578063d96a094a1461059b578063dae0f198146105ae578063dc4b9e38146105b657600080fd5b8063906a26e011610120578063906a26e01461052d578063a035b1fe14610536578063a8660a781461053f578063ac2a811014610548578063b79456b91461055b578063bad935561461056e57600080fd5b806378e97925146104b85780637c654303146104c1578063817dbe9f146104d457806383d59e00146105145780638456cb591461051d5780638a2448aa1461052557600080fd5b8063392f37e91161020b5780635632221d116101c45780635632221d14610450578063597e1fb5146104635780635c975abb146104705780635e9777e8146104825780636bda75dd1461048b57806378065f27146104a557600080fd5b8063392f37e91461040d5780633ccfd60b146104225780633dba9e411461042a5780633f4ba83a1461043757806343d726d61461043f57806347d02f1b1461044757600080fd5b80631cfe562e1161025d5780631cfe562e146103635780632755cd2d1461036c578063311f8483146103ae5780633197cbb6146103de578063379607f5146103e757806338af3eed146103fa57600080fd5b8063031b36771461029a57806303aabe31146102ff5780630826d2c714610314578063117a36d11461032b578063158ef93e1461034f575b600080fd5b6102d46102a8366004612cfc565b601960205260009081526040902080546001820154600283015460039093015460ff9283169391921684565b6040805160ff9095168552602085019390935291830152151560608201526080015b60405180910390f35b61031261030d366004612cfc565b610633565b005b61031d600e5481565b6040519081526020016102f6565b600c5461033f90600160281b900460ff1681565b60405190151581526020016102f6565b600c5461033f906301000000900460ff1681565b61031d60105481565b601354601454601554601654601754610386949392919085565b604080519586526020860194909452928401919091526060830152608082015260a0016102f6565b6009546103c69061010090046001600160a01b031681565b6040516001600160a01b0390911681526020016102f6565b61031d60075481565b6103126103f5366004612d17565b610843565b6000546103c6906001600160a01b031681565b6104156109ef565b6040516102f69190612d80565b610312610a7d565b60095461033f9060ff1681565b610312610b80565b610312610c2d565b61031d600f5481565b61031261045e366004612fb3565b610c99565b600c5461033f9060ff1681565b600c5461033f90610100900460ff1681565b61031d600d5481565b610493610fa1565b6040516102f696959493929190613108565b600a546103c6906001600160a01b031681565b61031d60065481565b600c5461033f9062010000900460ff1681565b6104e76104e2366004612d17565b611268565b604080519687526020870195909552938501929092526060840152608083015260a082015260c0016102f6565b61031d60115481565b6103126112ae565b61031d611356565b61031d60025481565b61031d60125481565b61031d60085481565b6103126105563660046131b3565b6114d6565b610312610569366004613216565b611570565b61031d60055481565b61031d60045481565b61031d611854565b61031d610596366004612cfc565b611952565b61031d6105a9366004612d17565b611a41565b61031d611f30565b61031d6105c4366004612cfc565b611f51565b6103126105d7366004612cfc565b611f96565b600c5461033f90640100000000900460ff1681565b6103126105ff366004613326565b61207f565b6001546103c6906001600160a01b031681565b61031d60035481565b61031261062e366004613459565b612450565b6001546001600160a01b031633146106665760405162461bcd60e51b815260040161065d906134ed565b60405180910390fd5b600c5460ff16806106805750600c54600160281b900460ff165b8061068d57506007544210155b6106cb5760405162461bcd60e51b815260206004820152600f60248201526e29b2b2b21d1022b93937b910199c1960891b604482015260640161065d565b6009546040516370a0823160e01b815230600482015260009161010090046001600160a01b0316906370a0823190602401602060405180830381865afa158015610719573d6000803e3d6000fd5b505050506040513d601f19601f8201168201806040525081019061073d9190613516565b600c54909150640100000000900460ff166107d457600081116107945760405162461bcd60e51b815260206004820152600f60248201526e536565643a204572726f722033343560881b604482015260640161065d565b6017546016546000916107a691613545565b6107b09083613545565b6009549091506107cf9061010090046001600160a01b03168483612504565b505050565b6000600e546005546107e69190613545565b6017546016549192506000916107fc9190613545565b600f546108099084613545565b6108139085613545565b61081d9190613545565b60095490915061083c9061010090046001600160a01b03168583612504565b50505b5050565b42600754108061085c5750600c54600160281b900460ff165b806108695750600c5460ff165b6108a75760405162461bcd60e51b815260206004820152600f60248201526e29b2b2b21d1022b93937b910199a1b60891b604482015260640161065d565b600c54640100000000900460ff166108f35760405162461bcd60e51b815260206004820152600f60248201526e536565643a204572726f722033343160881b604482015260640161065d565b60006108fe33611952565b9050600081116109205760405162461bcd60e51b815260040161065d90613558565b818110156109625760405162461bcd60e51b815260206004820152600f60248201526e536565643a204572726f722033383160881b604482015260640161065d565b3360009081526019602052604081206001018054849290610984908490613581565b9250508190555081600f600082825461099d9190613581565b90915550506009546109be9061010090046001600160a01b03163384612504565b604051829033907f896e034966eaaf1adc54acc0f257056febbd300c9e47182cf761982cf1f5e43090600090a35050565b600b80546109fc90613594565b80601f0160208091040260200160405190810160405280929190818152602001828054610a2890613594565b8015610a755780601f10610a4a57610100808354040283529160200191610a75565b820191906000526020600020905b815481529060010190602001808311610a5857829003601f168201915b505050505081565b6001546001600160a01b03163314610aa75760405162461bcd60e51b815260040161065d906134ed565b600c54640100000000900460ff16610af35760405162461bcd60e51b815260206004820152600f60248201526e536565643a204572726f722033383360881b604482015260640161065d565b601054601155600a546040516370a0823160e01b8152306004820152610b7e9133916001600160a01b03909116906370a0823190602401602060405180830381865afa158015610b47573d6000803e3d6000fd5b505050506040513d601f19601f82011682018060405250810190610b6b9190613516565b600a546001600160a01b03169190612504565b565b6001546001600160a01b03163314610baa5760405162461bcd60e51b815260040161065d906134ed565b600c5460ff161515600103610bd15760405162461bcd60e51b815260040161065d906135ce565b600c5460ff610100909104161515600114610c205760405162461bcd60e51b815260206004820152600f60248201526e536565643a204572726f722033353160881b604482015260640161065d565b600c805461ff0019169055565b6001546001600160a01b03163314610c575760405162461bcd60e51b815260040161065d906134ed565b600c5460ff1615610c7a5760405162461bcd60e51b815260040161065d906135ce565b600854421015610c8957426008555b600c805461ffff19166001179055565b6001546001600160a01b03163314610cc35760405162461bcd60e51b815260040161065d906134ed565b6006544210610ce45760405162461bcd60e51b815260040161065d906135f7565b600c5460ff1615610d075760405162461bcd60e51b815260040161065d906135ce565b85858585858584518651148015610d1f575083518651145b8015610d2c575082518651145b8015610d39575081518651145b8015610d46575080518651145b610d625760405162461bcd60e51b815260040161065d90613620565b606486511115610da65760405162461bcd60e51b815260206004820152600f60248201526e14d959590e88115c9c9bdc880ccc0d608a1b604482015260640161065d565b855160185461010091610db891613581565b1115610df85760405162461bcd60e51b815260206004820152600f60248201526e536565643a204572726f722033303560881b604482015260640161065d565b60005b8d518160ff161015610f9157610ebd8e8260ff1681518110610e1f57610e1f613649565b60200260200101518e8360ff1681518110610e3c57610e3c613649565b60200260200101518e8460ff1681518110610e5957610e59613649565b60200260200101518e8560ff1681518110610e7657610e76613649565b60200260200101518e8660ff1681518110610e9357610e93613649565b60200260200101518e8760ff1681518110610eb057610eb0613649565b6020026020010151612567565b60095460ff1615610eed57610eed888260ff1681518110610ee057610ee0613649565b6020026020010151612705565b60005b888260ff1681518110610f0557610f05613649565b602002602001015151811015610f8057610f708f8360ff1681518110610f2d57610f2d613649565b60200260200101518a8460ff1681518110610f4a57610f4a613649565b60200260200101518381518110610f6357610f63613649565b602002602001015161276f565b610f798161365f565b9050610ef0565b50610f8a81613678565b9050610dfb565b5050505050505050505050505050565b60608060608060608060006018805490509050806001600160401b03811115610fcc57610fcc612d93565b604051908082528060200260200182016040528015610ff5578160200160208202803683370190505b509650806001600160401b0381111561101057611010612d93565b604051908082528060200260200182016040528015611039578160200160208202803683370190505b509550806001600160401b0381111561105457611054612d93565b60405190808252806020026020018201604052801561107d578160200160208202803683370190505b509450806001600160401b0381111561109857611098612d93565b6040519080825280602002602001820160405280156110c1578160200160208202803683370190505b509350806001600160401b038111156110dc576110dc612d93565b604051908082528060200260200182016040528015611105578160200160208202803683370190505b509250806001600160401b0381111561112057611120612d93565b604051908082528060200260200182016040528015611149578160200160208202803683370190505b50915060005b8181101561125e5760006018828154811061116c5761116c613649565b90600052602060002090600602019050806000015489838151811061119357611193613649565b60200260200101818152505080600101548883815181106111b6576111b6613649565b60200260200101818152505080600201548783815181106111d9576111d9613649565b60200260200101818152505080600301548683815181106111fc576111fc613649565b602002602001018181525050806004015485838151811061121f5761121f613649565b602002602001018181525050806005015484838151811061124257611242613649565b6020908102919091010152506112578161365f565b905061114f565b5050909192939495565b6018818154811061127857600080fd5b60009182526020909120600690910201805460018201546002830154600384015460048501546005909501549395509193909286565b6001546001600160a01b031633146112d85760405162461bcd60e51b815260040161065d906134ed565b600c5460ff16156112fb5760405162461bcd60e51b815260040161065d906135ce565b600c54610100900460ff16156113455760405162461bcd60e51b815260206004820152600f60248201526e536565643a204572726f722033343960881b604482015260640161065d565b600c805461ff001916610100179055565b600042600654111561137a5760405162461bcd60e51b815260040161065d906135f7565b600c54640100000000900460ff16156113c75760405162461bcd60e51b815260206004820152600f60248201526e29b2b2b21d1022b93937b910199a1960891b604482015260640161065d565b3360009081526019602052604090206002810154806113f85760405162461bcd60e51b815260040161065d90613558565b61140133611f51565b600e60008282546114129190613581565b9091555050600d805490600061142783613697565b91905055506000826002018190555080601060008282546114489190613545565b9091555050815460188054839260ff1690811061146757611467613649565b906000526020600020906006020160050160008282546114879190613545565b9091555050600a546114a3906001600160a01b03163383612504565b604051819033907f1a689b1a62e3bb77f9c98d8759c04f341a67deb5cc63cf53be8324b69106495090600090a392915050565b6001546001600160a01b031633146115005760405162461bcd60e51b815260040161065d906134ed565b600c5460ff16158015611514575060085442105b6115525760405162461bcd60e51b815260206004820152600f60248201526e0536565643a204572726f722033353608c1b604482015260640161065d565b60095460ff16156115665761156682612705565b61083f82826127e0565b6001546001600160a01b0316331461159a5760405162461bcd60e51b815260040161065d906134ed565b60065442106115bb5760405162461bcd60e51b815260040161065d906135f7565b600c5460ff16156115de5760405162461bcd60e51b815260040161065d906135ce565b858585858585845186511480156115f6575083518651145b8015611603575082518651145b8015611610575081518651145b801561161d575080518651145b6116395760405162461bcd60e51b815260040161065d90613620565b60648651111561167d5760405162461bcd60e51b815260206004820152600f60248201526e14d959590e88115c9c9bdc880ccc0d608a1b604482015260640161065d565b85516018546101009161168f91613581565b11156116cf5760405162461bcd60e51b815260206004820152600f60248201526e536565643a204572726f722033303560881b604482015260640161065d565b60185460005b8d518160ff16101561178a5761177a8e8260ff16815181106116f9576116f9613649565b60200260200101518e8360ff168151811061171657611716613649565b60200260200101518e8460ff168151811061173357611733613649565b60200260200101518e8560ff168151811061175057611750613649565b60200260200101518e8660ff168151811061176d5761176d613649565b602002602001015161284c565b61178381613678565b90506116d5565b50875160095460ff16156117ca5760005b818110156117c8576117b88a8281518110610ee057610ee0613649565b6117c18161365f565b905061179b565b505b60005b818110156118435760008a82815181106117e9576117e9613649565b602002602001015151905060005b8181101561182557611815858d8581518110610f4a57610f4a613649565b61181e8161365f565b90506117f7565b5061182f8461365f565b9350508061183c9061365f565b90506117cd565b505050505050505050505050505050565b600042600754108061186f5750600c54600160281b900460ff165b8061187c5750600c5460ff165b6118ba5760405162461bcd60e51b815260206004820152600f60248201526e29b2b2b21d1022b93937b910199a1b60891b604482015260640161065d565b60006118c4611f30565b9050600081116118e65760405162461bcd60e51b815260040161065d90613558565b80601360040160008282546118fb9190613581565b9091555050600054600954611922916001600160a01b036101009092048216911683612504565b60405181907fecc980da7c913e12084687ea0133e12ca310132a33ffff999d177bd941c2073590600090a2905090565b6001600160a01b03811660009081526019602090815260408083208151608081018352815460ff9081168083526001840154958301959095526002830154938201939093526003909101549091161515606082015260188054919291849190839081106119c1576119c1613649565b90600052602060002090600602016040518060c001604052908160008201548152602001600182015481526020016002820154815260200160038201548152602001600482015481526020016005820154815250509050611a38611a2486611f51565b8260600151836080015186602001516129e7565b95945050505050565b600c5460009060ff1615611a675760405162461bcd60e51b815260040161065d906135ce565b600c54610100900460ff1615611ab15760405162461bcd60e51b815260206004820152600f60248201526e536565643a204572726f722033343960881b604482015260640161065d565b33600090815260196020526040902060095460ff161580611ad65750600381015460ff165b611b145760405162461bcd60e51b815260206004820152600f60248201526e0536565643a204572726f722033323608c1b604482015260640161065d565b80546018805460009260ff16908110611b2f57611b2f613649565b90600052602060002090600602016040518060c001604052908160008201548152602001600182015481526020016002820154815260200160038201548152602001600482015481526020016005820154815250509050600c60059054906101000a900460ff1615611bd55760405162461bcd60e51b815260206004820152600f60248201526e0536565643a204572726f722033343608c1b604482015260640161065d565b60008411611bf55760405162461bcd60e51b815260040161065d906136ae565b4260075410158015611c0957504260065411155b611c475760405162461bcd60e51b815260206004820152600f60248201526e536565643a204572726f722033363160881b604482015260640161065d565b600c5462010000900460ff16611d2157600480546009546040516370a0823160e01b8152309381019390935290916101009091046001600160a01b0316906370a0823190602401602060405180830381865afa158015611cab573d6000803e3d6000fd5b505050506040513d601f19601f82011682018060405250810190611ccf9190613516565b1015611d0f5760405162461bcd60e51b815260206004820152600f60248201526e536565643a204572726f722033343360881b604482015260640161065d565b600c805462ff00001916620100001790555b60035484601054611d329190613581565b1115611d4b57601054600354611d489190613545565b93505b8060200151848260a00151611d609190613581565b1115611d7d578060a001518160200151611d7a9190613545565b93505b8060400151848360020154611d929190613581565b1115611dd25760405162461bcd60e51b815260206004820152600f60248201526e0536565643a204572726f722033363608c1b604482015260640161065d565b601254600090611dea670de0b6b3a7640000876136d7565b611df491906136ee565b90508460106000828254611e089190613581565b9091555050825460188054879260ff16908110611e2757611e27613649565b90600052602060002090600602016005016000828254611e479190613581565b9091555050600e54611e5a908290613545565b600e5560025460105410611e7e57600c805464ff0000000019166401000000001790555b60035460105410611ea357600c805465ff00000000001916600160281b179055426008555b8260020154600003611ec557600d8054906000611ebf8361365f565b91905055505b84836002016000828254611ed99190613581565b9091555050600a54611ef6906001600160a01b0316333088612a68565b600e54604051829033907fda8c9af77929af2caa4dea1f45f48f246846d971e045df75beb9155709769e1290600090a4925050505b919050565b601654601454601554601754600093611f4c93909290916129e7565b905090565b6012546001600160a01b038216600090815260196020526040812060020154909190611f8690670de0b6b3a7640000906136d7565b611f9091906136ee565b92915050565b6001546001600160a01b03163314611fc05760405162461bcd60e51b815260040161065d906134ed565b600c5460ff16158015611fd4575060085442105b6120125760405162461bcd60e51b815260206004820152600f60248201526e0536565643a204572726f722033353608c1b604482015260640161065d565b60095460ff16151560011461205b5760405162461bcd60e51b815260206004820152600f60248201526e536565643a204572726f722033343760881b604482015260640161065d565b6001600160a01b03166000908152601960205260409020600301805460ff19169055565b600c546301000000900460ff16156120cb5760405162461bcd60e51b815260206004820152600f60248201526e536565643a204572726f722030303160881b604482015260640161065d565b600c805463ff00000019166301000000179055600080546001600160a01b03808d166001600160a01b031992831617835560018054918d1691909216179055875188919061211b5761211b613649565b60200260200101516002819055508660018151811061213c5761213c613649565b60200260200101516003819055508460008151811061215d5761215d613649565b60200260200101516006819055508460018151811061217e5761217e613649565b60200260200101516007819055508460018151811061219f5761219f613649565b602002602001015160016121b39190613581565b6008556009805460ff1916841515179055875188906000906121d7576121d7613649565b6020026020010151600960016101000a8154816001600160a01b0302191690836001600160a01b031602179055508760018151811061221857612218613649565b6020026020010151600a60006101000a8154816001600160a01b0302191690836001600160a01b031602179055508560128190555085670de0b6b3a76400008860018151811061226a5761226a613649565b602002602001015161227c91906136d7565b61228691906136ee565b6005819055506000670de0b6b3a7640000826000815181106122aa576122aa613649565b60200260200101516005546122bf91906136d7565b6122c991906136ee565b90506040518060a00160405280836000815181106122e9576122e9613649565b602002602001015181526020018360018151811061230957612309613649565b602002602001015181526020018360028151811061232957612329613649565b60209081029190910181015182528181018490526000604092830181905283516013559083015160145590820151601555606082015160165560809091015160175588516123d691908a90600190811061238557612385613649565b6020026020010151876000815181106123a0576123a0613649565b6020026020010151886001815181106123bb576123bb613649565b60200260200101518960028151811061176d5761176d613649565b60018415151480156123e9575060008351115b1561242e57825160005b81811015612422576124126000868381518110610f6357610f63613649565b61241b8161365f565b90506123f3565b5061242c84612705565b505b600554600e8190556124409082613581565b6004555050505050505050505050565b600c546301000000900460ff161515600114158061247857506001546001600160a01b031633145b6124b65760405162461bcd60e51b815260206004820152600f60248201526e536565643a204572726f722033323160881b604482015260640161065d565b600b6124c2828261375e565b50806040516124d1919061381d565b604051908190038120907f09f579b21815d3f81581d32e97736ccba1cc89d1918e48da28e6e206acd9686490600090a250565b6040516001600160a01b0383166024820152604481018290526107cf90849063a9059cbb60e01b906064015b60408051601f198184030181529190526020810180516001600160e01b03166001600160e01b031990931692909217909152612aa0565b838381811115801561257b57506003548211155b6125b95760405162461bcd60e51b815260206004820152600f60248201526e536565643a204572726f722033303360881b604482015260640161065d565b600082116125d95760405162461bcd60e51b815260040161065d906136ae565b60185460ff89161061261f5760405162461bcd60e51b815260206004820152600f60248201526e29b2b2b21d1022b93937b91019981960891b604482015260640161065d565b8660188960ff168154811061263657612636613649565b9060005260206000209060060201600001819055508560188960ff168154811061266257612662613649565b9060005260206000209060060201600101819055508460188960ff168154811061268e5761268e613649565b9060005260206000209060060201600201819055508360188960ff16815481106126ba576126ba613649565b9060005260206000209060060201600301819055508260188960ff16815481106126e6576126e6613649565b9060005260206000209060060201600401819055505050505050505050565b805160005b818110156107cf5760016019600085848151811061272a5761272a613649565b6020908102919091018101516001600160a01b03168252810191909152604001600020600301805460ff19169115159190911790556127688161365f565b905061270a565b60185460ff8316106127b55760405162461bcd60e51b815260206004820152600f60248201526e29b2b2b21d1022b93937b91019981960891b604482015260640161065d565b6001600160a01b03166000908152601960205260409020805460ff191660ff92909216919091179055565b8151815181146128025760405162461bcd60e51b815260040161065d90613620565b60005b8181101561083c5761283c83828151811061282257612822613649565b6020026020010151858381518110610f6357610f63613649565b6128458161365f565b9050612805565b838381811115801561286057506003548211155b61289e5760405162461bcd60e51b815260206004820152600f60248201526e536565643a204572726f722033303360881b604482015260640161065d565b600082116128be5760405162461bcd60e51b815260040161065d906136ae565b50506040805160c0810182529586526020860194855285019283526060850191825260808501908152600060a0860181815260188054600181018255925295517fb13d2d76d1f4b7be834882e410b3e3a8afaf69f83600ae24db354391d2378d2e60069092029182015593517fb13d2d76d1f4b7be834882e410b3e3a8afaf69f83600ae24db354391d2378d2f85015591517fb13d2d76d1f4b7be834882e410b3e3a8afaf69f83600ae24db354391d2378d30840155517fb13d2d76d1f4b7be834882e410b3e3a8afaf69f83600ae24db354391d2378d31830155517fb13d2d76d1f4b7be834882e410b3e3a8afaf69f83600ae24db354391d2378d3282015590517fb13d2d76d1f4b7be834882e410b3e3a8afaf69f83600ae24db354391d2378d3390910155565b60006008544210156129fb57506000612a60565b600060085442612a0b9190613545565b905084811015612a1f576000915050612a60565b838110612a3857612a308387613545565b915050612a60565b600084612a4588846136d7565b612a4f91906136ee565b9050612a5b8482613545565b925050505b949350505050565b6040516001600160a01b038085166024830152831660448201526064810182905261083c9085906323b872dd60e01b90608401612530565b6000612af5826040518060400160405280602081526020017f5361666545524332303a206c6f772d6c6576656c2063616c6c206661696c6564815250856001600160a01b0316612b729092919063ffffffff16565b8051909150156107cf5780806020019051810190612b139190613839565b6107cf5760405162461bcd60e51b815260206004820152602a60248201527f5361666545524332303a204552433230206f7065726174696f6e20646964206e6044820152691bdd081cdd58d8d9595960b21b606482015260840161065d565b6060612b818484600085612b8b565b90505b9392505050565b606082471015612bec5760405162461bcd60e51b815260206004820152602660248201527f416464726573733a20696e73756666696369656e742062616c616e636520666f6044820152651c8818d85b1b60d21b606482015260840161065d565b6001600160a01b0385163b612c435760405162461bcd60e51b815260206004820152601d60248201527f416464726573733a2063616c6c20746f206e6f6e2d636f6e7472616374000000604482015260640161065d565b600080866001600160a01b03168587604051612c5f919061381d565b60006040518083038185875af1925050503d8060008114612c9c576040519150601f19603f3d011682016040523d82523d6000602084013e612ca1565b606091505b5091509150612a5b82828660608315612cbb575081612b84565b825115612ccb5782518084602001fd5b8160405162461bcd60e51b815260040161065d9190612d80565b80356001600160a01b0381168114611f2b57600080fd5b600060208284031215612d0e57600080fd5b612b8482612ce5565b600060208284031215612d2957600080fd5b5035919050565b60005b83811015612d4b578181015183820152602001612d33565b50506000910152565b60008151808452612d6c816020860160208601612d30565b601f01601f19169290920160200192915050565b602081526000612b846020830184612d54565b634e487b7160e01b600052604160045260246000fd5b604051601f8201601f191681016001600160401b0381118282101715612dd157612dd1612d93565b604052919050565b60006001600160401b03821115612df257612df2612d93565b5060051b60200190565b600082601f830112612e0d57600080fd5b81356020612e22612e1d83612dd9565b612da9565b82815260059290921b84018101918181019086841115612e4157600080fd5b8286015b84811015612e6c57803560ff81168114612e5f5760008081fd5b8352918301918301612e45565b509695505050505050565b600082601f830112612e8857600080fd5b81356020612e98612e1d83612dd9565b82815260059290921b84018101918181019086841115612eb757600080fd5b8286015b84811015612e6c5780358352918301918301612ebb565b600082601f830112612ee357600080fd5b81356020612ef3612e1d83612dd9565b82815260059290921b84018101918181019086841115612f1257600080fd5b8286015b84811015612e6c57612f2781612ce5565b8352918301918301612f16565b600082601f830112612f4557600080fd5b81356020612f55612e1d83612dd9565b82815260059290921b84018101918181019086841115612f7457600080fd5b8286015b84811015612e6c5780356001600160401b03811115612f975760008081fd5b612fa58986838b0101612ed2565b845250918301918301612f78565b600080600080600080600060e0888a031215612fce57600080fd5b87356001600160401b0380821115612fe557600080fd5b612ff18b838c01612dfc565b985060208a013591508082111561300757600080fd5b6130138b838c01612e77565b975060408a013591508082111561302957600080fd5b6130358b838c01612e77565b965060608a013591508082111561304b57600080fd5b6130578b838c01612e77565b955060808a013591508082111561306d57600080fd5b6130798b838c01612e77565b945060a08a013591508082111561308f57600080fd5b61309b8b838c01612e77565b935060c08a01359150808211156130b157600080fd5b506130be8a828b01612f34565b91505092959891949750929550565b600081518084526020808501945080840160005b838110156130fd578151875295820195908201906001016130e1565b509495945050505050565b60c0808252875190820181905260009060209060e0840190828b01845b8281101561314157815184529284019290840190600101613125565b50505083810382850152613155818a6130cd565b915050828103604084015261316a81886130cd565b9050828103606084015261317e81876130cd565b9050828103608084015261319281866130cd565b905082810360a08401526131a681856130cd565b9998505050505050505050565b600080604083850312156131c657600080fd5b82356001600160401b03808211156131dd57600080fd5b6131e986838701612ed2565b935060208501359150808211156131ff57600080fd5b5061320c85828601612dfc565b9150509250929050565b60008060008060008060c0878903121561322f57600080fd5b86356001600160401b038082111561324657600080fd5b6132528a838b01612e77565b9750602089013591508082111561326857600080fd5b6132748a838b01612e77565b9650604089013591508082111561328a57600080fd5b6132968a838b01612e77565b955060608901359150808211156132ac57600080fd5b6132b88a838b01612e77565b945060808901359150808211156132ce57600080fd5b6132da8a838b01612e77565b935060a08901359150808211156132f057600080fd5b506132fd89828a01612f34565b9150509295509295509295565b801515811461331857600080fd5b50565b8035611f2b8161330a565b6000806000806000806000806000806101408b8d03121561334657600080fd5b61334f8b612ce5565b995061335d60208c01612ce5565b985060408b01356001600160401b038082111561337957600080fd5b6133858e838f01612ed2565b995060608d013591508082111561339b57600080fd5b6133a78e838f01612e77565b985060808d0135975060a08d01359150808211156133c457600080fd5b6133d08e838f01612e77565b965060c08d01359150808211156133e657600080fd5b6133f28e838f01612e77565b955061340060e08e0161331b565b94506101008d013591508082111561341757600080fd5b6134238e838f01612ed2565b93506101208d013591508082111561343a57600080fd5b506134478d828e01612e77565b9150509295989b9194979a5092959850565b6000602080838503121561346c57600080fd5b82356001600160401b038082111561348357600080fd5b818501915085601f83011261349757600080fd5b8135818111156134a9576134a9612d93565b6134bb601f8201601f19168501612da9565b915080825286848285010111156134d157600080fd5b8084840185840137600090820190930192909252509392505050565b6020808252600f908201526e29b2b2b21d1022b93937b91019991960891b604082015260600190565b60006020828403121561352857600080fd5b5051919050565b634e487b7160e01b600052601160045260246000fd5b81810381811115611f9057611f9061352f565b6020808252600f908201526e0536565643a204572726f722033383608c1b604082015260600190565b80820180821115611f9057611f9061352f565b600181811c908216806135a857607f821691505b6020821081036135c857634e487b7160e01b600052602260045260246000fd5b50919050565b6020808252600f908201526e0a6cacac874408ae4e4dee44066687608b1b604082015260600190565b6020808252600f908201526e14d959590e88115c9c9bdc880ccd0d608a1b604082015260600190565b6020808252600f908201526e29b2b2b21d1022b93937b91018981960891b604082015260600190565b634e487b7160e01b600052603260045260246000fd5b6000600182016136715761367161352f565b5060010190565b600060ff821660ff810361368e5761368e61352f565b60010192915050565b6000816136a6576136a661352f565b506000190190565b6020808252600f908201526e536565643a204572726f722031303160881b604082015260600190565b8082028115828204841417611f9057611f9061352f565b60008261370b57634e487b7160e01b600052601260045260246000fd5b500490565b601f8211156107cf57600081815260208120601f850160051c810160208610156137375750805b601f850160051c820191505b8181101561375657828155600101613743565b505050505050565b81516001600160401b0381111561377757613777612d93565b61378b816137858454613594565b84613710565b602080601f8311600181146137c057600084156137a85750858301515b600019600386901b1c1916600185901b178555613756565b600085815260208120601f198616915b828110156137ef578886015182559484019460019091019084016137d0565b508582101561380d5787850151600019600388901b60f8161c191681555b5050505050600190811b01905550565b6000825161382f818460208701612d30565b9190910192915050565b60006020828403121561384b57600080fd5b8151612b848161330a56fea2646970667358221220d14fe31cb21192a3520714226a1ea7e3ce7642eefe184ff54f100f42c0fe192564736f6c63430008110033",
  "devdoc": {
    "details": "Smart contract for seed phases of Prime Launch.",
    "kind": "dev",
    "methods": {
      "addClassesAndAllowlists(bytes32[],uint256[],uint256[],uint256[],uint256[],address[][])": {
        "details": "Add classes and allowlists to the contract by batching them into one function call. It adds allowlists to the created classes if applicable",
        "params": {
          "_allowlist": "Array of addresses to be allowlisted",
          "_classCaps": "The total cap of the contributor class, denominated in Wei.",
          "_classNames": "The name of the class",
          "_individualCaps": "The personal cap of each contributor in this class, denominated in Wei.",
          "_vestingCliffs": "The cliff duration, denominated in seconds.",
          "_vestingDurations": "The vesting duration for this contributors class."
        }
      },
      "allowlist(address[],uint8[])": {
        "details": "Add multiple addresses to contributor classes, and if applicable allowlist them.",
        "params": {
          "_buyers": "Array of addresses to be allowlisted",
          "_classes": "Array of classes assigned in batch"
        }
      },
      "buy(uint256)": {
        "details": "Buy seed tokens.",
        "params": {
          "_fundingAmount": "The amount of funding tokens to contribute."
        }
      },
      "calculateClaimBeneficiary()": {
        "details": "Calculates the maximum claim for the beneficiary"
      },
      "calculateClaimFunder(address)": {
        "details": "Calculates the maximum claim of the funder address",
        "params": {
          "_funder": "Address of funder to find the maximum claim"
        }
      },
      "changeClassesAndAllowlists(uint8[],bytes32[],uint256[],uint256[],uint256[],uint256[],address[][])": {
        "details": "Changes all de classes given in the _classes parameter, editing the different parameters of the class, and allowlist addresses if applicable.",
        "params": {
          "_allowlists": "Array of addresses to be allowlisted",
          "_classCaps": "The total cap of the contributor class, denominated in Wei.",
          "_classNames": "The name of the class",
          "_classes": "Class for changing.",
          "_individualCaps": "The personal cap of each contributor in this class, denominated in Wei.",
          "_vestingCliffs": "The cliff duration, denominated in seconds.",
          "_vestingDurations": "The vesting duration for this contributors class."
        }
      },
      "claim(uint256)": {
        "details": "Claim vested seed tokens.",
        "params": {
          "_claimAmount": "The amount of seed token a users wants to claim."
        }
      },
      "close()": {
        "details": "Shut down contributions (buying). Supersedes the normal logic that eventually shuts down buying anyway. Also shuts down the admin's ability to alter the allowlist."
      },
      "getAllClasses()": {
        "details": "Returns arrays with all the parameters of all the classes"
      },
      "initialize(address,address,address[],uint256[],uint256,uint256[],uint256[],bool,address[],uint256[])": {
        "details": "Initialize Seed.",
        "params": {
          "_admin": "The address of the admin of this contract. Funds contract and has permissions to allowlist users, pause and close contract.",
          "_allowlistAddresses": "Array of addresses to be allowlisted for the default class, at creation time",
          "_beneficiary": "The address that recieves fees.",
          "_defaultClassParameters": "Array containing three params: - Individual buying cap for de default class, expressed in precision 10*18 - Cliff duration, denominated in seconds. - Vesting period duration, denominated in seconds.",
          "_permissionedSeed": "Set to true if only allowlisted adresses are allowed to participate.",
          "_price": "Price of a SeedToken, expressed in fundingTokens, with precision of 10**18",
          "_softAndHardCap": "Array containing two params: - the minimum funding token collection threshold in wei denomination. - the highest possible funding token amount to be raised in wei denomination.",
          "_startTimeAndEndTime": "Array containing two params: - Distribution start time in unix timecode. - Distribution end time in unix timecode.",
          "_tip": "Array of containing three parameters: - Total amount of tip percentage expressed as a % (e.g. 45 / 100 * 10**18 = 45% fee, 10**16 = 1%) - Tip vesting period duration denominated in seconds.\t\t\t\t\t\t\t\t\t\t\t\t\t\t\t\t\t\t\t\t\t\t\t\t - Tipcliff duration denominated in seconds.\t",
          "_tokens": "Array containing two params: - The address of the seed token being distributed.                                     - The address of the funding token being exchanged for seed token."
        }
      },
      "pause()": {
        "details": "Pause distribution."
      },
      "retrieveFundingTokens()": {
        "details": "Returns funding tokens to user."
      },
      "retrieveSeedTokens(address)": {
        "details": "retrieve remaining seed tokens back to project.",
        "params": {
          "_refundReceiver": "refund receiver address"
        }
      },
      "seedAmountForFunder(address)": {
        "details": "get seed amount for funder",
        "params": {
          "_funder": "address of funder to seed amount"
        }
      },
      "unAllowlist(address)": {
        "details": "Remove address from allowlist.",
        "params": {
          "_buyer": "Address which needs to be un-allowlisted"
        }
      },
      "unpause()": {
        "details": "Unpause distribution."
      },
      "updateMetadata(bytes)": {
        "details": "Updates metadata.",
        "params": {
          "_metadata": "Seed contract metadata, that is IPFS Hash"
        }
      },
      "withdraw()": {
        "details": "Withdraw funds from the contract"
      }
    },
    "title": "PrimeDAO Seed contract V2",
    "version": 1
  },
  "userdoc": {
    "kind": "user",
    "methods": {},
    "version": 1
  },
  "storageLayout": {
    "storage": [
      {
        "astId": 5103,
        "contract": "contracts/seed/Seed.sol:Seed",
        "label": "beneficiary",
        "offset": 0,
        "slot": "0",
        "type": "t_address"
      },
      {
        "astId": 5105,
        "contract": "contracts/seed/Seed.sol:Seed",
        "label": "admin",
        "offset": 0,
        "slot": "1",
        "type": "t_address"
      },
      {
        "astId": 5107,
        "contract": "contracts/seed/Seed.sol:Seed",
        "label": "softCap",
        "offset": 0,
        "slot": "2",
        "type": "t_uint256"
      },
      {
        "astId": 5109,
        "contract": "contracts/seed/Seed.sol:Seed",
        "label": "hardCap",
        "offset": 0,
        "slot": "3",
        "type": "t_uint256"
      },
      {
        "astId": 5111,
        "contract": "contracts/seed/Seed.sol:Seed",
        "label": "seedAmountRequired",
        "offset": 0,
        "slot": "4",
        "type": "t_uint256"
      },
      {
        "astId": 5113,
        "contract": "contracts/seed/Seed.sol:Seed",
        "label": "totalBuyableSeed",
        "offset": 0,
        "slot": "5",
        "type": "t_uint256"
      },
      {
        "astId": 5115,
        "contract": "contracts/seed/Seed.sol:Seed",
        "label": "startTime",
        "offset": 0,
        "slot": "6",
        "type": "t_uint256"
      },
      {
        "astId": 5117,
        "contract": "contracts/seed/Seed.sol:Seed",
        "label": "endTime",
        "offset": 0,
        "slot": "7",
        "type": "t_uint256"
      },
      {
        "astId": 5119,
        "contract": "contracts/seed/Seed.sol:Seed",
        "label": "vestingStartTime",
        "offset": 0,
        "slot": "8",
        "type": "t_uint256"
      },
      {
        "astId": 5121,
        "contract": "contracts/seed/Seed.sol:Seed",
        "label": "permissionedSeed",
        "offset": 0,
        "slot": "9",
        "type": "t_bool"
      },
      {
        "astId": 5124,
        "contract": "contracts/seed/Seed.sol:Seed",
        "label": "seedToken",
        "offset": 1,
        "slot": "9",
        "type": "t_contract(IERC20)3353"
      },
      {
        "astId": 5127,
        "contract": "contracts/seed/Seed.sol:Seed",
        "label": "fundingToken",
        "offset": 0,
        "slot": "10",
        "type": "t_contract(IERC20)3353"
      },
      {
        "astId": 5129,
        "contract": "contracts/seed/Seed.sol:Seed",
        "label": "metadata",
        "offset": 0,
        "slot": "11",
        "type": "t_bytes_storage"
      },
      {
        "astId": 5136,
        "contract": "contracts/seed/Seed.sol:Seed",
        "label": "closed",
        "offset": 0,
        "slot": "12",
        "type": "t_bool"
      },
      {
        "astId": 5138,
        "contract": "contracts/seed/Seed.sol:Seed",
        "label": "paused",
        "offset": 1,
        "slot": "12",
        "type": "t_bool"
      },
      {
        "astId": 5140,
        "contract": "contracts/seed/Seed.sol:Seed",
        "label": "isFunded",
        "offset": 2,
        "slot": "12",
        "type": "t_bool"
      },
      {
        "astId": 5142,
        "contract": "contracts/seed/Seed.sol:Seed",
        "label": "initialized",
        "offset": 3,
        "slot": "12",
        "type": "t_bool"
      },
      {
        "astId": 5144,
        "contract": "contracts/seed/Seed.sol:Seed",
        "label": "minimumReached",
        "offset": 4,
        "slot": "12",
        "type": "t_bool"
      },
      {
        "astId": 5146,
        "contract": "contracts/seed/Seed.sol:Seed",
        "label": "maximumReached",
        "offset": 5,
        "slot": "12",
        "type": "t_bool"
      },
      {
        "astId": 5148,
        "contract": "contracts/seed/Seed.sol:Seed",
        "label": "totalFunderCount",
        "offset": 0,
        "slot": "13",
        "type": "t_uint256"
      },
      {
        "astId": 5150,
        "contract": "contracts/seed/Seed.sol:Seed",
        "label": "seedRemainder",
        "offset": 0,
        "slot": "14",
        "type": "t_uint256"
      },
      {
        "astId": 5152,
        "contract": "contracts/seed/Seed.sol:Seed",
        "label": "seedClaimed",
        "offset": 0,
        "slot": "15",
        "type": "t_uint256"
      },
      {
        "astId": 5154,
        "contract": "contracts/seed/Seed.sol:Seed",
        "label": "fundingCollected",
        "offset": 0,
        "slot": "16",
        "type": "t_uint256"
      },
      {
        "astId": 5156,
        "contract": "contracts/seed/Seed.sol:Seed",
        "label": "fundingWithdrawn",
        "offset": 0,
        "slot": "17",
        "type": "t_uint256"
      },
      {
        "astId": 5158,
        "contract": "contracts/seed/Seed.sol:Seed",
        "label": "price",
        "offset": 0,
        "slot": "18",
        "type": "t_uint256"
      },
      {
        "astId": 5161,
        "contract": "contracts/seed/Seed.sol:Seed",
        "label": "tip",
        "offset": 0,
        "slot": "19",
        "type": "t_struct(Tip)5231_storage"
      },
      {
        "astId": 5165,
        "contract": "contracts/seed/Seed.sol:Seed",
        "label": "classes",
        "offset": 0,
        "slot": "24",
        "type": "t_array(t_struct(ContributorClass)5220_storage)dyn_storage"
      },
      {
        "astId": 5170,
        "contract": "contracts/seed/Seed.sol:Seed",
        "label": "funders",
        "offset": 0,
        "slot": "25",
        "type": "t_mapping(t_address,t_struct(FunderPortfolio)5207_storage)"
      }
    ],
    "types": {
      "t_address": {
        "encoding": "inplace",
        "label": "address",
        "numberOfBytes": "20"
      },
      "t_array(t_struct(ContributorClass)5220_storage)dyn_storage": {
        "base": "t_struct(ContributorClass)5220_storage",
        "encoding": "dynamic_array",
        "label": "struct Seed.ContributorClass[]",
        "numberOfBytes": "32"
      },
      "t_bool": {
        "encoding": "inplace",
        "label": "bool",
        "numberOfBytes": "1"
      },
      "t_bytes32": {
        "encoding": "inplace",
        "label": "bytes32",
        "numberOfBytes": "32"
      },
      "t_bytes_storage": {
        "encoding": "bytes",
        "label": "bytes",
        "numberOfBytes": "32"
      },
      "t_contract(IERC20)3353": {
        "encoding": "inplace",
        "label": "contract IERC20",
        "numberOfBytes": "20"
      },
      "t_mapping(t_address,t_struct(FunderPortfolio)5207_storage)": {
        "encoding": "mapping",
        "key": "t_address",
        "label": "mapping(address => struct Seed.FunderPortfolio)",
        "numberOfBytes": "32",
        "value": "t_struct(FunderPortfolio)5207_storage"
      },
      "t_struct(ContributorClass)5220_storage": {
        "encoding": "inplace",
        "label": "struct Seed.ContributorClass",
        "members": [
          {
            "astId": 5209,
            "contract": "contracts/seed/Seed.sol:Seed",
            "label": "className",
            "offset": 0,
            "slot": "0",
            "type": "t_bytes32"
          },
          {
            "astId": 5211,
            "contract": "contracts/seed/Seed.sol:Seed",
            "label": "classCap",
            "offset": 0,
            "slot": "1",
            "type": "t_uint256"
          },
          {
            "astId": 5213,
            "contract": "contracts/seed/Seed.sol:Seed",
            "label": "individualCap",
            "offset": 0,
            "slot": "2",
            "type": "t_uint256"
          },
          {
            "astId": 5215,
            "contract": "contracts/seed/Seed.sol:Seed",
            "label": "vestingCliff",
            "offset": 0,
            "slot": "3",
            "type": "t_uint256"
          },
          {
            "astId": 5217,
            "contract": "contracts/seed/Seed.sol:Seed",
            "label": "vestingDuration",
            "offset": 0,
            "slot": "4",
            "type": "t_uint256"
          },
          {
            "astId": 5219,
            "contract": "contracts/seed/Seed.sol:Seed",
            "label": "classFundingCollected",
            "offset": 0,
            "slot": "5",
            "type": "t_uint256"
          }
        ],
        "numberOfBytes": "192"
      },
      "t_struct(FunderPortfolio)5207_storage": {
        "encoding": "inplace",
        "label": "struct Seed.FunderPortfolio",
        "members": [
          {
            "astId": 5200,
            "contract": "contracts/seed/Seed.sol:Seed",
            "label": "class",
            "offset": 0,
            "slot": "0",
            "type": "t_uint8"
          },
          {
            "astId": 5202,
            "contract": "contracts/seed/Seed.sol:Seed",
            "label": "totalClaimed",
            "offset": 0,
            "slot": "1",
            "type": "t_uint256"
          },
          {
            "astId": 5204,
            "contract": "contracts/seed/Seed.sol:Seed",
            "label": "fundingAmount",
            "offset": 0,
            "slot": "2",
            "type": "t_uint256"
          },
          {
            "astId": 5206,
            "contract": "contracts/seed/Seed.sol:Seed",
            "label": "allowlist",
            "offset": 0,
            "slot": "3",
            "type": "t_bool"
          }
        ],
        "numberOfBytes": "128"
      },
      "t_struct(Tip)5231_storage": {
        "encoding": "inplace",
        "label": "struct Seed.Tip",
        "members": [
          {
            "astId": 5222,
            "contract": "contracts/seed/Seed.sol:Seed",
            "label": "tipPercentage",
            "offset": 0,
            "slot": "0",
            "type": "t_uint256"
          },
          {
            "astId": 5224,
            "contract": "contracts/seed/Seed.sol:Seed",
            "label": "vestingCliff",
            "offset": 0,
            "slot": "1",
            "type": "t_uint256"
          },
          {
            "astId": 5226,
            "contract": "contracts/seed/Seed.sol:Seed",
            "label": "vestingDuration",
            "offset": 0,
            "slot": "2",
            "type": "t_uint256"
          },
          {
            "astId": 5228,
            "contract": "contracts/seed/Seed.sol:Seed",
            "label": "tipAmount",
            "offset": 0,
            "slot": "3",
            "type": "t_uint256"
          },
          {
            "astId": 5230,
            "contract": "contracts/seed/Seed.sol:Seed",
            "label": "totalClaimed",
            "offset": 0,
            "slot": "4",
            "type": "t_uint256"
          }
        ],
        "numberOfBytes": "160"
      },
      "t_uint256": {
        "encoding": "inplace",
        "label": "uint256",
        "numberOfBytes": "32"
      },
      "t_uint8": {
        "encoding": "inplace",
        "label": "uint8",
        "numberOfBytes": "1"
      }
    }
  }
}