{
  "_format": "hh-sol-artifact-1",
  "contractName": "LBPManagerFactory",
  "sourceName": "contracts/lbp/LBPManagerFactory.sol",
  "abi": [
    {
      "inputs": [
        {
          "internalType": "address",
          "name": "_lbpFactory",
          "type": "address"
        }
      ],
      "stateMutability": "nonpayable",
      "type": "constructor"
    },
    {
      "anonymous": false,
      "inputs": [
        {
          "indexed": true,
          "internalType": "address",
          "name": "oldLBPFactory",
          "type": "address"
        },
        {
          "indexed": true,
          "internalType": "address",
          "name": "newLBPFactory",
          "type": "address"
        }
      ],
      "name": "LBPFactoryChanged",
      "type": "event"
    },
    {
      "anonymous": false,
      "inputs": [
        {
          "indexed": true,
          "internalType": "address",
          "name": "lbpManager",
          "type": "address"
        },
        {
          "indexed": true,
          "internalType": "address",
          "name": "admin",
          "type": "address"
        },
        {
          "indexed": false,
          "internalType": "bytes",
          "name": "metadata",
          "type": "bytes"
        }
      ],
      "name": "LBPManagerDeployed",
      "type": "event"
    },
    {
      "anonymous": false,
      "inputs": [
        {
          "indexed": true,
          "internalType": "address",
          "name": "oldMasterCopy",
          "type": "address"
        },
        {
          "indexed": true,
          "internalType": "address",
          "name": "newMasterCopy",
          "type": "address"
        }
      ],
      "name": "MastercopyChanged",
      "type": "event"
    },
    {
      "anonymous": false,
      "inputs": [
        {
          "indexed": true,
          "internalType": "address",
          "name": "previousOwner",
          "type": "address"
        },
        {
          "indexed": true,
          "internalType": "address",
          "name": "newOwner",
          "type": "address"
        }
      ],
      "name": "OwnershipTransferred",
      "type": "event"
    },
    {
      "inputs": [
        {
          "internalType": "address",
          "name": "_admin",
          "type": "address"
        },
        {
          "internalType": "address",
          "name": "_beneficiary",
          "type": "address"
        },
        {
          "internalType": "string",
          "name": "_name",
          "type": "string"
        },
        {
          "internalType": "string",
          "name": "_symbol",
          "type": "string"
        },
        {
          "internalType": "contract IERC20[]",
          "name": "_tokenList",
          "type": "address[]"
        },
        {
          "internalType": "uint256[]",
          "name": "_amounts",
          "type": "uint256[]"
        },
        {
          "internalType": "uint256[]",
          "name": "_startWeights",
          "type": "uint256[]"
        },
        {
          "internalType": "uint256[]",
          "name": "_startTimeEndtime",
          "type": "uint256[]"
        },
        {
          "internalType": "uint256[]",
          "name": "_endWeights",
          "type": "uint256[]"
        },
        {
          "internalType": "uint256[]",
          "name": "_fees",
          "type": "uint256[]"
        },
        {
          "internalType": "bytes",
          "name": "_metadata",
          "type": "bytes"
        }
      ],
      "name": "deployLBPManager",
      "outputs": [],
      "stateMutability": "nonpayable",
      "type": "function"
    },
    {
      "inputs": [],
      "name": "lbpFactory",
      "outputs": [
        {
          "internalType": "address",
          "name": "",
          "type": "address"
        }
      ],
      "stateMutability": "view",
      "type": "function"
    },
    {
      "inputs": [],
      "name": "masterCopy",
      "outputs": [
        {
          "internalType": "address",
          "name": "",
          "type": "address"
        }
      ],
      "stateMutability": "view",
      "type": "function"
    },
    {
      "inputs": [],
      "name": "owner",
      "outputs": [
        {
          "internalType": "address",
          "name": "",
          "type": "address"
        }
      ],
      "stateMutability": "view",
      "type": "function"
    },
    {
      "inputs": [],
      "name": "renounceOwnership",
      "outputs": [],
      "stateMutability": "nonpayable",
      "type": "function"
    },
    {
      "inputs": [
        {
          "internalType": "address",
          "name": "_lbpFactory",
          "type": "address"
        }
      ],
      "name": "setLBPFactory",
      "outputs": [],
      "stateMutability": "nonpayable",
      "type": "function"
    },
    {
      "inputs": [
        {
          "internalType": "address",
          "name": "_masterCopy",
          "type": "address"
        }
      ],
      "name": "setMasterCopy",
      "outputs": [],
      "stateMutability": "nonpayable",
      "type": "function"
    },
    {
      "inputs": [
        {
          "internalType": "address",
          "name": "newOwner",
          "type": "address"
        }
      ],
      "name": "transferOwnership",
      "outputs": [],
      "stateMutability": "nonpayable",
      "type": "function"
    }
  ],
  "bytecode": "0x60806040523480156200001157600080fd5b5060405162001ba738038062001ba7833981810160405281019062000037919062000248565b620000576200004b6200011260201b60201c565b6200011a60201b60201c565b600073ffffffffffffffffffffffffffffffffffffffff168173ffffffffffffffffffffffffffffffffffffffff161415620000ca576040517f08c379a0000000000000000000000000000000000000000000000000000000008152600401620000c190620002db565b60405180910390fd5b80600260006101000a81548173ffffffffffffffffffffffffffffffffffffffff021916908373ffffffffffffffffffffffffffffffffffffffff16021790555050620002fd565b600033905090565b60008060009054906101000a900473ffffffffffffffffffffffffffffffffffffffff169050816000806101000a81548173ffffffffffffffffffffffffffffffffffffffff021916908373ffffffffffffffffffffffffffffffffffffffff1602179055508173ffffffffffffffffffffffffffffffffffffffff168173ffffffffffffffffffffffffffffffffffffffff167f8be0079c531659141344cd1fd0a4f28419497f9722a3daafe3b4186f6b6457e060405160405180910390a35050565b600080fd5b600073ffffffffffffffffffffffffffffffffffffffff82169050919050565b60006200021082620001e3565b9050919050565b620002228162000203565b81146200022e57600080fd5b50565b600081519050620002428162000217565b92915050565b600060208284031215620002615762000260620001de565b5b6000620002718482850162000231565b91505092915050565b600082825260208201905092915050565b7f4c42504d466163746f72793a204c4250466163746f7279206973207a65726f00600082015250565b6000620002c3601f836200027a565b9150620002d0826200028b565b602082019050919050565b60006020820190508181036000830152620002f681620002b4565b9050919050565b61189a806200030d6000396000f3fe608060405234801561001057600080fd5b50600436106100885760003560e01c8063c18b51511161005b578063c18b5151146100ef578063cf497e6c1461010d578063f2fde38b14610129578063fd3bd38a1461014557610088565b8063715018a61461008d5780637679a4c1146100975780638da5cb5b146100b3578063a619486e146100d1575b600080fd5b610095610161565b005b6100b160048036038101906100ac9190610bf4565b6101e9565b005b6100bb610406565b6040516100c89190610c30565b60405180910390f35b6100d961042f565b6040516100e69190610c30565b60405180910390f35b6100f7610455565b6040516101049190610c30565b60405180910390f35b61012760048036038101906101229190610bf4565b61047b565b005b610143600480360381019061013e9190610bf4565b610698565b005b61015f600480360381019061015a9190611031565b610790565b005b610169610a4c565b73ffffffffffffffffffffffffffffffffffffffff16610187610406565b73ffffffffffffffffffffffffffffffffffffffff16146101dd576040517f08c379a00000000000000000000000000000000000000000000000000000000081526004016101d49061127e565b60405180910390fd5b6101e76000610a54565b565b6101f1610a4c565b73ffffffffffffffffffffffffffffffffffffffff1661020f610406565b73ffffffffffffffffffffffffffffffffffffffff1614610265576040517f08c379a000000000000000000000000000000000000000000000000000000000815260040161025c9061127e565b60405180910390fd5b80600073ffffffffffffffffffffffffffffffffffffffff168173ffffffffffffffffffffffffffffffffffffffff1614156102d6576040517f08c379a00000000000000000000000000000000000000000000000000000000081526004016102cd906112ea565b60405180910390fd5b3073ffffffffffffffffffffffffffffffffffffffff168173ffffffffffffffffffffffffffffffffffffffff161415610345576040517f08c379a000000000000000000000000000000000000000000000000000000000815260040161033c9061137c565b60405180910390fd5b8173ffffffffffffffffffffffffffffffffffffffff16600260009054906101000a900473ffffffffffffffffffffffffffffffffffffffff1673ffffffffffffffffffffffffffffffffffffffff167f877e5d562f57d3294803fbbd1e6715a2342eedb560cc540e97a9b77f03d12cbf60405160405180910390a381600260006101000a81548173ffffffffffffffffffffffffffffffffffffffff021916908373ffffffffffffffffffffffffffffffffffffffff1602179055505050565b60008060009054906101000a900473ffffffffffffffffffffffffffffffffffffffff16905090565b600160009054906101000a900473ffffffffffffffffffffffffffffffffffffffff1681565b600260009054906101000a900473ffffffffffffffffffffffffffffffffffffffff1681565b610483610a4c565b73ffffffffffffffffffffffffffffffffffffffff166104a1610406565b73ffffffffffffffffffffffffffffffffffffffff16146104f7576040517f08c379a00000000000000000000000000000000000000000000000000000000081526004016104ee9061127e565b60405180910390fd5b80600073ffffffffffffffffffffffffffffffffffffffff168173ffffffffffffffffffffffffffffffffffffffff161415610568576040517f08c379a000000000000000000000000000000000000000000000000000000000815260040161055f906112ea565b60405180910390fd5b3073ffffffffffffffffffffffffffffffffffffffff168173ffffffffffffffffffffffffffffffffffffffff1614156105d7576040517f08c379a00000000000000000000000000000000000000000000000000000000081526004016105ce9061137c565b60405180910390fd5b8173ffffffffffffffffffffffffffffffffffffffff16600160009054906101000a900473ffffffffffffffffffffffffffffffffffffffff1673ffffffffffffffffffffffffffffffffffffffff167fb8c954c26b96c632ba5e28e879f889c124225199d6787047500b1eef41ff464160405160405180910390a381600160006101000a81548173ffffffffffffffffffffffffffffffffffffffff021916908373ffffffffffffffffffffffffffffffffffffffff1602179055505050565b6106a0610a4c565b73ffffffffffffffffffffffffffffffffffffffff166106be610406565b73ffffffffffffffffffffffffffffffffffffffff1614610714576040517f08c379a000000000000000000000000000000000000000000000000000000000815260040161070b9061127e565b60405180910390fd5b600073ffffffffffffffffffffffffffffffffffffffff168173ffffffffffffffffffffffffffffffffffffffff161415610784576040517f08c379a000000000000000000000000000000000000000000000000000000000815260040161077b9061140e565b60405180910390fd5b61078d81610a54565b50565b610798610a4c565b73ffffffffffffffffffffffffffffffffffffffff166107b6610406565b73ffffffffffffffffffffffffffffffffffffffff161461080c576040517f08c379a00000000000000000000000000000000000000000000000000000000081526004016108039061127e565b60405180910390fd5b600073ffffffffffffffffffffffffffffffffffffffff16600160009054906101000a900473ffffffffffffffffffffffffffffffffffffffff1673ffffffffffffffffffffffffffffffffffffffff16141561089e576040517f08c379a0000000000000000000000000000000000000000000000000000000008152600401610895906114a0565b60405180910390fd5b60006108cb600160009054906101000a900473ffffffffffffffffffffffffffffffffffffffff16610b18565b90508073ffffffffffffffffffffffffffffffffffffffff16638638fe31600260009054906101000a900473ffffffffffffffffffffffffffffffffffffffff168d8d8d8d8d8d8d8d8d8d6040518c63ffffffff1660e01b815260040161093c9b9a99989796959493929190611758565b600060405180830381600087803b15801561095657600080fd5b505af115801561096a573d6000803e3d6000fd5b505050508073ffffffffffffffffffffffffffffffffffffffff1663b5106add8d6040518263ffffffff1660e01b81526004016109a79190610c30565b600060405180830381600087803b1580156109c157600080fd5b505af11580156109d5573d6000803e3d6000fd5b505050508b73ffffffffffffffffffffffffffffffffffffffff168173ffffffffffffffffffffffffffffffffffffffff167f8b8a9c158a44eff86c91705dbc9c0479504c8de441156f3c2c21a6ed00e1627a84604051610a369190611842565b60405180910390a3505050505050505050505050565b600033905090565b60008060009054906101000a900473ffffffffffffffffffffffffffffffffffffffff169050816000806101000a81548173ffffffffffffffffffffffffffffffffffffffff021916908373ffffffffffffffffffffffffffffffffffffffff1602179055508173ffffffffffffffffffffffffffffffffffffffff168173ffffffffffffffffffffffffffffffffffffffff167f8be0079c531659141344cd1fd0a4f28419497f9722a3daafe3b4186f6b6457e060405160405180910390a35050565b6000808260601b90506040517f3d602d80600a3d3981f3363d3d373d3d3d363d7300000000000000000000000081528160148201527f5af43d82803e903d91602b57fd5bf3000000000000000000000000000000000060288201526037816000f092505050919050565b6000604051905090565b600080fd5b600080fd5b600073ffffffffffffffffffffffffffffffffffffffff82169050919050565b6000610bc182610b96565b9050919050565b610bd181610bb6565b8114610bdc57600080fd5b50565b600081359050610bee81610bc8565b92915050565b600060208284031215610c0a57610c09610b8c565b5b6000610c1884828501610bdf565b91505092915050565b610c2a81610bb6565b82525050565b6000602082019050610c456000830184610c21565b92915050565b600080fd5b600080fd5b6000601f19601f8301169050919050565b7f4e487b7100000000000000000000000000000000000000000000000000000000600052604160045260246000fd5b610c9e82610c55565b810181811067ffffffffffffffff82111715610cbd57610cbc610c66565b5b80604052505050565b6000610cd0610b82565b9050610cdc8282610c95565b919050565b600067ffffffffffffffff821115610cfc57610cfb610c66565b5b610d0582610c55565b9050602081019050919050565b82818337600083830152505050565b6000610d34610d2f84610ce1565b610cc6565b905082815260208101848484011115610d5057610d4f610c50565b5b610d5b848285610d12565b509392505050565b600082601f830112610d7857610d77610c4b565b5b8135610d88848260208601610d21565b91505092915050565b600067ffffffffffffffff821115610dac57610dab610c66565b5b602082029050602081019050919050565b600080fd5b6000610dcd82610bb6565b9050919050565b610ddd81610dc2565b8114610de857600080fd5b50565b600081359050610dfa81610dd4565b92915050565b6000610e13610e0e84610d91565b610cc6565b90508083825260208201905060208402830185811115610e3657610e35610dbd565b5b835b81811015610e5f5780610e4b8882610deb565b845260208401935050602081019050610e38565b5050509392505050565b600082601f830112610e7e57610e7d610c4b565b5b8135610e8e848260208601610e00565b91505092915050565b600067ffffffffffffffff821115610eb257610eb1610c66565b5b602082029050602081019050919050565b6000819050919050565b610ed681610ec3565b8114610ee157600080fd5b50565b600081359050610ef381610ecd565b92915050565b6000610f0c610f0784610e97565b610cc6565b90508083825260208201905060208402830185811115610f2f57610f2e610dbd565b5b835b81811015610f585780610f448882610ee4565b845260208401935050602081019050610f31565b5050509392505050565b600082601f830112610f7757610f76610c4b565b5b8135610f87848260208601610ef9565b91505092915050565b600067ffffffffffffffff821115610fab57610faa610c66565b5b610fb482610c55565b9050602081019050919050565b6000610fd4610fcf84610f90565b610cc6565b905082815260208101848484011115610ff057610fef610c50565b5b610ffb848285610d12565b509392505050565b600082601f83011261101857611017610c4b565b5b8135611028848260208601610fc1565b91505092915050565b60008060008060008060008060008060006101608c8e03121561105757611056610b8c565b5b60006110658e828f01610bdf565b9b505060206110768e828f01610bdf565b9a505060408c013567ffffffffffffffff81111561109757611096610b91565b5b6110a38e828f01610d63565b99505060608c013567ffffffffffffffff8111156110c4576110c3610b91565b5b6110d08e828f01610d63565b98505060808c013567ffffffffffffffff8111156110f1576110f0610b91565b5b6110fd8e828f01610e69565b97505060a08c013567ffffffffffffffff81111561111e5761111d610b91565b5b61112a8e828f01610f62565b96505060c08c013567ffffffffffffffff81111561114b5761114a610b91565b5b6111578e828f01610f62565b95505060e08c013567ffffffffffffffff81111561117857611177610b91565b5b6111848e828f01610f62565b9450506101008c013567ffffffffffffffff8111156111a6576111a5610b91565b5b6111b28e828f01610f62565b9350506101208c013567ffffffffffffffff8111156111d4576111d3610b91565b5b6111e08e828f01610f62565b9250506101408c013567ffffffffffffffff81111561120257611201610b91565b5b61120e8e828f01611003565b9150509295989b509295989b9093969950565b600082825260208201905092915050565b7f4f776e61626c653a2063616c6c6572206973206e6f7420746865206f776e6572600082015250565b6000611268602083611221565b915061127382611232565b602082019050919050565b600060208201905081810360008301526112978161125b565b9050919050565b7f4c42504d466163746f72793a2061646472657373206973207a65726f00000000600082015250565b60006112d4601c83611221565b91506112df8261129e565b602082019050919050565b60006020820190508181036000830152611303816112c7565b9050919050565b7f4c42504d466163746f72793a20616464726573732073616d65206173204c425060008201527f4d616e61676572466163746f7279000000000000000000000000000000000000602082015250565b6000611366602e83611221565b91506113718261130a565b604082019050919050565b6000602082019050818103600083015261139581611359565b9050919050565b7f4f776e61626c653a206e6577206f776e657220697320746865207a65726f206160008201527f6464726573730000000000000000000000000000000000000000000000000000602082015250565b60006113f8602683611221565b91506114038261139c565b604082019050919050565b60006020820190508181036000830152611427816113eb565b9050919050565b7f4c42504d466163746f72793a204c42504d616e61676572206d6173746572636f60008201527f7079206e6f742073657400000000000000000000000000000000000000000000602082015250565b600061148a602a83611221565b91506114958261142e565b604082019050919050565b600060208201905081810360008301526114b98161147d565b9050919050565b600081519050919050565b60005b838110156114e95780820151818401526020810190506114ce565b838111156114f8576000848401525b50505050565b6000611509826114c0565b6115138185611221565b93506115238185602086016114cb565b61152c81610c55565b840191505092915050565b600081519050919050565b600082825260208201905092915050565b6000819050602082019050919050565b6000819050919050565b600061158861158361157e84610b96565b611563565b610b96565b9050919050565b600061159a8261156d565b9050919050565b60006115ac8261158f565b9050919050565b6115bc816115a1565b82525050565b60006115ce83836115b3565b60208301905092915050565b6000602082019050919050565b60006115f282611537565b6115fc8185611542565b935061160783611553565b8060005b8381101561163857815161161f88826115c2565b975061162a836115da565b92505060018101905061160b565b5085935050505092915050565b600081519050919050565b600082825260208201905092915050565b6000819050602082019050919050565b61167a81610ec3565b82525050565b600061168c8383611671565b60208301905092915050565b6000602082019050919050565b60006116b082611645565b6116ba8185611650565b93506116c583611661565b8060005b838110156116f65781516116dd8882611680565b97506116e883611698565b9250506001810190506116c9565b5085935050505092915050565b600081519050919050565b600082825260208201905092915050565b600061172a82611703565b611734818561170e565b93506117448185602086016114cb565b61174d81610c55565b840191505092915050565b60006101608201905061176e600083018e610c21565b61177b602083018d610c21565b818103604083015261178d818c6114fe565b905081810360608301526117a1818b6114fe565b905081810360808301526117b5818a6115e7565b905081810360a08301526117c981896116a5565b905081810360c08301526117dd81886116a5565b905081810360e08301526117f181876116a5565b905081810361010083015261180681866116a5565b905081810361012083015261181b81856116a5565b9050818103610140830152611830818461171f565b90509c9b505050505050505050505050565b6000602082019050818103600083015261185c818461171f565b90509291505056fea2646970667358221220ec24059547b5f76f9f27188a8bdc6381e44943f05c382a9817c1dceaa8fa6f2764736f6c63430008090033",
  "linkReferences": {},
  "deployedLinkReferences": {}
}