{
  "_format": "hh-sol-artifact-1",
  "contractName": "SeedFactory",
  "sourceName": "contracts/seed/SeedFactory.sol",
  "abi": [
    {
      "anonymous": false,
      "inputs": [
        {
          "indexed": true,
          "internalType": "address",
          "name": "previousOwner",
          "type": "address"
        },
        {
          "indexed": true,
          "internalType": "address",
          "name": "newOwner",
          "type": "address"
        }
      ],
      "name": "OwnershipTransferred",
      "type": "event"
    },
    {
      "anonymous": false,
      "inputs": [
        {
          "indexed": true,
          "internalType": "address",
          "name": "newSeed",
          "type": "address"
        },
        {
          "indexed": true,
          "internalType": "address",
          "name": "admin",
          "type": "address"
        }
      ],
      "name": "SeedCreated",
      "type": "event"
    },
    {
      "inputs": [
        {
          "internalType": "address",
          "name": "_beneficiary",
          "type": "address"
        },
        {
          "internalType": "address",
          "name": "_admin",
          "type": "address"
        },
        {
          "internalType": "address[]",
          "name": "_tokens",
          "type": "address[]"
        },
        {
          "internalType": "uint256[]",
          "name": "_softHardThresholds",
          "type": "uint256[]"
        },
        {
          "internalType": "uint256",
          "name": "_price",
          "type": "uint256"
        },
        {
          "internalType": "uint256",
          "name": "_startTime",
          "type": "uint256"
        },
        {
          "internalType": "uint256",
          "name": "_endTime",
          "type": "uint256"
        },
        {
          "internalType": "uint32[]",
          "name": "_vestingDurationAndCliff",
          "type": "uint32[]"
        },
        {
          "internalType": "bool",
          "name": "_permissionedSeed",
          "type": "bool"
        },
        {
          "internalType": "uint256",
          "name": "_fee",
          "type": "uint256"
        },
        {
          "internalType": "bytes",
          "name": "_metadata",
          "type": "bytes"
        }
      ],
      "name": "deploySeed",
      "outputs": [
        {
          "internalType": "address",
          "name": "",
          "type": "address"
        }
      ],
      "stateMutability": "nonpayable",
      "type": "function"
    },
    {
      "inputs": [],
      "name": "masterCopy",
      "outputs": [
        {
          "internalType": "contract Seed",
          "name": "",
          "type": "address"
        }
      ],
      "stateMutability": "view",
      "type": "function"
    },
    {
      "inputs": [],
      "name": "owner",
      "outputs": [
        {
          "internalType": "address",
          "name": "",
          "type": "address"
        }
      ],
      "stateMutability": "view",
      "type": "function"
    },
    {
      "inputs": [],
      "name": "renounceOwnership",
      "outputs": [],
      "stateMutability": "nonpayable",
      "type": "function"
    },
    {
      "inputs": [
        {
          "internalType": "contract Seed",
          "name": "_masterCopy",
          "type": "address"
        }
      ],
      "name": "setMasterCopy",
      "outputs": [],
      "stateMutability": "nonpayable",
      "type": "function"
    },
    {
      "inputs": [
        {
          "internalType": "address",
          "name": "newOwner",
          "type": "address"
        }
      ],
      "name": "transferOwnership",
      "outputs": [],
      "stateMutability": "nonpayable",
      "type": "function"
    }
  ],
  "bytecode": "0x608060405234801561001057600080fd5b5061002d61002261003260201b60201c565b61003a60201b60201c565b6100fe565b600033905090565b60008060009054906101000a900473ffffffffffffffffffffffffffffffffffffffff169050816000806101000a81548173ffffffffffffffffffffffffffffffffffffffff021916908373ffffffffffffffffffffffffffffffffffffffff1602179055508173ffffffffffffffffffffffffffffffffffffffff168173ffffffffffffffffffffffffffffffffffffffff167f8be0079c531659141344cd1fd0a4f28419497f9722a3daafe3b4186f6b6457e060405160405180910390a35050565b6115e08061010d6000396000f3fe608060405234801561001057600080fd5b50600436106100625760003560e01c8063715018a6146100675780638da5cb5b14610071578063a619486e1461008f578063cf497e6c146100ad578063da235e6e146100c9578063f2fde38b146100f9575b600080fd5b61006f610115565b005b61007961019d565b604051610086919061089b565b60405180910390f35b6100976101c6565b6040516100a49190610915565b60405180910390f35b6100c760048036038101906100c29190610982565b6101ec565b005b6100e360048036038101906100de9190610e19565b61031c565b6040516100f0919061089b565b60405180910390f35b610113600480360381019061010e9190610f7d565b61062c565b005b61011d610724565b73ffffffffffffffffffffffffffffffffffffffff1661013b61019d565b73ffffffffffffffffffffffffffffffffffffffff1614610191576040517f08c379a000000000000000000000000000000000000000000000000000000000815260040161018890611007565b60405180910390fd5b61019b600061072c565b565b60008060009054906101000a900473ffffffffffffffffffffffffffffffffffffffff16905090565b600160009054906101000a900473ffffffffffffffffffffffffffffffffffffffff1681565b6101f4610724565b73ffffffffffffffffffffffffffffffffffffffff1661021261019d565b73ffffffffffffffffffffffffffffffffffffffff1614610268576040517f08c379a000000000000000000000000000000000000000000000000000000000815260040161025f90611007565b60405180910390fd5b600073ffffffffffffffffffffffffffffffffffffffff168173ffffffffffffffffffffffffffffffffffffffff1614156102d8576040517f08c379a00000000000000000000000000000000000000000000000000000000081526004016102cf90611099565b60405180910390fd5b80600160006101000a81548173ffffffffffffffffffffffffffffffffffffffff021916908373ffffffffffffffffffffffffffffffffffffffff16021790555050565b6000610326610724565b73ffffffffffffffffffffffffffffffffffffffff1661034461019d565b73ffffffffffffffffffffffffffffffffffffffff161461039a576040517f08c379a000000000000000000000000000000000000000000000000000000000815260040161039190611007565b60405180910390fd5b600073ffffffffffffffffffffffffffffffffffffffff16600160009054906101000a900473ffffffffffffffffffffffffffffffffffffffff1673ffffffffffffffffffffffffffffffffffffffff16141561042c576040517f08c379a00000000000000000000000000000000000000000000000000000000081526004016104239061112b565b60405180910390fd5b6002855114610470576040517f08c379a0000000000000000000000000000000000000000000000000000000008152600401610467906111bd565b60405180910390fd5b600061049d600160009054906101000a900473ffffffffffffffffffffffffffffffffffffffff166107f0565b90508073ffffffffffffffffffffffffffffffffffffffff1663fc582d41846040518263ffffffff1660e01b81526004016104d89190611265565b600060405180830381600087803b1580156104f257600080fd5b505af1158015610506573d6000803e3d6000fd5b505050508073ffffffffffffffffffffffffffffffffffffffff166344f9abb88e8e8e8e8e8e8e8e60008151811061054157610540611287565b5b60200260200101518f60018151811061055d5761055c611287565b5b60200260200101518f8f6040518c63ffffffff1660e01b815260040161058d9b9a9998979695949392919061145f565b600060405180830381600087803b1580156105a757600080fd5b505af11580156105bb573d6000803e3d6000fd5b505050508b73ffffffffffffffffffffffffffffffffffffffff168173ffffffffffffffffffffffffffffffffffffffff167f23fea745ec0ebbc17cc138cc8d1baca7bde3ce83b1fd6d5e1de583961586363960405160405180910390a3809150509b9a5050505050505050505050565b610634610724565b73ffffffffffffffffffffffffffffffffffffffff1661065261019d565b73ffffffffffffffffffffffffffffffffffffffff16146106a8576040517f08c379a000000000000000000000000000000000000000000000000000000000815260040161069f90611007565b60405180910390fd5b600073ffffffffffffffffffffffffffffffffffffffff168173ffffffffffffffffffffffffffffffffffffffff161415610718576040517f08c379a000000000000000000000000000000000000000000000000000000000815260040161070f9061158a565b60405180910390fd5b6107218161072c565b50565b600033905090565b60008060009054906101000a900473ffffffffffffffffffffffffffffffffffffffff169050816000806101000a81548173ffffffffffffffffffffffffffffffffffffffff021916908373ffffffffffffffffffffffffffffffffffffffff1602179055508173ffffffffffffffffffffffffffffffffffffffff168173ffffffffffffffffffffffffffffffffffffffff167f8be0079c531659141344cd1fd0a4f28419497f9722a3daafe3b4186f6b6457e060405160405180910390a35050565b6000808260601b90506040517f3d602d80600a3d3981f3363d3d373d3d3d363d7300000000000000000000000081528160148201527f5af43d82803e903d91602b57fd5bf3000000000000000000000000000000000060288201526037816000f092505050919050565b600073ffffffffffffffffffffffffffffffffffffffff82169050919050565b60006108858261085a565b9050919050565b6108958161087a565b82525050565b60006020820190506108b0600083018461088c565b92915050565b6000819050919050565b60006108db6108d66108d18461085a565b6108b6565b61085a565b9050919050565b60006108ed826108c0565b9050919050565b60006108ff826108e2565b9050919050565b61090f816108f4565b82525050565b600060208201905061092a6000830184610906565b92915050565b6000604051905090565b600080fd5b600080fd5b600061094f8261087a565b9050919050565b61095f81610944565b811461096a57600080fd5b50565b60008135905061097c81610956565b92915050565b6000602082840312156109985761099761093a565b5b60006109a68482850161096d565b91505092915050565b6109b88161087a565b81146109c357600080fd5b50565b6000813590506109d5816109af565b92915050565b600080fd5b6000601f19601f8301169050919050565b7f4e487b7100000000000000000000000000000000000000000000000000000000600052604160045260246000fd5b610a29826109e0565b810181811067ffffffffffffffff82111715610a4857610a476109f1565b5b80604052505050565b6000610a5b610930565b9050610a678282610a20565b919050565b600067ffffffffffffffff821115610a8757610a866109f1565b5b602082029050602081019050919050565b600080fd5b6000610ab0610aab84610a6c565b610a51565b90508083825260208201905060208402830185811115610ad357610ad2610a98565b5b835b81811015610afc5780610ae888826109c6565b845260208401935050602081019050610ad5565b5050509392505050565b600082601f830112610b1b57610b1a6109db565b5b8135610b2b848260208601610a9d565b91505092915050565b600067ffffffffffffffff821115610b4f57610b4e6109f1565b5b602082029050602081019050919050565b6000819050919050565b610b7381610b60565b8114610b7e57600080fd5b50565b600081359050610b9081610b6a565b92915050565b6000610ba9610ba484610b34565b610a51565b90508083825260208201905060208402830185811115610bcc57610bcb610a98565b5b835b81811015610bf55780610be18882610b81565b845260208401935050602081019050610bce565b5050509392505050565b600082601f830112610c1457610c136109db565b5b8135610c24848260208601610b96565b91505092915050565b600067ffffffffffffffff821115610c4857610c476109f1565b5b602082029050602081019050919050565b600063ffffffff82169050919050565b610c7281610c59565b8114610c7d57600080fd5b50565b600081359050610c8f81610c69565b92915050565b6000610ca8610ca384610c2d565b610a51565b90508083825260208201905060208402830185811115610ccb57610cca610a98565b5b835b81811015610cf45780610ce08882610c80565b845260208401935050602081019050610ccd565b5050509392505050565b600082601f830112610d1357610d126109db565b5b8135610d23848260208601610c95565b91505092915050565b60008115159050919050565b610d4181610d2c565b8114610d4c57600080fd5b50565b600081359050610d5e81610d38565b92915050565b600080fd5b600067ffffffffffffffff821115610d8457610d836109f1565b5b610d8d826109e0565b9050602081019050919050565b82818337600083830152505050565b6000610dbc610db784610d69565b610a51565b905082815260208101848484011115610dd857610dd7610d64565b5b610de3848285610d9a565b509392505050565b600082601f830112610e0057610dff6109db565b5b8135610e10848260208601610da9565b91505092915050565b60008060008060008060008060008060006101608c8e031215610e3f57610e3e61093a565b5b6000610e4d8e828f016109c6565b9b50506020610e5e8e828f016109c6565b9a505060408c013567ffffffffffffffff811115610e7f57610e7e61093f565b5b610e8b8e828f01610b06565b99505060608c013567ffffffffffffffff811115610eac57610eab61093f565b5b610eb88e828f01610bff565b9850506080610ec98e828f01610b81565b97505060a0610eda8e828f01610b81565b96505060c0610eeb8e828f01610b81565b95505060e08c013567ffffffffffffffff811115610f0c57610f0b61093f565b5b610f188e828f01610cfe565b945050610100610f2a8e828f01610d4f565b935050610120610f3c8e828f01610b81565b9250506101408c013567ffffffffffffffff811115610f5e57610f5d61093f565b5b610f6a8e828f01610deb565b9150509295989b509295989b9093969950565b600060208284031215610f9357610f9261093a565b5b6000610fa1848285016109c6565b91505092915050565b600082825260208201905092915050565b7f4f776e61626c653a2063616c6c6572206973206e6f7420746865206f776e6572600082015250565b6000610ff1602083610faa565b9150610ffc82610fbb565b602082019050919050565b6000602082019050818103600083015261102081610fe4565b9050919050565b7f53656564466163746f72793a206e6577206d6173746572636f70792063616e6e60008201527f6f74206265207a65726f20616464726573730000000000000000000000000000602082015250565b6000611083603283610faa565b915061108e82611027565b604082019050919050565b600060208201905081810360008301526110b281611076565b9050919050565b7f53656564466163746f72793a206d6173746572636f70792063616e6e6f74206260008201527f65207a65726f2061646472657373000000000000000000000000000000000000602082015250565b6000611115602e83610faa565b9150611120826110b9565b604082019050919050565b6000602082019050818103600083015261114481611108565b9050919050565b7f53656564466163746f72793a204861736e27742070726f766964656420626f7460008201527f682076657374696e67206475726174696f6e20616e6420636c69666600000000602082015250565b60006111a7603c83610faa565b91506111b28261114b565b604082019050919050565b600060208201905081810360008301526111d68161119a565b9050919050565b600081519050919050565b600082825260208201905092915050565b60005b838110156112175780820151818401526020810190506111fc565b83811115611226576000848401525b50505050565b6000611237826111dd565b61124181856111e8565b93506112518185602086016111f9565b61125a816109e0565b840191505092915050565b6000602082019050818103600083015261127f818461122c565b905092915050565b7f4e487b7100000000000000000000000000000000000000000000000000000000600052603260045260246000fd5b600081519050919050565b600082825260208201905092915050565b6000819050602082019050919050565b6112eb8161087a565b82525050565b60006112fd83836112e2565b60208301905092915050565b6000602082019050919050565b6000611321826112b6565b61132b81856112c1565b9350611336836112d2565b8060005b8381101561136757815161134e88826112f1565b975061135983611309565b92505060018101905061133a565b5085935050505092915050565b600081519050919050565b600082825260208201905092915050565b6000819050602082019050919050565b6113a981610b60565b82525050565b60006113bb83836113a0565b60208301905092915050565b6000602082019050919050565b60006113df82611374565b6113e9818561137f565b93506113f483611390565b8060005b8381101561142557815161140c88826113af565b9750611417836113c7565b9250506001810190506113f8565b5085935050505092915050565b61143b81610b60565b82525050565b61144a81610c59565b82525050565b61145981610d2c565b82525050565b600061016082019050611475600083018e61088c565b611482602083018d61088c565b8181036040830152611494818c611316565b905081810360608301526114a8818b6113d4565b90506114b7608083018a611432565b6114c460a0830189611432565b6114d160c0830188611432565b6114de60e0830187611441565b6114ec610100830186611441565b6114fa610120830185611450565b611508610140830184611432565b9c9b505050505050505050505050565b7f4f776e61626c653a206e6577206f776e657220697320746865207a65726f206160008201527f6464726573730000000000000000000000000000000000000000000000000000602082015250565b6000611574602683610faa565b915061157f82611518565b604082019050919050565b600060208201905081810360008301526115a381611567565b905091905056fea26469706673582212200afbaff4d51badfd35347dc974b0e4b37046577ec65deab5f818c5d91013ba8064736f6c63430008090033",
  "linkReferences": {},
  "deployedLinkReferences": {}
}