{
  "_format": "hh-sol-artifact-1",
  "contractName": "LBPManager",
  "sourceName": "contracts/lbp/LBPManager.sol",
  "abi": [
    {
      "anonymous": false,
      "inputs": [
        {
          "indexed": true,
          "internalType": "address",
          "name": "beneficiary",
          "type": "address"
        },
        {
          "indexed": false,
          "internalType": "address",
          "name": "tokenAddress",
          "type": "address"
        },
        {
          "indexed": false,
          "internalType": "uint256",
          "name": "amount",
          "type": "uint256"
        }
      ],
      "name": "FeeTransferred",
      "type": "event"
    },
    {
      "anonymous": false,
      "inputs": [
        {
          "indexed": true,
          "internalType": "address",
          "name": "oldAdmin",
          "type": "address"
        },
        {
          "indexed": true,
          "internalType": "address",
          "name": "newAdmin",
          "type": "address"
        }
      ],
      "name": "LBPManagerAdminChanged",
      "type": "event"
    },
    {
      "anonymous": false,
      "inputs": [
        {
          "indexed": true,
          "internalType": "bytes",
          "name": "metadata",
          "type": "bytes"
        }
      ],
      "name": "MetadataUpdated",
      "type": "event"
    },
    {
      "anonymous": false,
      "inputs": [
        {
          "indexed": true,
          "internalType": "address",
          "name": "lbpAddress",
          "type": "address"
        },
        {
          "indexed": false,
          "internalType": "uint256",
          "name": "amount",
          "type": "uint256"
        }
      ],
      "name": "PoolTokensWithdrawn",
      "type": "event"
    },
    {
      "inputs": [],
      "name": "admin",
      "outputs": [
        {
          "internalType": "address",
          "name": "",
          "type": "address"
        }
      ],
      "stateMutability": "view",
      "type": "function"
    },
    {
      "inputs": [
        {
          "internalType": "uint256",
          "name": "",
          "type": "uint256"
        }
      ],
      "name": "amounts",
      "outputs": [
        {
          "internalType": "uint256",
          "name": "",
          "type": "uint256"
        }
      ],
      "stateMutability": "view",
      "type": "function"
    },
    {
      "inputs": [],
      "name": "beneficiary",
      "outputs": [
        {
          "internalType": "address",
          "name": "",
          "type": "address"
        }
      ],
      "stateMutability": "view",
      "type": "function"
    },
    {
      "inputs": [
        {
          "internalType": "uint256",
          "name": "",
          "type": "uint256"
        }
      ],
      "name": "endWeights",
      "outputs": [
        {
          "internalType": "uint256",
          "name": "",
          "type": "uint256"
        }
      ],
      "stateMutability": "view",
      "type": "function"
    },
    {
      "inputs": [],
      "name": "feePercentage",
      "outputs": [
        {
          "internalType": "uint256",
          "name": "",
          "type": "uint256"
        }
      ],
      "stateMutability": "view",
      "type": "function"
    },
    {
      "inputs": [],
      "name": "getSwapEnabled",
      "outputs": [
        {
          "internalType": "bool",
          "name": "",
          "type": "bool"
        }
      ],
      "stateMutability": "view",
      "type": "function"
    },
    {
      "inputs": [
        {
          "internalType": "address",
          "name": "_sender",
          "type": "address"
        }
      ],
      "name": "initializeLBP",
      "outputs": [],
      "stateMutability": "nonpayable",
      "type": "function"
    },
    {
      "inputs": [
        {
          "internalType": "address",
          "name": "_lbpFactory",
          "type": "address"
        },
        {
          "internalType": "address",
          "name": "_beneficiary",
          "type": "address"
        },
        {
          "internalType": "string",
          "name": "_name",
          "type": "string"
        },
        {
          "internalType": "string",
          "name": "_symbol",
          "type": "string"
        },
        {
          "internalType": "contract IERC20[]",
          "name": "_tokenList",
          "type": "address[]"
        },
        {
          "internalType": "uint256[]",
          "name": "_amounts",
          "type": "uint256[]"
        },
        {
          "internalType": "uint256[]",
          "name": "_startWeights",
          "type": "uint256[]"
        },
        {
          "internalType": "uint256[]",
          "name": "_startTimeEndTime",
          "type": "uint256[]"
        },
        {
          "internalType": "uint256[]",
          "name": "_endWeights",
          "type": "uint256[]"
        },
        {
          "internalType": "uint256[]",
          "name": "_fees",
          "type": "uint256[]"
        },
        {
          "internalType": "bytes",
          "name": "_metadata",
          "type": "bytes"
        }
      ],
      "name": "initializeLBPManager",
      "outputs": [],
      "stateMutability": "nonpayable",
      "type": "function"
    },
    {
      "inputs": [],
      "name": "initialized",
      "outputs": [
        {
          "internalType": "bool",
          "name": "",
          "type": "bool"
        }
      ],
      "stateMutability": "view",
      "type": "function"
    },
    {
      "inputs": [],
      "name": "lbp",
      "outputs": [
        {
          "internalType": "contract ILBP",
          "name": "",
          "type": "address"
        }
      ],
      "stateMutability": "view",
      "type": "function"
    },
    {
      "inputs": [],
      "name": "lbpFactory",
      "outputs": [
        {
          "internalType": "address",
          "name": "",
          "type": "address"
        }
      ],
      "stateMutability": "view",
      "type": "function"
    },
    {
      "inputs": [],
      "name": "metadata",
      "outputs": [
        {
          "internalType": "bytes",
          "name": "",
          "type": "bytes"
        }
      ],
      "stateMutability": "view",
      "type": "function"
    },
    {
      "inputs": [],
      "name": "name",
      "outputs": [
        {
          "internalType": "string",
          "name": "",
          "type": "string"
        }
      ],
      "stateMutability": "view",
      "type": "function"
    },
    {
      "inputs": [],
      "name": "poolFunded",
      "outputs": [
        {
          "internalType": "bool",
          "name": "",
          "type": "bool"
        }
      ],
      "stateMutability": "view",
      "type": "function"
    },
    {
      "inputs": [],
      "name": "projectTokenIndex",
      "outputs": [
        {
          "internalType": "uint8",
          "name": "",
          "type": "uint8"
        }
      ],
      "stateMutability": "view",
      "type": "function"
    },
    {
      "inputs": [],
      "name": "projectTokensRequired",
      "outputs": [
        {
          "internalType": "uint256",
          "name": "projectTokenAmounts",
          "type": "uint256"
        }
      ],
      "stateMutability": "view",
      "type": "function"
    },
    {
      "inputs": [
        {
          "internalType": "address",
          "name": "_receiver",
          "type": "address"
        }
      ],
      "name": "removeLiquidity",
      "outputs": [],
      "stateMutability": "nonpayable",
      "type": "function"
    },
    {
      "inputs": [
        {
          "internalType": "bool",
          "name": "_swapEnabled",
          "type": "bool"
        }
      ],
      "name": "setSwapEnabled",
      "outputs": [],
      "stateMutability": "nonpayable",
      "type": "function"
    },
    {
      "inputs": [
        {
          "internalType": "uint256",
          "name": "",
          "type": "uint256"
        }
      ],
      "name": "startTimeEndTime",
      "outputs": [
        {
          "internalType": "uint256",
          "name": "",
          "type": "uint256"
        }
      ],
      "stateMutability": "view",
      "type": "function"
    },
    {
      "inputs": [
        {
          "internalType": "uint256",
          "name": "",
          "type": "uint256"
        }
      ],
      "name": "startWeights",
      "outputs": [
        {
          "internalType": "uint256",
          "name": "",
          "type": "uint256"
        }
      ],
      "stateMutability": "view",
      "type": "function"
    },
    {
      "inputs": [],
      "name": "swapFeePercentage",
      "outputs": [
        {
          "internalType": "uint256",
          "name": "",
          "type": "uint256"
        }
      ],
      "stateMutability": "view",
      "type": "function"
    },
    {
      "inputs": [],
      "name": "symbol",
      "outputs": [
        {
          "internalType": "string",
          "name": "",
          "type": "string"
        }
      ],
      "stateMutability": "view",
      "type": "function"
    },
    {
      "inputs": [
        {
          "internalType": "uint256",
          "name": "",
          "type": "uint256"
        }
      ],
      "name": "tokenList",
      "outputs": [
        {
          "internalType": "contract IERC20",
          "name": "",
          "type": "address"
        }
      ],
      "stateMutability": "view",
      "type": "function"
    },
    {
      "inputs": [
        {
          "internalType": "address",
          "name": "_newAdmin",
          "type": "address"
        }
      ],
      "name": "transferAdminRights",
      "outputs": [],
      "stateMutability": "nonpayable",
      "type": "function"
    },
    {
      "inputs": [
        {
          "internalType": "bytes",
          "name": "_metadata",
          "type": "bytes"
        }
      ],
      "name": "updateMetadata",
      "outputs": [],
      "stateMutability": "nonpayable",
      "type": "function"
    },
    {
      "inputs": [
        {
          "internalType": "address",
          "name": "_receiver",
          "type": "address"
        }
      ],
      "name": "withdrawPoolTokens",
      "outputs": [],
      "stateMutability": "nonpayable",
      "type": "function"
    }
  ],
  "bytecode": "0x608060405234801561001057600080fd5b50612938806100206000396000f3fe608060405234801561001057600080fd5b506004361061018e5760003560e01c8063a001ecdd116100de578063c9d8616f11610097578063d798f86e11610071578063d798f86e1461034b578063e01af92c1461035e578063f851a44014610371578063fc582d411461038457600080fd5b8063c9d8616f14610306578063cb209b6c14610319578063cd2055e51461033857600080fd5b8063a001ecdd146102a2578063a4ac0d49146102ab578063a88971fa146102b4578063b5106add146102c8578063bb7bfb0c146102db578063c18b5151146102ee57600080fd5b80633facbb851161014b5780638638fe31116101255780638638fe31146102615780638bfd52891461027457806395d89b41146102875780639ead72221461028f57600080fd5b80633facbb851461023157806345f0a44f1461024657806347bc4d921461025957600080fd5b806306fdde0314610193578063092f7de7146101b1578063158ef93e146101dc5780633281f3ec1461020057806338af3eed14610216578063392f37e914610229575b600080fd5b61019b610397565b6040516101a89190612084565b60405180910390f35b600b546101c4906001600160a01b031681565b6040516001600160a01b0390911681526020016101a8565b600d546101f090600160b01b900460ff1681565b60405190151581526020016101a8565b610208610425565b6040519081526020016101a8565b6003546101c4906001600160a01b031681565b61019b610464565b61024461023f3660046120c6565b610471565b005b6102086102543660046120e3565b6107ee565b6101f061080f565b61024461026f3660046122a6565b6108f1565b6102446102823660046120c6565b610fea565b61019b6117d1565b6101c461029d3660046120e3565b6117de565b61020860045481565b61020860055481565b600d546101f090600160a81b900460ff1681565b6102446102d63660046120c6565b611808565b6102086102e93660046120e3565b6118e4565b600d546101c49061010090046001600160a01b031681565b6102086103143660046120e3565b6118f4565b600d546103269060ff1681565b60405160ff90911681526020016101a8565b6102086103463660046120e3565b611904565b6102446103593660046120c6565b611914565b61024461036c36600461244a565b611da8565b6002546101c4906001600160a01b031681565b610244610392366004612467565b611e34565b600180546103a4906124a4565b80601f01602080910402602001604051908101604052809291908181526020018280546103d0906124a4565b801561041d5780601f106103f25761010080835404028352916020019161041d565b820191906000526020600020905b81548152906001019060200180831161040057829003601f168201915b505050505081565b600061042f611eb3565b600d5460078054909160ff1690811061044a5761044a6124df565b906000526020600020015461045f919061250b565b905090565b600c80546103a4906124a4565b6002546001600160a01b031633146104a45760405162461bcd60e51b815260040161049b90612523565b60405180910390fd5b6001600160a01b0381166104fa5760405162461bcd60e51b815260206004820152601c60248201527f4c42504d616e616765723a207265636569766572206973207a65726f00000000604482015260640161049b565b6000600a600181548110610510576105106124df565b906000526020600020015490508042101561056d5760405162461bcd60e51b815260206004820152601f60248201527f4c42504d616e616765723a20656e6474696d65206e6f74207265616368656400604482015260640161049b565b600b546040516370a0823160e01b81523060048201526000916001600160a01b0316906370a082319060240160206040518083038186803b1580156105b157600080fd5b505afa1580156105c5573d6000803e3d6000fd5b505050506040513d601f19601f820116820180604052508101906105e9919061255a565b116106365760405162461bcd60e51b815260206004820181905260248201527f4c42504d616e616765723a206e6f2042505420746f6b656e2062616c616e6365604482015260640161049b565b600b546040516370a0823160e01b81523060048201526001600160a01b03909116907fd0b72dd3c0f971f9cf266fee8e4c7660231316a67c88a587fa8dfa398c9e13749082906370a082319060240160206040518083038186803b15801561069d57600080fd5b505afa1580156106b1573d6000803e3d6000fd5b505050506040513d601f19601f820116820180604052508101906106d5919061255a565b60405190815260200160405180910390a2600b546040516370a0823160e01b81523060048201526001600160a01b039091169063a9059cbb90849083906370a082319060240160206040518083038186803b15801561073357600080fd5b505afa158015610747573d6000803e3d6000fd5b505050506040513d601f19601f8201168201806040525081019061076b919061255a565b6040516001600160e01b031960e085901b1681526001600160a01b0390921660048301526024820152604401602060405180830381600087803b1580156107b157600080fd5b505af11580156107c5573d6000803e3d6000fd5b505050506040513d601f19601f820116820180604052508101906107e99190612573565b505050565b600781815481106107fe57600080fd5b600091825260209091200154905081565b600d54600090600160a81b900460ff1661086b5760405162461bcd60e51b815260206004820181905260248201527f4c42504d616e616765723a204c4250206e6f7420696e697469616c697a65642e604482015260640161049b565b600b60009054906101000a90046001600160a01b03166001600160a01b03166347bc4d926040518163ffffffff1660e01b815260040160206040518083038186803b1580156108b957600080fd5b505afa1580156108cd573d6000803e3d6000fd5b505050506040513d601f19601f8201168201806040525081019061045f9190612573565b600d54600160b01b900460ff161561094b5760405162461bcd60e51b815260206004820152601f60248201527f4c42504d616e616765723a20616c726561647920696e697469616c697a656400604482015260640161049b565b6001600160a01b038a166109a15760405162461bcd60e51b815260206004820181905260248201527f4c42504d616e616765723a205f62656e6566696369617279206973207a65726f604482015260640161049b565b64e8d4a51000826000815181106109ba576109ba6124df565b60200260200101511015610a1c5760405162461bcd60e51b8152602060048201526024808201527f4c42504d616e616765723a207377617046656550657263656e7461676520746f604482015263206c6f7760e01b606482015260840161049b565b67016345785d8a000082600081518110610a3857610a386124df565b60200260200101511115610a9c5760405162461bcd60e51b815260206004820152602560248201527f4c42504d616e616765723a207377617046656550657263656e7461676520746f604482015264040d0d2ced60db1b606482015260840161049b565b86516002148015610aae575085516002145b8015610abb575084516002145b8015610ac8575083516002145b8015610ad5575082516002145b8015610ae2575081516002145b610b2e5760405162461bcd60e51b815260206004820152601d60248201527f4c42504d616e616765723a206172726179732077726f6e672073697a65000000604482015260640161049b565b86600181518110610b4157610b416124df565b60200260200101516001600160a01b031687600081518110610b6557610b656124df565b60200260200101516001600160a01b03161415610bc45760405162461bcd60e51b815260206004820181905260248201527f4c42504d616e616765723a20746f6b656e732063616e27742062652073616d65604482015260640161049b565b83600181518110610bd757610bd76124df565b602002602001015184600081518110610bf257610bf26124df565b602002602001015110610c475760405162461bcd60e51b815260206004820152601f60248201527f4c42504d616e616765723a20737461727454696d65203e20656e6454696d6500604482015260640161049b565b600d805460ff60b01b1916600160b01b179055600280546001600160a01b0319163317905581518290600090610c7f57610c7f6124df565b602002602001015160058190555081600181518110610ca057610ca06124df565b602090810291909101810151600455600380546001600160a01b0319166001600160a01b038d161790558151610cdc91600c9190840190611f00565b508351610cf090600a906020870190611f84565b508851610d049060019060208c0190611f00565b508751610d189060009060208b0190611f00565b50600d8054610100600160a81b0319166101006001600160a01b038e1602179055865187906001908110610d4e57610d4e6124df565b60200260200101516001600160a01b031687600081518110610d7257610d726124df565b60200260200101516001600160a01b03161115610f8257600d805460ff19166001908117909155875160069189918110610dae57610dae6124df565b6020908102919091018101518254600181018455600093845291832090910180546001600160a01b0319166001600160a01b0390921691909117905587516006918991610dfd57610dfd6124df565b60209081029190910181015182546001808201855560009485529290932090920180546001600160a01b0319166001600160a01b0390931692909217909155865160079188918110610e5157610e516124df565b602090810291909101810151825460018101845560009384529183209091015586516007918891610e8457610e846124df565b60209081029190910181015182546001818101855560009485529290932090920191909155855160089187918110610ebe57610ebe6124df565b602090810291909101810151825460018101845560009384529183209091015585516008918791610ef157610ef16124df565b60209081029190910181015182546001818101855560009485529290932090920191909155835160099185918110610f2b57610f2b6124df565b602090810291909101810151825460018101845560009384529183209091015583516009918591610f5e57610f5e6124df565b60209081029190910181015182546001810184556000938452919092200155610fdd565b600d805460ff191690558651610f9f9060069060208a0190611fbe565b508551610fb3906007906020890190611f84565b508451610fc7906008906020880190611f84565b508251610fdb906009906020860190611f84565b505b5050505050505050505050565b6002546001600160a01b031633146110145760405162461bcd60e51b815260040161049b90612523565b600d54600160b01b900460ff1615156001146110815760405162461bcd60e51b815260206004820152602660248201527f4c42504d616e616765723a204c42504d616e61676572206e6f7420696e697469604482015265185b1a5e995960d21b606482015260840161049b565b600d54600160a81b900460ff16156110db5760405162461bcd60e51b815260206004820152601f60248201527f4c42504d616e616765723a20706f6f6c20616c72656164792066756e64656400604482015260640161049b565b600d8054600160a81b60ff60a81b199091161790819055600554604051632367971960e01b81526101009092046001600160a01b0316916323679719916111349160019160009160069160089130908590600401612670565b602060405180830381600087803b15801561114e57600080fd5b505af1158015611162573d6000803e3d6000fd5b505050506040513d601f19601f820116820180604052508101906111869190612721565b600b80546001600160a01b0319166001600160a01b03929092169182179055600a8054633e56920591906000906111bf576111bf6124df565b9060005260206000200154600a6001815481106111de576111de6124df565b906000526020600020015460096040518463ffffffff1660e01b81526004016112099392919061273e565b600060405180830381600087803b15801561122357600080fd5b505af1158015611237573d6000803e3d6000fd5b505050506000600b60009054906101000a90046001600160a01b03166001600160a01b0316638d928af86040518163ffffffff1660e01b815260040160206040518083038186803b15801561128b57600080fd5b505afa15801561129f573d6000803e3d6000fd5b505050506040513d601f19601f820116820180604052508101906112c39190612721565b905060045460001461140b5760006112d9611eb3565b600d54600680549293509160ff9091169081106112f8576112f86124df565b6000918252602090912001546003546040516323b872dd60e01b81526001600160a01b0386811660048301529182166024820152604481018490529116906323b872dd90606401602060405180830381600087803b15801561135957600080fd5b505af115801561136d573d6000803e3d6000fd5b505050506040513d601f19601f820116820180604052508101906113919190612573565b50600354600d54600680546001600160a01b03909316927f1d6298f49fc15449b78df91fcca6812136edc2972366cb70aa0d9145a308cd319260ff169081106113dc576113dc6124df565b60009182526020918290200154604080516001600160a01b0390921682529181018590520160405180910390a2505b60005b60065460ff821610156115f35760068160ff1681548110611431576114316124df565b9060005260206000200160009054906101000a90046001600160a01b03166001600160a01b03166323b872dd843060078560ff1681548110611475576114756124df565b6000918252602090912001546040516001600160e01b031960e086901b1681526001600160a01b0393841660048201529290911660248301526044820152606401602060405180830381600087803b1580156114d057600080fd5b505af11580156114e4573d6000803e3d6000fd5b505050506040513d601f19601f820116820180604052508101906115089190612573565b5060068160ff168154811061151f5761151f6124df565b600091825260209091200154600780546001600160a01b039092169163095ea7b391859160ff8616908110611556576115566124df565b6000918252602090912001546040516001600160e01b031960e085901b1681526001600160a01b0390921660048301526024820152604401602060405180830381600087803b1580156115a857600080fd5b505af11580156115bc573d6000803e3d6000fd5b505050506040513d601f19601f820116820180604052508101906115e09190612573565b50806115eb81612766565b91505061140e565b50604080516006805460a0602082028401810190945260808301818152600094849391929084018282801561165157602002820191906000526020600020905b81546001600160a01b03168152600190910190602001808311611633575b5050505050815260200160078054806020026020016040519081016040528092919081815260200182805480156116a757602002820191906000526020600020905b815481526020019060010190808311611693575b50505050508152602001600060076040516020016116c6929190612786565b6040516020818303038152906040528152602001600015158152509050816001600160a01b031663b95cac28600b60009054906101000a90046001600160a01b03166001600160a01b03166338fff2d06040518163ffffffff1660e01b815260040160206040518083038186803b15801561174057600080fd5b505afa158015611754573d6000803e3d6000fd5b505050506040513d601f19601f82011682018060405250810190611778919061255a565b3030856040518563ffffffff1660e01b815260040161179a9493929190612869565b600060405180830381600087803b1580156117b457600080fd5b505af11580156117c8573d6000803e3d6000fd5b50505050505050565b600080546103a4906124a4565b600681815481106117ee57600080fd5b6000918252602090912001546001600160a01b0316905081565b6002546001600160a01b031633146118325760405162461bcd60e51b815260040161049b90612523565b6001600160a01b0381166118885760405162461bcd60e51b815260206004820152601d60248201527f4c42504d616e616765723a206e65772061646d696e206973207a65726f000000604482015260640161049b565b6002546040516001600160a01b038084169216907f39324b4c6f0dfe086be64dee1dd0fff15f9055828415513052c73d8e178c75f590600090a3600280546001600160a01b0319166001600160a01b0392909216919091179055565b600881815481106107fe57600080fd5b600981815481106107fe57600080fd5b600a81815481106107fe57600080fd5b6002546001600160a01b0316331461193e5760405162461bcd60e51b815260040161049b90612523565b6001600160a01b0381166119945760405162461bcd60e51b815260206004820152601c60248201527f4c42504d616e616765723a207265636569766572206973207a65726f00000000604482015260640161049b565b600b546040516370a0823160e01b81523060048201526000916001600160a01b0316906370a082319060240160206040518083038186803b1580156119d857600080fd5b505afa1580156119ec573d6000803e3d6000fd5b505050506040513d601f19601f82011682018060405250810190611a10919061255a565b11611a5d5760405162461bcd60e51b815260206004820181905260248201527f4c42504d616e616765723a206e6f2042505420746f6b656e2062616c616e6365604482015260640161049b565b6000600a600181548110611a7357611a736124df565b9060005260206000200154905080421015611ad05760405162461bcd60e51b815260206004820152601f60248201527f4c42504d616e616765723a20656e6474696d65206e6f74207265616368656400604482015260640161049b565b600b54604080516311b2515f60e31b815290516000926001600160a01b031691638d928af8916004808301926020929190829003018186803b158015611b1557600080fd5b505afa158015611b29573d6000803e3d6000fd5b505050506040513d601f19601f82011682018060405250810190611b4d9190612721565b9050600060405180608001604052806006805480602002602001604051908101604052809291908181526020018280548015611bb257602002820191906000526020600020905b81546001600160a01b03168152600190910190602001808311611b94575b5050505050815260200160068054905067ffffffffffffffff811115611bda57611bda6120fc565b604051908082528060200260200182016040528015611c03578160200160208202803683370190505b508152600b546040516370a0823160e01b81523060048201526020909201916001916001600160a01b0316906370a082319060240160206040518083038186803b158015611c5057600080fd5b505afa158015611c64573d6000803e3d6000fd5b505050506040513d601f19601f82011682018060405250810190611c88919061255a565b6040805160ff90931660208401528201526060016040516020818303038152906040528152602001600015158152509050816001600160a01b0316638bdb3913600b60009054906101000a90046001600160a01b03166001600160a01b03166338fff2d06040518163ffffffff1660e01b815260040160206040518083038186803b158015611d1657600080fd5b505afa158015611d2a573d6000803e3d6000fd5b505050506040513d601f19601f82011682018060405250810190611d4e919061255a565b3087856040518563ffffffff1660e01b8152600401611d709493929190612869565b600060405180830381600087803b158015611d8a57600080fd5b505af1158015611d9e573d6000803e3d6000fd5b5050505050505050565b6002546001600160a01b03163314611dd25760405162461bcd60e51b815260040161049b90612523565b600b54604051633806be4b60e21b815282151560048201526001600160a01b039091169063e01af92c90602401600060405180830381600087803b158015611e1957600080fd5b505af1158015611e2d573d6000803e3d6000fd5b5050505050565b6002546001600160a01b03163314611e5e5760405162461bcd60e51b815260040161049b90612523565b8051611e7190600c906020840190611f00565b5080604051611e8091906128a5565b604051908190038120907f09f579b21815d3f81581d32e97736ccba1cc89d1918e48da28e6e206acd9686490600090a250565b600454600d5460078054600093670de0b6b3a76400009390929160ff909116908110611ee157611ee16124df565b9060005260206000200154611ef691906128c1565b61045f91906128e0565b828054611f0c906124a4565b90600052602060002090601f016020900481019282611f2e5760008555611f74565b82601f10611f4757805160ff1916838001178555611f74565b82800160010185558215611f74579182015b82811115611f74578251825591602001919060010190611f59565b50611f80929150612013565b5090565b828054828255906000526020600020908101928215611f745791602002820182811115611f74578251825591602001919060010190611f59565b828054828255906000526020600020908101928215611f74579160200282015b82811115611f7457825182546001600160a01b0319166001600160a01b03909116178255602090920191600190910190611fde565b5b80821115611f805760008155600101612014565b60005b8381101561204357818101518382015260200161202b565b83811115612052576000848401525b50505050565b60008151808452612070816020860160208601612028565b601f01601f19169290920160200192915050565b6020815260006120976020830184612058565b9392505050565b6001600160a01b03811681146120b357600080fd5b50565b80356120c18161209e565b919050565b6000602082840312156120d857600080fd5b81356120978161209e565b6000602082840312156120f557600080fd5b5035919050565b634e487b7160e01b600052604160045260246000fd5b604051601f8201601f1916810167ffffffffffffffff8111828210171561213b5761213b6120fc565b604052919050565b600082601f83011261215457600080fd5b813567ffffffffffffffff81111561216e5761216e6120fc565b612181601f8201601f1916602001612112565b81815284602083860101111561219657600080fd5b816020850160208301376000918101602001919091529392505050565b600067ffffffffffffffff8211156121cd576121cd6120fc565b5060051b60200190565b600082601f8301126121e857600080fd5b813560206121fd6121f8836121b3565b612112565b82815260059290921b8401810191818101908684111561221c57600080fd5b8286015b848110156122405780356122338161209e565b8352918301918301612220565b509695505050505050565b600082601f83011261225c57600080fd5b8135602061226c6121f8836121b3565b82815260059290921b8401810191818101908684111561228b57600080fd5b8286015b84811015612240578035835291830191830161228f565b60008060008060008060008060008060006101608c8e0312156122c857600080fd5b6122d18c6120b6565b9a506122df60208d016120b6565b995067ffffffffffffffff8060408e013511156122fb57600080fd5b61230b8e60408f01358f01612143565b99508060608e0135111561231e57600080fd5b61232e8e60608f01358f01612143565b98508060808e0135111561234157600080fd5b6123518e60808f01358f016121d7565b97508060a08e0135111561236457600080fd5b6123748e60a08f01358f0161224b565b96508060c08e0135111561238757600080fd5b6123978e60c08f01358f0161224b565b95508060e08e013511156123aa57600080fd5b6123ba8e60e08f01358f0161224b565b9450806101008e013511156123ce57600080fd5b6123df8e6101008f01358f0161224b565b9350806101208e013511156123f357600080fd5b6124048e6101208f01358f0161224b565b9250806101408e0135111561241857600080fd5b5061242a8d6101408e01358e01612143565b90509295989b509295989b9093969950565b80151581146120b357600080fd5b60006020828403121561245c57600080fd5b81356120978161243c565b60006020828403121561247957600080fd5b813567ffffffffffffffff81111561249057600080fd5b61249c84828501612143565b949350505050565b600181811c908216806124b857607f821691505b602082108114156124d957634e487b7160e01b600052602260045260246000fd5b50919050565b634e487b7160e01b600052603260045260246000fd5b634e487b7160e01b600052601160045260246000fd5b6000821982111561251e5761251e6124f5565b500190565b6020808252601f908201527f4c42504d616e616765723a2063616c6c6572206973206e6f742061646d696e00604082015260600190565b60006020828403121561256c57600080fd5b5051919050565b60006020828403121561258557600080fd5b81516120978161243c565b8054600090600181811c90808316806125aa57607f831692505b60208084108214156125cc57634e487b7160e01b600052602260045260246000fd5b838852602088018280156125e757600181146125f857612623565b60ff19871682528282019750612623565b60008981526020902060005b8781101561261d57815484820152908601908401612604565b83019850505b5050505050505092915050565b6000815480845260208085019450836000528060002060005b8381101561266557815487529582019560019182019101612649565b509495945050505050565b60e08152600061268360e083018a612590565b8281036020840152612695818a612590565b8381036040850152885480825260008a815260208082209450909201915b818110156126da5783546001600160a01b03168352600193840193602090930192016126b3565b505083810360608501526126ee8189612630565b9250505084608083015261270d60a08301856001600160a01b03169052565b82151560c083015298975050505050505050565b60006020828403121561273357600080fd5b81516120978161209e565b83815282602082015260606040820152600061275d6060830184612630565b95945050505050565b600060ff821660ff81141561277d5761277d6124f5565b60010192915050565b60ff8316815260406020820152600061249c6040830184612630565b600081518084526020808501945080840160005b83811015612665578151875295820195908201906001016127b6565b8051608080845281519084018190526000916020919082019060a0860190845b818110156128175783516001600160a01b0316835292840192918401916001016127f2565b50508285015191508581038387015261283081836127a2565b925050506040830151848203604086015261284b8282612058565b9150506060830151612861606086018215159052565b509392505050565b8481526001600160a01b0384811660208301528316604082015260806060820181905260009061289b908301846127d2565b9695505050505050565b600082516128b7818460208701612028565b9190910192915050565b60008160001904831182151516156128db576128db6124f5565b500290565b6000826128fd57634e487b7160e01b600052601260045260246000fd5b50049056fea264697066735822122048e46097266444bbbe01adc320b69dee751c9d7419e94283d0f6ca2b8c4bc1d464736f6c63430008090033",
  "linkReferences": {},
  "deployedLinkReferences": {}
}