{
  "_format": "hh-sol-artifact-1",
  "contractName": "SeedFactory",
  "sourceName": "contracts/seed/SeedFactory.sol",
  "abi": [
    {
      "anonymous": false,
      "inputs": [
        {
          "indexed": true,
          "internalType": "address",
          "name": "previousOwner",
          "type": "address"
        },
        {
          "indexed": true,
          "internalType": "address",
          "name": "newOwner",
          "type": "address"
        }
      ],
      "name": "OwnershipTransferred",
      "type": "event"
    },
    {
      "anonymous": false,
      "inputs": [
        {
          "indexed": true,
          "internalType": "address",
          "name": "newSeed",
          "type": "address"
        },
        {
          "indexed": true,
          "internalType": "address",
          "name": "admin",
          "type": "address"
        }
      ],
      "name": "SeedCreated",
      "type": "event"
    },
    {
      "inputs": [
        {
          "internalType": "address",
          "name": "_beneficiary",
          "type": "address"
        },
        {
          "internalType": "address",
          "name": "_admin",
          "type": "address"
        },
        {
          "internalType": "address[]",
          "name": "_tokens",
          "type": "address[]"
        },
        {
          "internalType": "uint256[]",
          "name": "_softHardThresholds",
          "type": "uint256[]"
        },
        {
          "internalType": "uint256",
          "name": "_price",
          "type": "uint256"
        },
        {
          "internalType": "uint256",
          "name": "_startTime",
          "type": "uint256"
        },
        {
          "internalType": "uint256",
          "name": "_endTime",
          "type": "uint256"
        },
        {
          "internalType": "uint32[]",
          "name": "_vestingDurationAndCliff",
          "type": "uint32[]"
        },
        {
          "internalType": "bool",
          "name": "_permissionedSeed",
          "type": "bool"
        },
        {
          "internalType": "uint256",
          "name": "_fee",
          "type": "uint256"
        },
        {
          "internalType": "bytes",
          "name": "_metadata",
          "type": "bytes"
        }
      ],
      "name": "deploySeed",
      "outputs": [
        {
          "internalType": "address",
          "name": "",
          "type": "address"
        }
      ],
      "stateMutability": "nonpayable",
      "type": "function"
    },
    {
      "inputs": [],
      "name": "masterCopy",
      "outputs": [
        {
          "internalType": "contract Seed",
          "name": "",
          "type": "address"
        }
      ],
      "stateMutability": "view",
      "type": "function"
    },
    {
      "inputs": [],
      "name": "owner",
      "outputs": [
        {
          "internalType": "address",
          "name": "",
          "type": "address"
        }
      ],
      "stateMutability": "view",
      "type": "function"
    },
    {
      "inputs": [],
      "name": "renounceOwnership",
      "outputs": [],
      "stateMutability": "nonpayable",
      "type": "function"
    },
    {
      "inputs": [
        {
          "internalType": "contract Seed",
          "name": "_masterCopy",
          "type": "address"
        }
      ],
      "name": "setMasterCopy",
      "outputs": [],
      "stateMutability": "nonpayable",
      "type": "function"
    },
    {
      "inputs": [
        {
          "internalType": "address",
          "name": "newOwner",
          "type": "address"
        }
      ],
      "name": "transferOwnership",
      "outputs": [],
      "stateMutability": "nonpayable",
      "type": "function"
    }
  ],
  "bytecode": "0x608060405234801561001057600080fd5b5061001a3361001f565b61006f565b600080546001600160a01b038381166001600160a01b0319831681178455604051919092169283917f8be0079c531659141344cd1fd0a4f28419497f9722a3daafe3b4186f6b6457e09190a35050565b610af18061007e6000396000f3fe608060405234801561001057600080fd5b50600436106100625760003560e01c8063715018a6146100675780638da5cb5b14610071578063a619486e1461009a578063cf497e6c146100ad578063da235e6e146100c0578063f2fde38b146100d3575b600080fd5b61006f6100e6565b005b6000546001600160a01b03165b6040516001600160a01b03909116815260200160405180910390f35b60015461007e906001600160a01b031681565b61006f6100bb3660046105b4565b610125565b61007e6100ce366004610810565b6101e2565b61006f6100e13660046105b4565b610462565b6000546001600160a01b031633146101195760405162461bcd60e51b81526004016101109061091f565b60405180910390fd5b61012360006104fd565b565b6000546001600160a01b0316331461014f5760405162461bcd60e51b81526004016101109061091f565b6001600160a01b0381166101c05760405162461bcd60e51b815260206004820152603260248201527f53656564466163746f72793a206e6577206d6173746572636f70792063616e6e6044820152716f74206265207a65726f206164647265737360701b6064820152608401610110565b600180546001600160a01b0319166001600160a01b0392909216919091179055565b600080546001600160a01b0316331461020d5760405162461bcd60e51b81526004016101109061091f565b6001546001600160a01b031661027c5760405162461bcd60e51b815260206004820152602e60248201527f53656564466163746f72793a206d6173746572636f70792063616e6e6f74206260448201526d65207a65726f206164647265737360901b6064820152608401610110565b84516002146102f35760405162461bcd60e51b815260206004820152603c60248201527f53656564466163746f72793a204861736e27742070726f766964656420626f7460448201527f682076657374696e67206475726174696f6e20616e6420636c696666000000006064820152608401610110565b60015460009061030b906001600160a01b031661054d565b60405163fc582d4160e01b81529091506001600160a01b0382169063fc582d419061033a908690600401610954565b600060405180830381600087803b15801561035457600080fd5b505af1158015610368573d6000803e3d6000fd5b50505050806001600160a01b03166344f9abb88e8e8e8e8e8e8e8e600081518110610395576103956109a9565b60200260200101518f6001815181106103b0576103b06109a9565b60200260200101518f8f6040518c63ffffffff1660e01b81526004016103e09b9a999897969594939291906109fa565b600060405180830381600087803b1580156103fa57600080fd5b505af115801561040e573d6000803e3d6000fd5b505050508b6001600160a01b0316816001600160a01b03167f23fea745ec0ebbc17cc138cc8d1baca7bde3ce83b1fd6d5e1de583961586363960405160405180910390a39c9b505050505050505050505050565b6000546001600160a01b0316331461048c5760405162461bcd60e51b81526004016101109061091f565b6001600160a01b0381166104f15760405162461bcd60e51b815260206004820152602660248201527f4f776e61626c653a206e6577206f776e657220697320746865207a65726f206160448201526564647265737360d01b6064820152608401610110565b6104fa816104fd565b50565b600080546001600160a01b038381166001600160a01b0319831681178455604051919092169283917f8be0079c531659141344cd1fd0a4f28419497f9722a3daafe3b4186f6b6457e09190a35050565b6000808260601b9050604051733d602d80600a3d3981f3363d3d373d3d3d363d7360601b81528160148201526e5af43d82803e903d91602b57fd5bf360881b60288201526037816000f0949350505050565b6001600160a01b03811681146104fa57600080fd5b6000602082840312156105c657600080fd5b81356105d18161059f565b9392505050565b80356105e38161059f565b919050565b634e487b7160e01b600052604160045260246000fd5b604051601f8201601f1916810167ffffffffffffffff81118282101715610627576106276105e8565b604052919050565b600067ffffffffffffffff821115610649576106496105e8565b5060051b60200190565b600082601f83011261066457600080fd5b813560206106796106748361062f565b6105fe565b82815260059290921b8401810191818101908684111561069857600080fd5b8286015b848110156106bc5780356106af8161059f565b835291830191830161069c565b509695505050505050565b600082601f8301126106d857600080fd5b813560206106e86106748361062f565b82815260059290921b8401810191818101908684111561070757600080fd5b8286015b848110156106bc578035835291830191830161070b565b600082601f83011261073357600080fd5b813560206107436106748361062f565b82815260059290921b8401810191818101908684111561076257600080fd5b8286015b848110156106bc57803563ffffffff811681146107835760008081fd5b8352918301918301610766565b803580151581146105e357600080fd5b600082601f8301126107b157600080fd5b813567ffffffffffffffff8111156107cb576107cb6105e8565b6107de601f8201601f19166020016105fe565b8181528460208386010111156107f357600080fd5b816020850160208301376000918101602001919091529392505050565b60008060008060008060008060008060006101608c8e03121561083257600080fd5b61083b8c6105d8565b9a5061084960208d016105d8565b995067ffffffffffffffff8060408e0135111561086557600080fd5b6108758e60408f01358f01610653565b99508060608e0135111561088857600080fd5b6108988e60608f01358f016106c7565b985060808d0135975060a08d0135965060c08d013595508060e08e013511156108c057600080fd5b6108d08e60e08f01358f01610722565b94506108df6101008e01610790565b93506101208d01359250806101408e013511156108fb57600080fd5b5061090d8d6101408e01358e016107a0565b90509295989b509295989b9093969950565b6020808252818101527f4f776e61626c653a2063616c6c6572206973206e6f7420746865206f776e6572604082015260600190565b600060208083528351808285015260005b8181101561098157858101830151858201604001528201610965565b81811115610993576000604083870101525b50601f01601f1916929092016040019392505050565b634e487b7160e01b600052603260045260246000fd5b600081518084526020808501945080840160005b838110156109ef578151875295820195908201906001016109d3565b509495945050505050565b6000610160820160018060a01b03808f168452808e1660208501526101606040850152818d518084526101808601915060208f01935060005b81811015610a535784518416835260209485019490920191600101610a33565b50508481036060860152610a67818e6109bf565b93505050508860808301528760a08301528660c0830152610a9060e083018763ffffffff169052565b63ffffffff94909416610100820152911515610120830152610140909101529897505050505050505056fea264697066735822122064e22e63ea54ee1284ee458e487474bbc29b762989792b459189def0c788e08e64736f6c63430008090033",
  "linkReferences": {},
  "deployedLinkReferences": {}
}