{
  "address": "0xbAB666d5460d30e1c3ed760615C48d7f044aAFA7",
  "abi": [
    {
      "inputs": [
        {
          "internalType": "contract Seed",
          "name": "_masterCopy",
          "type": "address"
        }
      ],
      "stateMutability": "nonpayable",
      "type": "constructor"
    },
    {
      "anonymous": false,
      "inputs": [
        {
          "indexed": true,
          "internalType": "address",
          "name": "previousOwner",
          "type": "address"
        },
        {
          "indexed": true,
          "internalType": "address",
          "name": "newOwner",
          "type": "address"
        }
      ],
      "name": "OwnershipTransferred",
      "type": "event"
    },
    {
      "anonymous": false,
      "inputs": [
        {
          "indexed": true,
          "internalType": "address",
          "name": "newSeed",
          "type": "address"
        },
        {
          "indexed": true,
          "internalType": "address",
          "name": "admin",
          "type": "address"
        }
      ],
      "name": "SeedCreated",
      "type": "event"
    },
    {
      "inputs": [
        {
          "internalType": "address",
          "name": "_beneficiary",
          "type": "address"
        },
        {
          "internalType": "address",
          "name": "_admin",
          "type": "address"
        },
        {
          "internalType": "address[]",
          "name": "_tokens",
          "type": "address[]"
        },
        {
          "internalType": "uint256[]",
          "name": "_softAndHardCap",
          "type": "uint256[]"
        },
        {
          "internalType": "uint256",
          "name": "_price",
          "type": "uint256"
        },
        {
          "internalType": "uint256[]",
          "name": "_startTimeAndEndTime",
          "type": "uint256[]"
        },
        {
          "internalType": "uint256[]",
          "name": "_defaultClassParameters",
          "type": "uint256[]"
        },
        {
          "internalType": "bool",
          "name": "_permissionedSeed",
          "type": "bool"
        },
        {
          "internalType": "address[]",
          "name": "_allowlistAddresses",
          "type": "address[]"
        },
        {
          "internalType": "uint256[]",
          "name": "_tip",
          "type": "uint256[]"
        },
        {
          "internalType": "bytes",
          "name": "_metadata",
          "type": "bytes"
        }
      ],
      "name": "deploySeed",
      "outputs": [
        {
          "internalType": "address",
          "name": "",
          "type": "address"
        }
      ],
      "stateMutability": "nonpayable",
      "type": "function"
    },
    {
      "inputs": [],
      "name": "masterCopy",
      "outputs": [
        {
          "internalType": "contract Seed",
          "name": "",
          "type": "address"
        }
      ],
      "stateMutability": "view",
      "type": "function"
    },
    {
      "inputs": [],
      "name": "owner",
      "outputs": [
        {
          "internalType": "address",
          "name": "",
          "type": "address"
        }
      ],
      "stateMutability": "view",
      "type": "function"
    },
    {
      "inputs": [],
      "name": "renounceOwnership",
      "outputs": [],
      "stateMutability": "nonpayable",
      "type": "function"
    },
    {
      "inputs": [
        {
          "internalType": "contract Seed",
          "name": "_masterCopy",
          "type": "address"
        }
      ],
      "name": "setMasterCopy",
      "outputs": [],
      "stateMutability": "nonpayable",
      "type": "function"
    },
    {
      "inputs": [
        {
          "internalType": "address",
          "name": "newOwner",
          "type": "address"
        }
      ],
      "name": "transferOwnership",
      "outputs": [],
      "stateMutability": "nonpayable",
      "type": "function"
    }
  ],
  "transactionHash": "0x5ca260201cc3356bf0437439c85550596c94d50d8b0644a29a77c26471737225",
  "args": [
    "0xb2Ef655802404f0556C239ebBE331e639B87f735"
  ],
  "solcInputHash": "f8043de9e9cf228cab58d3cfceba3ac1",
  "bytecode": "0x608060405234801561001057600080fd5b50604051610e3c380380610e3c83398101604081905261002f91610107565b610038336100b7565b6001600160a01b0381166100925760405162461bcd60e51b815260206004820152601660248201527f53656564466163746f72793a204572726f722031303000000000000000000000604482015260640160405180910390fd5b600180546001600160a01b0319166001600160a01b0392909216919091179055610137565b600080546001600160a01b038381166001600160a01b0319831681178455604051919092169283917f8be0079c531659141344cd1fd0a4f28419497f9722a3daafe3b4186f6b6457e09190a35050565b60006020828403121561011957600080fd5b81516001600160a01b038116811461013057600080fd5b9392505050565b610cf6806101466000396000f3fe608060405234801561001057600080fd5b50600436106100625760003560e01c8063086c048f14610067578063715018a6146100965780638da5cb5b146100a0578063a619486e146100b1578063cf497e6c146100c4578063f2fde38b146100d7575b600080fd5b61007a6100753660046109ad565b6100ea565b6040516001600160a01b03909116815260200160405180910390f35b61009e6105b5565b005b6000546001600160a01b031661007a565b60015461007a906001600160a01b031681565b61009e6100d2366004610b12565b6105c9565b61009e6100e5366004610b12565b610659565b6000825160031480156100fe575089516002145b801561010b575088516002145b8015610118575086516002145b8015610125575085516003145b61016f5760405162461bcd60e51b815260206004820152601660248201527529b2b2b22330b1ba37b93c9d1022b93937b91018981960511b60448201526064015b60405180910390fd5b6001600160a01b038c161580159061018f57506001600160a01b038b1615155b80156101c8575060006001600160a01b03168a6000815181106101b4576101b4610b36565b60200260200101516001600160a01b031614155b8015610201575060006001600160a01b03168a6001815181106101ed576101ed610b36565b60200260200101516001600160a01b031614155b6102465760405162461bcd60e51b8152602060048201526016602482015275053656564466163746f72793a204572726f72203130360541b6044820152606401610166565b8960018151811061025957610259610b36565b60200260200101516001600160a01b03168a60008151811061027d5761027d610b36565b60200260200101516001600160a01b0316141580156102ae57508a6001600160a01b03168c6001600160a01b031614155b6102f35760405162461bcd60e51b815260206004820152601660248201527514d95959119858dd1bdc9e4e88115c9c9bdc880c4c0d60521b6044820152606401610166565b8860008151811061030657610306610b36565b60200260200101518960018151811061032157610321610b36565b602002602001015110156103705760405162461bcd60e51b8152602060048201526016602482015275053656564466163746f72793a204572726f72203330360541b6044820152606401610166565b8660008151811061038357610383610b36565b60200260200101518760018151811061039e5761039e610b36565b60200260200101511180156103cc5750866000815181106103c1576103c1610b36565b602002602001015142105b6104115760405162461bcd60e51b815260206004820152601660248201527529b2b2b22330b1ba37b93c9d1022b93937b91018981b60511b6044820152606401610166565b67063eb89da4ed00008360008151811061042d5761042d610b36565b6020026020010151111561047c5760405162461bcd60e51b815260206004820152601660248201527553656564466163746f72793a204572726f722033303160501b6044820152606401610166565b600154600090610494906001600160a01b03166106d2565b60405163fc582d4160e01b81529091506001600160a01b0382169063fc582d41906104c3908690600401610b4c565b600060405180830381600087803b1580156104dd57600080fd5b505af11580156104f1573d6000803e3d6000fd5b50505050806001600160a01b031663ec11d7268e8e8e8e8e8e8e8e8e8e6040518b63ffffffff1660e01b81526004016105339a99989796959493929190610c0e565b600060405180830381600087803b15801561054d57600080fd5b505af1158015610561573d6000803e3d6000fd5b505050508b6001600160a01b0316816001600160a01b03167f23fea745ec0ebbc17cc138cc8d1baca7bde3ce83b1fd6d5e1de583961586363960405160405180910390a39c9b505050505050505050505050565b6105bd610724565b6105c7600061077e565b565b6105d1610724565b6001600160a01b038116158015906105f257506001600160a01b0381163014155b6106375760405162461bcd60e51b8152602060048201526016602482015275053656564466163746f72793a204572726f72203130360541b6044820152606401610166565b600180546001600160a01b0319166001600160a01b0392909216919091179055565b610661610724565b6001600160a01b0381166106c65760405162461bcd60e51b815260206004820152602660248201527f4f776e61626c653a206e6577206f776e657220697320746865207a65726f206160448201526564647265737360d01b6064820152608401610166565b6106cf8161077e565b50565b6000808260601b9050604051733d602d80600a3d3981f3363d3d373d3d3d363d7360601b81528160148201526e5af43d82803e903d91602b57fd5bf360881b60288201526037816000f0949350505050565b6000546001600160a01b031633146105c75760405162461bcd60e51b815260206004820181905260248201527f4f776e61626c653a2063616c6c6572206973206e6f7420746865206f776e65726044820152606401610166565b600080546001600160a01b038381166001600160a01b0319831681178455604051919092169283917f8be0079c531659141344cd1fd0a4f28419497f9722a3daafe3b4186f6b6457e09190a35050565b6001600160a01b03811681146106cf57600080fd5b80356107ee816107ce565b919050565b634e487b7160e01b600052604160045260246000fd5b604051601f8201601f1916810167ffffffffffffffff81118282101715610832576108326107f3565b604052919050565b600067ffffffffffffffff821115610854576108546107f3565b5060051b60200190565b600082601f83011261086f57600080fd5b8135602061088461087f8361083a565b610809565b82815260059290921b840181019181810190868411156108a357600080fd5b8286015b848110156108c75780356108ba816107ce565b83529183019183016108a7565b509695505050505050565b600082601f8301126108e357600080fd5b813560206108f361087f8361083a565b82815260059290921b8401810191818101908684111561091257600080fd5b8286015b848110156108c75780358352918301918301610916565b803580151581146107ee57600080fd5b600082601f83011261094e57600080fd5b813567ffffffffffffffff811115610968576109686107f3565b61097b601f8201601f1916602001610809565b81815284602083860101111561099057600080fd5b816020850160208301376000918101602001919091529392505050565b60008060008060008060008060008060006101608c8e0312156109cf57600080fd5b6109d88c6107e3565b9a506109e660208d016107e3565b995067ffffffffffffffff8060408e01351115610a0257600080fd5b610a128e60408f01358f0161085e565b99508060608e01351115610a2557600080fd5b610a358e60608f01358f016108d2565b985060808d013597508060a08e01351115610a4f57600080fd5b610a5f8e60a08f01358f016108d2565b96508060c08e01351115610a7257600080fd5b610a828e60c08f01358f016108d2565b9550610a9060e08e0161092d565b9450806101008e01351115610aa457600080fd5b610ab58e6101008f01358f0161085e565b9350806101208e01351115610ac957600080fd5b610ada8e6101208f01358f016108d2565b9250806101408e01351115610aee57600080fd5b50610b008d6101408e01358e0161093d565b90509295989b509295989b9093969950565b600060208284031215610b2457600080fd5b8135610b2f816107ce565b9392505050565b634e487b7160e01b600052603260045260246000fd5b600060208083528351808285015260005b81811015610b7957858101830151858201604001528201610b5d565b506000604082860101526040601f19601f8301168501019250505092915050565b600081518084526020808501945080840160005b83811015610bd35781516001600160a01b031687529582019590820190600101610bae565b509495945050505050565b600081518084526020808501945080840160005b83811015610bd357815187529582019590820190600101610bf2565b6001600160a01b038b811682528a16602082015261014060408201819052600090610c3b8382018c610b9a565b90508281036060840152610c4f818b610bde565b905088608084015282810360a0840152610c698189610bde565b905082810360c0840152610c7d8188610bde565b905085151560e0840152828103610100840152610c9a8186610b9a565b9050828103610120840152610caf8185610bde565b9d9c5050505050505050505050505056fea2646970667358221220ac4e6298b81b2063315e8b44bcbf600663b871c0e686fc064251dccf84f575d064736f6c63430008110033",
  "devdoc": {
    "details": "SeedFactory deployed without the onlyOwner modifer for the function deploySeed(). By  removing the access control, everyone can deploy a seed from this contract. This is        a temporarly solution in response to the flaky Celo Safe.",
    "kind": "dev",
    "methods": {
      "deploySeed(address,address,address[],uint256[],uint256,uint256[],uint256[],bool,address[],uint256[],bytes)": {
        "details": "Deploys Seed contract.",
        "params": {
          "_admin": "The address of the admin of this contract. Funds contract and has permissions to allowlist users, pause and close contract.",
          "_allowlistAddresses": "Array of addresses to be allowlisted for the default class, at creation time",
          "_beneficiary": "The address that recieves fees.",
          "_defaultClassParameters": "Array containing three params: - Individual buying cap for de default class, expressed in precision 10*18 - Cliff duration, denominated in seconds. - Vesting period duration, denominated in seconds.",
          "_metadata": "Seed contract metadata, that is IPFS URI",
          "_permissionedSeed": "Set to true if only allowlisted adresses are allowed to participate.",
          "_price": "price of a SeedToken, expressed in fundingTokens, with precision of 10**18",
          "_softAndHardCap": "Array containing two params: - the minimum funding token collection threshold in wei denomination. - the highest possible funding token amount to be raised in wei denomination.",
          "_startTimeAndEndTime": "Array containing two params: - Distribution start time in unix timecode. - Distribution end time in unix timecode.",
          "_tip": "Array of containing three parameters: - Total amount of tip percentage, calculated from the total amount of Seed tokens added to the contract, expressed as a % (e.g. 10**18 = 100% fee, 10**16 = 1%) - Tip cliff duration denominated in seconds.\t - Tip vesting period duration denominated in seconds.\t\t\t\t\t\t\t\t\t\t\t\t\t\t\t\t\t\t\t\t\t\t\t\t",
          "_tokens": "Array containing two params: - The address of the seed token being distributed.                                         - The address of the funding token being exchanged for seed token."
        }
      },
      "owner()": {
        "details": "Returns the address of the current owner."
      },
      "renounceOwnership()": {
        "details": "Leaves the contract without owner. It will not be possible to call `onlyOwner` functions anymore. Can only be called by the current owner. NOTE: Renouncing ownership will leave the contract without an owner, thereby removing any functionality that is only available to the owner."
      },
      "setMasterCopy(address)": {
        "details": "Set Seed contract which works as a base for clones.",
        "params": {
          "_masterCopy": "The address of the new Seed basis."
        }
      },
      "transferOwnership(address)": {
        "details": "Transfers ownership of the contract to a new account (`newOwner`). Can only be called by the current owner."
      }
    },
    "title": "PrimeDAO Seed Factory V2",
    "version": 1
  },
  "userdoc": {
    "kind": "user",
    "methods": {},
    "version": 1
  },
  "storageLayout": {
    "storage": [
      {
        "astId": 7,
        "contract": "contracts/seed/SeedFactoryNoAccessControl.sol:SeedFactoryNoAccessControl",
        "label": "_owner",
        "offset": 0,
        "slot": "0",
        "type": "t_address"
      },
      {
        "astId": 2764,
        "contract": "contracts/seed/SeedFactoryNoAccessControl.sol:SeedFactoryNoAccessControl",
        "label": "masterCopy",
        "offset": 0,
        "slot": "1",
        "type": "t_contract(Seed)2751"
      }
    ],
    "types": {
      "t_address": {
        "encoding": "inplace",
        "label": "address",
        "numberOfBytes": "20"
      },
      "t_contract(Seed)2751": {
        "encoding": "inplace",
        "label": "contract Seed",
        "numberOfBytes": "20"
      }
    }
  }
}