{
  "address": "0xFb59890ec6bb01A2054f397AFAEf78228508D108",
  "abi": [
    {
      "inputs": [
        {
          "internalType": "address",
          "name": "_safe",
          "type": "address"
        },
        {
          "internalType": "address[]",
          "name": "_contracts",
          "type": "address[]"
        },
        {
          "internalType": "bytes4[]",
          "name": "_functionSignatures",
          "type": "bytes4[]"
        }
      ],
      "stateMutability": "nonpayable",
      "type": "constructor"
    },
    {
      "anonymous": false,
      "inputs": [
        {
          "indexed": false,
          "internalType": "bytes",
          "name": "signature",
          "type": "bytes"
        },
        {
          "indexed": true,
          "internalType": "bytes32",
          "name": "hash",
          "type": "bytes32"
        }
      ],
      "name": "SignatureCreated",
      "type": "event"
    },
    {
      "inputs": [
        {
          "internalType": "address",
          "name": "",
          "type": "address"
        },
        {
          "internalType": "bytes4",
          "name": "",
          "type": "bytes4"
        }
      ],
      "name": "allowedTransactions",
      "outputs": [
        {
          "internalType": "bool",
          "name": "",
          "type": "bool"
        }
      ],
      "stateMutability": "view",
      "type": "function"
    },
    {
      "inputs": [
        {
          "internalType": "address",
          "name": "_contract",
          "type": "address"
        },
        {
          "internalType": "bytes4",
          "name": "_functionSignature",
          "type": "bytes4"
        }
      ],
      "name": "approveNewTransaction",
      "outputs": [],
      "stateMutability": "nonpayable",
      "type": "function"
    },
    {
      "inputs": [
        {
          "internalType": "bytes32",
          "name": "",
          "type": "bytes32"
        }
      ],
      "name": "approvedSignatures",
      "outputs": [
        {
          "internalType": "bytes32",
          "name": "",
          "type": "bytes32"
        }
      ],
      "stateMutability": "view",
      "type": "function"
    },
    {
      "inputs": [
        {
          "internalType": "address",
          "name": "_to",
          "type": "address"
        },
        {
          "internalType": "uint256",
          "name": "_value",
          "type": "uint256"
        },
        {
          "internalType": "bytes",
          "name": "_data",
          "type": "bytes"
        },
        {
          "internalType": "enum Enum.Operation",
          "name": "_operation",
          "type": "uint8"
        },
        {
          "internalType": "uint256",
          "name": "_safeTxGas",
          "type": "uint256"
        },
        {
          "internalType": "uint256",
          "name": "_baseGas",
          "type": "uint256"
        },
        {
          "internalType": "uint256",
          "name": "_gasPrice",
          "type": "uint256"
        },
        {
          "internalType": "address",
          "name": "_gasToken",
          "type": "address"
        },
        {
          "internalType": "address",
          "name": "_refundReceiver",
          "type": "address"
        },
        {
          "internalType": "uint256",
          "name": "_nonce",
          "type": "uint256"
        }
      ],
      "name": "generateSignature",
      "outputs": [
        {
          "internalType": "bytes",
          "name": "signature",
          "type": "bytes"
        },
        {
          "internalType": "bytes32",
          "name": "hash",
          "type": "bytes32"
        }
      ],
      "stateMutability": "nonpayable",
      "type": "function"
    },
    {
      "inputs": [
        {
          "internalType": "bytes",
          "name": "_data",
          "type": "bytes"
        },
        {
          "internalType": "bytes",
          "name": "_signature",
          "type": "bytes"
        }
      ],
      "name": "isValidSignature",
      "outputs": [
        {
          "internalType": "bytes4",
          "name": "",
          "type": "bytes4"
        }
      ],
      "stateMutability": "view",
      "type": "function"
    },
    {
      "inputs": [
        {
          "internalType": "address",
          "name": "_contract",
          "type": "address"
        },
        {
          "internalType": "bytes4",
          "name": "_functionSignature",
          "type": "bytes4"
        }
      ],
      "name": "removeAllowedTransaction",
      "outputs": [],
      "stateMutability": "nonpayable",
      "type": "function"
    },
    {
      "inputs": [],
      "name": "safe",
      "outputs": [
        {
          "internalType": "address",
          "name": "",
          "type": "address"
        }
      ],
      "stateMutability": "view",
      "type": "function"
    },
    {
      "inputs": [
        {
          "internalType": "address",
          "name": "_safe",
          "type": "address"
        }
      ],
      "name": "setSafe",
      "outputs": [],
      "stateMutability": "nonpayable",
      "type": "function"
    }
  ],
  "transactionHash": "0x6cdf1a701a45a5de55701252f6620d018e2cb043e63c3015d20b5ab430e508ff",
  "args": [
    "0xF1734d53F5560C319395D633D131a5aB39aB06D7",
    [
      "0x36aebabB3fD32589425B1c0170EFfB55C7982575"
    ],
    [
      "0x086c048f"
    ]
  ],
  "solcInputHash": "411a8f835fd6f9dbb5f111915356c6c4",
  "bytecode": "0x60806040523480156200001157600080fd5b506040516200125038038062001250833981016040819052620000349162000376565b6001600160a01b038316620000905760405162461bcd60e51b815260206004820152601960248201527f5369676e65723a20536166652061646472657373207a65726f0000000000000060448201526064015b60405180910390fd5b600180546001600160a01b0319166001600160a01b03851617905560005b8251811015620002555760006001600160a01b0316838281518110620000d857620000d86200045a565b60200260200101516001600160a01b031603620001385760405162461bcd60e51b815260206004820152601d60248201527f5369676e65723a20636f6e74726163742061646472657373207a65726f000000604482015260640162000087565b81516000908390839081106200015257620001526200045a565b60200260200101516001600160e01b03191603620001b35760405162461bcd60e51b815260206004820152601f60248201527f5369676e65723a2066756e6374696f6e207369676e6174757265207a65726f00604482015260640162000087565b600160026000858481518110620001ce57620001ce6200045a565b60200260200101516001600160a01b03166001600160a01b0316815260200190815260200160002060008484815181106200020d576200020d6200045a565b6020908102919091018101516001600160e01b0319168252810191909152604001600020805460ff1916911515919091179055806200024c8162000470565b915050620000ae565b5050505062000498565b80516001600160a01b03811681146200027757600080fd5b919050565b634e487b7160e01b600052604160045260246000fd5b604051601f8201601f191681016001600160401b0381118282101715620002bd57620002bd6200027c565b604052919050565b60006001600160401b03821115620002e157620002e16200027c565b5060051b60200190565b600082601f830112620002fd57600080fd5b81516020620003166200031083620002c5565b62000292565b82815260059290921b840181019181810190868411156200033657600080fd5b8286015b848110156200036b5780516001600160e01b0319811681146200035d5760008081fd5b83529183019183016200033a565b509695505050505050565b6000806000606084860312156200038c57600080fd5b62000397846200025f565b602085810151919450906001600160401b0380821115620003b757600080fd5b818701915087601f830112620003cc57600080fd5b8151620003dd6200031082620002c5565b81815260059190911b8301840190848101908a831115620003fd57600080fd5b938501935b82851015620004265762000416856200025f565b8252938501939085019062000402565b60408a015190975094505050808311156200044057600080fd5b50506200045086828701620002eb565b9150509250925092565b634e487b7160e01b600052603260045260246000fd5b6000600182016200049157634e487b7160e01b600052601160045260246000fd5b5060010190565b610da880620004a86000396000f3fe608060405234801561001057600080fd5b50600436106100885760003560e01c80635db0cb941161005b5780635db0cb941461011157806374fe857a14610124578063e14ff99814610145578063f164e6ea1461017357600080fd5b8063186f03541461008d57806320c13b0b146100bd5780632435f0a5146100e957806357ba1262146100fe575b600080fd5b6001546100a0906001600160a01b031681565b6040516001600160a01b0390911681526020015b60405180910390f35b6100d06100cb366004610992565b6101b1565b6040516001600160e01b031990911681526020016100b4565b6100fc6100f7366004610a12565b610238565b005b6100fc61010c366004610a12565b610353565b6100fc61011f366004610a56565b610451565b610137610132366004610a87565b6104f3565b6040516100b4929190610bbf565b610165610153366004610be1565b60006020819052908152604090205481565b6040519081526020016100b4565b6101a1610181366004610a12565b600260209081526000928352604080842090915290825290205460ff1681565b60405190151581526020016100b4565b600082516020036101f557602083810151835184830120600082815292839052604090922054909190036101ef57506320c13b0b60e01b9050610232565b5061022a565b818051906020012060008085805190602001208152602001908152602001600020540361022a57506320c13b0b60e01b610232565b5061060f60f31b5b92915050565b6001546001600160a01b0316331461026b5760405162461bcd60e51b815260040161026290610bfa565b60405180910390fd5b6001600160a01b0382166102c15760405162461bcd60e51b815260206004820152601d60248201527f5369676e65723a20636f6e74726163742061646472657373207a65726f0000006044820152606401610262565b6001600160e01b031981166103185760405162461bcd60e51b815260206004820152601f60248201527f5369676e65723a2066756e6374696f6e207369676e6174757265207a65726f006044820152606401610262565b6001600160a01b0390911660009081526002602090815260408083206001600160e01b0319909416835292905220805460ff19166001179055565b6001546001600160a01b0316331461037d5760405162461bcd60e51b815260040161026290610bfa565b6001600160a01b03821660009081526002602090815260408083206001600160e01b03198516845290915290205460ff1615156001146104195760405162461bcd60e51b815260206004820152603160248201527f5369676e65723a206f6e6c7920617070726f766564207472616e73616374696f6044820152701b9cc818d85b881899481c995b5bdd9959607a1b6064820152608401610262565b6001600160a01b0390911660009081526002602090815260408083206001600160e01b0319909416835292905220805460ff19169055565b6001546001600160a01b0316331461047b5760405162461bcd60e51b815260040161026290610bfa565b6001600160a01b0381166104d15760405162461bcd60e51b815260206004820152601960248201527f5369676e65723a2053616665207a65726f2061646472657373000000000000006044820152606401610262565b600180546001600160a01b0319166001600160a01b0392909216919091179055565b60606000600260008e6001600160a01b03166001600160a01b03168152602001908152602001600020600061055d8d8d8080601f0160208091040260200160405190810160405280939291908181526020018383808284376000920191909152506108e892505050565b6001600160e01b031916815260208101919091526040016000205460ff166105c75760405162461bcd60e51b815260206004820152601860248201527f5369676e65723a20696e76616c69642066756e6374696f6e00000000000000006044820152606401610262565b8b1580156105dc57506001600160a01b038416155b80156105f9575060008960018111156105f7576105f7610c31565b145b6106455760405162461bcd60e51b815260206004820152601960248201527f5369676e65723a20696e76616c696420617267756d656e7473000000000000006044820152606401610262565b600160009054906101000a90046001600160a01b03166001600160a01b031663d8d11f788e60008e8e8e8e8e8e8e8e8e6040518c63ffffffff1660e01b815260040161069b9b9a99989796959493929190610c47565b602060405180830381865afa1580156106b8573d6000803e3d6000fd5b505050506040513d601f19601f820116820180604052508101906106dc9190610cf8565b604080516000602082018190526bffffffffffffffffffffffff193060601b16602c83015292935001604051602081830303815290604052905060006107df83604080517fa1a7ad659422d5fc08fdc481fd7d8af8daf7993bc4e833452b0268ceaab66e5d602080830191909152818301939093528151808203830181526060820183528051908401207f7a9f5b2bf4dbb53eb85e012c6094a3d71d76e5bfe821f44ab63ed59311264e35608083015260a0808301919091528251808303909101815260c0820183528051930192909220601960f81b60e0840152602360f81b60e184015260e28084019190915281518084039091018152610102909201905290565b9050808051906020012060008085815260200190815260200160002054036108545760405162461bcd60e51b815260206004820152602260248201527f5369676e65723a207472616e73616374696f6e20616c7265616479207369676e604482015261195960f21b6064820152608401610262565b805160405161086f9184916041916000918690602001610d11565b6040516020818303038152906040529350808051906020012060008085815260200190815260200160002081905550827f4418bf19096bdd1b926a95d3cba8654e780b1b8b9a68526fb2faa0de58040d85856040516108ce9190610d5f565b60405180910390a250509b509b9950505050505050505050565b6020015190565b634e487b7160e01b600052604160045260246000fd5b600082601f83011261091657600080fd5b813567ffffffffffffffff80821115610931576109316108ef565b604051601f8301601f19908116603f01168101908282118183101715610959576109596108ef565b8160405283815286602085880101111561097257600080fd5b836020870160208301376000602085830101528094505050505092915050565b600080604083850312156109a557600080fd5b823567ffffffffffffffff808211156109bd57600080fd5b6109c986838701610905565b935060208501359150808211156109df57600080fd5b506109ec85828601610905565b9150509250929050565b80356001600160a01b0381168114610a0d57600080fd5b919050565b60008060408385031215610a2557600080fd5b610a2e836109f6565b915060208301356001600160e01b031981168114610a4b57600080fd5b809150509250929050565b600060208284031215610a6857600080fd5b610a71826109f6565b9392505050565b803560028110610a0d57600080fd5b60008060008060008060008060008060006101408c8e031215610aa957600080fd5b610ab28c6109f6565b9a5060208c0135995060408c013567ffffffffffffffff80821115610ad657600080fd5b818e0191508e601f830112610aea57600080fd5b813581811115610af957600080fd5b8f6020828501011115610b0b57600080fd5b602083019b50809a50505050610b2360608d01610a78565b965060808c0135955060a08c0135945060c08c01359350610b4660e08d016109f6565b9250610b556101008d016109f6565b91506101208c013590509295989b509295989b9093969950565b60005b83811015610b8a578181015183820152602001610b72565b50506000910152565b60008151808452610bab816020860160208601610b6f565b601f01601f19169290920160200192915050565b604081526000610bd26040830185610b93565b90508260208301529392505050565b600060208284031215610bf357600080fd5b5035919050565b6020808252601f908201527f5369676e65723a206f6e6c7920736166652066756e6374696f6e616c69747900604082015260600190565b634e487b7160e01b600052602160045260246000fd5b6001600160a01b038c168152602081018b905261014060408201819052810189905260006101608a8c828501376000838c01820152601f8b01601f1916830101905060028910610ca757634e487b7160e01b600052602160045260246000fd5b8860608301528760808301528660a08301528560c0830152610cd460e08301866001600160a01b03169052565b6001600160a01b039390931661010082015261012001529998505050505050505050565b600060208284031215610d0a57600080fd5b5051919050565b60008651610d23818460208b01610b6f565b808301905086815260ff60f81b861660208201528460218201528351610d50816041840160208801610b6f565b01604101979650505050505050565b602081526000610a716020830184610b9356fea26469706673582212205cdff8fb563cc7f259c517b461d1f566ccee80ef4790c0cd6d431ca6402b33ed64736f6c63430008110033",
  "devdoc": {
    "details": "Enables signing approved function signature transaction before sending it to Gnosis Safe.",
    "kind": "dev",
    "methods": {
      "approveNewTransaction(address,bytes4)": {
        "details": "add new contracts and functions",
        "params": {
          "_contract": "contract address",
          "_functionSignature": "function signature for the contract"
        }
      },
      "constructor": {
        "details": "Signer Constructor",
        "params": {
          "_contracts": "array of contract addresses",
          "_functionSignatures": "array of function signatures",
          "_safe": "Gnosis Safe address."
        }
      },
      "generateSignature(address,uint256,bytes,uint8,uint256,uint256,uint256,address,address,uint256)": {
        "details": "Signature generator",
        "params": {
          "_baseGas": "base gas for gnosis safe.",
          "_data": "encoded transaction data.",
          "_gasPrice": "gas price for gnosis safe transaction.",
          "_gasToken": "token which gas needs to paid for gnosis safe transaction.",
          "_nonce": "gnosis safe contract nonce.",
          "_operation": "type of operation call.",
          "_refundReceiver": "address account to receive refund for remaining gas.",
          "_safeTxGas": "safe transaction gas for gnosis safe.",
          "_to": "receiver address.",
          "_value": "value in wei."
        }
      },
      "isValidSignature(bytes,bytes)": {
        "details": "Validate signature using EIP1271",
        "params": {
          "_data": "Encoded transaction hash supplied to verify signature.",
          "_signature": "Signature that needs to be verified."
        }
      },
      "removeAllowedTransaction(address,bytes4)": {
        "details": "add new contracts and functions",
        "params": {
          "_contract": "contract address",
          "_functionSignature": "function signature for the contract"
        }
      },
      "setSafe(address)": {
        "details": "set new safe",
        "params": {
          "_safe": "safe address"
        }
      }
    },
    "title": "PrimeDAO Signer Contract",
    "version": 1
  },
  "userdoc": {
    "kind": "user",
    "methods": {},
    "version": 1
  },
  "storageLayout": {
    "storage": [
      {
        "astId": 7772,
        "contract": "contracts/utils/SignerV2.sol:SignerV2",
        "label": "approvedSignatures",
        "offset": 0,
        "slot": "0",
        "type": "t_mapping(t_bytes32,t_bytes32)"
      },
      {
        "astId": 7774,
        "contract": "contracts/utils/SignerV2.sol:SignerV2",
        "label": "safe",
        "offset": 0,
        "slot": "1",
        "type": "t_address"
      },
      {
        "astId": 7780,
        "contract": "contracts/utils/SignerV2.sol:SignerV2",
        "label": "allowedTransactions",
        "offset": 0,
        "slot": "2",
        "type": "t_mapping(t_address,t_mapping(t_bytes4,t_bool))"
      }
    ],
    "types": {
      "t_address": {
        "encoding": "inplace",
        "label": "address",
        "numberOfBytes": "20"
      },
      "t_bool": {
        "encoding": "inplace",
        "label": "bool",
        "numberOfBytes": "1"
      },
      "t_bytes32": {
        "encoding": "inplace",
        "label": "bytes32",
        "numberOfBytes": "32"
      },
      "t_bytes4": {
        "encoding": "inplace",
        "label": "bytes4",
        "numberOfBytes": "4"
      },
      "t_mapping(t_address,t_mapping(t_bytes4,t_bool))": {
        "encoding": "mapping",
        "key": "t_address",
        "label": "mapping(address => mapping(bytes4 => bool))",
        "numberOfBytes": "32",
        "value": "t_mapping(t_bytes4,t_bool)"
      },
      "t_mapping(t_bytes32,t_bytes32)": {
        "encoding": "mapping",
        "key": "t_bytes32",
        "label": "mapping(bytes32 => bytes32)",
        "numberOfBytes": "32",
        "value": "t_bytes32"
      },
      "t_mapping(t_bytes4,t_bool)": {
        "encoding": "mapping",
        "key": "t_bytes4",
        "label": "mapping(bytes4 => bool)",
        "numberOfBytes": "32",
        "value": "t_bool"
      }
    }
  }
}