{
  "_format": "hh-sol-artifact-1",
  "contractName": "GnosisSafeProxyFactory",
  "sourceName": "@gnosis.pm/safe-contracts/contracts/proxies/GnosisSafeProxyFactory.sol",
  "abi": [
    {
      "anonymous": false,
      "inputs": [
        {
          "indexed": false,
          "internalType": "contract GnosisSafeProxy",
          "name": "proxy",
          "type": "address"
        },
        {
          "indexed": false,
          "internalType": "address",
          "name": "singleton",
          "type": "address"
        }
      ],
      "name": "ProxyCreation",
      "type": "event"
    },
    {
      "inputs": [
        {
          "internalType": "address",
          "name": "_singleton",
          "type": "address"
        },
        {
          "internalType": "bytes",
          "name": "initializer",
          "type": "bytes"
        },
        {
          "internalType": "uint256",
          "name": "saltNonce",
          "type": "uint256"
        }
      ],
      "name": "calculateCreateProxyWithNonceAddress",
      "outputs": [
        {
          "internalType": "contract GnosisSafeProxy",
          "name": "proxy",
          "type": "address"
        }
      ],
      "stateMutability": "nonpayable",
      "type": "function"
    },
    {
      "inputs": [
        {
          "internalType": "address",
          "name": "singleton",
          "type": "address"
        },
        {
          "internalType": "bytes",
          "name": "data",
          "type": "bytes"
        }
      ],
      "name": "createProxy",
      "outputs": [
        {
          "internalType": "contract GnosisSafeProxy",
          "name": "proxy",
          "type": "address"
        }
      ],
      "stateMutability": "nonpayable",
      "type": "function"
    },
    {
      "inputs": [
        {
          "internalType": "address",
          "name": "_singleton",
          "type": "address"
        },
        {
          "internalType": "bytes",
          "name": "initializer",
          "type": "bytes"
        },
        {
          "internalType": "uint256",
          "name": "saltNonce",
          "type": "uint256"
        },
        {
          "internalType": "contract IProxyCreationCallback",
          "name": "callback",
          "type": "address"
        }
      ],
      "name": "createProxyWithCallback",
      "outputs": [
        {
          "internalType": "contract GnosisSafeProxy",
          "name": "proxy",
          "type": "address"
        }
      ],
      "stateMutability": "nonpayable",
      "type": "function"
    },
    {
      "inputs": [
        {
          "internalType": "address",
          "name": "_singleton",
          "type": "address"
        },
        {
          "internalType": "bytes",
          "name": "initializer",
          "type": "bytes"
        },
        {
          "internalType": "uint256",
          "name": "saltNonce",
          "type": "uint256"
        }
      ],
      "name": "createProxyWithNonce",
      "outputs": [
        {
          "internalType": "contract GnosisSafeProxy",
          "name": "proxy",
          "type": "address"
        }
      ],
      "stateMutability": "nonpayable",
      "type": "function"
    },
    {
      "inputs": [],
      "name": "proxyCreationCode",
      "outputs": [
        {
          "internalType": "bytes",
          "name": "",
          "type": "bytes"
        }
      ],
      "stateMutability": "pure",
      "type": "function"
    },
    {
      "inputs": [],
      "name": "proxyRuntimeCode",
      "outputs": [
        {
          "internalType": "bytes",
          "name": "",
          "type": "bytes"
        }
      ],
      "stateMutability": "pure",
      "type": "function"
    }
  ],
  "bytecode": "0x608060405234801561001057600080fd5b50611331806100206000396000f3fe60806040523480156200001157600080fd5b50600436106200006a5760003560e01c80631688f0b9146200006f5780632500510e14620000a557806353e5d93514620000db57806361b69abd14620000fd578063addacc0f1462000133578063d18af54d1462000155575b600080fd5b6200008d600480360381019062000087919062000804565b6200018b565b6040516200009c9190620008ea565b60405180910390f35b620000c36004803603810190620000bd919062000970565b62000206565b604051620000d29190620008ea565b60405180910390f35b620000e5620002bb565b604051620000f4919062000a83565b60405180910390f35b6200011b600480360381019062000115919062000aa7565b620002e8565b6040516200012a9190620008ea565b60405180910390f35b6200013d6200038e565b6040516200014c919062000a83565b60405180910390f35b6200017360048036038101906200016d919062000b52565b620003bb565b604051620001829190620008ea565b60405180910390f35b60006200019a848484620004b1565b9050600083511115620001c45760008060008551602087016000865af11415620001c357600080fd5b5b7f4f51faf6c4561ff95f067657e43439f0f856d97c04d9ec9070a6199ad418e2358185604051620001f792919062000bf4565b60405180910390a19392505050565b6000620002598585858080601f016020809104026020016040519081016040528093929190818152602001838380828437600081840152601f19601f8201169050808301925050505050505084620004b1565b9050806040516020016200026e919062000c71565b6040516020818303038152906040526040517f08c379a0000000000000000000000000000000000000000000000000000000008152600401620002b2919062000ceb565b60405180910390fd5b606060405180602001620002cf90620005d3565b6020820181038252601f19601f82011660405250905090565b600082604051620002f990620005d3565b62000305919062000d0f565b604051809103906000f08015801562000322573d6000803e3d6000fd5b5090506000825111156200034d5760008060008451602086016000865af114156200034c57600080fd5b5b7f4f51faf6c4561ff95f067657e43439f0f856d97c04d9ec9070a6199ad418e23581846040516200038092919062000bf4565b60405180910390a192915050565b606060405180602001620003a290620005e1565b6020820181038252601f19601f82011660405250905090565b6000808383604051602001620003d392919062000da8565b6040516020818303038152906040528051906020012060001c9050620003fb8686836200018b565b9150600073ffffffffffffffffffffffffffffffffffffffff168373ffffffffffffffffffffffffffffffffffffffff1614620004a8578273ffffffffffffffffffffffffffffffffffffffff16631e52b518838888886040518563ffffffff1660e01b815260040162000473949392919062000de9565b600060405180830381600087803b1580156200048e57600080fd5b505af1158015620004a3573d6000803e3d6000fd5b505050505b50949350505050565b600080838051906020012083604051602001620004d092919062000e6c565b604051602081830303815290604052805190602001209050600060405180602001620004fc90620005d3565b6020820181038252601f19601f820116604052508673ffffffffffffffffffffffffffffffffffffffff166040516020016200053a92919062000ede565b6040516020818303038152906040529050818151826020016000f59250600073ffffffffffffffffffffffffffffffffffffffff168373ffffffffffffffffffffffffffffffffffffffff161415620005ca576040517f08c379a0000000000000000000000000000000000000000000000000000000008152600401620005c19062000f5a565b60405180910390fd5b50509392505050565b6102d48062000f7d83390190565b60ab806200125183390190565b6000604051905090565b600080fd5b600080fd5b600073ffffffffffffffffffffffffffffffffffffffff82169050919050565b60006200062f8262000602565b9050919050565b620006418162000622565b81146200064d57600080fd5b50565b600081359050620006618162000636565b92915050565b600080fd5b600080fd5b6000601f19601f8301169050919050565b7f4e487b7100000000000000000000000000000000000000000000000000000000600052604160045260246000fd5b620006bc8262000671565b810181811067ffffffffffffffff82111715620006de57620006dd62000682565b5b80604052505050565b6000620006f3620005ee565b9050620007018282620006b1565b919050565b600067ffffffffffffffff82111562000724576200072362000682565b5b6200072f8262000671565b9050602081019050919050565b82818337600083830152505050565b6000620007626200075c8462000706565b620006e7565b9050828152602081018484840111156200078157620007806200066c565b5b6200078e8482856200073c565b509392505050565b600082601f830112620007ae57620007ad62000667565b5b8135620007c08482602086016200074b565b91505092915050565b6000819050919050565b620007de81620007c9565b8114620007ea57600080fd5b50565b600081359050620007fe81620007d3565b92915050565b60008060006060848603121562000820576200081f620005f8565b5b6000620008308682870162000650565b935050602084013567ffffffffffffffff811115620008545762000853620005fd565b5b620008628682870162000796565b92505060406200087586828701620007ed565b9150509250925092565b6000819050919050565b6000620008aa620008a46200089e8462000602565b6200087f565b62000602565b9050919050565b6000620008be8262000889565b9050919050565b6000620008d282620008b1565b9050919050565b620008e481620008c5565b82525050565b6000602082019050620009016000830184620008d9565b92915050565b600080fd5b600080fd5b60008083601f8401126200092a576200092962000667565b5b8235905067ffffffffffffffff8111156200094a576200094962000907565b5b6020830191508360018202830111156200096957620009686200090c565b5b9250929050565b600080600080606085870312156200098d576200098c620005f8565b5b60006200099d8782880162000650565b945050602085013567ffffffffffffffff811115620009c157620009c0620005fd565b5b620009cf8782880162000911565b93509350506040620009e487828801620007ed565b91505092959194509250565b600081519050919050565b600082825260208201905092915050565b60005b8381101562000a2c57808201518184015260208101905062000a0f565b8381111562000a3c576000848401525b50505050565b600062000a4f82620009f0565b62000a5b8185620009fb565b935062000a6d81856020860162000a0c565b62000a788162000671565b840191505092915050565b6000602082019050818103600083015262000a9f818462000a42565b905092915050565b6000806040838503121562000ac15762000ac0620005f8565b5b600062000ad18582860162000650565b925050602083013567ffffffffffffffff81111562000af55762000af4620005fd565b5b62000b038582860162000796565b9150509250929050565b600062000b1a8262000622565b9050919050565b62000b2c8162000b0d565b811462000b3857600080fd5b50565b60008135905062000b4c8162000b21565b92915050565b6000806000806080858703121562000b6f5762000b6e620005f8565b5b600062000b7f8782880162000650565b945050602085013567ffffffffffffffff81111562000ba35762000ba2620005fd565b5b62000bb18782880162000796565b935050604062000bc487828801620007ed565b925050606062000bd78782880162000b3b565b91505092959194509250565b62000bee8162000622565b82525050565b600060408201905062000c0b6000830185620008d9565b62000c1a602083018462000be3565b9392505050565b60008160601b9050919050565b600062000c3b8262000c21565b9050919050565b600062000c4f8262000c2e565b9050919050565b62000c6b62000c6582620008c5565b62000c42565b82525050565b600062000c7f828462000c56565b60148201915081905092915050565b600081519050919050565b600082825260208201905092915050565b600062000cb78262000c8e565b62000cc3818562000c99565b935062000cd581856020860162000a0c565b62000ce08162000671565b840191505092915050565b6000602082019050818103600083015262000d07818462000caa565b905092915050565b600060208201905062000d26600083018462000be3565b92915050565b6000819050919050565b62000d4b62000d4582620007c9565b62000d2c565b82525050565b600062000d5e8262000889565b9050919050565b600062000d728262000d51565b9050919050565b600062000d868262000c2e565b9050919050565b62000da262000d9c8262000d65565b62000d79565b82525050565b600062000db6828562000d36565b60208201915062000dc8828462000d8d565b6014820191508190509392505050565b62000de381620007c9565b82525050565b600060808201905062000e006000830187620008d9565b62000e0f602083018662000be3565b818103604083015262000e23818562000a42565b905062000e34606083018462000dd8565b95945050505050565b6000819050919050565b6000819050919050565b62000e6662000e608262000e3d565b62000e47565b82525050565b600062000e7a828562000e51565b60208201915062000e8c828462000d36565b6020820191508190509392505050565b600081905092915050565b600062000eb482620009f0565b62000ec0818562000e9c565b935062000ed281856020860162000a0c565b80840191505092915050565b600062000eec828562000ea7565b915062000efa828462000d36565b6020820191508190509392505050565b7f437265617465322063616c6c206661696c656400000000000000000000000000600082015250565b600062000f4260138362000c99565b915062000f4f8262000f0a565b602082019050919050565b6000602082019050818103600083015262000f758162000f33565b905091905056fe608060405234801561001057600080fd5b506040516102d43803806102d48339818101604052810190610032919061014b565b600073ffffffffffffffffffffffffffffffffffffffff168173ffffffffffffffffffffffffffffffffffffffff1614156100a2576040517f08c379a0000000000000000000000000000000000000000000000000000000008152600401610099906101fb565b60405180910390fd5b806000806101000a81548173ffffffffffffffffffffffffffffffffffffffff021916908373ffffffffffffffffffffffffffffffffffffffff1602179055505061021b565b600080fd5b600073ffffffffffffffffffffffffffffffffffffffff82169050919050565b6000610118826100ed565b9050919050565b6101288161010d565b811461013357600080fd5b50565b6000815190506101458161011f565b92915050565b600060208284031215610161576101606100e8565b5b600061016f84828501610136565b91505092915050565b600082825260208201905092915050565b7f496e76616c69642073696e676c65746f6e20616464726573732070726f76696460008201527f6564000000000000000000000000000000000000000000000000000000000000602082015250565b60006101e5602283610178565b91506101f082610189565b604082019050919050565b60006020820190508181036000830152610214816101d8565b9050919050565b60ab806102296000396000f3fe608060405273ffffffffffffffffffffffffffffffffffffffff600054167fa619486e0000000000000000000000000000000000000000000000000000000060003514156050578060005260206000f35b3660008037600080366000845af43d6000803e60008114156070573d6000fd5b3d6000f3fea2646970667358221220545af6abf51c714e6c2873c49006f756a06a2e8f9fdea76a2cc8d3c592fc8f6364736f6c63430008090033608060405273ffffffffffffffffffffffffffffffffffffffff600054167fa619486e0000000000000000000000000000000000000000000000000000000060003514156050578060005260206000f35b3660008037600080366000845af43d6000803e60008114156070573d6000fd5b3d6000f3fea2646970667358221220545af6abf51c714e6c2873c49006f756a06a2e8f9fdea76a2cc8d3c592fc8f6364736f6c63430008090033a2646970667358221220c6c2463d88ae60bdb3b53576fc66d757f527625217f4ce7ec6841fa83c36681064736f6c63430008090033",
  "linkReferences": {},
  "deployedLinkReferences": {}
}