{
  "address": "0x34d0704680A028E70CA42d593a388086918620e0",
  "abi": [
    {
      "anonymous": false,
      "inputs": [
        {
          "indexed": true,
          "internalType": "address",
          "name": "previousOwner",
          "type": "address"
        },
        {
          "indexed": true,
          "internalType": "address",
          "name": "newOwner",
          "type": "address"
        }
      ],
      "name": "OwnershipTransferred",
      "type": "event"
    },
    {
      "anonymous": false,
      "inputs": [
        {
          "indexed": true,
          "internalType": "address",
          "name": "newSeed",
          "type": "address"
        },
        {
          "indexed": true,
          "internalType": "address",
          "name": "admin",
          "type": "address"
        }
      ],
      "name": "SeedCreated",
      "type": "event"
    },
    {
      "inputs": [
        {
          "internalType": "address",
          "name": "_beneficiary",
          "type": "address"
        },
        {
          "internalType": "address",
          "name": "_admin",
          "type": "address"
        },
        {
          "internalType": "address[]",
          "name": "_tokens",
          "type": "address[]"
        },
        {
          "internalType": "uint256[]",
          "name": "_softAndHardCap",
          "type": "uint256[]"
        },
        {
          "internalType": "uint256",
          "name": "_price",
          "type": "uint256"
        },
        {
          "internalType": "uint256[]",
          "name": "_startTimeAndEndTime",
          "type": "uint256[]"
        },
        {
          "internalType": "uint256[]",
          "name": "_defaultClassParameters",
          "type": "uint256[]"
        },
        {
          "internalType": "bool",
          "name": "_permissionedSeed",
          "type": "bool"
        },
        {
          "internalType": "address[]",
          "name": "_whitelist",
          "type": "address[]"
        },
        {
          "internalType": "uint256[]",
          "name": "_tipping",
          "type": "uint256[]"
        },
        {
          "internalType": "bytes",
          "name": "_metadata",
          "type": "bytes"
        }
      ],
      "name": "deploySeed",
      "outputs": [
        {
          "internalType": "address",
          "name": "",
          "type": "address"
        }
      ],
      "stateMutability": "nonpayable",
      "type": "function"
    },
    {
      "inputs": [],
      "name": "masterCopy",
      "outputs": [
        {
          "internalType": "contract Seed",
          "name": "",
          "type": "address"
        }
      ],
      "stateMutability": "view",
      "type": "function"
    },
    {
      "inputs": [],
      "name": "owner",
      "outputs": [
        {
          "internalType": "address",
          "name": "",
          "type": "address"
        }
      ],
      "stateMutability": "view",
      "type": "function"
    },
    {
      "inputs": [],
      "name": "renounceOwnership",
      "outputs": [],
      "stateMutability": "nonpayable",
      "type": "function"
    },
    {
      "inputs": [
        {
          "internalType": "contract Seed",
          "name": "_masterCopy",
          "type": "address"
        }
      ],
      "name": "setMasterCopy",
      "outputs": [],
      "stateMutability": "nonpayable",
      "type": "function"
    },
    {
      "inputs": [
        {
          "internalType": "address",
          "name": "newOwner",
          "type": "address"
        }
      ],
      "name": "transferOwnership",
      "outputs": [],
      "stateMutability": "nonpayable",
      "type": "function"
    }
  ],
  "transactionHash": "0x2508f50d1b6509b9acbf8496ad0924f3bbc23971c5b04d95a0e7b775966cfca7",
  "args": [],
  "solcInputHash": "2a4d240f8087539ede6a0f04fbb1fba3",
  "bytecode": "0x608060405234801561001057600080fd5b5061001a3361001f565b61006f565b600080546001600160a01b038381166001600160a01b0319831681178455604051919092169283917f8be0079c531659141344cd1fd0a4f28419497f9722a3daafe3b4186f6b6457e09190a35050565b610a448061007e6000396000f3fe608060405234801561001057600080fd5b50600436106100625760003560e01c8063086c048f14610067578063715018a6146100965780638da5cb5b146100a0578063a619486e146100b1578063cf497e6c146100c4578063f2fde38b146100d7575b600080fd5b61007a6100753660046106d5565b6100ea565b6040516001600160a01b03909116815260200160405180910390f35b61009e6102c6565b005b6000546001600160a01b031661007a565b60015461007a906001600160a01b031681565b61009e6100d236600461083a565b6102fc565b61009e6100e536600461083a565b6103b9565b600080546001600160a01b0316331461011e5760405162461bcd60e51b81526004016101159061085e565b60405180910390fd5b6001546001600160a01b031661018d5760405162461bcd60e51b815260206004820152602e60248201527f53656564466163746f72793a206d6173746572636f70792063616e6e6f74206260448201526d65207a65726f206164647265737360901b6064820152608401610115565b6001546000906101a5906001600160a01b0316610454565b60405163fc582d4160e01b81529091506001600160a01b0382169063fc582d41906101d4908690600401610893565b600060405180830381600087803b1580156101ee57600080fd5b505af1158015610202573d6000803e3d6000fd5b50505050806001600160a01b031663ec11d7268e8e8e8e8e8e8e8e8e8e6040518b63ffffffff1660e01b81526004016102449a9998979695949392919061095c565b600060405180830381600087803b15801561025e57600080fd5b505af1158015610272573d6000803e3d6000fd5b505050508b6001600160a01b0316816001600160a01b03167f23fea745ec0ebbc17cc138cc8d1baca7bde3ce83b1fd6d5e1de583961586363960405160405180910390a39c9b505050505050505050505050565b6000546001600160a01b031633146102f05760405162461bcd60e51b81526004016101159061085e565b6102fa60006104a6565b565b6000546001600160a01b031633146103265760405162461bcd60e51b81526004016101159061085e565b6001600160a01b0381166103975760405162461bcd60e51b815260206004820152603260248201527f53656564466163746f72793a206e6577206d6173746572636f70792063616e6e6044820152716f74206265207a65726f206164647265737360701b6064820152608401610115565b600180546001600160a01b0319166001600160a01b0392909216919091179055565b6000546001600160a01b031633146103e35760405162461bcd60e51b81526004016101159061085e565b6001600160a01b0381166104485760405162461bcd60e51b815260206004820152602660248201527f4f776e61626c653a206e6577206f776e657220697320746865207a65726f206160448201526564647265737360d01b6064820152608401610115565b610451816104a6565b50565b6000808260601b9050604051733d602d80600a3d3981f3363d3d373d3d3d363d7360601b81528160148201526e5af43d82803e903d91602b57fd5bf360881b60288201526037816000f0949350505050565b600080546001600160a01b038381166001600160a01b0319831681178455604051919092169283917f8be0079c531659141344cd1fd0a4f28419497f9722a3daafe3b4186f6b6457e09190a35050565b6001600160a01b038116811461045157600080fd5b8035610516816104f6565b919050565b634e487b7160e01b600052604160045260246000fd5b604051601f8201601f1916810167ffffffffffffffff8111828210171561055a5761055a61051b565b604052919050565b600067ffffffffffffffff82111561057c5761057c61051b565b5060051b60200190565b600082601f83011261059757600080fd5b813560206105ac6105a783610562565b610531565b82815260059290921b840181019181810190868411156105cb57600080fd5b8286015b848110156105ef5780356105e2816104f6565b83529183019183016105cf565b509695505050505050565b600082601f83011261060b57600080fd5b8135602061061b6105a783610562565b82815260059290921b8401810191818101908684111561063a57600080fd5b8286015b848110156105ef578035835291830191830161063e565b8035801515811461051657600080fd5b600082601f83011261067657600080fd5b813567ffffffffffffffff8111156106905761069061051b565b6106a3601f8201601f1916602001610531565b8181528460208386010111156106b857600080fd5b816020850160208301376000918101602001919091529392505050565b60008060008060008060008060008060006101608c8e0312156106f757600080fd5b6107008c61050b565b9a5061070e60208d0161050b565b995067ffffffffffffffff8060408e0135111561072a57600080fd5b61073a8e60408f01358f01610586565b99508060608e0135111561074d57600080fd5b61075d8e60608f01358f016105fa565b985060808d013597508060a08e0135111561077757600080fd5b6107878e60a08f01358f016105fa565b96508060c08e0135111561079a57600080fd5b6107aa8e60c08f01358f016105fa565b95506107b860e08e01610655565b9450806101008e013511156107cc57600080fd5b6107dd8e6101008f01358f01610586565b9350806101208e013511156107f157600080fd5b6108028e6101208f01358f016105fa565b9250806101408e0135111561081657600080fd5b506108288d6101408e01358e01610665565b90509295989b509295989b9093969950565b60006020828403121561084c57600080fd5b8135610857816104f6565b9392505050565b6020808252818101527f4f776e61626c653a2063616c6c6572206973206e6f7420746865206f776e6572604082015260600190565b600060208083528351808285015260005b818110156108c0578581018301518582016040015282016108a4565b818111156108d2576000604083870101525b50601f01601f1916929092016040019392505050565b600081518084526020808501945080840160005b838110156109215781516001600160a01b0316875295820195908201906001016108fc565b509495945050505050565b600081518084526020808501945080840160005b8381101561092157815187529582019590820190600101610940565b6001600160a01b038b811682528a166020820152610140604082018190526000906109898382018c6108e8565b9050828103606084015261099d818b61092c565b905088608084015282810360a08401526109b7818961092c565b905082810360c08401526109cb818861092c565b905085151560e08401528281036101008401526109e881866108e8565b90508281036101208401526109fd818561092c565b9d9c5050505050505050505050505056fea2646970667358221220c67b752f420cc4c018af83f0f031a7d5d8efee1e29608c8eb7b3eaaf1f988aec64736f6c63430008090033",
  "devdoc": {
    "details": "Enable PrimeDAO governance to create new Seed contracts.",
    "kind": "dev",
    "methods": {
      "deploySeed(address,address,address[],uint256[],uint256,uint256[],uint256[],bool,address[],uint256[],bytes)": {
        "details": "Deploys Seed contract.",
        "params": {
          "_admin": "The address of the admin of this contract. Funds contract and has permissions to whitelist users, pause and close contract.",
          "_beneficiary": "The address that recieves fees.",
          "_defaultClassParameters": "Array containing three params: - Individual buying cap for de default class, expressed in precision 10*18 - Cliff duration, denominated in seconds. Vesting period duration, denominated in seconds - Vesting period duration, denominated in seconds.",
          "_metadata": "Seed contract metadata, that is IPFS URI",
          "_permissionedSeed": "Set to true if only whitelisted adresses are allowed to participate.",
          "_price": "price of a SeedToken, expressed in fundingTokens, with precision of 10**18",
          "_softAndHardCap": "Array containing two params: - The minimum funding token collection threshold in wei denomination. - The highest possible funding token amount to be raised in wei denomination.",
          "_startTimeAndEndTime": "Array containing two params: - Distribution start time in unix timecode. - Distribution end time in unix timecode.",
          "_tipping": "Array of containing three parameters: - Total amount of tipping percentage, calculated from the total amount of Seed tokens added to the contract, expressed as a % (e.g. 10**18 = 100% fee, 10**16 = 1%) - Tipping vesting period duration denominated in seconds.\t\t\t\t\t\t\t\t\t\t\t\t\t\t\t\t\t\t\t\t\t\t\t\t - Tipping cliff duration denominated in seconds.\t",
          "_tokens": "Array containing two params: - The address of the seed token being distributed.                                         - The address of the funding token being exchanged for seed token.",
          "_whitelist": "Array of addresses to be whitelisted for the default class, at creation time"
        }
      },
      "owner()": {
        "details": "Returns the address of the current owner."
      },
      "renounceOwnership()": {
        "details": "Leaves the contract without owner. It will not be possible to call `onlyOwner` functions anymore. Can only be called by the current owner. NOTE: Renouncing ownership will leave the contract without an owner, thereby removing any functionality that is only available to the owner."
      },
      "setMasterCopy(address)": {
        "details": "Set Seed contract which works as a base for clones.",
        "params": {
          "_masterCopy": "The address of the new Seed basis."
        }
      },
      "transferOwnership(address)": {
        "details": "Transfers ownership of the contract to a new account (`newOwner`). Can only be called by the current owner."
      }
    },
    "title": "PrimeDAO Seed Factory",
    "version": 1
  },
  "userdoc": {
    "kind": "user",
    "methods": {},
    "version": 1
  },
  "storageLayout": {
    "storage": [
      {
        "astId": 11278,
        "contract": "contracts/seed/SeedFactory.sol:SeedFactory",
        "label": "_owner",
        "offset": 0,
        "slot": "0",
        "type": "t_address"
      },
      {
        "astId": 2594,
        "contract": "contracts/seed/SeedFactory.sol:SeedFactory",
        "label": "masterCopy",
        "offset": 0,
        "slot": "1",
        "type": "t_contract(Seed)2580"
      }
    ],
    "types": {
      "t_address": {
        "encoding": "inplace",
        "label": "address",
        "numberOfBytes": "20"
      },
      "t_contract(Seed)2580": {
        "encoding": "inplace",
        "label": "contract Seed",
        "numberOfBytes": "20"
      }
    }
  }
}