{
  "address": "0x9154C43AD7B1065b726fc8E3ec5352a3a149b751",
  "abi": [
    {
      "anonymous": false,
      "inputs": [
        {
          "indexed": true,
          "internalType": "address",
          "name": "recipient",
          "type": "address"
        },
        {
          "indexed": false,
          "internalType": "uint256",
          "name": "amountReclaimed",
          "type": "uint256"
        }
      ],
      "name": "FundingReclaimed",
      "type": "event"
    },
    {
      "anonymous": false,
      "inputs": [
        {
          "indexed": true,
          "internalType": "bytes",
          "name": "metadata",
          "type": "bytes"
        }
      ],
      "name": "MetadataUpdated",
      "type": "event"
    },
    {
      "anonymous": false,
      "inputs": [
        {
          "indexed": true,
          "internalType": "address",
          "name": "recipient",
          "type": "address"
        },
        {
          "indexed": false,
          "internalType": "uint256",
          "name": "amountPurchased",
          "type": "uint256"
        }
      ],
      "name": "SeedsPurchased",
      "type": "event"
    },
    {
      "anonymous": false,
      "inputs": [
        {
          "indexed": true,
          "internalType": "address",
          "name": "recipient",
          "type": "address"
        },
        {
          "indexed": false,
          "internalType": "uint256",
          "name": "amount",
          "type": "uint256"
        }
      ],
      "name": "TokensClaimed",
      "type": "event"
    },
    {
      "inputs": [
        {
          "internalType": "bytes32",
          "name": "_className",
          "type": "bytes32"
        },
        {
          "internalType": "uint256",
          "name": "_classCap",
          "type": "uint256"
        },
        {
          "internalType": "uint256",
          "name": "_individualCap",
          "type": "uint256"
        },
        {
          "internalType": "uint256",
          "name": "_vestingCliff",
          "type": "uint256"
        },
        {
          "internalType": "uint256",
          "name": "_vestingDuration",
          "type": "uint256"
        }
      ],
      "name": "addClass",
      "outputs": [],
      "stateMutability": "nonpayable",
      "type": "function"
    },
    {
      "inputs": [
        {
          "internalType": "bytes32[]",
          "name": "_classNames",
          "type": "bytes32[]"
        },
        {
          "internalType": "uint256[]",
          "name": "_classCaps",
          "type": "uint256[]"
        },
        {
          "internalType": "uint256[]",
          "name": "_individualCaps",
          "type": "uint256[]"
        },
        {
          "internalType": "uint256[]",
          "name": "_vestingCliffs",
          "type": "uint256[]"
        },
        {
          "internalType": "uint256[]",
          "name": "_vestingDurations",
          "type": "uint256[]"
        }
      ],
      "name": "addClassBatch",
      "outputs": [],
      "stateMutability": "nonpayable",
      "type": "function"
    },
    {
      "inputs": [],
      "name": "admin",
      "outputs": [
        {
          "internalType": "address",
          "name": "",
          "type": "address"
        }
      ],
      "stateMutability": "view",
      "type": "function"
    },
    {
      "inputs": [],
      "name": "beneficiary",
      "outputs": [
        {
          "internalType": "address",
          "name": "",
          "type": "address"
        }
      ],
      "stateMutability": "view",
      "type": "function"
    },
    {
      "inputs": [
        {
          "internalType": "uint256",
          "name": "_fundingAmount",
          "type": "uint256"
        }
      ],
      "name": "buy",
      "outputs": [
        {
          "internalType": "uint256",
          "name": "",
          "type": "uint256"
        }
      ],
      "stateMutability": "nonpayable",
      "type": "function"
    },
    {
      "inputs": [
        {
          "internalType": "address",
          "name": "_funder",
          "type": "address"
        }
      ],
      "name": "calculateClaim",
      "outputs": [
        {
          "internalType": "uint256",
          "name": "",
          "type": "uint256"
        }
      ],
      "stateMutability": "view",
      "type": "function"
    },
    {
      "inputs": [
        {
          "internalType": "uint8",
          "name": "_class",
          "type": "uint8"
        },
        {
          "internalType": "bytes32",
          "name": "_className",
          "type": "bytes32"
        },
        {
          "internalType": "uint256",
          "name": "_classCap",
          "type": "uint256"
        },
        {
          "internalType": "uint256",
          "name": "_individualCap",
          "type": "uint256"
        },
        {
          "internalType": "uint256",
          "name": "_vestingCliff",
          "type": "uint256"
        },
        {
          "internalType": "uint256",
          "name": "_vestingDuration",
          "type": "uint256"
        }
      ],
      "name": "changeClass",
      "outputs": [],
      "stateMutability": "nonpayable",
      "type": "function"
    },
    {
      "inputs": [
        {
          "internalType": "address",
          "name": "_funder",
          "type": "address"
        },
        {
          "internalType": "uint256",
          "name": "_claimAmount",
          "type": "uint256"
        }
      ],
      "name": "claim",
      "outputs": [],
      "stateMutability": "nonpayable",
      "type": "function"
    },
    {
      "inputs": [
        {
          "internalType": "uint256",
          "name": "",
          "type": "uint256"
        }
      ],
      "name": "classes",
      "outputs": [
        {
          "internalType": "bytes32",
          "name": "className",
          "type": "bytes32"
        },
        {
          "internalType": "uint256",
          "name": "classCap",
          "type": "uint256"
        },
        {
          "internalType": "uint256",
          "name": "individualCap",
          "type": "uint256"
        },
        {
          "internalType": "uint256",
          "name": "vestingCliff",
          "type": "uint256"
        },
        {
          "internalType": "uint256",
          "name": "vestingDuration",
          "type": "uint256"
        },
        {
          "internalType": "uint256",
          "name": "classFundingCollected",
          "type": "uint256"
        }
      ],
      "stateMutability": "view",
      "type": "function"
    },
    {
      "inputs": [],
      "name": "close",
      "outputs": [],
      "stateMutability": "nonpayable",
      "type": "function"
    },
    {
      "inputs": [],
      "name": "closed",
      "outputs": [
        {
          "internalType": "bool",
          "name": "",
          "type": "bool"
        }
      ],
      "stateMutability": "view",
      "type": "function"
    },
    {
      "inputs": [],
      "name": "endTime",
      "outputs": [
        {
          "internalType": "uint256",
          "name": "",
          "type": "uint256"
        }
      ],
      "stateMutability": "view",
      "type": "function"
    },
    {
      "inputs": [],
      "name": "feeClaimed",
      "outputs": [
        {
          "internalType": "uint256",
          "name": "",
          "type": "uint256"
        }
      ],
      "stateMutability": "view",
      "type": "function"
    },
    {
      "inputs": [],
      "name": "feeRemainder",
      "outputs": [
        {
          "internalType": "uint256",
          "name": "",
          "type": "uint256"
        }
      ],
      "stateMutability": "view",
      "type": "function"
    },
    {
      "inputs": [
        {
          "internalType": "address",
          "name": "",
          "type": "address"
        }
      ],
      "name": "funders",
      "outputs": [
        {
          "internalType": "uint8",
          "name": "class",
          "type": "uint8"
        },
        {
          "internalType": "uint256",
          "name": "totalClaimed",
          "type": "uint256"
        },
        {
          "internalType": "uint256",
          "name": "fundingAmount",
          "type": "uint256"
        }
      ],
      "stateMutability": "view",
      "type": "function"
    },
    {
      "inputs": [],
      "name": "fundingCollected",
      "outputs": [
        {
          "internalType": "uint256",
          "name": "",
          "type": "uint256"
        }
      ],
      "stateMutability": "view",
      "type": "function"
    },
    {
      "inputs": [],
      "name": "fundingToken",
      "outputs": [
        {
          "internalType": "contract IERC20",
          "name": "",
          "type": "address"
        }
      ],
      "stateMutability": "view",
      "type": "function"
    },
    {
      "inputs": [],
      "name": "fundingWithdrawn",
      "outputs": [
        {
          "internalType": "uint256",
          "name": "",
          "type": "uint256"
        }
      ],
      "stateMutability": "view",
      "type": "function"
    },
    {
      "inputs": [],
      "name": "getAllClasses",
      "outputs": [],
      "stateMutability": "nonpayable",
      "type": "function"
    },
    {
      "inputs": [],
      "name": "hardCap",
      "outputs": [
        {
          "internalType": "uint256",
          "name": "",
          "type": "uint256"
        }
      ],
      "stateMutability": "view",
      "type": "function"
    },
    {
      "inputs": [
        {
          "internalType": "address",
          "name": "_beneficiary",
          "type": "address"
        },
        {
          "internalType": "address",
          "name": "_admin",
          "type": "address"
        },
        {
          "internalType": "address[]",
          "name": "_tokens",
          "type": "address[]"
        },
        {
          "internalType": "uint256[]",
          "name": "_softHardThresholds",
          "type": "uint256[]"
        },
        {
          "internalType": "uint256",
          "name": "_price",
          "type": "uint256"
        },
        {
          "internalType": "uint256[]",
          "name": "_startTimeAndEndTime",
          "type": "uint256[]"
        },
        {
          "internalType": "uint32[]",
          "name": "_defaultClassParameters",
          "type": "uint32[]"
        },
        {
          "internalType": "bool",
          "name": "_permissionedSeed",
          "type": "bool"
        },
        {
          "internalType": "address[]",
          "name": "_whitelistAddresses",
          "type": "address[]"
        },
        {
          "internalType": "uint256[]",
          "name": "_tipping",
          "type": "uint256[]"
        }
      ],
      "name": "initialize",
      "outputs": [],
      "stateMutability": "nonpayable",
      "type": "function"
    },
    {
      "inputs": [],
      "name": "initialized",
      "outputs": [
        {
          "internalType": "bool",
          "name": "",
          "type": "bool"
        }
      ],
      "stateMutability": "view",
      "type": "function"
    },
    {
      "inputs": [],
      "name": "isFunded",
      "outputs": [
        {
          "internalType": "bool",
          "name": "",
          "type": "bool"
        }
      ],
      "stateMutability": "view",
      "type": "function"
    },
    {
      "inputs": [],
      "name": "maximumReached",
      "outputs": [
        {
          "internalType": "bool",
          "name": "",
          "type": "bool"
        }
      ],
      "stateMutability": "view",
      "type": "function"
    },
    {
      "inputs": [],
      "name": "metadata",
      "outputs": [
        {
          "internalType": "bytes",
          "name": "",
          "type": "bytes"
        }
      ],
      "stateMutability": "view",
      "type": "function"
    },
    {
      "inputs": [],
      "name": "minimumReached",
      "outputs": [
        {
          "internalType": "bool",
          "name": "",
          "type": "bool"
        }
      ],
      "stateMutability": "view",
      "type": "function"
    },
    {
      "inputs": [],
      "name": "pause",
      "outputs": [],
      "stateMutability": "nonpayable",
      "type": "function"
    },
    {
      "inputs": [],
      "name": "paused",
      "outputs": [
        {
          "internalType": "bool",
          "name": "",
          "type": "bool"
        }
      ],
      "stateMutability": "view",
      "type": "function"
    },
    {
      "inputs": [],
      "name": "permissionedSeed",
      "outputs": [
        {
          "internalType": "bool",
          "name": "",
          "type": "bool"
        }
      ],
      "stateMutability": "view",
      "type": "function"
    },
    {
      "inputs": [],
      "name": "retrieveFundingTokens",
      "outputs": [
        {
          "internalType": "uint256",
          "name": "",
          "type": "uint256"
        }
      ],
      "stateMutability": "nonpayable",
      "type": "function"
    },
    {
      "inputs": [
        {
          "internalType": "address",
          "name": "_refundReceiver",
          "type": "address"
        }
      ],
      "name": "retrieveSeedTokens",
      "outputs": [],
      "stateMutability": "nonpayable",
      "type": "function"
    },
    {
      "inputs": [
        {
          "internalType": "address",
          "name": "_funder",
          "type": "address"
        }
      ],
      "name": "seedAmountForFunder",
      "outputs": [
        {
          "internalType": "uint256",
          "name": "",
          "type": "uint256"
        }
      ],
      "stateMutability": "view",
      "type": "function"
    },
    {
      "inputs": [],
      "name": "seedAmountRequired",
      "outputs": [
        {
          "internalType": "uint256",
          "name": "",
          "type": "uint256"
        }
      ],
      "stateMutability": "view",
      "type": "function"
    },
    {
      "inputs": [],
      "name": "seedClaimed",
      "outputs": [
        {
          "internalType": "uint256",
          "name": "",
          "type": "uint256"
        }
      ],
      "stateMutability": "view",
      "type": "function"
    },
    {
      "inputs": [],
      "name": "seedRemainder",
      "outputs": [
        {
          "internalType": "uint256",
          "name": "",
          "type": "uint256"
        }
      ],
      "stateMutability": "view",
      "type": "function"
    },
    {
      "inputs": [],
      "name": "seedToken",
      "outputs": [
        {
          "internalType": "contract IERC20",
          "name": "",
          "type": "address"
        }
      ],
      "stateMutability": "view",
      "type": "function"
    },
    {
      "inputs": [
        {
          "internalType": "address",
          "name": "_address",
          "type": "address"
        },
        {
          "internalType": "uint8",
          "name": "_class",
          "type": "uint8"
        }
      ],
      "name": "setClass",
      "outputs": [],
      "stateMutability": "nonpayable",
      "type": "function"
    },
    {
      "inputs": [
        {
          "internalType": "address[]",
          "name": "_addresses",
          "type": "address[]"
        },
        {
          "internalType": "uint8[]",
          "name": "_classes",
          "type": "uint8[]"
        }
      ],
      "name": "setClassBatch",
      "outputs": [],
      "stateMutability": "nonpayable",
      "type": "function"
    },
    {
      "inputs": [],
      "name": "softCap",
      "outputs": [
        {
          "internalType": "uint256",
          "name": "",
          "type": "uint256"
        }
      ],
      "stateMutability": "view",
      "type": "function"
    },
    {
      "inputs": [],
      "name": "startTime",
      "outputs": [
        {
          "internalType": "uint256",
          "name": "",
          "type": "uint256"
        }
      ],
      "stateMutability": "view",
      "type": "function"
    },
    {
      "inputs": [],
      "name": "tippingAmount",
      "outputs": [
        {
          "internalType": "uint256",
          "name": "",
          "type": "uint256"
        }
      ],
      "stateMutability": "view",
      "type": "function"
    },
    {
      "inputs": [],
      "name": "totalFunderCount",
      "outputs": [
        {
          "internalType": "uint256",
          "name": "",
          "type": "uint256"
        }
      ],
      "stateMutability": "view",
      "type": "function"
    },
    {
      "inputs": [],
      "name": "unpause",
      "outputs": [],
      "stateMutability": "nonpayable",
      "type": "function"
    },
    {
      "inputs": [
        {
          "internalType": "address",
          "name": "buyer",
          "type": "address"
        }
      ],
      "name": "unwhitelist",
      "outputs": [],
      "stateMutability": "nonpayable",
      "type": "function"
    },
    {
      "inputs": [
        {
          "internalType": "bytes",
          "name": "_metadata",
          "type": "bytes"
        }
      ],
      "name": "updateMetadata",
      "outputs": [],
      "stateMutability": "nonpayable",
      "type": "function"
    },
    {
      "inputs": [],
      "name": "vestingStartTime",
      "outputs": [
        {
          "internalType": "uint256",
          "name": "",
          "type": "uint256"
        }
      ],
      "stateMutability": "view",
      "type": "function"
    },
    {
      "inputs": [
        {
          "internalType": "address",
          "name": "_buyer",
          "type": "address"
        },
        {
          "internalType": "uint8",
          "name": "_class",
          "type": "uint8"
        }
      ],
      "name": "whitelist",
      "outputs": [],
      "stateMutability": "nonpayable",
      "type": "function"
    },
    {
      "inputs": [
        {
          "internalType": "address[]",
          "name": "_buyers",
          "type": "address[]"
        },
        {
          "internalType": "uint8[]",
          "name": "_classes",
          "type": "uint8[]"
        }
      ],
      "name": "whitelistBatch",
      "outputs": [],
      "stateMutability": "nonpayable",
      "type": "function"
    },
    {
      "inputs": [
        {
          "internalType": "address",
          "name": "",
          "type": "address"
        }
      ],
      "name": "whitelisted",
      "outputs": [
        {
          "internalType": "bool",
          "name": "",
          "type": "bool"
        }
      ],
      "stateMutability": "view",
      "type": "function"
    },
    {
      "inputs": [],
      "name": "withdraw",
      "outputs": [],
      "stateMutability": "nonpayable",
      "type": "function"
    }
  ],
  "transactionHash": "0xd7e08c8044bb3139d903c078ce34e0be300cf8ee92092ddde3cfbcac8e808ae8",
  "args": [],
  "solcInputHash": "2580ee0ee09ab37637b4f20277854cfb",
  "bytecode": "0x608060405234801561001057600080fd5b5061399c806100206000396000f3fe608060405234801561001057600080fd5b50600436106102d65760003560e01c80637bc9740311610182578063b774682f116100e9578063e565eb4c116100a2578063f851a4401161007c578063f851a44014610630578063fb86a40414610643578063fc582d411461064c578063fd3cfafd1461065f57600080fd5b8063e565eb4c146105f5578063e7b88e0f1461060a578063ea3455401461061d57600080fd5b8063b774682f14610587578063bc0f5f8414610590578063c210b92d14610599578063d936547e146105ac578063d96a094a146105cf578063dc4b9e38146105e257600080fd5b80638a2448aa1161013b5780638a2448aa14610534578063906a26e01461053c578063913f962c146105455780639a59042714610558578063a8660a781461056b578063aad3ec961461057457600080fd5b80637bc97403146104aa5780637c654303146104bd578063817dbe9f146104d057806383b773011461051057806383d59e00146105235780638456cb591461052c57600080fd5b80633dba9e41116102415780635e9777e8116101fa57806371f4b8e8116101d457806371f4b8e81461047c57806376f210c91461048557806378065f271461048e57806378e97925146104a157600080fd5b80635e9777e8146104605780636bda75dd146103455780636dae16ee1461046957600080fd5b80633dba9e411461041b5780633f4ba83a1461042857806343d726d61461043057806347d02f1b14610438578063597e1fb5146104415780635c975abb1461044e57600080fd5b80632aef2259116102935780632aef22591461039f578063311f8483146103b25780633197cbb6146103e257806338af3eed146103eb578063392f37e9146103fe5780633ccfd60b1461041357600080fd5b8063031b3677146102db57806303aabe31146103325780630826d2c714610347578063117a36d11461035e578063158ef93e146103825780631cfe562e14610396575b600080fd5b61030e6102e9366004612fa0565b60186020526000908152604090208054600182015460029092015460ff909116919083565b6040805160ff90941684526020840192909252908201526060015b60405180910390f35b610345610340366004612fa0565b610672565b005b610350600e5481565b604051908152602001610329565b600c5461037290600160281b900460ff1681565b6040519015158152602001610329565b600c54610372906301000000900460ff1681565b61035060115481565b6103456103ad366004612fcc565b6109c1565b6009546103ca9061010090046001600160a01b031681565b6040516001600160a01b039091168152602001610329565b61035060075481565b6000546103ca906001600160a01b031681565b610406610a67565b6040516103299190613057565b610345610af5565b6009546103729060ff1681565b610345610c76565b610345610d2b565b610350600f5481565b600c546103729060ff1681565b600c5461037290610100900460ff1681565b610350600d5481565b610345610477366004613140565b610d88565b61035060135481565b61035060055481565b600a546103ca906001600160a01b031681565b61035060065481565b6103456104b8366004613274565b610f99565b600c546103729062010000900460ff1681565b6104e36104de366004613336565b61106e565b604080519687526020870195909552938501929092526060840152608083015260a082015260c001610329565b61034561051e3660046133d6565b6110b4565b61035060125481565b610345611654565b61035061170a565b61035060025481565b610345610553366004612fcc565b61190b565b610345610566366004612fa0565b6119ca565b61035060085481565b61034561058236600461350a565b611a5f565b61035060105481565b61035060045481565b6103456105a7366004613534565b611d26565b6103726105ba366004612fa0565b60176020526000908152604090205460ff1681565b6103506105dd366004613336565b611d64565b6103506105f0366004612fa0565b6123df565b600c5461037290640100000000900460ff1681565b610345610618366004613274565b612424565b61035061062b366004612fa0565b612531565b6001546103ca906001600160a01b031681565b61035060035481565b61034561065a36600461356f565b612692565b61034561066d366004613604565b61278c565b6001546001600160a01b031633146106a55760405162461bcd60e51b815260040161069c9061364e565b60405180910390fd5b600c5460ff16806106bf5750600c54600160281b900460ff165b806106cc57506007544210155b61076f5760405162461bcd60e51b815260206004820152606260248201527f536565643a20546865206162696c69747920746f20627579207365656420746f60448201527f6b656e73206d757374206861766520656e646564206265666f72652072656d6160648201527f696e696e67207365656420746f6b656e732063616e20626520776974686472616084820152613bb760f11b60a482015260c40161069c565b600c54640100000000900460ff166108fb576009546040516370a0823160e01b815230600482015260009161010090046001600160a01b0316906370a082319060240160206040518083038186803b1580156107ca57600080fd5b505afa1580156107de573d6000803e3d6000fd5b505050506040513d601f19601f820116820180604052508101906108029190613685565b1161085b5760405162461bcd60e51b815260206004820152602360248201527f536565643a204661696c656420746f207472616e73666572205365656420546f60448201526235b2b760e91b606482015260840161069c565b6009546040516370a0823160e01b81523060048201526108f89183916101009091046001600160a01b0316906370a082319060240160206040518083038186803b1580156108a857600080fd5b505afa1580156108bc573d6000803e3d6000fd5b505050506040513d601f19601f820116820180604052508101906108e09190613685565b60095461010090046001600160a01b031691906129ae565b50565b6000600e5460045461090d91906136b4565b6009546040516370a0823160e01b8152306004820152919250600091839161010090046001600160a01b0316906370a082319060240160206040518083038186803b15801561095b57600080fd5b505afa15801561096f573d6000803e3d6000fd5b505050506040513d601f19601f820116820180604052508101906109939190613685565b61099d91906136b4565b6009549091506109bc9061010090046001600160a01b031684836129ae565b505050565b6001546001600160a01b031633146109eb5760405162461bcd60e51b815260040161069c9061364e565b60165460ff821610610a0f5760405162461bcd60e51b815260040161069c906136cb565b600c5460ff1615610a325760405162461bcd60e51b815260040161069c90613702565b60095460ff161515600114610a595760405162461bcd60e51b815260040161069c90613739565b610a638282612a11565b5050565b600b8054610a7490613770565b80601f0160208091040260200160405190810160405280929190818152602001828054610aa090613770565b8015610aed5780601f10610ac257610100808354040283529160200191610aed565b820191906000526020600020905b815481529060010190602001808311610ad057829003601f168201915b505050505081565b6001546001600160a01b03163314610b1f5760405162461bcd60e51b815260040161069c9061364e565b600c54600160281b900460ff1680610b4e5750600c54640100000000900460ff168015610b4e57506007544210155b610bda5760405162461bcd60e51b815260206004820152605160248201527f536565643a2063616e6e6f74207769746864726177207768696c652066756e6460448201527f696e6720746f6b656e732063616e207374696c6c2062652077697468647261776064820152706e20627920636f6e7472696275746f727360781b608482015260a40161069c565b601154601255600a546040516370a0823160e01b8152306004820152610c749133916001600160a01b03909116906370a082319060240160206040518083038186803b158015610c2957600080fd5b505afa158015610c3d573d6000803e3d6000fd5b505050506040513d601f19601f82011682018060405250810190610c619190613685565b600a546001600160a01b031691906129ae565b565b6001546001600160a01b03163314610ca05760405162461bcd60e51b815260040161069c9061364e565b600c5460ff16151560011415610cc85760405162461bcd60e51b815260040161069c90613702565b600c5460ff610100909104161515600114610d1e5760405162461bcd60e51b815260206004820152601660248201527514d959590e881cda1bdd5b19081899481c185d5cd95960521b604482015260640161069c565b600c805461ff0019169055565b6001546001600160a01b03163314610d555760405162461bcd60e51b815260040161069c9061364e565b600c5460ff1615610d785760405162461bcd60e51b815260040161069c90613702565b600c805461ffff19166001179055565b6001546001600160a01b03163314610db25760405162461bcd60e51b815260040161069c9061364e565b84516064811115610e1e5760405162461bcd60e51b815260206004820152603060248201527f536565643a2043616e2774206164642062617463682077697468206d6f72652060448201526f7468656e2031303020636c617373657360801b606482015260840161069c565b60165461010090610e309083906137ab565b10610e4d5760405162461bcd60e51b815260040161069c906137c3565b845181148015610e5d5750835181145b8015610e695750825181145b8015610e755750815181145b610ed75760405162461bcd60e51b815260206004820152602d60248201527f536565643a20416c6c2070726f7669646564206172726179732073686f756c6460448201526c2062652073616d652073697a6560981b606482015260840161069c565b60005b818160ff161015610f9057610f7e878260ff1681518110610efd57610efd613808565b6020026020010151878360ff1681518110610f1a57610f1a613808565b6020026020010151878460ff1681518110610f3757610f37613808565b6020026020010151878560ff1681518110610f5457610f54613808565b6020026020010151878660ff1681518110610f7157610f71613808565b6020026020010151612a56565b80610f888161381e565b915050610eda565b50505050505050565b6001546001600160a01b03163314610fc35760405162461bcd60e51b815260040161069c9061364e565b81518151146110145760405162461bcd60e51b815260206004820152601b60248201527f536565643a20696e636f72726563742064617461207061737365640000000000604482015260640161069c565b60005b82518110156109bc5761105c83828151811061103557611035613808565b602002602001015183838151811061104f5761104f613808565b602002602001015161190b565b806110668161383e565b915050611017565b6016818154811061107e57600080fd5b60009182526020909120600690910201805460018201546002830154600384015460048501546005909501549395509193909286565b600c546301000000900460ff16156111195760405162461bcd60e51b815260206004820152602260248201527f536565643a20636f6e747261637420616c726561647920696e697469616c697a604482015261195960f21b606482015260840161069c565b600c805463ff0000001916630100000017905587518890600190811061114157611141613808565b60200260200101516001600160a01b03168860008151811061116557611165613808565b60200260200101516001600160a01b031614156111da5760405162461bcd60e51b815260206004820152602d60248201527f53656564466163746f72793a2073656564546f6b656e2063616e6e6f7420626560448201526c10333ab73234b733aa37b5b2b760991b606482015260840161069c565b866000815181106111ed576111ed613808565b60200260200101518760018151811061120857611208613808565b602002602001015110156112775760405162461bcd60e51b815260206004820152603060248201527f53656564466163746f72793a20686172644361702063616e6e6f74206265206c60448201526f0657373207468616e20736f66744361760841b606482015260840161069c565b8460008151811061128a5761128a613808565b6020026020010151856001815181106112a5576112a5613808565b6020026020010151116113205760405162461bcd60e51b815260206004820152603b60248201527f53656564466163746f72793a20656e6454696d652063616e6e6f74206265206c60448201527f657373207468616e20657175616c20746f20737461727454696d650000000000606482015260840161069c565b67063eb89da4ed00008160008151811061133c5761133c613808565b602002602001015111156113a35760405162461bcd60e51b815260206004820152602860248201527f53656564466163746f72793a206665652063616e6e6f74206265206d6f7265206044820152677468616e2034352560c01b606482015260840161069c565b600080546001600160a01b03808d166001600160a01b031992831617835560018054918d169190921617905587518891906113e0576113e0613808565b60200260200101516002819055508660018151811061140157611401613808565b60200260200101516003819055508460008151811061142257611422613808565b60200260200101516006819055508460018151811061144357611443613808565b602090810291909101015160078190556008556009805460ff19168415151790558751889060009061147757611477613808565b6020026020010151600960016101000a8154816001600160a01b0302191690836001600160a01b03160217905550876001815181106114b8576114b8613808565b6020908102919091010151600a80546001600160a01b0319166001600160a01b0390921691909117905560148690556000601355600354869061150490670de0b6b3a764000090613859565b61150e9190613878565b600481905550670de0b6b3a76400008160008151811061153057611530613808565b60200260200101516004546115459190613859565b61154f9190613878565b6005819055506115c560006003548660008151811061157057611570613808565b602002602001015163ffffffff168760018151811061159157611591613808565b602002602001015163ffffffff16886002815181106115b2576115b2613808565b602002602001015163ffffffff16612a56565b60095460ff16151560011480156115dd575060008251115b156116265760005b82518110156116245761161283828151811061160357611603613808565b60200260200101516000612a11565b8061161c8161383e565b9150506115e5565b505b600454600e819055506005546004600082825461164391906137ab565b909155505050505050505050505050565b6001546001600160a01b0316331461167e5760405162461bcd60e51b815260040161069c9061364e565b600c5460ff16156116a15760405162461bcd60e51b815260040161069c90613702565b600c54610100900460ff16156116f95760405162461bcd60e51b815260206004820152601a60248201527f536565643a2073686f756c64206e6f7420626520706175736564000000000000604482015260640161069c565b600c805461ff001916610100179055565b60004260065411156117695760405162461bcd60e51b815260206004820152602260248201527f536565643a20646973747269627574696f6e20686176656e2774207374617274604482015261195960f21b606482015260840161069c565b600c54640100000000900460ff16156117c45760405162461bcd60e51b815260206004820181905260248201527f536565643a206d696e696d756d2066756e64696e6720616d6f756e74206d6574604482015260640161069c565b3360009081526018602052604090206002810154806118255760405162461bcd60e51b815260206004820152601960248201527f536565643a207a65726f2066756e64696e6720616d6f756e7400000000000000604482015260640161069c565b61182e336123df565b600e600082825461183f91906137ab565b9091555050600d80549060006118548361389a565b919050555060008260020181905550806011600082825461187591906136b4565b9091555050815460168054839260ff1690811061189457611894613808565b906000526020600020906006020160050160008282546118b491906136b4565b9091555050600a546118d0906001600160a01b031633836129ae565b60405181815233907f1a689b1a62e3bb77f9c98d8759c04f341a67deb5cc63cf53be8324b6910649509060200160405180910390a292915050565b6001546001600160a01b031633146119355760405162461bcd60e51b815260040161069c9061364e565b60165460ff8216106119595760405162461bcd60e51b815260040161069c906136cb565b600c5460ff161561197c5760405162461bcd60e51b815260040161069c90613702565b600654421061199d5760405162461bcd60e51b815260040161069c906138b1565b6001600160a01b03919091166000908152601860205260409020805460ff191660ff909216919091179055565b6001546001600160a01b031633146119f45760405162461bcd60e51b815260040161069c9061364e565b600c5460ff1615611a175760405162461bcd60e51b815260040161069c90613702565b60095460ff161515600114611a3e5760405162461bcd60e51b815260040161069c90613739565b6001600160a01b03166000908152601760205260409020805460ff19169055565b600c54640100000000900460ff16611ac55760405162461bcd60e51b8152602060048201526024808201527f536565643a206d696e696d756d2066756e64696e6720616d6f756e74206e6f74604482015263081b595d60e21b606482015260840161069c565b426007541080611ade5750600c54600160281b900460ff165b611b3e5760405162461bcd60e51b815260206004820152602b60248201527f536565643a2074686520646973747269627574696f6e20686173206e6f74207960448201526a195d08199a5b9a5cda195960aa1b606482015260840161069c565b4260085410611bb55760405162461bcd60e51b815260206004820152603a60248201527f536565643a2076657374696e672073746172742074696d6520666f722074686960448201527f7320636c617373206973206e6f74207374617274656420796574000000000000606482015260840161069c565b6000611bc083612531565b905060008111611c125760405162461bcd60e51b815260206004820152601b60248201527f536565643a20616d6f756e7420636c61696d61626c6520697320300000000000604482015260640161069c565b81811015611c795760405162461bcd60e51b815260206004820152602e60248201527f536565643a20726571756573742069732067726561746572207468616e20636c60448201526d185a5b58589b1948185b5bdd5b9d60921b606482015260840161069c565b6001600160a01b03831660009081526018602052604081206001018054849290611ca49084906137ab565b9250508190555081600f6000828254611cbd91906137ab565b9091555050600954611cde9061010090046001600160a01b031684846129ae565b826001600160a01b03167f896e034966eaaf1adc54acc0f257056febbd300c9e47182cf761982cf1f5e43083604051611d1991815260200190565b60405180910390a2505050565b6001546001600160a01b03163314611d505760405162461bcd60e51b815260040161069c9061364e565b611d5d8585858585612a56565b5050505050565b600c5460009060ff1615611d8a5760405162461bcd60e51b815260040161069c90613702565b600c54610100900460ff1615611de25760405162461bcd60e51b815260206004820152601a60248201527f536565643a2073686f756c64206e6f7420626520706175736564000000000000604482015260640161069c565b60095460ff161580611e0357503360009081526017602052604090205460ff165b611e4f5760405162461bcd60e51b815260206004820152601a60248201527f536565643a2073656e64657220686173206e6f20726967687473000000000000604482015260640161069c565b3360009081526018602052604081205460168054909160ff16908110611e7757611e77613808565b90600052602060002090600602016040518060c001604052908160008201548152602001600182015481526020016002820154815260200160038201548152602001600482015481526020016005820154815250509050600c60059054906101000a900460ff1615611f2b5760405162461bcd60e51b815260206004820152601d60248201527f536565643a206d6178696d756d2066756e64696e672072656163686564000000604482015260640161069c565b60008311611f7b5760405162461bcd60e51b815260206004820152601960248201527f536565643a2063616e6e6f7420627579203020746f6b656e7300000000000000604482015260640161069c565b8060200151838260a00151611f9091906137ab565b1115611fea5760405162461bcd60e51b815260206004820152602360248201527f536565643a206d6178696d756d20636c6173732066756e64696e6720726561636044820152621a195960ea1b606482015260840161069c565b6040808201513360009081526018602052919091206002015461200e9085906137ab565b111561206b5760405162461bcd60e51b815260206004820152602660248201527f536565643a206d6178696d756d20706572736f6e616c2066756e64696e672072604482015265195858da195960d21b606482015260840161069c565b426007541015801561207f57504260065411155b6120e15760405162461bcd60e51b815260206004820152602d60248201527f536565643a206f6e6c7920616c6c6f77656420647572696e672064697374726960448201526c189d5d1a5bdb881c195c9a5bd9609a1b606482015260840161069c565b600c5462010000900460ff166121e457600480546009546040516370a0823160e01b8152309381019390935290916101009091046001600160a01b0316906370a082319060240160206040518083038186803b15801561214057600080fd5b505afa158015612154573d6000803e3d6000fd5b505050506040513d601f19601f820116820180604052508101906121789190613685565b10156121d25760405162461bcd60e51b815260206004820152602360248201527f536565643a2073756666696369656e74207365656473206e6f742070726f766960448201526219195960ea1b606482015260840161069c565b600c805462ff00001916620100001790555b6014546000906121fc670de0b6b3a764000086613859565b6122069190613878565b90506003548460115461221991906137ab565b111561227a5760405162461bcd60e51b815260206004820152602a60248201527f536565643a20616d6f756e74206578636565647320636f6e747261637420736160448201526906c6520686172644361760b41b606482015260840161069c565b836011600082825461228c91906137ab565b90915550503360009081526018602052604090205460168054869260ff169081106122b9576122b9613808565b906000526020600020906006020160050160008282546122d991906137ab565b9091555050600e546122ec9082906136b4565b600e556002546011541061231057600c805464ff0000000019166401000000001790555b6003546011541061233557600c805465ff00000000001916600160281b179055426008555b3360009081526018602052604090206002015461236257600d805490600061235c8361383e565b91905055505b33600090815260186020526040812060020180548692906123849084906137ab565b9091555050600a546123a1906001600160a01b0316333087612c6d565b60405181815233907fcf5ef2b227e797b567f0df4c49cc8b6207cfb60054eb899e5608de08e5dcb1ef9060200160405180910390a29150505b919050565b6014546001600160a01b03821660009081526018602052604081206002015490919061241490670de0b6b3a764000090613859565b61241e9190613878565b92915050565b6001546001600160a01b0316331461244e5760405162461bcd60e51b815260040161069c9061364e565b600c5460ff16156124715760405162461bcd60e51b815260040161069c90613702565b60095460ff1615156001146124985760405162461bcd60e51b815260040161069c90613739565b60005b82518110156109bc5760165482518390839081106124bb576124bb613808565b602002602001015160ff16106124e35760405162461bcd60e51b815260040161069c906136cb565b61251f8382815181106124f8576124f8613808565b602002602001015183838151811061251257612512613808565b6020026020010151612a11565b806125298161383e565b91505061249b565b6001600160a01b03811660009081526018602090815260408083208151606081018352815460ff1680825260018301549482019490945260029091015491810191909152601680549192918491908390811061258f5761258f613808565b90600052602060002090600602016040518060c0016040529081600082015481526020016001820154815260200160028201548152602001600382015481526020016004820154815260200160058201548152505090506008544210156125fb57506000949350505050565b60006008544261260b91906136b4565b905081606001518110156126255750600095945050505050565b608082015180821061265457846020015161263f886123df565b61264991906136b4565b979650505050505050565b600081612660896123df565b61266a9085613859565b6126749190613878565b905085602001518161268691906136b4565b98975050505050505050565b600c546301000000900460ff16151560011415806126ba57506001546001600160a01b031633145b6127375760405162461bcd60e51b815260206004820152604260248201527f536565643a20636f6e74726163742073686f756c64206e6f7420626520696e6960448201527f7469616c697a6564206f722063616c6c65722073686f756c642062652061646d60648201526134b760f11b608482015260a40161069c565b805161274a90600b906020840190612ef0565b508060405161275991906138e6565b604051908190038120907f09f579b21815d3f81581d32e97736ccba1cc89d1918e48da28e6e206acd9686490600090a250565b6001546001600160a01b031633146127b65760405162461bcd60e51b815260040161069c9061364e565b60165484908490610100906127cc9060016137ab565b106127e95760405162461bcd60e51b815260040161069c906137c3565b8181111580156127fb57506003548211155b6128405760405162461bcd60e51b815260206004820152601660248201527514d959590e8818d85c1cc8185c99481a5b9d985b1a5960521b604482015260640161069c565b60065442106128615760405162461bcd60e51b815260040161069c906138b1565b600c5460ff16156128845760405162461bcd60e51b815260040161069c90613702565b600082116128a45760405162461bcd60e51b815260040161069c90613902565b60165460ff8916106128c85760405162461bcd60e51b815260040161069c906136cb565b8660168960ff16815481106128df576128df613808565b9060005260206000209060060201600001819055508560168960ff168154811061290b5761290b613808565b9060005260206000209060060201600101819055508460168960ff168154811061293757612937613808565b9060005260206000209060060201600201819055508360168960ff168154811061296357612963613808565b9060005260206000209060060201600301819055508260168960ff168154811061298f5761298f613808565b9060005260206000209060060201600401819055505050505050505050565b6040516001600160a01b0383166024820152604481018290526109bc90849063a9059cbb60e01b906064015b60408051601f198184030181529190526020810180516001600160e01b03166001600160e01b031990931692909217909152612cab565b6001600160a01b039190911660009081526017602090815260408083208054600160ff19918216179091556018909252909120805490911660ff909216919091179055565b6016548490849061010090612a6c9060016137ab565b10612a895760405162461bcd60e51b815260040161069c906137c3565b818111158015612a9b57506003548211155b612ae05760405162461bcd60e51b815260206004820152601660248201527514d959590e8818d85c1cc8185c99481a5b9d985b1a5960521b604482015260640161069c565b6006544210612b015760405162461bcd60e51b815260040161069c906138b1565b600c5460ff1615612b245760405162461bcd60e51b815260040161069c90613702565b60008211612b445760405162461bcd60e51b815260040161069c90613902565b50506040805160c0810182529586526020860194855285019283526060850191825260808501908152600060a0860181815260168054600181018255925295517fd833147d7dc355ba459fc788f669e58cfaf9dc25ddcd0702e87d69c7b512428960069092029182015593517fd833147d7dc355ba459fc788f669e58cfaf9dc25ddcd0702e87d69c7b512428a85015591517fd833147d7dc355ba459fc788f669e58cfaf9dc25ddcd0702e87d69c7b512428b840155517fd833147d7dc355ba459fc788f669e58cfaf9dc25ddcd0702e87d69c7b512428c830155517fd833147d7dc355ba459fc788f669e58cfaf9dc25ddcd0702e87d69c7b512428d82015590517fd833147d7dc355ba459fc788f669e58cfaf9dc25ddcd0702e87d69c7b512428e90910155565b6040516001600160a01b0380851660248301528316604482015260648101829052612ca59085906323b872dd60e01b906084016129da565b50505050565b6000612d00826040518060400160405280602081526020017f5361666545524332303a206c6f772d6c6576656c2063616c6c206661696c6564815250856001600160a01b0316612d7d9092919063ffffffff16565b8051909150156109bc5780806020019051810190612d1e9190613949565b6109bc5760405162461bcd60e51b815260206004820152602a60248201527f5361666545524332303a204552433230206f7065726174696f6e20646964206e6044820152691bdd081cdd58d8d9595960b21b606482015260840161069c565b6060612d8c8484600085612d96565b90505b9392505050565b606082471015612df75760405162461bcd60e51b815260206004820152602660248201527f416464726573733a20696e73756666696369656e742062616c616e636520666f6044820152651c8818d85b1b60d21b606482015260840161069c565b6001600160a01b0385163b612e4e5760405162461bcd60e51b815260206004820152601d60248201527f416464726573733a2063616c6c20746f206e6f6e2d636f6e7472616374000000604482015260640161069c565b600080866001600160a01b03168587604051612e6a91906138e6565b60006040518083038185875af1925050503d8060008114612ea7576040519150601f19603f3d011682016040523d82523d6000602084013e612eac565b606091505b509150915061264982828660608315612ec6575081612d8f565b825115612ed65782518084602001fd5b8160405162461bcd60e51b815260040161069c9190613057565b828054612efc90613770565b90600052602060002090601f016020900481019282612f1e5760008555612f64565b82601f10612f3757805160ff1916838001178555612f64565b82800160010185558215612f64579182015b82811115612f64578251825591602001919060010190612f49565b50612f70929150612f74565b5090565b5b80821115612f705760008155600101612f75565b80356001600160a01b03811681146123da57600080fd5b600060208284031215612fb257600080fd5b612d8f82612f89565b803560ff811681146123da57600080fd5b60008060408385031215612fdf57600080fd5b612fe883612f89565b9150612ff660208401612fbb565b90509250929050565b60005b8381101561301a578181015183820152602001613002565b83811115612ca55750506000910152565b60008151808452613043816020860160208601612fff565b601f01601f19169290920160200192915050565b602081526000612d8f602083018461302b565b634e487b7160e01b600052604160045260246000fd5b604051601f8201601f1916810167ffffffffffffffff811182821017156130a9576130a961306a565b604052919050565b600067ffffffffffffffff8211156130cb576130cb61306a565b5060051b60200190565b600082601f8301126130e657600080fd5b813560206130fb6130f6836130b1565b613080565b82815260059290921b8401810191818101908684111561311a57600080fd5b8286015b84811015613135578035835291830191830161311e565b509695505050505050565b600080600080600060a0868803121561315857600080fd5b853567ffffffffffffffff8082111561317057600080fd5b61317c89838a016130d5565b9650602088013591508082111561319257600080fd5b61319e89838a016130d5565b955060408801359150808211156131b457600080fd5b6131c089838a016130d5565b945060608801359150808211156131d657600080fd5b6131e289838a016130d5565b935060808801359150808211156131f857600080fd5b50613205888289016130d5565b9150509295509295909350565b600082601f83011261322357600080fd5b813560206132336130f6836130b1565b82815260059290921b8401810191818101908684111561325257600080fd5b8286015b848110156131355761326781612f89565b8352918301918301613256565b6000806040838503121561328757600080fd5b823567ffffffffffffffff8082111561329f57600080fd5b6132ab86838701613212565b93506020915081850135818111156132c257600080fd5b85019050601f810186136132d557600080fd5b80356132e36130f6826130b1565b81815260059190911b8201830190838101908883111561330257600080fd5b928401925b828410156133275761331884612fbb565b82529284019290840190613307565b80955050505050509250929050565b60006020828403121561334857600080fd5b5035919050565b600082601f83011261336057600080fd5b813560206133706130f6836130b1565b82815260059290921b8401810191818101908684111561338f57600080fd5b8286015b8481101561313557803563ffffffff811681146133b05760008081fd5b8352918301918301613393565b80151581146108f857600080fd5b80356123da816133bd565b6000806000806000806000806000806101408b8d0312156133f657600080fd5b6133ff8b612f89565b995061340d60208c01612f89565b985060408b013567ffffffffffffffff8082111561342a57600080fd5b6134368e838f01613212565b995060608d013591508082111561344c57600080fd5b6134588e838f016130d5565b985060808d0135975060a08d013591508082111561347557600080fd5b6134818e838f016130d5565b965060c08d013591508082111561349757600080fd5b6134a38e838f0161334f565b95506134b160e08e016133cb565b94506101008d01359150808211156134c857600080fd5b6134d48e838f01613212565b93506101208d01359150808211156134eb57600080fd5b506134f88d828e016130d5565b9150509295989b9194979a5092959850565b6000806040838503121561351d57600080fd5b61352683612f89565b946020939093013593505050565b600080600080600060a0868803121561354c57600080fd5b505083359560208501359550604085013594606081013594506080013592509050565b6000602080838503121561358257600080fd5b823567ffffffffffffffff8082111561359a57600080fd5b818501915085601f8301126135ae57600080fd5b8135818111156135c0576135c061306a565b6135d2601f8201601f19168501613080565b915080825286848285010111156135e857600080fd5b8084840185840137600090820190930192909252509392505050565b60008060008060008060c0878903121561361d57600080fd5b61362687612fbb565b9860208801359850604088013597606081013597506080810135965060a00135945092505050565b6020808252601c908201527f536565643a2063616c6c65722073686f756c642062652061646d696e00000000604082015260600190565b60006020828403121561369757600080fd5b5051919050565b634e487b7160e01b600052601160045260246000fd5b6000828210156136c6576136c661369e565b500390565b6020808252601c908201527f536565643a20696e636f727265637420636c6173732063686f73656e00000000604082015260600190565b6020808252601a908201527f536565643a2073686f756c64206e6f7420626520636c6f736564000000000000604082015260600190565b6020808252601d908201527f536565643a2073656564206973206e6f742077686974656c6973746564000000604082015260600190565b600181811c9082168061378457607f821691505b602082108114156137a557634e487b7160e01b600052602260045260246000fd5b50919050565b600082198211156137be576137be61369e565b500190565b60208082526025908201527f536565643a2063616e277420616464206d6f7265207468656e2032353620636c604082015264617373657360d81b606082015260800190565b634e487b7160e01b600052603260045260246000fd5b600060ff821660ff8114156138355761383561369e565b60010192915050565b60006000198214156138525761385261369e565b5060010190565b60008160001904831182151516156138735761387361369e565b500290565b60008261389557634e487b7160e01b600052601260045260246000fd5b500490565b6000816138a9576138a961369e565b506000190190565b6020808252818101527f536565643a2076657374696e6720697320616c72656164792073746172746564604082015260600190565b600082516138f8818460208701612fff565b9190910192915050565b60208082526027908201527f536565643a20636c617373204361702073686f756c64206265206269676765726040820152660207468656e20360cc1b606082015260800190565b60006020828403121561395b57600080fd5b8151612d8f816133bd56fea264697066735822122020e87ad69b73f7eb5b011f8af9063dde558823af4e34819080669fdf47044b3564736f6c63430008090033",
  "devdoc": {
    "details": "Smart contract for seed phases of liquid launch.",
    "kind": "dev",
    "methods": {
      "addClass(bytes32,uint256,uint256,uint256,uint256)": {
        "details": "Add contributor class.",
        "params": {
          "_classCap": "The total cap of the contributor class, denominated in Wei.",
          "_className": "The name of the class",
          "_individualCap": "The personal cap of each contributor in this class, denominated in Wei.",
          "_vestingCliff": "The cliff duration, denominated in seconds.",
          "_vestingDuration": "The vesting duration for this contributors class."
        }
      },
      "addClassBatch(bytes32[],uint256[],uint256[],uint256[],uint256[])": {
        "details": "Add contributor class batch.",
        "params": {
          "_classCaps": "The total caps of the contributor class, denominated in Wei",
          "_classNames": "Array of the names of the classes",
          "_individualCaps": "The personal caps of each contributor in this class, denominated in Wei.",
          "_vestingCliffs": "The cliff duration, denominated in seconds.",
          "_vestingDurations": "The vesting durations for this contributors class."
        }
      },
      "buy(uint256)": {
        "details": "Buy seed tokens.",
        "params": {
          "_fundingAmount": "The amount of funding tokens to contribute."
        }
      },
      "calculateClaim(address)": {
        "details": "Calculates the maximum claim",
        "params": {
          "_funder": "Address of funder to find the maximum claim"
        }
      },
      "changeClass(uint8,bytes32,uint256,uint256,uint256,uint256)": {
        "details": "Change parameters in the class.",
        "params": {
          "_class": "Class for changing.",
          "_classCap": "The total cap of the contributor class, denominated in Wei.",
          "_className": "The name of the class",
          "_individualCap": "The personal cap of each contributor in this class, denominated in Wei.",
          "_vestingCliff": "The cliff duration, denominated in seconds.",
          "_vestingDuration": "The vesting duration for this contributors class."
        }
      },
      "claim(address,uint256)": {
        "details": "Claim vested seed tokens.",
        "params": {
          "_claimAmount": "The amount of seed token a users wants to claim.",
          "_funder": "Address of funder to calculate seconds and amount claimable"
        }
      },
      "close()": {
        "details": "Shut down contributions (buying). Supersedes the normal logic that eventually shuts down buying anyway. Also shuts down the admin's ability to alter the whitelist."
      },
      "initialize(address,address,address[],uint256[],uint256,uint256[],uint32[],bool,address[],uint256[])": {
        "details": "Initialize Seed.",
        "params": {
          "_admin": "The address of the admin of this contract. Funds contract and has permissions to whitelist users, pause and close contract.",
          "_beneficiary": "The address that recieves fees.",
          "_defaultClassParameters": "Array containing three params: - Individual buying cap for de default class, expressed in precision 10*18 - Cliff duration, denominated in seconds. - Vesting period duration, denominated in seconds.",
          "_permissionedSeed": "Set to true if only whitelisted adresses are allowed to participate.",
          "_price": "Price of a SeedToken, expressed in fundingTokens, with precision of 10**18",
          "_softHardThresholds": "Array containing two params: - the minimum funding token collection threshold in wei denomination. - the highest possible funding token amount to be raised in wei denomination.",
          "_startTimeAndEndTime": "Array containing two params: - Distribution start time in unix timecode. - Distribution end time in unix timecode.",
          "_tipping": "Array of containing three parameters: - Total amount of tipping percentage expressed as a % (e.g. 45 / 100 * 10**18 = 45% fee, 10**16 = 1%) - Tipping vesting period duration denominated in seconds.\t\t\t\t\t\t\t\t\t\t\t\t\t\t\t\t\t\t\t\t\t\t\t\t - Tipping cliff duration denominated in seconds.\t",
          "_tokens": "Array containing two params: - The address of the seed token being distributed.                                     - The address of the funding token being exchanged for seed token.",
          "_whitelistAddresses": "Array of addresses to be whitelisted for the default class, at creation time"
        }
      },
      "pause()": {
        "details": "Pause distribution."
      },
      "retrieveFundingTokens()": {
        "details": "Returns funding tokens to user."
      },
      "retrieveSeedTokens(address)": {
        "details": "retrieve remaining seed tokens back to project.",
        "params": {
          "_refundReceiver": "refund receiver address"
        }
      },
      "seedAmountForFunder(address)": {
        "details": "get seed amount for funder",
        "params": {
          "_funder": "address of funder to seed amount"
        }
      },
      "setClass(address,uint8)": {
        "details": "Set contributor class.",
        "params": {
          "_address": "Address of the contributor.",
          "_class": "Class of the contributor."
        }
      },
      "setClassBatch(address[],uint8[])": {
        "details": "Set contributor classes.",
        "params": {
          "_addresses": "Addresses of the contributors.",
          "_classes": "Classes of the contributor."
        }
      },
      "unpause()": {
        "details": "Unpause distribution."
      },
      "unwhitelist(address)": {
        "details": "Remove address from whitelist.",
        "params": {
          "buyer": "Address which needs to be unwhitelisted"
        }
      },
      "updateMetadata(bytes)": {
        "details": "Updates metadata.",
        "params": {
          "_metadata": "Seed contract metadata, that is IPFS Hash"
        }
      },
      "whitelist(address,uint8)": {
        "details": "Add address to whitelist.",
        "params": {
          "_buyer": "Address which needs to be whitelisted",
          "_class": "Class to which buyer will be assigned"
        }
      },
      "whitelistBatch(address[],uint8[])": {
        "details": "Add multiple addresses to whitelist.",
        "params": {
          "_buyers": "Array of addresses to whitelist addresses in batch",
          "_classes": "Array of classes assigned in batch"
        }
      },
      "withdraw()": {
        "details": "Withdraw funds from the contract"
      }
    },
    "title": "PrimeDAO Seed contract",
    "version": 1
  },
  "userdoc": {
    "kind": "user",
    "methods": {},
    "version": 1
  },
  "storageLayout": {
    "storage": [
      {
        "astId": 1025,
        "contract": "contracts/seed/Seed.sol:Seed",
        "label": "beneficiary",
        "offset": 0,
        "slot": "0",
        "type": "t_address"
      },
      {
        "astId": 1027,
        "contract": "contracts/seed/Seed.sol:Seed",
        "label": "admin",
        "offset": 0,
        "slot": "1",
        "type": "t_address"
      },
      {
        "astId": 1029,
        "contract": "contracts/seed/Seed.sol:Seed",
        "label": "softCap",
        "offset": 0,
        "slot": "2",
        "type": "t_uint256"
      },
      {
        "astId": 1031,
        "contract": "contracts/seed/Seed.sol:Seed",
        "label": "hardCap",
        "offset": 0,
        "slot": "3",
        "type": "t_uint256"
      },
      {
        "astId": 1033,
        "contract": "contracts/seed/Seed.sol:Seed",
        "label": "seedAmountRequired",
        "offset": 0,
        "slot": "4",
        "type": "t_uint256"
      },
      {
        "astId": 1035,
        "contract": "contracts/seed/Seed.sol:Seed",
        "label": "tippingAmount",
        "offset": 0,
        "slot": "5",
        "type": "t_uint256"
      },
      {
        "astId": 1037,
        "contract": "contracts/seed/Seed.sol:Seed",
        "label": "startTime",
        "offset": 0,
        "slot": "6",
        "type": "t_uint256"
      },
      {
        "astId": 1039,
        "contract": "contracts/seed/Seed.sol:Seed",
        "label": "endTime",
        "offset": 0,
        "slot": "7",
        "type": "t_uint256"
      },
      {
        "astId": 1041,
        "contract": "contracts/seed/Seed.sol:Seed",
        "label": "vestingStartTime",
        "offset": 0,
        "slot": "8",
        "type": "t_uint256"
      },
      {
        "astId": 1043,
        "contract": "contracts/seed/Seed.sol:Seed",
        "label": "permissionedSeed",
        "offset": 0,
        "slot": "9",
        "type": "t_bool"
      },
      {
        "astId": 1046,
        "contract": "contracts/seed/Seed.sol:Seed",
        "label": "seedToken",
        "offset": 1,
        "slot": "9",
        "type": "t_contract(IERC20)12041"
      },
      {
        "astId": 1049,
        "contract": "contracts/seed/Seed.sol:Seed",
        "label": "fundingToken",
        "offset": 0,
        "slot": "10",
        "type": "t_contract(IERC20)12041"
      },
      {
        "astId": 1051,
        "contract": "contracts/seed/Seed.sol:Seed",
        "label": "metadata",
        "offset": 0,
        "slot": "11",
        "type": "t_bytes_storage"
      },
      {
        "astId": 1068,
        "contract": "contracts/seed/Seed.sol:Seed",
        "label": "closed",
        "offset": 0,
        "slot": "12",
        "type": "t_bool"
      },
      {
        "astId": 1070,
        "contract": "contracts/seed/Seed.sol:Seed",
        "label": "paused",
        "offset": 1,
        "slot": "12",
        "type": "t_bool"
      },
      {
        "astId": 1072,
        "contract": "contracts/seed/Seed.sol:Seed",
        "label": "isFunded",
        "offset": 2,
        "slot": "12",
        "type": "t_bool"
      },
      {
        "astId": 1074,
        "contract": "contracts/seed/Seed.sol:Seed",
        "label": "initialized",
        "offset": 3,
        "slot": "12",
        "type": "t_bool"
      },
      {
        "astId": 1076,
        "contract": "contracts/seed/Seed.sol:Seed",
        "label": "minimumReached",
        "offset": 4,
        "slot": "12",
        "type": "t_bool"
      },
      {
        "astId": 1078,
        "contract": "contracts/seed/Seed.sol:Seed",
        "label": "maximumReached",
        "offset": 5,
        "slot": "12",
        "type": "t_bool"
      },
      {
        "astId": 1080,
        "contract": "contracts/seed/Seed.sol:Seed",
        "label": "totalFunderCount",
        "offset": 0,
        "slot": "13",
        "type": "t_uint256"
      },
      {
        "astId": 1082,
        "contract": "contracts/seed/Seed.sol:Seed",
        "label": "seedRemainder",
        "offset": 0,
        "slot": "14",
        "type": "t_uint256"
      },
      {
        "astId": 1084,
        "contract": "contracts/seed/Seed.sol:Seed",
        "label": "seedClaimed",
        "offset": 0,
        "slot": "15",
        "type": "t_uint256"
      },
      {
        "astId": 1086,
        "contract": "contracts/seed/Seed.sol:Seed",
        "label": "feeRemainder",
        "offset": 0,
        "slot": "16",
        "type": "t_uint256"
      },
      {
        "astId": 1088,
        "contract": "contracts/seed/Seed.sol:Seed",
        "label": "fundingCollected",
        "offset": 0,
        "slot": "17",
        "type": "t_uint256"
      },
      {
        "astId": 1090,
        "contract": "contracts/seed/Seed.sol:Seed",
        "label": "fundingWithdrawn",
        "offset": 0,
        "slot": "18",
        "type": "t_uint256"
      },
      {
        "astId": 1092,
        "contract": "contracts/seed/Seed.sol:Seed",
        "label": "feeClaimed",
        "offset": 0,
        "slot": "19",
        "type": "t_uint256"
      },
      {
        "astId": 1094,
        "contract": "contracts/seed/Seed.sol:Seed",
        "label": "price",
        "offset": 0,
        "slot": "20",
        "type": "t_uint256"
      },
      {
        "astId": 1096,
        "contract": "contracts/seed/Seed.sol:Seed",
        "label": "fee",
        "offset": 0,
        "slot": "21",
        "type": "t_uint256"
      },
      {
        "astId": 1100,
        "contract": "contracts/seed/Seed.sol:Seed",
        "label": "classes",
        "offset": 0,
        "slot": "22",
        "type": "t_array(t_struct(ContributorClass)1151_storage)dyn_storage"
      },
      {
        "astId": 1104,
        "contract": "contracts/seed/Seed.sol:Seed",
        "label": "whitelisted",
        "offset": 0,
        "slot": "23",
        "type": "t_mapping(t_address,t_bool)"
      },
      {
        "astId": 1109,
        "contract": "contracts/seed/Seed.sol:Seed",
        "label": "funders",
        "offset": 0,
        "slot": "24",
        "type": "t_mapping(t_address,t_struct(FunderPortfolio)1138_storage)"
      }
    ],
    "types": {
      "t_address": {
        "encoding": "inplace",
        "label": "address",
        "numberOfBytes": "20"
      },
      "t_array(t_struct(ContributorClass)1151_storage)dyn_storage": {
        "base": "t_struct(ContributorClass)1151_storage",
        "encoding": "dynamic_array",
        "label": "struct Seed.ContributorClass[]",
        "numberOfBytes": "32"
      },
      "t_bool": {
        "encoding": "inplace",
        "label": "bool",
        "numberOfBytes": "1"
      },
      "t_bytes32": {
        "encoding": "inplace",
        "label": "bytes32",
        "numberOfBytes": "32"
      },
      "t_bytes_storage": {
        "encoding": "bytes",
        "label": "bytes",
        "numberOfBytes": "32"
      },
      "t_contract(IERC20)12041": {
        "encoding": "inplace",
        "label": "contract IERC20",
        "numberOfBytes": "20"
      },
      "t_mapping(t_address,t_bool)": {
        "encoding": "mapping",
        "key": "t_address",
        "label": "mapping(address => bool)",
        "numberOfBytes": "32",
        "value": "t_bool"
      },
      "t_mapping(t_address,t_struct(FunderPortfolio)1138_storage)": {
        "encoding": "mapping",
        "key": "t_address",
        "label": "mapping(address => struct Seed.FunderPortfolio)",
        "numberOfBytes": "32",
        "value": "t_struct(FunderPortfolio)1138_storage"
      },
      "t_struct(ContributorClass)1151_storage": {
        "encoding": "inplace",
        "label": "struct Seed.ContributorClass",
        "members": [
          {
            "astId": 1140,
            "contract": "contracts/seed/Seed.sol:Seed",
            "label": "className",
            "offset": 0,
            "slot": "0",
            "type": "t_bytes32"
          },
          {
            "astId": 1142,
            "contract": "contracts/seed/Seed.sol:Seed",
            "label": "classCap",
            "offset": 0,
            "slot": "1",
            "type": "t_uint256"
          },
          {
            "astId": 1144,
            "contract": "contracts/seed/Seed.sol:Seed",
            "label": "individualCap",
            "offset": 0,
            "slot": "2",
            "type": "t_uint256"
          },
          {
            "astId": 1146,
            "contract": "contracts/seed/Seed.sol:Seed",
            "label": "vestingCliff",
            "offset": 0,
            "slot": "3",
            "type": "t_uint256"
          },
          {
            "astId": 1148,
            "contract": "contracts/seed/Seed.sol:Seed",
            "label": "vestingDuration",
            "offset": 0,
            "slot": "4",
            "type": "t_uint256"
          },
          {
            "astId": 1150,
            "contract": "contracts/seed/Seed.sol:Seed",
            "label": "classFundingCollected",
            "offset": 0,
            "slot": "5",
            "type": "t_uint256"
          }
        ],
        "numberOfBytes": "192"
      },
      "t_struct(FunderPortfolio)1138_storage": {
        "encoding": "inplace",
        "label": "struct Seed.FunderPortfolio",
        "members": [
          {
            "astId": 1133,
            "contract": "contracts/seed/Seed.sol:Seed",
            "label": "class",
            "offset": 0,
            "slot": "0",
            "type": "t_uint8"
          },
          {
            "astId": 1135,
            "contract": "contracts/seed/Seed.sol:Seed",
            "label": "totalClaimed",
            "offset": 0,
            "slot": "1",
            "type": "t_uint256"
          },
          {
            "astId": 1137,
            "contract": "contracts/seed/Seed.sol:Seed",
            "label": "fundingAmount",
            "offset": 0,
            "slot": "2",
            "type": "t_uint256"
          }
        ],
        "numberOfBytes": "96"
      },
      "t_uint256": {
        "encoding": "inplace",
        "label": "uint256",
        "numberOfBytes": "32"
      },
      "t_uint8": {
        "encoding": "inplace",
        "label": "uint8",
        "numberOfBytes": "1"
      }
    }
  }
}