{
    "address": "0x2EDbfAeFcaC083A1a199C6835D12782A0868E50B",
    "abi": [
        {
            "inputs": [],
            "stateMutability": "nonpayable",
            "type": "constructor"
        },
        {
            "anonymous": false,
            "inputs": [
                {
                    "indexed": true,
                    "internalType": "address",
                    "name": "owner",
                    "type": "address"
                },
                {
                    "indexed": true,
                    "internalType": "address",
                    "name": "spender",
                    "type": "address"
                },
                {
                    "indexed": false,
                    "internalType": "uint256",
                    "name": "value",
                    "type": "uint256"
                }
            ],
            "name": "Approval",
            "type": "event"
        },
        {
            "anonymous": false,
            "inputs": [
                {
                    "indexed": true,
                    "internalType": "address",
                    "name": "from",
                    "type": "address"
                },
                {
                    "indexed": true,
                    "internalType": "address",
                    "name": "to",
                    "type": "address"
                },
                {
                    "indexed": false,
                    "internalType": "uint256",
                    "name": "value",
                    "type": "uint256"
                }
            ],
            "name": "Transfer",
            "type": "event"
        },
        {
            "inputs": [
                {
                    "internalType": "address",
                    "name": "owner",
                    "type": "address"
                },
                {
                    "internalType": "address",
                    "name": "spender",
                    "type": "address"
                }
            ],
            "name": "allowance",
            "outputs": [
                {
                    "internalType": "uint256",
                    "name": "",
                    "type": "uint256"
                }
            ],
            "stateMutability": "view",
            "type": "function"
        },
        {
            "inputs": [
                {
                    "internalType": "address",
                    "name": "spender",
                    "type": "address"
                },
                {
                    "internalType": "uint256",
                    "name": "amount",
                    "type": "uint256"
                }
            ],
            "name": "approve",
            "outputs": [
                {
                    "internalType": "bool",
                    "name": "",
                    "type": "bool"
                }
            ],
            "stateMutability": "nonpayable",
            "type": "function"
        },
        {
            "inputs": [
                {
                    "internalType": "address",
                    "name": "account",
                    "type": "address"
                }
            ],
            "name": "balanceOf",
            "outputs": [
                {
                    "internalType": "uint256",
                    "name": "",
                    "type": "uint256"
                }
            ],
            "stateMutability": "view",
            "type": "function"
        },
        {
            "inputs": [],
            "name": "cap",
            "outputs": [
                {
                    "internalType": "uint256",
                    "name": "",
                    "type": "uint256"
                }
            ],
            "stateMutability": "view",
            "type": "function"
        },
        {
            "inputs": [],
            "name": "decimals",
            "outputs": [
                {
                    "internalType": "uint8",
                    "name": "",
                    "type": "uint8"
                }
            ],
            "stateMutability": "view",
            "type": "function"
        },
        {
            "inputs": [
                {
                    "internalType": "address",
                    "name": "spender",
                    "type": "address"
                },
                {
                    "internalType": "uint256",
                    "name": "subtractedValue",
                    "type": "uint256"
                }
            ],
            "name": "decreaseAllowance",
            "outputs": [
                {
                    "internalType": "bool",
                    "name": "",
                    "type": "bool"
                }
            ],
            "stateMutability": "nonpayable",
            "type": "function"
        },
        {
            "inputs": [
                {
                    "internalType": "address",
                    "name": "spender",
                    "type": "address"
                },
                {
                    "internalType": "uint256",
                    "name": "addedValue",
                    "type": "uint256"
                }
            ],
            "name": "increaseAllowance",
            "outputs": [
                {
                    "internalType": "bool",
                    "name": "",
                    "type": "bool"
                }
            ],
            "stateMutability": "nonpayable",
            "type": "function"
        },
        {
            "inputs": [],
            "name": "name",
            "outputs": [
                {
                    "internalType": "string",
                    "name": "",
                    "type": "string"
                }
            ],
            "stateMutability": "view",
            "type": "function"
        },
        {
            "inputs": [],
            "name": "supply",
            "outputs": [
                {
                    "internalType": "uint256",
                    "name": "",
                    "type": "uint256"
                }
            ],
            "stateMutability": "view",
            "type": "function"
        },
        {
            "inputs": [],
            "name": "symbol",
            "outputs": [
                {
                    "internalType": "string",
                    "name": "",
                    "type": "string"
                }
            ],
            "stateMutability": "view",
            "type": "function"
        },
        {
            "inputs": [],
            "name": "totalSupply",
            "outputs": [
                {
                    "internalType": "uint256",
                    "name": "",
                    "type": "uint256"
                }
            ],
            "stateMutability": "view",
            "type": "function"
        },
        {
            "inputs": [
                {
                    "internalType": "address",
                    "name": "to",
                    "type": "address"
                },
                {
                    "internalType": "uint256",
                    "name": "amount",
                    "type": "uint256"
                }
            ],
            "name": "transfer",
            "outputs": [
                {
                    "internalType": "bool",
                    "name": "",
                    "type": "bool"
                }
            ],
            "stateMutability": "nonpayable",
            "type": "function"
        },
        {
            "inputs": [
                {
                    "internalType": "address",
                    "name": "from",
                    "type": "address"
                },
                {
                    "internalType": "address",
                    "name": "to",
                    "type": "address"
                },
                {
                    "internalType": "uint256",
                    "name": "amount",
                    "type": "uint256"
                }
            ],
            "name": "transferFrom",
            "outputs": [
                {
                    "internalType": "bool",
                    "name": "",
                    "type": "bool"
                }
            ],
            "stateMutability": "nonpayable",
            "type": "function"
        }
    ],
    "transactionHash": "0xab77806bee7850e82bed978fc441397fdf743ffe3b3882b88d212592818165bd",
    "args": [],
    "solcInputHash": "d740f398799c6ae5b818ccc219aa2f89",
    "bytecode": "0x60a06040523480156200001157600080fd5b5060408051808201825260058152645072696d6560d81b60208083019182528351808501909452600380855262110c9160ea1b9185019190915282516a52b7d2dcc80cd2e40000009492620000679291620001e7565b5080516200007d906004906020840190620001e7565b50505060008111620000d65760405162461bcd60e51b815260206004820152601560248201527f45524332304361707065643a206361702069732030000000000000000000000060448201526064015b60405180910390fd5b608052620000fc336a52b7d2dcc80cd2e400000062000102602090811b620003b617901c565b620002f1565b6001600160a01b0382166200015a5760405162461bcd60e51b815260206004820152601f60248201527f45524332303a206d696e7420746f20746865207a65726f2061646472657373006044820152606401620000cd565b80600260008282546200016e91906200028d565b90915550506001600160a01b038216600090815260208190526040812080548392906200019d9084906200028d565b90915550506040518181526001600160a01b038316906000907fddf252ad1be2c89b69c2b068fc378daa952ba7f163c4a11628f55a4df523b3ef9060200160405180910390a35050565b828054620001f590620002b4565b90600052602060002090601f01602090048101928262000219576000855562000264565b82601f106200023457805160ff191683800117855562000264565b8280016001018555821562000264579182015b828111156200026457825182559160200191906001019062000247565b506200027292915062000276565b5090565b5b8082111562000272576000815560010162000277565b60008219821115620002af57634e487b7160e01b600052601160045260246000fd5b500190565b600181811c90821680620002c957607f821691505b60208210811415620002eb57634e487b7160e01b600052602260045260246000fd5b50919050565b6080516109c46200030d600039600061015d01526109c46000f3fe608060405234801561001057600080fd5b50600436106100cf5760003560e01c8063355274ea1161008c57806395d89b411161006657806395d89b41146101bd578063a457c2d7146101c5578063a9059cbb146101d8578063dd62ed3e146101eb57600080fd5b8063355274ea1461015b578063395093511461018157806370a082311461019457600080fd5b8063047fc9aa146100d457806306fdde03146100f9578063095ea7b31461010e57806318160ddd1461013157806323b872dd14610139578063313ce5671461014c575b600080fd5b6100e66a52b7d2dcc80cd2e400000081565b6040519081526020015b60405180910390f35b6101016101fe565b6040516100f09190610801565b61012161011c366004610872565b610290565b60405190151581526020016100f0565b6002546100e6565b61012161014736600461089c565b6102a8565b604051601281526020016100f0565b7f00000000000000000000000000000000000000000000000000000000000000006100e6565b61012161018f366004610872565b6102cc565b6100e66101a23660046108d8565b6001600160a01b031660009081526020819052604090205490565b6101016102ee565b6101216101d3366004610872565b6102fd565b6101216101e6366004610872565b61037d565b6100e66101f93660046108fa565b61038b565b60606003805461020d9061092d565b80601f01602080910402602001604051908101604052809291908181526020018280546102399061092d565b80156102865780601f1061025b57610100808354040283529160200191610286565b820191906000526020600020905b81548152906001019060200180831161026957829003601f168201915b5050505050905090565b60003361029e818585610495565b5060019392505050565b6000336102b68582856105b9565b6102c1858585610633565b506001949350505050565b60003361029e8185856102df838361038b565b6102e99190610968565b610495565b60606004805461020d9061092d565b6000338161030b828661038b565b9050838110156103705760405162461bcd60e51b815260206004820152602560248201527f45524332303a2064656372656173656420616c6c6f77616e63652062656c6f77604482015264207a65726f60d81b60648201526084015b60405180910390fd5b6102c18286868403610495565b60003361029e818585610633565b6001600160a01b03918216600090815260016020908152604080832093909416825291909152205490565b6001600160a01b03821661040c5760405162461bcd60e51b815260206004820152601f60248201527f45524332303a206d696e7420746f20746865207a65726f2061646472657373006044820152606401610367565b806002600082825461041e9190610968565b90915550506001600160a01b0382166000908152602081905260408120805483929061044b908490610968565b90915550506040518181526001600160a01b038316906000907fddf252ad1be2c89b69c2b068fc378daa952ba7f163c4a11628f55a4df523b3ef9060200160405180910390a35050565b6001600160a01b0383166104f75760405162461bcd60e51b8152602060048201526024808201527f45524332303a20617070726f76652066726f6d20746865207a65726f206164646044820152637265737360e01b6064820152608401610367565b6001600160a01b0382166105585760405162461bcd60e51b815260206004820152602260248201527f45524332303a20617070726f766520746f20746865207a65726f206164647265604482015261737360f01b6064820152608401610367565b6001600160a01b0383811660008181526001602090815260408083209487168084529482529182902085905590518481527f8c5be1e5ebec7d5bd14f71427d1e84f3dd0314c0f7b2291e5b200ac8c7c3b925910160405180910390a3505050565b60006105c5848461038b565b9050600019811461062d57818110156106205760405162461bcd60e51b815260206004820152601d60248201527f45524332303a20696e73756666696369656e7420616c6c6f77616e63650000006044820152606401610367565b61062d8484848403610495565b50505050565b6001600160a01b0383166106975760405162461bcd60e51b815260206004820152602560248201527f45524332303a207472616e736665722066726f6d20746865207a65726f206164604482015264647265737360d81b6064820152608401610367565b6001600160a01b0382166106f95760405162461bcd60e51b815260206004820152602360248201527f45524332303a207472616e7366657220746f20746865207a65726f206164647260448201526265737360e81b6064820152608401610367565b6001600160a01b038316600090815260208190526040902054818110156107715760405162461bcd60e51b815260206004820152602660248201527f45524332303a207472616e7366657220616d6f756e7420657863656564732062604482015265616c616e636560d01b6064820152608401610367565b6001600160a01b038085166000908152602081905260408082208585039055918516815290812080548492906107a8908490610968565b92505081905550826001600160a01b0316846001600160a01b03167fddf252ad1be2c89b69c2b068fc378daa952ba7f163c4a11628f55a4df523b3ef846040516107f491815260200190565b60405180910390a361062d565b600060208083528351808285015260005b8181101561082e57858101830151858201604001528201610812565b81811115610840576000604083870101525b50601f01601f1916929092016040019392505050565b80356001600160a01b038116811461086d57600080fd5b919050565b6000806040838503121561088557600080fd5b61088e83610856565b946020939093013593505050565b6000806000606084860312156108b157600080fd5b6108ba84610856565b92506108c860208501610856565b9150604084013590509250925092565b6000602082840312156108ea57600080fd5b6108f382610856565b9392505050565b6000806040838503121561090d57600080fd5b61091683610856565b915061092460208401610856565b90509250929050565b600181811c9082168061094157607f821691505b6020821081141561096257634e487b7160e01b600052602260045260246000fd5b50919050565b6000821982111561098957634e487b7160e01b600052601160045260246000fd5b50019056fea2646970667358221220b8a835ec78eec150fd528db661e468eda1f0b30d41ec27f0f1d2f41122c029a164736f6c63430008090033",
    "devdoc": {
        "kind": "dev",
        "methods": {
            "allowance(address,address)": {
                "details": "See {IERC20-allowance}."
            },
            "approve(address,uint256)": {
                "details": "See {IERC20-approve}. NOTE: If `amount` is the maximum `uint256`, the allowance is not updated on `transferFrom`. This is semantically equivalent to an infinite approval. Requirements: - `spender` cannot be the zero address."
            },
            "balanceOf(address)": {
                "details": "See {IERC20-balanceOf}."
            },
            "cap()": {
                "details": "Returns the cap on the token's total supply."
            },
            "decimals()": {
                "details": "Returns the number of decimals used to get its user representation. For example, if `decimals` equals `2`, a balance of `505` tokens should be displayed to a user as `5.05` (`505 / 10 ** 2`). Tokens usually opt for a value of 18, imitating the relationship between Ether and Wei. This is the value {ERC20} uses, unless this function is overridden; NOTE: This information is only used for _display_ purposes: it in no way affects any of the arithmetic of the contract, including {IERC20-balanceOf} and {IERC20-transfer}."
            },
            "decreaseAllowance(address,uint256)": {
                "details": "Atomically decreases the allowance granted to `spender` by the caller. This is an alternative to {approve} that can be used as a mitigation for problems described in {IERC20-approve}. Emits an {Approval} event indicating the updated allowance. Requirements: - `spender` cannot be the zero address. - `spender` must have allowance for the caller of at least `subtractedValue`."
            },
            "increaseAllowance(address,uint256)": {
                "details": "Atomically increases the allowance granted to `spender` by the caller. This is an alternative to {approve} that can be used as a mitigation for problems described in {IERC20-approve}. Emits an {Approval} event indicating the updated allowance. Requirements: - `spender` cannot be the zero address."
            },
            "name()": {
                "details": "Returns the name of the token."
            },
            "symbol()": {
                "details": "Returns the symbol of the token, usually a shorter version of the name."
            },
            "totalSupply()": {
                "details": "See {IERC20-totalSupply}."
            },
            "transfer(address,uint256)": {
                "details": "See {IERC20-transfer}. Requirements: - `to` cannot be the zero address. - the caller must have a balance of at least `amount`."
            },
            "transferFrom(address,address,uint256)": {
                "details": "See {IERC20-transferFrom}. Emits an {Approval} event indicating the updated allowance. This is not required by the EIP. See the note at the beginning of {ERC20}. NOTE: Does not update the allowance if the current allowance is the maximum `uint256`. Requirements: - `from` and `to` cannot be the zero address. - `from` must have a balance of at least `amount`. - the caller must have allowance for ``from``'s tokens of at least `amount`."
            }
        },
        "version": 1
    },
    "userdoc": {
        "kind": "user",
        "methods": {},
        "version": 1
    },
    "storageLayout": {
        "storage": [
            {
                "astId": 15,
                "contract": "contracts/D2D/D2D.sol:D2D",
                "label": "_balances",
                "offset": 0,
                "slot": "0",
                "type": "t_mapping(t_address,t_uint256)"
            },
            {
                "astId": 21,
                "contract": "contracts/D2D/D2D.sol:D2D",
                "label": "_allowances",
                "offset": 0,
                "slot": "1",
                "type": "t_mapping(t_address,t_mapping(t_address,t_uint256))"
            },
            {
                "astId": 23,
                "contract": "contracts/D2D/D2D.sol:D2D",
                "label": "_totalSupply",
                "offset": 0,
                "slot": "2",
                "type": "t_uint256"
            },
            {
                "astId": 25,
                "contract": "contracts/D2D/D2D.sol:D2D",
                "label": "_name",
                "offset": 0,
                "slot": "3",
                "type": "t_string_storage"
            },
            {
                "astId": 27,
                "contract": "contracts/D2D/D2D.sol:D2D",
                "label": "_symbol",
                "offset": 0,
                "slot": "4",
                "type": "t_string_storage"
            }
        ],
        "types": {
            "t_address": {
                "encoding": "inplace",
                "label": "address",
                "numberOfBytes": "20"
            },
            "t_mapping(t_address,t_mapping(t_address,t_uint256))": {
                "encoding": "mapping",
                "key": "t_address",
                "label": "mapping(address => mapping(address => uint256))",
                "numberOfBytes": "32",
                "value": "t_mapping(t_address,t_uint256)"
            },
            "t_mapping(t_address,t_uint256)": {
                "encoding": "mapping",
                "key": "t_address",
                "label": "mapping(address => uint256)",
                "numberOfBytes": "32",
                "value": "t_uint256"
            },
            "t_string_storage": {
                "encoding": "bytes",
                "label": "string",
                "numberOfBytes": "32"
            },
            "t_uint256": {
                "encoding": "inplace",
                "label": "uint256",
                "numberOfBytes": "32"
            }
        }
    }
}