{
  "address": "0x5b4C1b1976B0b2D2d1fF26b10913F910D0E18140",
  "abi": [
    {
      "inputs": [
        {
          "internalType": "address",
          "name": "_lbpFactory",
          "type": "address"
        }
      ],
      "stateMutability": "nonpayable",
      "type": "constructor"
    },
    {
      "anonymous": false,
      "inputs": [
        {
          "indexed": true,
          "internalType": "address",
          "name": "oldLBPFactory",
          "type": "address"
        },
        {
          "indexed": true,
          "internalType": "address",
          "name": "newLBPFactory",
          "type": "address"
        }
      ],
      "name": "LBPFactoryChanged",
      "type": "event"
    },
    {
      "anonymous": false,
      "inputs": [
        {
          "indexed": true,
          "internalType": "address",
          "name": "lbpManager",
          "type": "address"
        },
        {
          "indexed": true,
          "internalType": "address",
          "name": "admin",
          "type": "address"
        },
        {
          "indexed": false,
          "internalType": "bytes",
          "name": "metadata",
          "type": "bytes"
        }
      ],
      "name": "LBPManagerDeployed",
      "type": "event"
    },
    {
      "anonymous": false,
      "inputs": [
        {
          "indexed": true,
          "internalType": "address",
          "name": "oldMasterCopy",
          "type": "address"
        },
        {
          "indexed": true,
          "internalType": "address",
          "name": "newMasterCopy",
          "type": "address"
        }
      ],
      "name": "MastercopyChanged",
      "type": "event"
    },
    {
      "anonymous": false,
      "inputs": [
        {
          "indexed": true,
          "internalType": "address",
          "name": "previousOwner",
          "type": "address"
        },
        {
          "indexed": true,
          "internalType": "address",
          "name": "newOwner",
          "type": "address"
        }
      ],
      "name": "OwnershipTransferred",
      "type": "event"
    },
    {
      "inputs": [
        {
          "internalType": "address",
          "name": "_admin",
          "type": "address"
        },
        {
          "internalType": "address",
          "name": "_beneficiary",
          "type": "address"
        },
        {
          "internalType": "string",
          "name": "_name",
          "type": "string"
        },
        {
          "internalType": "string",
          "name": "_symbol",
          "type": "string"
        },
        {
          "internalType": "contract IERC20[]",
          "name": "_tokenList",
          "type": "address[]"
        },
        {
          "internalType": "uint256[]",
          "name": "_amounts",
          "type": "uint256[]"
        },
        {
          "internalType": "uint256[]",
          "name": "_startWeights",
          "type": "uint256[]"
        },
        {
          "internalType": "uint256[]",
          "name": "_startTimeEndtime",
          "type": "uint256[]"
        },
        {
          "internalType": "uint256[]",
          "name": "_endWeights",
          "type": "uint256[]"
        },
        {
          "internalType": "uint256[]",
          "name": "_fees",
          "type": "uint256[]"
        },
        {
          "internalType": "bytes",
          "name": "_metadata",
          "type": "bytes"
        }
      ],
      "name": "deployLBPManager",
      "outputs": [],
      "stateMutability": "nonpayable",
      "type": "function"
    },
    {
      "inputs": [],
      "name": "lbpFactory",
      "outputs": [
        {
          "internalType": "address",
          "name": "",
          "type": "address"
        }
      ],
      "stateMutability": "view",
      "type": "function"
    },
    {
      "inputs": [],
      "name": "masterCopy",
      "outputs": [
        {
          "internalType": "address",
          "name": "",
          "type": "address"
        }
      ],
      "stateMutability": "view",
      "type": "function"
    },
    {
      "inputs": [],
      "name": "owner",
      "outputs": [
        {
          "internalType": "address",
          "name": "",
          "type": "address"
        }
      ],
      "stateMutability": "view",
      "type": "function"
    },
    {
      "inputs": [],
      "name": "renounceOwnership",
      "outputs": [],
      "stateMutability": "nonpayable",
      "type": "function"
    },
    {
      "inputs": [
        {
          "internalType": "address",
          "name": "_lbpFactory",
          "type": "address"
        }
      ],
      "name": "setLBPFactory",
      "outputs": [],
      "stateMutability": "nonpayable",
      "type": "function"
    },
    {
      "inputs": [
        {
          "internalType": "address",
          "name": "_masterCopy",
          "type": "address"
        }
      ],
      "name": "setMasterCopy",
      "outputs": [],
      "stateMutability": "nonpayable",
      "type": "function"
    },
    {
      "inputs": [
        {
          "internalType": "address",
          "name": "newOwner",
          "type": "address"
        }
      ],
      "name": "transferOwnership",
      "outputs": [],
      "stateMutability": "nonpayable",
      "type": "function"
    },
    {
      "inputs": [],
      "name": "version",
      "outputs": [
        {
          "internalType": "bytes6",
          "name": "",
          "type": "bytes6"
        }
      ],
      "stateMutability": "view",
      "type": "function"
    }
  ],
  "transactionHash": "0xfac7d007951aa84adaac7e5016648c0ebea50831284684d0a797751ccb4949f8",
  "args": [
    "0xb48Cc42C45d262534e46d5965a9Ac496F1B7a830"
  ],
  "solcInputHash": "752d54b8f64e3608832db5b1be68e60f",
  "bytecode": "0x60806040526000805465ffffffffffff60a01b1916640312e302e360ac1b17905534801561002c57600080fd5b50604051610d94380380610d9483398101604081905261004b91610123565b610054336100d3565b6001600160a01b0381166100ae5760405162461bcd60e51b815260206004820152601f60248201527f4c42504d466163746f72793a204c4250466163746f7279206973207a65726f00604482015260640160405180910390fd5b600280546001600160a01b0319166001600160a01b0392909216919091179055610153565b600080546001600160a01b038381166001600160a01b0319831681178455604051919092169283917f8be0079c531659141344cd1fd0a4f28419497f9722a3daafe3b4186f6b6457e09190a35050565b60006020828403121561013557600080fd5b81516001600160a01b038116811461014c57600080fd5b9392505050565b610c32806101626000396000f3fe608060405234801561001057600080fd5b50600436106100935760003560e01c8063a619486e11610066578063a619486e1461010c578063c18b51511461011f578063cf497e6c14610132578063f2fde38b14610145578063fd3bd38a1461015857600080fd5b806354fd4d5014610098578063715018a6146100ca5780637679a4c1146100d45780638da5cb5b146100e7575b600080fd5b6000546100ac90600160a01b900460d01b81565b6040516001600160d01b031990911681526020015b60405180910390f35b6100d261016b565b005b6100d26100e2366004610696565b61017f565b6000546001600160a01b03165b6040516001600160a01b0390911681526020016100c1565b6001546100f4906001600160a01b031681565b6002546100f4906001600160a01b031681565b6100d2610140366004610696565b610268565b6100d2610153366004610696565b61034c565b6100d2610166366004610864565b6103c5565b610173610575565b61017d60006105cf565b565b610187610575565b806001600160a01b0381166101e35760405162461bcd60e51b815260206004820152601c60248201527f4c42504d466163746f72793a2061646472657373206973207a65726f0000000060448201526064015b60405180910390fd5b306001600160a01b0382160361020b5760405162461bcd60e51b81526004016101da906109fa565b6002546040516001600160a01b038085169216907f877e5d562f57d3294803fbbd1e6715a2342eedb560cc540e97a9b77f03d12cbf90600090a350600280546001600160a01b0319166001600160a01b0392909216919091179055565b610270610575565b806001600160a01b0381166102c75760405162461bcd60e51b815260206004820152601c60248201527f4c42504d466163746f72793a2061646472657373206973207a65726f0000000060448201526064016101da565b306001600160a01b038216036102ef5760405162461bcd60e51b81526004016101da906109fa565b6001546040516001600160a01b038085169216907fb8c954c26b96c632ba5e28e879f889c124225199d6787047500b1eef41ff464190600090a350600180546001600160a01b0319166001600160a01b0392909216919091179055565b610354610575565b6001600160a01b0381166103b95760405162461bcd60e51b815260206004820152602660248201527f4f776e61626c653a206e6577206f776e657220697320746865207a65726f206160448201526564647265737360d01b60648201526084016101da565b6103c2816105cf565b50565b6001546001600160a01b03166104305760405162461bcd60e51b815260206004820152602a60248201527f4c42504d466163746f72793a204c42504d616e61676572206d6173746572636f6044820152691c1e481b9bdd081cd95d60b21b60648201526084016101da565b600154600090610448906001600160a01b031661061f565b600254604051638638fe3160e01b81529192506001600160a01b0380841692638638fe319261048f9216908f908f908f908f908f908f908f908f908f908f90600401610b02565b600060405180830381600087803b1580156104a957600080fd5b505af11580156104bd573d6000803e3d6000fd5b505060405163b5106add60e01b81526001600160a01b038f811660048301528416925063b5106add9150602401600060405180830381600087803b15801561050457600080fd5b505af1158015610518573d6000803e3d6000fd5b505050508b6001600160a01b0316816001600160a01b03167f8b8a9c158a44eff86c91705dbc9c0479504c8de441156f3c2c21a6ed00e1627a8460405161055f9190610be9565b60405180910390a3505050505050505050505050565b6000546001600160a01b0316331461017d5760405162461bcd60e51b815260206004820181905260248201527f4f776e61626c653a2063616c6c6572206973206e6f7420746865206f776e657260448201526064016101da565b600080546001600160a01b038381166001600160a01b0319831681178455604051919092169283917f8be0079c531659141344cd1fd0a4f28419497f9722a3daafe3b4186f6b6457e09190a35050565b6000808260601b9050604051733d602d80600a3d3981f3363d3d373d3d3d363d7360601b81528160148201526e5af43d82803e903d91602b57fd5bf360881b60288201526037816000f0949350505050565b6001600160a01b03811681146103c257600080fd5b803561069181610671565b919050565b6000602082840312156106a857600080fd5b81356106b381610671565b9392505050565b634e487b7160e01b600052604160045260246000fd5b604051601f8201601f1916810167ffffffffffffffff811182821017156106f9576106f96106ba565b604052919050565b600082601f83011261071257600080fd5b813567ffffffffffffffff81111561072c5761072c6106ba565b61073f601f8201601f19166020016106d0565b81815284602083860101111561075457600080fd5b816020850160208301376000918101602001919091529392505050565b600067ffffffffffffffff82111561078b5761078b6106ba565b5060051b60200190565b600082601f8301126107a657600080fd5b813560206107bb6107b683610771565b6106d0565b82815260059290921b840181019181810190868411156107da57600080fd5b8286015b848110156107fe5780356107f181610671565b83529183019183016107de565b509695505050505050565b600082601f83011261081a57600080fd5b8135602061082a6107b683610771565b82815260059290921b8401810191818101908684111561084957600080fd5b8286015b848110156107fe578035835291830191830161084d565b60008060008060008060008060008060006101608c8e03121561088657600080fd5b61088f8c610686565b9a5061089d60208d01610686565b995067ffffffffffffffff8060408e013511156108b957600080fd5b6108c98e60408f01358f01610701565b99508060608e013511156108dc57600080fd5b6108ec8e60608f01358f01610701565b98508060808e013511156108ff57600080fd5b61090f8e60808f01358f01610795565b97508060a08e0135111561092257600080fd5b6109328e60a08f01358f01610809565b96508060c08e0135111561094557600080fd5b6109558e60c08f01358f01610809565b95508060e08e0135111561096857600080fd5b6109788e60e08f01358f01610809565b9450806101008e0135111561098c57600080fd5b61099d8e6101008f01358f01610809565b9350806101208e013511156109b157600080fd5b6109c28e6101208f01358f01610809565b9250806101408e013511156109d657600080fd5b506109e88d6101408e01358e01610701565b90509295989b509295989b9093969950565b6020808252602e908201527f4c42504d466163746f72793a20616464726573732073616d65206173204c425060408201526d4d616e61676572466163746f727960901b606082015260800190565b6000815180845260005b81811015610a6e57602081850181015186830182015201610a52565b506000602082860101526020601f19601f83011685010191505092915050565b600081518084526020808501945080840160005b83811015610ac75781516001600160a01b031687529582019590820190600101610aa2565b509495945050505050565b600081518084526020808501945080840160005b83811015610ac757815187529582019590820190600101610ae6565b6001600160a01b038c16815260006101606001600160a01b038d166020840152806040840152610b348184018d610a48565b90508281036060840152610b48818c610a48565b90508281036080840152610b5c818b610a8e565b905082810360a0840152610b70818a610ad2565b905082810360c0840152610b848189610ad2565b905082810360e0840152610b988188610ad2565b9050828103610100840152610bad8187610ad2565b9050828103610120840152610bc28186610ad2565b9050828103610140840152610bd78185610a48565b9e9d5050505050505050505050505050565b6020815260006106b36020830184610a4856fea2646970667358221220889ac78df81d1379d6471d9899757d4a6e816b1390bb99b56cff15fc7aa3073464736f6c63430008110033",
  "devdoc": {
    "details": "Governance to create new LBPManager contract without the onlyOwner modifer for the        function deployLBPManager(). By removing the access control, everyone can deploy a        LBPManager from this contract. This is a temporarly solution in response to the        flaky Celo Safe.",
    "kind": "dev",
    "methods": {
      "constructor": {
        "details": "Constructor.",
        "params": {
          "_lbpFactory": "The address of Balancers LBP factory."
        }
      },
      "deployLBPManager(address,address,string,string,address[],uint256[],uint256[],uint256[],uint256[],uint256[],bytes)": {
        "details": "Deploy and initialize LBPManager.",
        "params": {
          "_admin": "The address of the admin of the LBPManager.",
          "_amounts": "Sorted array to match the _tokenList, containing two parameters: - The amounts of project token to be added as liquidity to the LBP. - The amounts of funding token to be added as liquidity to the LBP.",
          "_beneficiary": "The address that receives the _fees.",
          "_endWeights": "Sorted array to match the _tokenList, containing two parametes: - The end weight for the project token in the LBP. - The end weight for the funding token in the LBP.",
          "_fees": "Array containing two parameters: - Percentage of fee paid for every swap in the LBP. - Percentage of fee paid to the _beneficiary for providing the service of the LBP Manager.",
          "_metadata": "IPFS Hash of the LBP creation wizard information.",
          "_name": "Name of the LBP.",
          "_startTimeEndtime": "Array containing two parameters: - Start time for the LBP. - End time for the LBP.",
          "_startWeights": "Sorted array to match the _tokenList, containing two parametes: - The start weight for the project token in the LBP. - The start weight for the funding token in the LBP.",
          "_symbol": "Symbol of the LBP.",
          "_tokenList": "Numerically sorted array (ascending) containing two addresses: - The address of the project token being distributed. - The address of the funding token being exchanged for the project token."
        }
      },
      "owner()": {
        "details": "Returns the address of the current owner."
      },
      "renounceOwnership()": {
        "details": "Leaves the contract without owner. It will not be possible to call `onlyOwner` functions anymore. Can only be called by the current owner. NOTE: Renouncing ownership will leave the contract without an owner, thereby removing any functionality that is only available to the owner."
      },
      "setLBPFactory(address)": {
        "details": "Set Balancers LBP Factory contract as basis for deploying LBPs.",
        "params": {
          "_lbpFactory": "The address of Balancers LBP factory."
        }
      },
      "setMasterCopy(address)": {
        "details": "Set LBPManager contract which works as a base for clones.",
        "params": {
          "_masterCopy": "The address of the new LBPManager basis."
        }
      },
      "transferOwnership(address)": {
        "details": "Transfers ownership of the contract to a new account (`newOwner`). Can only be called by the current owner."
      }
    },
    "title": "LBPManager Factory no access control version 1",
    "version": 1
  },
  "userdoc": {
    "kind": "user",
    "methods": {},
    "version": 1
  },
  "storageLayout": {
    "storage": [
      {
        "astId": 7,
        "contract": "contracts/lbp/LBPManagerFactoryV1NoAccessControl.sol:LBPManagerFactoryV1NoAccessControl",
        "label": "_owner",
        "offset": 0,
        "slot": "0",
        "type": "t_address"
      },
      {
        "astId": 434,
        "contract": "contracts/lbp/LBPManagerFactoryV1NoAccessControl.sol:LBPManagerFactoryV1NoAccessControl",
        "label": "version",
        "offset": 20,
        "slot": "0",
        "type": "t_bytes6"
      },
      {
        "astId": 436,
        "contract": "contracts/lbp/LBPManagerFactoryV1NoAccessControl.sol:LBPManagerFactoryV1NoAccessControl",
        "label": "masterCopy",
        "offset": 0,
        "slot": "1",
        "type": "t_address"
      },
      {
        "astId": 438,
        "contract": "contracts/lbp/LBPManagerFactoryV1NoAccessControl.sol:LBPManagerFactoryV1NoAccessControl",
        "label": "lbpFactory",
        "offset": 0,
        "slot": "2",
        "type": "t_address"
      }
    ],
    "types": {
      "t_address": {
        "encoding": "inplace",
        "label": "address",
        "numberOfBytes": "20"
      },
      "t_bytes6": {
        "encoding": "inplace",
        "label": "bytes6",
        "numberOfBytes": "6"
      }
    }
  }
}