{
  "_format": "hh-sol-artifact-1",
  "contractName": "LBPManager",
  "sourceName": "contracts/lbp/LBPManager.sol",
  "abi": [
    {
      "anonymous": false,
      "inputs": [
        {
          "indexed": true,
          "internalType": "address",
          "name": "beneficiary",
          "type": "address"
        },
        {
          "indexed": false,
          "internalType": "address",
          "name": "tokenAddress",
          "type": "address"
        },
        {
          "indexed": false,
          "internalType": "uint256",
          "name": "amount",
          "type": "uint256"
        }
      ],
      "name": "FeeTransferred",
      "type": "event"
    },
    {
      "anonymous": false,
      "inputs": [
        {
          "indexed": true,
          "internalType": "address",
          "name": "oldAdmin",
          "type": "address"
        },
        {
          "indexed": true,
          "internalType": "address",
          "name": "newAdmin",
          "type": "address"
        }
      ],
      "name": "LBPManagerAdminChanged",
      "type": "event"
    },
    {
      "anonymous": false,
      "inputs": [
        {
          "indexed": true,
          "internalType": "bytes",
          "name": "metadata",
          "type": "bytes"
        }
      ],
      "name": "MetadataUpdated",
      "type": "event"
    },
    {
      "anonymous": false,
      "inputs": [
        {
          "indexed": true,
          "internalType": "address",
          "name": "lbpAddress",
          "type": "address"
        },
        {
          "indexed": false,
          "internalType": "uint256",
          "name": "amount",
          "type": "uint256"
        }
      ],
      "name": "PoolTokensWithdrawn",
      "type": "event"
    },
    {
      "inputs": [],
      "name": "admin",
      "outputs": [
        {
          "internalType": "address",
          "name": "",
          "type": "address"
        }
      ],
      "stateMutability": "view",
      "type": "function"
    },
    {
      "inputs": [
        {
          "internalType": "uint256",
          "name": "",
          "type": "uint256"
        }
      ],
      "name": "amounts",
      "outputs": [
        {
          "internalType": "uint256",
          "name": "",
          "type": "uint256"
        }
      ],
      "stateMutability": "view",
      "type": "function"
    },
    {
      "inputs": [],
      "name": "beneficiary",
      "outputs": [
        {
          "internalType": "address",
          "name": "",
          "type": "address"
        }
      ],
      "stateMutability": "view",
      "type": "function"
    },
    {
      "inputs": [
        {
          "internalType": "uint256",
          "name": "",
          "type": "uint256"
        }
      ],
      "name": "endWeights",
      "outputs": [
        {
          "internalType": "uint256",
          "name": "",
          "type": "uint256"
        }
      ],
      "stateMutability": "view",
      "type": "function"
    },
    {
      "inputs": [],
      "name": "feePercentage",
      "outputs": [
        {
          "internalType": "uint256",
          "name": "",
          "type": "uint256"
        }
      ],
      "stateMutability": "view",
      "type": "function"
    },
    {
      "inputs": [],
      "name": "getSwapEnabled",
      "outputs": [
        {
          "internalType": "bool",
          "name": "",
          "type": "bool"
        }
      ],
      "stateMutability": "view",
      "type": "function"
    },
    {
      "inputs": [
        {
          "internalType": "address",
          "name": "_sender",
          "type": "address"
        }
      ],
      "name": "initializeLBP",
      "outputs": [],
      "stateMutability": "nonpayable",
      "type": "function"
    },
    {
      "inputs": [
        {
          "internalType": "address",
          "name": "_lbpFactory",
          "type": "address"
        },
        {
          "internalType": "address",
          "name": "_beneficiary",
          "type": "address"
        },
        {
          "internalType": "string",
          "name": "_name",
          "type": "string"
        },
        {
          "internalType": "string",
          "name": "_symbol",
          "type": "string"
        },
        {
          "internalType": "contract IERC20[]",
          "name": "_tokenList",
          "type": "address[]"
        },
        {
          "internalType": "uint256[]",
          "name": "_amounts",
          "type": "uint256[]"
        },
        {
          "internalType": "uint256[]",
          "name": "_startWeights",
          "type": "uint256[]"
        },
        {
          "internalType": "uint256[]",
          "name": "_startTimeEndTime",
          "type": "uint256[]"
        },
        {
          "internalType": "uint256[]",
          "name": "_endWeights",
          "type": "uint256[]"
        },
        {
          "internalType": "uint256[]",
          "name": "_fees",
          "type": "uint256[]"
        },
        {
          "internalType": "bytes",
          "name": "_metadata",
          "type": "bytes"
        }
      ],
      "name": "initializeLBPManager",
      "outputs": [],
      "stateMutability": "nonpayable",
      "type": "function"
    },
    {
      "inputs": [],
      "name": "initialized",
      "outputs": [
        {
          "internalType": "bool",
          "name": "",
          "type": "bool"
        }
      ],
      "stateMutability": "view",
      "type": "function"
    },
    {
      "inputs": [],
      "name": "lbp",
      "outputs": [
        {
          "internalType": "contract ILBP",
          "name": "",
          "type": "address"
        }
      ],
      "stateMutability": "view",
      "type": "function"
    },
    {
      "inputs": [],
      "name": "lbpFactory",
      "outputs": [
        {
          "internalType": "address",
          "name": "",
          "type": "address"
        }
      ],
      "stateMutability": "view",
      "type": "function"
    },
    {
      "inputs": [],
      "name": "metadata",
      "outputs": [
        {
          "internalType": "bytes",
          "name": "",
          "type": "bytes"
        }
      ],
      "stateMutability": "view",
      "type": "function"
    },
    {
      "inputs": [],
      "name": "name",
      "outputs": [
        {
          "internalType": "string",
          "name": "",
          "type": "string"
        }
      ],
      "stateMutability": "view",
      "type": "function"
    },
    {
      "inputs": [],
      "name": "poolFunded",
      "outputs": [
        {
          "internalType": "bool",
          "name": "",
          "type": "bool"
        }
      ],
      "stateMutability": "view",
      "type": "function"
    },
    {
      "inputs": [],
      "name": "projectTokenIndex",
      "outputs": [
        {
          "internalType": "uint8",
          "name": "",
          "type": "uint8"
        }
      ],
      "stateMutability": "view",
      "type": "function"
    },
    {
      "inputs": [],
      "name": "projectTokensRequired",
      "outputs": [
        {
          "internalType": "uint256",
          "name": "projectTokenAmounts",
          "type": "uint256"
        }
      ],
      "stateMutability": "view",
      "type": "function"
    },
    {
      "inputs": [
        {
          "internalType": "address",
          "name": "_receiver",
          "type": "address"
        }
      ],
      "name": "removeLiquidity",
      "outputs": [],
      "stateMutability": "nonpayable",
      "type": "function"
    },
    {
      "inputs": [
        {
          "internalType": "bool",
          "name": "_swapEnabled",
          "type": "bool"
        }
      ],
      "name": "setSwapEnabled",
      "outputs": [],
      "stateMutability": "nonpayable",
      "type": "function"
    },
    {
      "inputs": [
        {
          "internalType": "uint256",
          "name": "",
          "type": "uint256"
        }
      ],
      "name": "startTimeEndTime",
      "outputs": [
        {
          "internalType": "uint256",
          "name": "",
          "type": "uint256"
        }
      ],
      "stateMutability": "view",
      "type": "function"
    },
    {
      "inputs": [
        {
          "internalType": "uint256",
          "name": "",
          "type": "uint256"
        }
      ],
      "name": "startWeights",
      "outputs": [
        {
          "internalType": "uint256",
          "name": "",
          "type": "uint256"
        }
      ],
      "stateMutability": "view",
      "type": "function"
    },
    {
      "inputs": [],
      "name": "swapFeePercentage",
      "outputs": [
        {
          "internalType": "uint256",
          "name": "",
          "type": "uint256"
        }
      ],
      "stateMutability": "view",
      "type": "function"
    },
    {
      "inputs": [],
      "name": "symbol",
      "outputs": [
        {
          "internalType": "string",
          "name": "",
          "type": "string"
        }
      ],
      "stateMutability": "view",
      "type": "function"
    },
    {
      "inputs": [
        {
          "internalType": "uint256",
          "name": "",
          "type": "uint256"
        }
      ],
      "name": "tokenList",
      "outputs": [
        {
          "internalType": "contract IERC20",
          "name": "",
          "type": "address"
        }
      ],
      "stateMutability": "view",
      "type": "function"
    },
    {
      "inputs": [
        {
          "internalType": "address",
          "name": "_newAdmin",
          "type": "address"
        }
      ],
      "name": "transferAdminRights",
      "outputs": [],
      "stateMutability": "nonpayable",
      "type": "function"
    },
    {
      "inputs": [
        {
          "internalType": "bytes",
          "name": "_metadata",
          "type": "bytes"
        }
      ],
      "name": "updateMetadata",
      "outputs": [],
      "stateMutability": "nonpayable",
      "type": "function"
    },
    {
      "inputs": [
        {
          "internalType": "address",
          "name": "_receiver",
          "type": "address"
        }
      ],
      "name": "withdrawPoolTokens",
      "outputs": [],
      "stateMutability": "nonpayable",
      "type": "function"
    }
  ],
  "bytecode": "0x608060405234801561001057600080fd5b5061490f806100206000396000f3fe608060405234801561001057600080fd5b506004361061018e5760003560e01c8063a001ecdd116100de578063c9d8616f11610097578063d798f86e11610071578063d798f86e14610479578063e01af92c14610495578063f851a440146104b1578063fc582d41146104cf5761018e565b8063c9d8616f146103fb578063cb209b6c1461042b578063cd2055e5146104495761018e565b8063a001ecdd14610337578063a4ac0d4914610355578063a88971fa14610373578063b5106add14610391578063bb7bfb0c146103ad578063c18b5151146103dd5761018e565b80633facbb851161014b5780638638fe31116101255780638638fe31146102b15780638bfd5289146102cd57806395d89b41146102e95780639ead7222146103075761018e565b80633facbb851461024757806345f0a44f1461026357806347bc4d92146102935761018e565b806306fdde0314610193578063092f7de7146101b1578063158ef93e146101cf5780633281f3ec146101ed57806338af3eed1461020b578063392f37e914610229575b600080fd5b61019b6104eb565b6040516101a89190612d0d565b60405180910390f35b6101b9610579565b6040516101c69190612dae565b60405180910390f35b6101d761059f565b6040516101e49190612de4565b60405180910390f35b6101f56105b2565b6040516102029190612e18565b60405180910390f35b6102136105fc565b6040516102209190612e54565b60405180910390f35b610231610622565b60405161023e9190612ec4565b60405180910390f35b610261600480360381019061025c9190612f26565b6106b0565b005b61027d60048036038101906102789190612f7f565b610b7c565b60405161028a9190612e18565b60405180910390f35b61029b610ba0565b6040516102a89190612de4565b60405180910390f35b6102cb60048036038101906102c6919061334b565b610c96565b005b6102e760048036038101906102e29190612f26565b6114e4565b005b6102f1611ec4565b6040516102fe9190612d0d565b60405180910390f35b610321600480360381019061031c9190612f7f565b611f52565b60405161032e919061355c565b60405180910390f35b61033f611f91565b60405161034c9190612e18565b60405180910390f35b61035d611f97565b60405161036a9190612e18565b60405180910390f35b61037b611f9d565b6040516103889190612de4565b60405180910390f35b6103ab60048036038101906103a69190612f26565b611fb0565b005b6103c760048036038101906103c29190612f7f565b612170565b6040516103d49190612e18565b60405180910390f35b6103e5612194565b6040516103f29190612e54565b60405180910390f35b61041560048036038101906104109190612f7f565b6121ba565b6040516104229190612e18565b60405180910390f35b6104336121de565b6040516104409190613593565b60405180910390f35b610463600480360381019061045e9190612f7f565b6121f1565b6040516104709190612e18565b60405180910390f35b610493600480360381019061048e9190612f26565b612215565b005b6104af60048036038101906104aa91906135da565b6127ea565b005b6104b961290a565b6040516104c69190612e54565b60405180910390f35b6104e960048036038101906104e49190613607565b612930565b005b600180546104f89061367f565b80601f01602080910402602001604051908101604052809291908181526020018280546105249061367f565b80156105715780601f1061054657610100808354040283529160200191610571565b820191906000526020600020905b81548152906001019060200180831161055457829003601f168201915b505050505081565b600b60009054906101000a900473ffffffffffffffffffffffffffffffffffffffff1681565b600d60169054906101000a900460ff1681565b60006105bc612a1c565b6007600d60009054906101000a900460ff1660ff16815481106105e2576105e16136b1565b5b90600052602060002001546105f7919061370f565b905090565b600360009054906101000a900473ffffffffffffffffffffffffffffffffffffffff1681565b600c805461062f9061367f565b80601f016020809104026020016040519081016040528092919081815260200182805461065b9061367f565b80156106a85780601f1061067d576101008083540402835291602001916106a8565b820191906000526020600020905b81548152906001019060200180831161068b57829003601f168201915b505050505081565b600260009054906101000a900473ffffffffffffffffffffffffffffffffffffffff1673ffffffffffffffffffffffffffffffffffffffff163373ffffffffffffffffffffffffffffffffffffffff1614610740576040517f08c379a0000000000000000000000000000000000000000000000000000000008152600401610737906137b1565b60405180910390fd5b600073ffffffffffffffffffffffffffffffffffffffff168173ffffffffffffffffffffffffffffffffffffffff1614156107b0576040517f08c379a00000000000000000000000000000000000000000000000000000000081526004016107a79061381d565b60405180910390fd5b6000600a6001815481106107c7576107c66136b1565b5b9060005260206000200154905080421015610817576040517f08c379a000000000000000000000000000000000000000000000000000000000815260040161080e90613889565b60405180910390fd5b6000600b60009054906101000a900473ffffffffffffffffffffffffffffffffffffffff1673ffffffffffffffffffffffffffffffffffffffff166370a08231306040518263ffffffff1660e01b81526004016108749190612e54565b60206040518083038186803b15801561088c57600080fd5b505afa1580156108a0573d6000803e3d6000fd5b505050506040513d601f19601f820116820180604052508101906108c491906138be565b11610904576040517f08c379a00000000000000000000000000000000000000000000000000000000081526004016108fb90613937565b60405180910390fd5b600b60009054906101000a900473ffffffffffffffffffffffffffffffffffffffff1673ffffffffffffffffffffffffffffffffffffffff167fd0b72dd3c0f971f9cf266fee8e4c7660231316a67c88a587fa8dfa398c9e1374600b60009054906101000a900473ffffffffffffffffffffffffffffffffffffffff1673ffffffffffffffffffffffffffffffffffffffff166370a08231306040518263ffffffff1660e01b81526004016109b99190612e54565b60206040518083038186803b1580156109d157600080fd5b505afa1580156109e5573d6000803e3d6000fd5b505050506040513d601f19601f82011682018060405250810190610a0991906138be565b604051610a169190612e18565b60405180910390a2600b60009054906101000a900473ffffffffffffffffffffffffffffffffffffffff1673ffffffffffffffffffffffffffffffffffffffff1663a9059cbb83600b60009054906101000a900473ffffffffffffffffffffffffffffffffffffffff1673ffffffffffffffffffffffffffffffffffffffff166370a08231306040518263ffffffff1660e01b8152600401610ab89190612e54565b60206040518083038186803b158015610ad057600080fd5b505afa158015610ae4573d6000803e3d6000fd5b505050506040513d601f19601f82011682018060405250810190610b0891906138be565b6040518363ffffffff1660e01b8152600401610b25929190613957565b602060405180830381600087803b158015610b3f57600080fd5b505af1158015610b53573d6000803e3d6000fd5b505050506040513d601f19601f82011682018060405250810190610b779190613995565b505050565b60078181548110610b8c57600080fd5b906000526020600020016000915090505481565b6000600d60159054906101000a900460ff16610bf1576040517f08c379a0000000000000000000000000000000000000000000000000000000008152600401610be890613a0e565b60405180910390fd5b600b60009054906101000a900473ffffffffffffffffffffffffffffffffffffffff1673ffffffffffffffffffffffffffffffffffffffff166347bc4d926040518163ffffffff1660e01b815260040160206040518083038186803b158015610c5957600080fd5b505afa158015610c6d573d6000803e3d6000fd5b505050506040513d601f19601f82011682018060405250810190610c919190613995565b905090565b600d60169054906101000a900460ff1615610ce6576040517f08c379a0000000000000000000000000000000000000000000000000000000008152600401610cdd90613a7a565b60405180910390fd5b600073ffffffffffffffffffffffffffffffffffffffff168a73ffffffffffffffffffffffffffffffffffffffff161415610d56576040517f08c379a0000000000000000000000000000000000000000000000000000000008152600401610d4d90613ae6565b60405180910390fd5b64e8d4a5100082600081518110610d7057610d6f6136b1565b5b60200260200101511015610db9576040517f08c379a0000000000000000000000000000000000000000000000000000000008152600401610db090613b78565b60405180910390fd5b67016345785d8a000082600081518110610dd657610dd56136b1565b5b60200260200101511115610e1f576040517f08c379a0000000000000000000000000000000000000000000000000000000008152600401610e1690613c0a565b60405180910390fd5b60028751148015610e31575060028651145b8015610e3e575060028551145b8015610e4b575060028451145b8015610e58575060028351145b8015610e65575060028251145b610ea4576040517f08c379a0000000000000000000000000000000000000000000000000000000008152600401610e9b90613c76565b60405180910390fd5b86600181518110610eb857610eb76136b1565b5b602002602001015173ffffffffffffffffffffffffffffffffffffffff1687600081518110610eea57610ee96136b1565b5b602002602001015173ffffffffffffffffffffffffffffffffffffffff161415610f49576040517f08c379a0000000000000000000000000000000000000000000000000000000008152600401610f4090613ce2565b60405180910390fd5b83600181518110610f5d57610f5c6136b1565b5b602002602001015184600081518110610f7957610f786136b1565b5b602002602001015110610fc1576040517f08c379a0000000000000000000000000000000000000000000000000000000008152600401610fb890613d4e565b60405180910390fd5b6001600d60166101000a81548160ff02191690831515021790555033600260006101000a81548173ffffffffffffffffffffffffffffffffffffffff021916908373ffffffffffffffffffffffffffffffffffffffff16021790555081600081518110611031576110306136b1565b5b602002602001015160058190555081600181518110611053576110526136b1565b5b602002602001015160048190555089600360006101000a81548173ffffffffffffffffffffffffffffffffffffffff021916908373ffffffffffffffffffffffffffffffffffffffff16021790555080600c90805190602001906110b8929190612a74565b5083600a90805190602001906110cf929190612afa565b5088600190805190602001906110e6929190612b47565b5087600090805190602001906110fd929190612b47565b508a600d60016101000a81548173ffffffffffffffffffffffffffffffffffffffff021916908373ffffffffffffffffffffffffffffffffffffffff16021790555086600181518110611153576111526136b1565b5b602002602001015173ffffffffffffffffffffffffffffffffffffffff1687600081518110611185576111846136b1565b5b602002602001015173ffffffffffffffffffffffffffffffffffffffff16111561145e576001600d60006101000a81548160ff021916908360ff1602179055506006876001815181106111db576111da6136b1565b5b60200260200101519080600181540180825580915050600190039060005260206000200160009091909190916101000a81548173ffffffffffffffffffffffffffffffffffffffff021916908373ffffffffffffffffffffffffffffffffffffffff160217905550600687600081518110611259576112586136b1565b5b60200260200101519080600181540180825580915050600190039060005260206000200160009091909190916101000a81548173ffffffffffffffffffffffffffffffffffffffff021916908373ffffffffffffffffffffffffffffffffffffffff1602179055506007866001815181106112d7576112d66136b1565b5b6020026020010151908060018154018082558091505060019003906000526020600020016000909190919091505560078660008151811061131b5761131a6136b1565b5b6020026020010151908060018154018082558091505060019003906000526020600020016000909190919091505560088560018151811061135f5761135e6136b1565b5b602002602001015190806001815401808255809150506001900390600052602060002001600090919091909150556008856000815181106113a3576113a26136b1565b5b602002602001015190806001815401808255809150506001900390600052602060002001600090919091909150556009836001815181106113e7576113e66136b1565b5b6020026020010151908060018154018082558091505060019003906000526020600020016000909190919091505560098360008151811061142b5761142a6136b1565b5b602002602001015190806001815401808255809150506001900390600052602060002001600090919091909150556114d7565b6000600d60006101000a81548160ff021916908360ff1602179055508660069080519060200190611490929190612bcd565b5085600790805190602001906114a7929190612afa565b5084600890805190602001906114be929190612afa565b5082600990805190602001906114d5929190612afa565b505b5050505050505050505050565b600260009054906101000a900473ffffffffffffffffffffffffffffffffffffffff1673ffffffffffffffffffffffffffffffffffffffff163373ffffffffffffffffffffffffffffffffffffffff1614611574576040517f08c379a000000000000000000000000000000000000000000000000000000000815260040161156b906137b1565b60405180910390fd5b60011515600d60169054906101000a900460ff161515146115ca576040517f08c379a00000000000000000000000000000000000000000000000000000000081526004016115c190613de0565b60405180910390fd5b600d60159054906101000a900460ff161561161a576040517f08c379a000000000000000000000000000000000000000000000000000000000815260040161161190613e4c565b60405180910390fd5b6001600d60156101000a81548160ff021916908315150217905550600d60019054906101000a900473ffffffffffffffffffffffffffffffffffffffff1673ffffffffffffffffffffffffffffffffffffffff16632367971960016000600660086005543060006040518863ffffffff1660e01b81526004016116a39796959493929190614126565b602060405180830381600087803b1580156116bd57600080fd5b505af11580156116d1573d6000803e3d6000fd5b505050506040513d601f19601f820116820180604052508101906116f591906141c6565b600b60006101000a81548173ffffffffffffffffffffffffffffffffffffffff021916908373ffffffffffffffffffffffffffffffffffffffff160217905550600b60009054906101000a900473ffffffffffffffffffffffffffffffffffffffff1673ffffffffffffffffffffffffffffffffffffffff16633e569205600a600081548110611788576117876136b1565b5b9060005260206000200154600a6001815481106117a8576117a76136b1565b5b906000526020600020015460096040518463ffffffff1660e01b81526004016117d3939291906141f3565b600060405180830381600087803b1580156117ed57600080fd5b505af1158015611801573d6000803e3d6000fd5b505050506000600b60009054906101000a900473ffffffffffffffffffffffffffffffffffffffff1673ffffffffffffffffffffffffffffffffffffffff16638d928af86040518163ffffffff1660e01b815260040160206040518083038186803b15801561186f57600080fd5b505afa158015611883573d6000803e3d6000fd5b505050506040513d601f19601f820116820180604052508101906118a7919061426f565b9050600060045414611a855760006118bd612a1c565b90506006600d60009054906101000a900460ff1660ff16815481106118e5576118e46136b1565b5b9060005260206000200160009054906101000a900473ffffffffffffffffffffffffffffffffffffffff1673ffffffffffffffffffffffffffffffffffffffff166323b872dd84600360009054906101000a900473ffffffffffffffffffffffffffffffffffffffff16846040518463ffffffff1660e01b815260040161196e9392919061429c565b602060405180830381600087803b15801561198857600080fd5b505af115801561199c573d6000803e3d6000fd5b505050506040513d601f19601f820116820180604052508101906119c09190613995565b50600360009054906101000a900473ffffffffffffffffffffffffffffffffffffffff1673ffffffffffffffffffffffffffffffffffffffff167f1d6298f49fc15449b78df91fcca6812136edc2972366cb70aa0d9145a308cd316006600d60009054906101000a900460ff1660ff1681548110611a4157611a406136b1565b5b9060005260206000200160009054906101000a900473ffffffffffffffffffffffffffffffffffffffff1683604051611a7b929190613957565b60405180910390a2505b60005b6006805490508160ff161015611c8d5760068160ff1681548110611aaf57611aae6136b1565b5b9060005260206000200160009054906101000a900473ffffffffffffffffffffffffffffffffffffffff1673ffffffffffffffffffffffffffffffffffffffff166323b872dd843060078560ff1681548110611b0e57611b0d6136b1565b5b90600052602060002001546040518463ffffffff1660e01b8152600401611b379392919061429c565b602060405180830381600087803b158015611b5157600080fd5b505af1158015611b65573d6000803e3d6000fd5b505050506040513d601f19601f82011682018060405250810190611b899190613995565b5060068160ff1681548110611ba157611ba06136b1565b5b9060005260206000200160009054906101000a900473ffffffffffffffffffffffffffffffffffffffff1673ffffffffffffffffffffffffffffffffffffffff1663095ea7b38360078460ff1681548110611bff57611bfe6136b1565b5b90600052602060002001546040518363ffffffff1660e01b8152600401611c27929190613957565b602060405180830381600087803b158015611c4157600080fd5b505af1158015611c55573d6000803e3d6000fd5b505050506040513d601f19601f82011682018060405250810190611c799190613995565b508080611c85906142d3565b915050611a88565b50600060405180608001604052806006805480602002602001604051908101604052809291908181526020018280548015611d1d57602002820191906000526020600020905b8160009054906101000a900473ffffffffffffffffffffffffffffffffffffffff1673ffffffffffffffffffffffffffffffffffffffff1681526020019060010190808311611cd3575b505050505081526020016007805480602002602001604051908101604052809291908181526020018280548015611d7357602002820191906000526020600020905b815481526020019060010190808311611d5f575b5050505050815260200160006007604051602001611d92929190614338565b60405160208183030381529060405281526020016000151581525090508173ffffffffffffffffffffffffffffffffffffffff1663b95cac28600b60009054906101000a900473ffffffffffffffffffffffffffffffffffffffff1673ffffffffffffffffffffffffffffffffffffffff166338fff2d06040518163ffffffff1660e01b815260040160206040518083038186803b158015611e3357600080fd5b505afa158015611e47573d6000803e3d6000fd5b505050506040513d601f19601f82011682018060405250810190611e6b919061439e565b3030856040518563ffffffff1660e01b8152600401611e8d94939291906145d2565b600060405180830381600087803b158015611ea757600080fd5b505af1158015611ebb573d6000803e3d6000fd5b50505050505050565b60008054611ed19061367f565b80601f0160208091040260200160405190810160405280929190818152602001828054611efd9061367f565b8015611f4a5780601f10611f1f57610100808354040283529160200191611f4a565b820191906000526020600020905b815481529060010190602001808311611f2d57829003601f168201915b505050505081565b60068181548110611f6257600080fd5b906000526020600020016000915054906101000a900473ffffffffffffffffffffffffffffffffffffffff1681565b60045481565b60055481565b600d60159054906101000a900460ff1681565b600260009054906101000a900473ffffffffffffffffffffffffffffffffffffffff1673ffffffffffffffffffffffffffffffffffffffff163373ffffffffffffffffffffffffffffffffffffffff1614612040576040517f08c379a0000000000000000000000000000000000000000000000000000000008152600401612037906137b1565b60405180910390fd5b600073ffffffffffffffffffffffffffffffffffffffff168173ffffffffffffffffffffffffffffffffffffffff1614156120b0576040517f08c379a00000000000000000000000000000000000000000000000000000000081526004016120a79061466a565b60405180910390fd5b8073ffffffffffffffffffffffffffffffffffffffff16600260009054906101000a900473ffffffffffffffffffffffffffffffffffffffff1673ffffffffffffffffffffffffffffffffffffffff167f39324b4c6f0dfe086be64dee1dd0fff15f9055828415513052c73d8e178c75f560405160405180910390a380600260006101000a81548173ffffffffffffffffffffffffffffffffffffffff021916908373ffffffffffffffffffffffffffffffffffffffff16021790555050565b6008818154811061218057600080fd5b906000526020600020016000915090505481565b600d60019054906101000a900473ffffffffffffffffffffffffffffffffffffffff1681565b600981815481106121ca57600080fd5b906000526020600020016000915090505481565b600d60009054906101000a900460ff1681565b600a818154811061220157600080fd5b906000526020600020016000915090505481565b600260009054906101000a900473ffffffffffffffffffffffffffffffffffffffff1673ffffffffffffffffffffffffffffffffffffffff163373ffffffffffffffffffffffffffffffffffffffff16146122a5576040517f08c379a000000000000000000000000000000000000000000000000000000000815260040161229c906137b1565b60405180910390fd5b600073ffffffffffffffffffffffffffffffffffffffff168173ffffffffffffffffffffffffffffffffffffffff161415612315576040517f08c379a000000000000000000000000000000000000000000000000000000000815260040161230c9061381d565b60405180910390fd5b6000600b60009054906101000a900473ffffffffffffffffffffffffffffffffffffffff1673ffffffffffffffffffffffffffffffffffffffff166370a08231306040518263ffffffff1660e01b81526004016123729190612e54565b60206040518083038186803b15801561238a57600080fd5b505afa15801561239e573d6000803e3d6000fd5b505050506040513d601f19601f820116820180604052508101906123c291906138be565b11612402576040517f08c379a00000000000000000000000000000000000000000000000000000000081526004016123f990613937565b60405180910390fd5b6000600a600181548110612419576124186136b1565b5b9060005260206000200154905080421015612469576040517f08c379a000000000000000000000000000000000000000000000000000000000815260040161246090613889565b60405180910390fd5b6000600b60009054906101000a900473ffffffffffffffffffffffffffffffffffffffff1673ffffffffffffffffffffffffffffffffffffffff16638d928af86040518163ffffffff1660e01b815260040160206040518083038186803b1580156124d357600080fd5b505afa1580156124e7573d6000803e3d6000fd5b505050506040513d601f19601f8201168201806040525081019061250b919061426f565b905060006040518060800160405280600680548060200260200160405190810160405280929190818152602001828054801561259c57602002820191906000526020600020905b8160009054906101000a900473ffffffffffffffffffffffffffffffffffffffff1673ffffffffffffffffffffffffffffffffffffffff1681526020019060010190808311612552575b5050505050815260200160068054905067ffffffffffffffff8111156125c5576125c4612fb6565b5b6040519080825280602002602001820160405280156125f35781602001602082028036833780820191505090505b5081526020016001600b60009054906101000a900473ffffffffffffffffffffffffffffffffffffffff1673ffffffffffffffffffffffffffffffffffffffff166370a08231306040518263ffffffff1660e01b81526004016126569190612e54565b60206040518083038186803b15801561266e57600080fd5b505afa158015612682573d6000803e3d6000fd5b505050506040513d601f19601f820116820180604052508101906126a691906138be565b6040516020016126b79291906146c5565b60405160208183030381529060405281526020016000151581525090508173ffffffffffffffffffffffffffffffffffffffff16638bdb3913600b60009054906101000a900473ffffffffffffffffffffffffffffffffffffffff1673ffffffffffffffffffffffffffffffffffffffff166338fff2d06040518163ffffffff1660e01b815260040160206040518083038186803b15801561275857600080fd5b505afa15801561276c573d6000803e3d6000fd5b505050506040513d601f19601f82011682018060405250810190612790919061439e565b3087856040518563ffffffff1660e01b81526004016127b29493929190614780565b600060405180830381600087803b1580156127cc57600080fd5b505af11580156127e0573d6000803e3d6000fd5b5050505050505050565b600260009054906101000a900473ffffffffffffffffffffffffffffffffffffffff1673ffffffffffffffffffffffffffffffffffffffff163373ffffffffffffffffffffffffffffffffffffffff161461287a576040517f08c379a0000000000000000000000000000000000000000000000000000000008152600401612871906137b1565b60405180910390fd5b600b60009054906101000a900473ffffffffffffffffffffffffffffffffffffffff1673ffffffffffffffffffffffffffffffffffffffff1663e01af92c826040518263ffffffff1660e01b81526004016128d59190612de4565b600060405180830381600087803b1580156128ef57600080fd5b505af1158015612903573d6000803e3d6000fd5b5050505050565b600260009054906101000a900473ffffffffffffffffffffffffffffffffffffffff1681565b600260009054906101000a900473ffffffffffffffffffffffffffffffffffffffff1673ffffffffffffffffffffffffffffffffffffffff163373ffffffffffffffffffffffffffffffffffffffff16146129c0576040517f08c379a00000000000000000000000000000000000000000000000000000000081526004016129b7906137b1565b60405180910390fd5b80600c90805190602001906129d6929190612a74565b50806040516129e59190614808565b60405180910390207f09f579b21815d3f81581d32e97736ccba1cc89d1918e48da28e6e206acd9686460405160405180910390a250565b6000670de0b6b3a76400006004546007600d60009054906101000a900460ff1660ff1681548110612a5057612a4f6136b1565b5b9060005260206000200154612a65919061481f565b612a6f91906148a8565b905090565b828054612a809061367f565b90600052602060002090601f016020900481019282612aa25760008555612ae9565b82601f10612abb57805160ff1916838001178555612ae9565b82800160010185558215612ae9579182015b82811115612ae8578251825591602001919060010190612acd565b5b509050612af69190612c57565b5090565b828054828255906000526020600020908101928215612b36579160200282015b82811115612b35578251825591602001919060010190612b1a565b5b509050612b439190612c57565b5090565b828054612b539061367f565b90600052602060002090601f016020900481019282612b755760008555612bbc565b82601f10612b8e57805160ff1916838001178555612bbc565b82800160010185558215612bbc579182015b82811115612bbb578251825591602001919060010190612ba0565b5b509050612bc99190612c57565b5090565b828054828255906000526020600020908101928215612c46579160200282015b82811115612c455782518260006101000a81548173ffffffffffffffffffffffffffffffffffffffff021916908373ffffffffffffffffffffffffffffffffffffffff16021790555091602001919060010190612bed565b5b509050612c539190612c57565b5090565b5b80821115612c70576000816000905550600101612c58565b5090565b600081519050919050565b600082825260208201905092915050565b60005b83811015612cae578082015181840152602081019050612c93565b83811115612cbd576000848401525b50505050565b6000601f19601f8301169050919050565b6000612cdf82612c74565b612ce98185612c7f565b9350612cf9818560208601612c90565b612d0281612cc3565b840191505092915050565b60006020820190508181036000830152612d278184612cd4565b905092915050565b600073ffffffffffffffffffffffffffffffffffffffff82169050919050565b6000819050919050565b6000612d74612d6f612d6a84612d2f565b612d4f565b612d2f565b9050919050565b6000612d8682612d59565b9050919050565b6000612d9882612d7b565b9050919050565b612da881612d8d565b82525050565b6000602082019050612dc36000830184612d9f565b92915050565b60008115159050919050565b612dde81612dc9565b82525050565b6000602082019050612df96000830184612dd5565b92915050565b6000819050919050565b612e1281612dff565b82525050565b6000602082019050612e2d6000830184612e09565b92915050565b6000612e3e82612d2f565b9050919050565b612e4e81612e33565b82525050565b6000602082019050612e696000830184612e45565b92915050565b600081519050919050565b600082825260208201905092915050565b6000612e9682612e6f565b612ea08185612e7a565b9350612eb0818560208601612c90565b612eb981612cc3565b840191505092915050565b60006020820190508181036000830152612ede8184612e8b565b905092915050565b6000604051905090565b600080fd5b600080fd5b612f0381612e33565b8114612f0e57600080fd5b50565b600081359050612f2081612efa565b92915050565b600060208284031215612f3c57612f3b612ef0565b5b6000612f4a84828501612f11565b91505092915050565b612f5c81612dff565b8114612f6757600080fd5b50565b600081359050612f7981612f53565b92915050565b600060208284031215612f9557612f94612ef0565b5b6000612fa384828501612f6a565b91505092915050565b600080fd5b600080fd5b7f4e487b7100000000000000000000000000000000000000000000000000000000600052604160045260246000fd5b612fee82612cc3565b810181811067ffffffffffffffff8211171561300d5761300c612fb6565b5b80604052505050565b6000613020612ee6565b905061302c8282612fe5565b919050565b600067ffffffffffffffff82111561304c5761304b612fb6565b5b61305582612cc3565b9050602081019050919050565b82818337600083830152505050565b600061308461307f84613031565b613016565b9050828152602081018484840111156130a05761309f612fb1565b5b6130ab848285613062565b509392505050565b600082601f8301126130c8576130c7612fac565b5b81356130d8848260208601613071565b91505092915050565b600067ffffffffffffffff8211156130fc576130fb612fb6565b5b602082029050602081019050919050565b600080fd5b600061311d82612e33565b9050919050565b61312d81613112565b811461313857600080fd5b50565b60008135905061314a81613124565b92915050565b600061316361315e846130e1565b613016565b905080838252602082019050602084028301858111156131865761318561310d565b5b835b818110156131af578061319b888261313b565b845260208401935050602081019050613188565b5050509392505050565b600082601f8301126131ce576131cd612fac565b5b81356131de848260208601613150565b91505092915050565b600067ffffffffffffffff82111561320257613201612fb6565b5b602082029050602081019050919050565b6000613226613221846131e7565b613016565b905080838252602082019050602084028301858111156132495761324861310d565b5b835b81811015613272578061325e8882612f6a565b84526020840193505060208101905061324b565b5050509392505050565b600082601f83011261329157613290612fac565b5b81356132a1848260208601613213565b91505092915050565b600067ffffffffffffffff8211156132c5576132c4612fb6565b5b6132ce82612cc3565b9050602081019050919050565b60006132ee6132e9846132aa565b613016565b90508281526020810184848401111561330a57613309612fb1565b5b613315848285613062565b509392505050565b600082601f83011261333257613331612fac565b5b81356133428482602086016132db565b91505092915050565b60008060008060008060008060008060006101608c8e03121561337157613370612ef0565b5b600061337f8e828f01612f11565b9b505060206133908e828f01612f11565b9a505060408c013567ffffffffffffffff8111156133b1576133b0612ef5565b5b6133bd8e828f016130b3565b99505060608c013567ffffffffffffffff8111156133de576133dd612ef5565b5b6133ea8e828f016130b3565b98505060808c013567ffffffffffffffff81111561340b5761340a612ef5565b5b6134178e828f016131b9565b97505060a08c013567ffffffffffffffff81111561343857613437612ef5565b5b6134448e828f0161327c565b96505060c08c013567ffffffffffffffff81111561346557613464612ef5565b5b6134718e828f0161327c565b95505060e08c013567ffffffffffffffff81111561349257613491612ef5565b5b61349e8e828f0161327c565b9450506101008c013567ffffffffffffffff8111156134c0576134bf612ef5565b5b6134cc8e828f0161327c565b9350506101208c013567ffffffffffffffff8111156134ee576134ed612ef5565b5b6134fa8e828f0161327c565b9250506101408c013567ffffffffffffffff81111561351c5761351b612ef5565b5b6135288e828f0161331d565b9150509295989b509295989b9093969950565b600061354682612d7b565b9050919050565b6135568161353b565b82525050565b6000602082019050613571600083018461354d565b92915050565b600060ff82169050919050565b61358d81613577565b82525050565b60006020820190506135a86000830184613584565b92915050565b6135b781612dc9565b81146135c257600080fd5b50565b6000813590506135d4816135ae565b92915050565b6000602082840312156135f0576135ef612ef0565b5b60006135fe848285016135c5565b91505092915050565b60006020828403121561361d5761361c612ef0565b5b600082013567ffffffffffffffff81111561363b5761363a612ef5565b5b6136478482850161331d565b91505092915050565b7f4e487b7100000000000000000000000000000000000000000000000000000000600052602260045260246000fd5b6000600282049050600182168061369757607f821691505b602082108114156136ab576136aa613650565b5b50919050565b7f4e487b7100000000000000000000000000000000000000000000000000000000600052603260045260246000fd5b7f4e487b7100000000000000000000000000000000000000000000000000000000600052601160045260246000fd5b600061371a82612dff565b915061372583612dff565b9250827fffffffffffffffffffffffffffffffffffffffffffffffffffffffffffffffff0382111561375a576137596136e0565b5b828201905092915050565b7f4c42504d616e616765723a2063616c6c6572206973206e6f742061646d696e00600082015250565b600061379b601f83612c7f565b91506137a682613765565b602082019050919050565b600060208201905081810360008301526137ca8161378e565b9050919050565b7f4c42504d616e616765723a207265636569766572206973207a65726f00000000600082015250565b6000613807601c83612c7f565b9150613812826137d1565b602082019050919050565b60006020820190508181036000830152613836816137fa565b9050919050565b7f4c42504d616e616765723a20656e6474696d65206e6f74207265616368656400600082015250565b6000613873601f83612c7f565b915061387e8261383d565b602082019050919050565b600060208201905081810360008301526138a281613866565b9050919050565b6000815190506138b881612f53565b92915050565b6000602082840312156138d4576138d3612ef0565b5b60006138e2848285016138a9565b91505092915050565b7f4c42504d616e616765723a206e6f2042505420746f6b656e2062616c616e6365600082015250565b6000613921602083612c7f565b915061392c826138eb565b602082019050919050565b6000602082019050818103600083015261395081613914565b9050919050565b600060408201905061396c6000830185612e45565b6139796020830184612e09565b9392505050565b60008151905061398f816135ae565b92915050565b6000602082840312156139ab576139aa612ef0565b5b60006139b984828501613980565b91505092915050565b7f4c42504d616e616765723a204c4250206e6f7420696e697469616c697a65642e600082015250565b60006139f8602083612c7f565b9150613a03826139c2565b602082019050919050565b60006020820190508181036000830152613a27816139eb565b9050919050565b7f4c42504d616e616765723a20616c726561647920696e697469616c697a656400600082015250565b6000613a64601f83612c7f565b9150613a6f82613a2e565b602082019050919050565b60006020820190508181036000830152613a9381613a57565b9050919050565b7f4c42504d616e616765723a205f62656e6566696369617279206973207a65726f600082015250565b6000613ad0602083612c7f565b9150613adb82613a9a565b602082019050919050565b60006020820190508181036000830152613aff81613ac3565b9050919050565b7f4c42504d616e616765723a207377617046656550657263656e7461676520746f60008201527f206c6f7700000000000000000000000000000000000000000000000000000000602082015250565b6000613b62602483612c7f565b9150613b6d82613b06565b604082019050919050565b60006020820190508181036000830152613b9181613b55565b9050919050565b7f4c42504d616e616765723a207377617046656550657263656e7461676520746f60008201527f2068696768000000000000000000000000000000000000000000000000000000602082015250565b6000613bf4602583612c7f565b9150613bff82613b98565b604082019050919050565b60006020820190508181036000830152613c2381613be7565b9050919050565b7f4c42504d616e616765723a206172726179732077726f6e672073697a65000000600082015250565b6000613c60601d83612c7f565b9150613c6b82613c2a565b602082019050919050565b60006020820190508181036000830152613c8f81613c53565b9050919050565b7f4c42504d616e616765723a20746f6b656e732063616e27742062652073616d65600082015250565b6000613ccc602083612c7f565b9150613cd782613c96565b602082019050919050565b60006020820190508181036000830152613cfb81613cbf565b9050919050565b7f4c42504d616e616765723a20737461727454696d65203e20656e6454696d6500600082015250565b6000613d38601f83612c7f565b9150613d4382613d02565b602082019050919050565b60006020820190508181036000830152613d6781613d2b565b9050919050565b7f4c42504d616e616765723a204c42504d616e61676572206e6f7420696e69746960008201527f616c697a65640000000000000000000000000000000000000000000000000000602082015250565b6000613dca602683612c7f565b9150613dd582613d6e565b604082019050919050565b60006020820190508181036000830152613df981613dbd565b9050919050565b7f4c42504d616e616765723a20706f6f6c20616c72656164792066756e64656400600082015250565b6000613e36601f83612c7f565b9150613e4182613e00565b602082019050919050565b60006020820190508181036000830152613e6581613e29565b9050919050565b60008190508160005260206000209050919050565b60008154613e8e8161367f565b613e988186612c7f565b94506001821660008114613eb35760018114613ec557613ef8565b60ff1983168652602086019350613ef8565b613ece85613e6c565b60005b83811015613ef057815481890152600182019150602081019050613ed1565b808801955050505b50505092915050565b600081549050919050565b600082825260208201905092915050565b60008190508160005260206000209050919050565b613f3b8161353b565b82525050565b6000613f4d8383613f32565b60208301905092915050565b60008160001c9050919050565b600073ffffffffffffffffffffffffffffffffffffffff82169050919050565b6000613f99613f9483613f59565b613f66565b9050919050565b6000613fac8254613f86565b9050919050565b6000600182019050919050565b6000613fcb82613f01565b613fd58185613f0c565b9350613fe083613f1d565b8060005b8381101561401857613ff582613fa0565b613fff8882613f41565b975061400a83613fb3565b925050600181019050613fe4565b5085935050505092915050565b600081549050919050565b600082825260208201905092915050565b60008190508160005260206000209050919050565b61405f81612dff565b82525050565b60006140718383614056565b60208301905092915050565b6000819050919050565b600061409a61409583613f59565b61407d565b9050919050565b60006140ad8254614087565b9050919050565b6000600182019050919050565b60006140cc82614025565b6140d68185614030565b93506140e183614041565b8060005b83811015614119576140f6826140a1565b6141008882614065565b975061410b836140b4565b9250506001810190506140e5565b5085935050505092915050565b600060e0820190508181036000830152614140818a613e81565b905081810360208301526141548189613e81565b905081810360408301526141688188613fc0565b9050818103606083015261417c81876140c1565b905061418b6080830186612e09565b61419860a0830185612e45565b6141a560c0830184612dd5565b98975050505050505050565b6000815190506141c081612efa565b92915050565b6000602082840312156141dc576141db612ef0565b5b60006141ea848285016141b1565b91505092915050565b60006060820190506142086000830186612e09565b6142156020830185612e09565b818103604083015261422781846140c1565b9050949350505050565b600061423c82612e33565b9050919050565b61424c81614231565b811461425757600080fd5b50565b60008151905061426981614243565b92915050565b60006020828403121561428557614284612ef0565b5b60006142938482850161425a565b91505092915050565b60006060820190506142b16000830186612e45565b6142be6020830185612e45565b6142cb6040830184612e09565b949350505050565b60006142de82613577565b915060ff8214156142f2576142f16136e0565b5b600182019050919050565b6000819050919050565b600061432261431d614318846142fd565b612d4f565b613577565b9050919050565b61433281614307565b82525050565b600060408201905061434d6000830185614329565b818103602083015261435f81846140c1565b90509392505050565b6000819050919050565b61437b81614368565b811461438657600080fd5b50565b60008151905061439881614372565b92915050565b6000602082840312156143b4576143b3612ef0565b5b60006143c284828501614389565b91505092915050565b6143d481614368565b82525050565b600081519050919050565b600082825260208201905092915050565b6000819050602082019050919050565b6000602082019050919050565b600061441e826143da565b61442881856143e5565b9350614433836143f6565b8060005b8381101561446457815161444b8882613f41565b975061445683614406565b925050600181019050614437565b5085935050505092915050565b600081519050919050565b600082825260208201905092915050565b6000819050602082019050919050565b6000602082019050919050565b60006144b582614471565b6144bf818561447c565b93506144ca8361448d565b8060005b838110156144fb5781516144e28882614065565b97506144ed8361449d565b9250506001810190506144ce565b5085935050505092915050565b600082825260208201905092915050565b600061452482612e6f565b61452e8185614508565b935061453e818560208601612c90565b61454781612cc3565b840191505092915050565b61455b81612dc9565b82525050565b6000608083016000830151848203600086015261457e8282614413565b9150506020830151848203602086015261459882826144aa565b915050604083015184820360408601526145b28282614519565b91505060608301516145c76060860182614552565b508091505092915050565b60006080820190506145e760008301876143cb565b6145f46020830186612e45565b6146016040830185612e45565b81810360608301526146138184614561565b905095945050505050565b7f4c42504d616e616765723a206e65772061646d696e206973207a65726f000000600082015250565b6000614654601d83612c7f565b915061465f8261461e565b602082019050919050565b6000602082019050818103600083015261468381614647565b9050919050565b6000819050919050565b60006146af6146aa6146a58461468a565b612d4f565b613577565b9050919050565b6146bf81614694565b82525050565b60006040820190506146da60008301856146b6565b6146e76020830184612e09565b9392505050565b60006146f982612d2f565b9050919050565b614709816146ee565b82525050565b6000608083016000830151848203600086015261472c8282614413565b9150506020830151848203602086015261474682826144aa565b915050604083015184820360408601526147608282614519565b91505060608301516147756060860182614552565b508091505092915050565b600060808201905061479560008301876143cb565b6147a26020830186612e45565b6147af6040830185614700565b81810360608301526147c1818461470f565b905095945050505050565b600081905092915050565b60006147e282612e6f565b6147ec81856147cc565b93506147fc818560208601612c90565b80840191505092915050565b600061481482846147d7565b915081905092915050565b600061482a82612dff565b915061483583612dff565b9250817fffffffffffffffffffffffffffffffffffffffffffffffffffffffffffffffff048311821515161561486e5761486d6136e0565b5b828202905092915050565b7f4e487b7100000000000000000000000000000000000000000000000000000000600052601260045260246000fd5b60006148b382612dff565b91506148be83612dff565b9250826148ce576148cd614879565b5b82820490509291505056fea26469706673582212200a0b0ed2501b4416ff6e75c30e8df16755a39af406b182d38873bc6513caf00064736f6c63430008090033",
  "linkReferences": {},
  "deployedLinkReferences": {}
}