{
  "_format": "hh-sol-artifact-1",
  "contractName": "Seed",
  "sourceName": "contracts/seed/Seed.sol",
  "abi": [
    {
      "anonymous": false,
      "inputs": [
        {
          "indexed": true,
          "internalType": "address",
          "name": "recipient",
          "type": "address"
        },
        {
          "indexed": false,
          "internalType": "uint256",
          "name": "amountReclaimed",
          "type": "uint256"
        }
      ],
      "name": "FundingReclaimed",
      "type": "event"
    },
    {
      "anonymous": false,
      "inputs": [
        {
          "indexed": true,
          "internalType": "bytes",
          "name": "metadata",
          "type": "bytes"
        }
      ],
      "name": "MetadataUpdated",
      "type": "event"
    },
    {
      "anonymous": false,
      "inputs": [
        {
          "indexed": true,
          "internalType": "address",
          "name": "recipient",
          "type": "address"
        },
        {
          "indexed": false,
          "internalType": "uint256",
          "name": "amountPurchased",
          "type": "uint256"
        }
      ],
      "name": "SeedsPurchased",
      "type": "event"
    },
    {
      "anonymous": false,
      "inputs": [
        {
          "indexed": true,
          "internalType": "address",
          "name": "recipient",
          "type": "address"
        },
        {
          "indexed": false,
          "internalType": "uint256",
          "name": "amount",
          "type": "uint256"
        },
        {
          "indexed": true,
          "internalType": "address",
          "name": "beneficiary",
          "type": "address"
        },
        {
          "indexed": false,
          "internalType": "uint256",
          "name": "feeAmount",
          "type": "uint256"
        }
      ],
      "name": "TokensClaimed",
      "type": "event"
    },
    {
      "inputs": [
        {
          "internalType": "uint256",
          "name": "_cap",
          "type": "uint256"
        },
        {
          "internalType": "uint256",
          "name": "_personalCap",
          "type": "uint256"
        },
        {
          "internalType": "uint256",
          "name": "_rate",
          "type": "uint256"
        },
        {
          "internalType": "uint256",
          "name": "_vestingDuration",
          "type": "uint256"
        }
      ],
      "name": "addClass",
      "outputs": [],
      "stateMutability": "nonpayable",
      "type": "function"
    },
    {
      "inputs": [],
      "name": "admin",
      "outputs": [
        {
          "internalType": "address",
          "name": "",
          "type": "address"
        }
      ],
      "stateMutability": "view",
      "type": "function"
    },
    {
      "inputs": [],
      "name": "beneficiary",
      "outputs": [
        {
          "internalType": "address",
          "name": "",
          "type": "address"
        }
      ],
      "stateMutability": "view",
      "type": "function"
    },
    {
      "inputs": [
        {
          "internalType": "uint256",
          "name": "_fundingAmount",
          "type": "uint256"
        }
      ],
      "name": "buy",
      "outputs": [
        {
          "internalType": "uint256",
          "name": "",
          "type": "uint256"
        },
        {
          "internalType": "uint256",
          "name": "",
          "type": "uint256"
        }
      ],
      "stateMutability": "nonpayable",
      "type": "function"
    },
    {
      "inputs": [
        {
          "internalType": "address",
          "name": "_funder",
          "type": "address"
        }
      ],
      "name": "calculateClaim",
      "outputs": [
        {
          "internalType": "uint256",
          "name": "",
          "type": "uint256"
        }
      ],
      "stateMutability": "view",
      "type": "function"
    },
    {
      "inputs": [
        {
          "internalType": "address",
          "name": "_funder",
          "type": "address"
        },
        {
          "internalType": "uint256",
          "name": "_claimAmount",
          "type": "uint256"
        }
      ],
      "name": "claim",
      "outputs": [
        {
          "internalType": "uint256",
          "name": "",
          "type": "uint256"
        }
      ],
      "stateMutability": "nonpayable",
      "type": "function"
    },
    {
      "inputs": [],
      "name": "close",
      "outputs": [],
      "stateMutability": "nonpayable",
      "type": "function"
    },
    {
      "inputs": [],
      "name": "closed",
      "outputs": [
        {
          "internalType": "bool",
          "name": "",
          "type": "bool"
        }
      ],
      "stateMutability": "view",
      "type": "function"
    },
    {
      "inputs": [],
      "name": "endTime",
      "outputs": [
        {
          "internalType": "uint256",
          "name": "",
          "type": "uint256"
        }
      ],
      "stateMutability": "view",
      "type": "function"
    },
    {
      "inputs": [],
      "name": "fee",
      "outputs": [
        {
          "internalType": "uint256",
          "name": "",
          "type": "uint256"
        }
      ],
      "stateMutability": "view",
      "type": "function"
    },
    {
      "inputs": [],
      "name": "feeAmountRequired",
      "outputs": [
        {
          "internalType": "uint256",
          "name": "",
          "type": "uint256"
        }
      ],
      "stateMutability": "view",
      "type": "function"
    },
    {
      "inputs": [],
      "name": "feeClaimed",
      "outputs": [
        {
          "internalType": "uint256",
          "name": "",
          "type": "uint256"
        }
      ],
      "stateMutability": "view",
      "type": "function"
    },
    {
      "inputs": [
        {
          "internalType": "address",
          "name": "_funder",
          "type": "address"
        }
      ],
      "name": "feeClaimedForFunder",
      "outputs": [
        {
          "internalType": "uint256",
          "name": "",
          "type": "uint256"
        }
      ],
      "stateMutability": "view",
      "type": "function"
    },
    {
      "inputs": [
        {
          "internalType": "address",
          "name": "_funder",
          "type": "address"
        }
      ],
      "name": "feeForFunder",
      "outputs": [
        {
          "internalType": "uint256",
          "name": "",
          "type": "uint256"
        }
      ],
      "stateMutability": "view",
      "type": "function"
    },
    {
      "inputs": [],
      "name": "feeRemainder",
      "outputs": [
        {
          "internalType": "uint256",
          "name": "",
          "type": "uint256"
        }
      ],
      "stateMutability": "view",
      "type": "function"
    },
    {
      "inputs": [
        {
          "internalType": "address",
          "name": "",
          "type": "address"
        }
      ],
      "name": "funders",
      "outputs": [
        {
          "internalType": "uint8",
          "name": "class",
          "type": "uint8"
        },
        {
          "internalType": "uint256",
          "name": "totalClaimed",
          "type": "uint256"
        },
        {
          "internalType": "uint256",
          "name": "fundingAmount",
          "type": "uint256"
        }
      ],
      "stateMutability": "view",
      "type": "function"
    },
    {
      "inputs": [],
      "name": "fundingCollected",
      "outputs": [
        {
          "internalType": "uint256",
          "name": "",
          "type": "uint256"
        }
      ],
      "stateMutability": "view",
      "type": "function"
    },
    {
      "inputs": [],
      "name": "fundingToken",
      "outputs": [
        {
          "internalType": "contract IERC20",
          "name": "",
          "type": "address"
        }
      ],
      "stateMutability": "view",
      "type": "function"
    },
    {
      "inputs": [],
      "name": "fundingWithdrawn",
      "outputs": [
        {
          "internalType": "uint256",
          "name": "",
          "type": "uint256"
        }
      ],
      "stateMutability": "view",
      "type": "function"
    },
    {
      "inputs": [],
      "name": "hardCap",
      "outputs": [
        {
          "internalType": "uint256",
          "name": "",
          "type": "uint256"
        }
      ],
      "stateMutability": "view",
      "type": "function"
    },
    {
      "inputs": [
        {
          "internalType": "address",
          "name": "_beneficiary",
          "type": "address"
        },
        {
          "internalType": "address",
          "name": "_admin",
          "type": "address"
        },
        {
          "internalType": "address[]",
          "name": "_tokens",
          "type": "address[]"
        },
        {
          "internalType": "uint256[]",
          "name": "_softHardThresholds",
          "type": "uint256[]"
        },
        {
          "internalType": "uint256",
          "name": "_price",
          "type": "uint256"
        },
        {
          "internalType": "uint256",
          "name": "_startTime",
          "type": "uint256"
        },
        {
          "internalType": "uint256",
          "name": "_endTime",
          "type": "uint256"
        },
        {
          "internalType": "uint32",
          "name": "_vestingDuration",
          "type": "uint32"
        },
        {
          "internalType": "uint32",
          "name": "_vestingCliff",
          "type": "uint32"
        },
        {
          "internalType": "bool",
          "name": "_permissionedSeed",
          "type": "bool"
        },
        {
          "internalType": "uint256",
          "name": "_fee",
          "type": "uint256"
        }
      ],
      "name": "initialize",
      "outputs": [],
      "stateMutability": "nonpayable",
      "type": "function"
    },
    {
      "inputs": [],
      "name": "initialized",
      "outputs": [
        {
          "internalType": "bool",
          "name": "",
          "type": "bool"
        }
      ],
      "stateMutability": "view",
      "type": "function"
    },
    {
      "inputs": [],
      "name": "isFunded",
      "outputs": [
        {
          "internalType": "bool",
          "name": "",
          "type": "bool"
        }
      ],
      "stateMutability": "view",
      "type": "function"
    },
    {
      "inputs": [],
      "name": "isWhitelistBatchInvoked",
      "outputs": [
        {
          "internalType": "bool",
          "name": "",
          "type": "bool"
        }
      ],
      "stateMutability": "view",
      "type": "function"
    },
    {
      "inputs": [],
      "name": "maximumReached",
      "outputs": [
        {
          "internalType": "bool",
          "name": "",
          "type": "bool"
        }
      ],
      "stateMutability": "view",
      "type": "function"
    },
    {
      "inputs": [],
      "name": "metadata",
      "outputs": [
        {
          "internalType": "bytes",
          "name": "",
          "type": "bytes"
        }
      ],
      "stateMutability": "view",
      "type": "function"
    },
    {
      "inputs": [],
      "name": "minimumReached",
      "outputs": [
        {
          "internalType": "bool",
          "name": "",
          "type": "bool"
        }
      ],
      "stateMutability": "view",
      "type": "function"
    },
    {
      "inputs": [],
      "name": "pause",
      "outputs": [],
      "stateMutability": "nonpayable",
      "type": "function"
    },
    {
      "inputs": [],
      "name": "paused",
      "outputs": [
        {
          "internalType": "bool",
          "name": "",
          "type": "bool"
        }
      ],
      "stateMutability": "view",
      "type": "function"
    },
    {
      "inputs": [],
      "name": "permissionedSeed",
      "outputs": [
        {
          "internalType": "bool",
          "name": "",
          "type": "bool"
        }
      ],
      "stateMutability": "view",
      "type": "function"
    },
    {
      "inputs": [],
      "name": "price",
      "outputs": [
        {
          "internalType": "uint256",
          "name": "",
          "type": "uint256"
        }
      ],
      "stateMutability": "view",
      "type": "function"
    },
    {
      "inputs": [],
      "name": "retrieveFundingTokens",
      "outputs": [
        {
          "internalType": "uint256",
          "name": "",
          "type": "uint256"
        }
      ],
      "stateMutability": "nonpayable",
      "type": "function"
    },
    {
      "inputs": [
        {
          "internalType": "address",
          "name": "_refundReceiver",
          "type": "address"
        }
      ],
      "name": "retrieveSeedTokens",
      "outputs": [],
      "stateMutability": "nonpayable",
      "type": "function"
    },
    {
      "inputs": [
        {
          "internalType": "address",
          "name": "_funder",
          "type": "address"
        }
      ],
      "name": "seedAmountForFunder",
      "outputs": [
        {
          "internalType": "uint256",
          "name": "",
          "type": "uint256"
        }
      ],
      "stateMutability": "view",
      "type": "function"
    },
    {
      "inputs": [],
      "name": "seedAmountRequired",
      "outputs": [
        {
          "internalType": "uint256",
          "name": "",
          "type": "uint256"
        }
      ],
      "stateMutability": "view",
      "type": "function"
    },
    {
      "inputs": [],
      "name": "seedClaimed",
      "outputs": [
        {
          "internalType": "uint256",
          "name": "",
          "type": "uint256"
        }
      ],
      "stateMutability": "view",
      "type": "function"
    },
    {
      "inputs": [],
      "name": "seedRemainder",
      "outputs": [
        {
          "internalType": "uint256",
          "name": "",
          "type": "uint256"
        }
      ],
      "stateMutability": "view",
      "type": "function"
    },
    {
      "inputs": [],
      "name": "seedToken",
      "outputs": [
        {
          "internalType": "contract IERC20",
          "name": "",
          "type": "address"
        }
      ],
      "stateMutability": "view",
      "type": "function"
    },
    {
      "inputs": [],
      "name": "softCap",
      "outputs": [
        {
          "internalType": "uint256",
          "name": "",
          "type": "uint256"
        }
      ],
      "stateMutability": "view",
      "type": "function"
    },
    {
      "inputs": [],
      "name": "startTime",
      "outputs": [
        {
          "internalType": "uint256",
          "name": "",
          "type": "uint256"
        }
      ],
      "stateMutability": "view",
      "type": "function"
    },
    {
      "inputs": [],
      "name": "totalFunderCount",
      "outputs": [
        {
          "internalType": "uint256",
          "name": "",
          "type": "uint256"
        }
      ],
      "stateMutability": "view",
      "type": "function"
    },
    {
      "inputs": [],
      "name": "unpause",
      "outputs": [],
      "stateMutability": "nonpayable",
      "type": "function"
    },
    {
      "inputs": [
        {
          "internalType": "address",
          "name": "buyer",
          "type": "address"
        }
      ],
      "name": "unwhitelist",
      "outputs": [],
      "stateMutability": "nonpayable",
      "type": "function"
    },
    {
      "inputs": [
        {
          "internalType": "bytes",
          "name": "_metadata",
          "type": "bytes"
        }
      ],
      "name": "updateMetadata",
      "outputs": [],
      "stateMutability": "nonpayable",
      "type": "function"
    },
    {
      "inputs": [],
      "name": "vestingCliff",
      "outputs": [
        {
          "internalType": "uint32",
          "name": "",
          "type": "uint32"
        }
      ],
      "stateMutability": "view",
      "type": "function"
    },
    {
      "inputs": [],
      "name": "vestingDuration",
      "outputs": [
        {
          "internalType": "uint32",
          "name": "",
          "type": "uint32"
        }
      ],
      "stateMutability": "view",
      "type": "function"
    },
    {
      "inputs": [],
      "name": "vestingStartTime",
      "outputs": [
        {
          "internalType": "uint256",
          "name": "",
          "type": "uint256"
        }
      ],
      "stateMutability": "view",
      "type": "function"
    },
    {
      "inputs": [
        {
          "internalType": "address",
          "name": "_buyer",
          "type": "address"
        }
      ],
      "name": "whitelist",
      "outputs": [],
      "stateMutability": "nonpayable",
      "type": "function"
    },
    {
      "inputs": [
        {
          "internalType": "address[]",
          "name": "_buyers",
          "type": "address[]"
        }
      ],
      "name": "whitelistBatch",
      "outputs": [],
      "stateMutability": "nonpayable",
      "type": "function"
    },
    {
      "inputs": [
        {
          "internalType": "address",
          "name": "",
          "type": "address"
        }
      ],
      "name": "whitelisted",
      "outputs": [
        {
          "internalType": "bool",
          "name": "",
          "type": "bool"
        }
      ],
      "stateMutability": "view",
      "type": "function"
    },
    {
      "inputs": [],
      "name": "withdraw",
      "outputs": [],
      "stateMutability": "nonpayable",
      "type": "function"
    }
  ],
  "bytecode": "0x608060405234801561001057600080fd5b50614e96806100206000396000f3fe608060405234801561001057600080fd5b50600436106102f15760003560e01c80637c6543031161019d578063d936547e116100e9578063e6e36ebb116100a2578063f3640e741161007c578063f3640e74146108af578063f851a440146108cd578063fb86a404146108eb578063fc582d4114610909576102f1565b8063e6e36ebb14610845578063ea34554014610863578063eaa5352314610893576102f1565b8063d936547e1461075a578063d96a094a1461078a578063dc4b9e38146107bb578063ddca3f43146107eb578063e5087c6014610809578063e565eb4c14610827576102f1565b80639a59042711610156578063a8660a7811610130578063a8660a78146106d0578063aad3ec96146106ee578063b774682f1461071e578063bc0f5f841461073c576102f1565b80639a5904271461067a5780639b19251a14610696578063a035b1fe146106b2576102f1565b80637c654303146105dc5780637eb71b0d146105fa57806383d59e00146106165780638456cb59146106345780638a2448aa1461063e578063906a26e01461065c576102f1565b80633dba9e411161025c578063597e1fb5116102155780635e9777e8116101ef5780635e9777e81461056457806371f4b8e81461058257806378065f27146105a057806378e97925146105be576102f1565b8063597e1fb5146104f85780635c975abb146105165780635d85ac0d14610534576102f1565b80633dba9e411461045c5780633f4ba83a1461047a578063430e99a41461048457806343d726d6146104b457806344f9abb8146104be57806347d02f1b146104da576102f1565b80631cfe562e116102ae5780631cfe562e146103bc578063311f8483146103da5780633197cbb6146103f857806338af3eed14610416578063392f37e9146104345780633ccfd60b14610452576102f1565b8063031b3677146102f657806303aabe31146103285780630826d2c714610344578063117a36d1146103625780631514617e14610380578063158ef93e1461039e575b600080fd5b610310600480360381019061030b9190613234565b610925565b60405161031f93929190613296565b60405180910390f35b610342600480360381019061033d9190613234565b61095c565b005b61034c610de4565b60405161035991906132cd565b60405180910390f35b61036a610dea565b6040516103779190613303565b60405180910390f35b610388610dfd565b604051610395919061333d565b60405180910390f35b6103a6610e13565b6040516103b39190613303565b60405180910390f35b6103c4610e26565b6040516103d191906132cd565b60405180910390f35b6103e2610e2c565b6040516103ef91906133b7565b60405180910390f35b610400610e50565b60405161040d91906132cd565b60405180910390f35b61041e610e56565b60405161042b91906133e1565b60405180910390f35b61043c610e7a565b6040516104499190613495565b60405180910390f35b61045a610f08565b005b6104646110dc565b6040516104719190613303565b60405180910390f35b6104826110ef565b005b61049e60048036038101906104999190613234565b611249565b6040516104ab91906132cd565b60405180910390f35b6104bc6112b5565b005b6104d860048036038101906104d39190613746565b6113cd565b005b6104e2611853565b6040516104ef91906132cd565b60405180910390f35b610500611859565b60405161050d9190613303565b60405180910390f35b61051e61186c565b60405161052b9190613303565b60405180910390f35b61054e60048036038101906105499190613234565b61187f565b60405161055b91906132cd565b60405180910390f35b61056c6118b1565b60405161057991906132cd565b60405180910390f35b61058a6118b7565b60405161059791906132cd565b60405180910390f35b6105a86118e1565b6040516105b591906133b7565b60405180910390f35b6105c6611907565b6040516105d391906132cd565b60405180910390f35b6105e461190d565b6040516105f19190613303565b60405180910390f35b610614600480360381019061060f9190613872565b611920565b005b61061e6119ad565b60405161062b91906132cd565b60405180910390f35b61063c6119b3565b005b610646611b00565b60405161065391906132cd565b60405180910390f35b610664611de7565b60405161067191906132cd565b60405180910390f35b610694600480360381019061068f9190613234565b611ded565b005b6106b060048036038101906106ab9190613234565b611f7e565b005b6106ba61210f565b6040516106c791906132cd565b60405180910390f35b6106d8612115565b6040516106e591906132cd565b60405180910390f35b610708600480360381019061070391906138d9565b61211b565b60405161071591906132cd565b60405180910390f35b610726612544565b60405161073391906132cd565b60405180910390f35b61074461254a565b60405161075191906132cd565b60405180910390f35b610774600480360381019061076f9190613234565b612550565b6040516107819190613303565b60405180910390f35b6107a4600480360381019061079f9190613919565b612570565b6040516107b2929190613946565b60405180910390f35b6107d560048036038101906107d09190613234565b612c23565b6040516107e291906132cd565b60405180910390f35b6107f3612c8f565b60405161080091906132cd565b60405180910390f35b610811612c95565b60405161081e9190613303565b60405180910390f35b61082f612ca8565b60405161083c9190613303565b60405180910390f35b61084d612cbb565b60405161085a91906132cd565b60405180910390f35b61087d60048036038101906108789190613234565b612cc1565b60405161088a91906132cd565b60405180910390f35b6108ad60048036038101906108a8919061396f565b612dec565b005b6108b7612fd2565b6040516108c4919061333d565b60405180910390f35b6108d5612fe8565b6040516108e291906133e1565b60405180910390f35b6108f361300e565b60405161090091906132cd565b60405180910390f35b610923600480360381019061091e9190613a6d565b613014565b005b60176020528060005260406000206000915090508060000160009054906101000a900460ff16908060010154908060020154905083565b600160009054906101000a900473ffffffffffffffffffffffffffffffffffffffff1673ffffffffffffffffffffffffffffffffffffffff163373ffffffffffffffffffffffffffffffffffffffff16146109ec576040517f08c379a00000000000000000000000000000000000000000000000000000000081526004016109e390613b13565b60405180910390fd5b600d60009054906101000a900460ff1680610a135750600d60059054906101000a900460ff165b80610a2057506008544210155b610a5f576040517f08c379a0000000000000000000000000000000000000000000000000000000008152600401610a5690613bf1565b60405180910390fd5b600d60049054906101000a900460ff16610c0c5760098054906101000a900473ffffffffffffffffffffffffffffffffffffffff1673ffffffffffffffffffffffffffffffffffffffff1663a9059cbb8260098054906101000a900473ffffffffffffffffffffffffffffffffffffffff1673ffffffffffffffffffffffffffffffffffffffff166370a08231306040518263ffffffff1660e01b8152600401610b0991906133e1565b60206040518083038186803b158015610b2157600080fd5b505afa158015610b35573d6000803e3d6000fd5b505050506040513d601f19601f82011682018060405250810190610b599190613c26565b6040518363ffffffff1660e01b8152600401610b76929190613c53565b602060405180830381600087803b158015610b9057600080fd5b505af1158015610ba4573d6000803e3d6000fd5b505050506040513d601f19601f82011682018060405250810190610bc89190613c91565b610c07576040517f08c379a0000000000000000000000000000000000000000000000000000000008152600401610bfe90613d30565b60405180910390fd5b610de1565b6000601254601054610c1e9190613d7f565b600554600454610c2e9190613d7f565b610c389190613dd5565b905060008160098054906101000a900473ffffffffffffffffffffffffffffffffffffffff1673ffffffffffffffffffffffffffffffffffffffff166370a08231306040518263ffffffff1660e01b8152600401610c9691906133e1565b60206040518083038186803b158015610cae57600080fd5b505afa158015610cc2573d6000803e3d6000fd5b505050506040513d601f19601f82011682018060405250810190610ce69190613c26565b610cf09190613dd5565b905060098054906101000a900473ffffffffffffffffffffffffffffffffffffffff1673ffffffffffffffffffffffffffffffffffffffff1663a9059cbb84836040518363ffffffff1660e01b8152600401610d4d929190613c53565b602060405180830381600087803b158015610d6757600080fd5b505af1158015610d7b573d6000803e3d6000fd5b505050506040513d601f19601f82011682018060405250810190610d9f9190613c91565b610dde576040517f08c379a0000000000000000000000000000000000000000000000000000000008152600401610dd590613d30565b60405180910390fd5b50505b50565b60105481565b600d60059054906101000a900460ff1681565b600960019054906101000a900463ffffffff1681565b600d60039054906101000a900460ff1681565b60135481565b60098054906101000a900473ffffffffffffffffffffffffffffffffffffffff1681565b60085481565b60008054906101000a900473ffffffffffffffffffffffffffffffffffffffff1681565b600c8054610e8790613e38565b80601f0160208091040260200160405190810160405280929190818152602001828054610eb390613e38565b8015610f005780601f10610ed557610100808354040283529160200191610f00565b820191906000526020600020905b815481529060010190602001808311610ee357829003601f168201915b505050505081565b600160009054906101000a900473ffffffffffffffffffffffffffffffffffffffff1673ffffffffffffffffffffffffffffffffffffffff163373ffffffffffffffffffffffffffffffffffffffff1614610f98576040517f08c379a0000000000000000000000000000000000000000000000000000000008152600401610f8f90613b13565b60405180910390fd5b600d60059054906101000a900460ff1680610fcd5750600d60049054906101000a900460ff168015610fcc57506008544210155b5b61100c576040517f08c379a000000000000000000000000000000000000000000000000000000000815260040161100390613f02565b60405180910390fd5b600060145460135461101e9190613dd5565b9050601354601481905550600a60009054906101000a900473ffffffffffffffffffffffffffffffffffffffff1673ffffffffffffffffffffffffffffffffffffffff1663a9059cbb33836040518363ffffffff1660e01b8152600401611086929190613c53565b602060405180830381600087803b1580156110a057600080fd5b505af11580156110b4573d6000803e3d6000fd5b505050506040513d601f19601f820116820180604052508101906110d89190613c91565b5050565b600960009054906101000a900460ff1681565b600160009054906101000a900473ffffffffffffffffffffffffffffffffffffffff1673ffffffffffffffffffffffffffffffffffffffff163373ffffffffffffffffffffffffffffffffffffffff161461117f576040517f08c379a000000000000000000000000000000000000000000000000000000000815260040161117690613b13565b60405180910390fd5b60011515600d60009054906101000a900460ff16151514156111d6576040517f08c379a00000000000000000000000000000000000000000000000000000000081526004016111cd90613f6e565b60405180910390fd5b60011515600d60019054906101000a900460ff1615151461122c576040517f08c379a000000000000000000000000000000000000000000000000000000000815260040161122390613fda565b60405180910390fd5b6000600d60016101000a81548160ff021916908315150217905550565b6000670de0b6b3a7640000600b54601760008573ffffffffffffffffffffffffffffffffffffffff1673ffffffffffffffffffffffffffffffffffffffff168152602001908152602001600020600101546112a49190613ffa565b6112ae9190614083565b9050919050565b600160009054906101000a900473ffffffffffffffffffffffffffffffffffffffff1673ffffffffffffffffffffffffffffffffffffffff163373ffffffffffffffffffffffffffffffffffffffff1614611345576040517f08c379a000000000000000000000000000000000000000000000000000000000815260040161133c90613b13565b60405180910390fd5b600d60009054906101000a900460ff1615611395576040517f08c379a000000000000000000000000000000000000000000000000000000000815260040161138c90613f6e565b60405180910390fd5b6001600d60006101000a81548160ff0219169083151502179055506000600d60016101000a81548160ff021916908315150217905550565b600d60039054906101000a900460ff161561141d576040517f08c379a000000000000000000000000000000000000000000000000000000000815260040161141490614126565b60405180910390fd5b6001600d60036101000a81548160ff0219169083151502179055508860018151811061144c5761144b614146565b5b602002602001015173ffffffffffffffffffffffffffffffffffffffff168960008151811061147e5761147d614146565b5b602002602001015173ffffffffffffffffffffffffffffffffffffffff1614156114dd576040517f08c379a00000000000000000000000000000000000000000000000000000000081526004016114d4906141e7565b60405180910390fd5b876000815181106114f1576114f0614146565b5b60200260200101518860018151811061150d5761150c614146565b5b60200260200101511015611556576040517f08c379a000000000000000000000000000000000000000000000000000000000815260040161154d90614279565b60405180910390fd5b8263ffffffff168463ffffffff1610156115a5576040517f08c379a000000000000000000000000000000000000000000000000000000000815260040161159c9061430b565b60405180910390fd5b8585116115e7576040517f08c379a00000000000000000000000000000000000000000000000000000000081526004016115de9061439d565b60405180910390fd5b8a6000806101000a81548173ffffffffffffffffffffffffffffffffffffffff021916908373ffffffffffffffffffffffffffffffffffffffff16021790555089600160006101000a81548173ffffffffffffffffffffffffffffffffffffffff021916908373ffffffffffffffffffffffffffffffffffffffff1602179055508760008151811061167c5761167b614146565b5b60200260200101516002819055508760018151811061169e5761169d614146565b5b6020026020010151600381905550866006819055508560078190555084600881905550600854600e8190555083600960016101000a81548163ffffffff021916908363ffffffff16021790555082600960056101000a81548163ffffffff021916908363ffffffff16021790555081600960006101000a81548160ff0219169083151502179055508860008151811061173a57611739614146565b5b60200260200101516009806101000a81548173ffffffffffffffffffffffffffffffffffffffff021916908373ffffffffffffffffffffffffffffffffffffffff1602179055508860018151811061179557611794614146565b5b6020026020010151600a60006101000a81548173ffffffffffffffffffffffffffffffffffffffff021916908373ffffffffffffffffffffffffffffffffffffffff16021790555080600b8190555086670de0b6b3a76400006003546117fb9190613ffa565b6118059190614083565b600481905550670de0b6b3a7640000600b546004546118249190613ffa565b61182e9190614083565b6005819055506004546010819055506005546012819055505050505050505050505050565b60115481565b600d60009054906101000a900460ff1681565b600d60019054906101000a900460ff1681565b6000670de0b6b3a7640000600b5461189684612c23565b6118a09190613ffa565b6118aa9190614083565b9050919050565b600f5481565b6000670de0b6b3a7640000600b546011546118d29190613ffa565b6118dc9190614083565b905090565b600a60009054906101000a900473ffffffffffffffffffffffffffffffffffffffff1681565b60075481565b600d60029054906101000a900460ff1681565b60156040518060a00160405280868152602001858152602001848152602001838152602001600081525090806001815401808255809150506001900390600052602060002090600502016000909190919091506000820151816000015560208201518160010155604082015181600201556060820151816003015560808201518160040155505050505050565b60145481565b600160009054906101000a900473ffffffffffffffffffffffffffffffffffffffff1673ffffffffffffffffffffffffffffffffffffffff163373ffffffffffffffffffffffffffffffffffffffff1614611a43576040517f08c379a0000000000000000000000000000000000000000000000000000000008152600401611a3a90613b13565b60405180910390fd5b600d60009054906101000a900460ff1615611a93576040517f08c379a0000000000000000000000000000000000000000000000000000000008152600401611a8a90613f6e565b60405180910390fd5b600d60019054906101000a900460ff1615611ae3576040517f08c379a0000000000000000000000000000000000000000000000000000000008152600401611ada90614409565b60405180910390fd5b6001600d60016101000a81548160ff021916908315150217905550565b6000426007541115611b47576040517f08c379a0000000000000000000000000000000000000000000000000000000008152600401611b3e9061449b565b60405180910390fd5b600d60049054906101000a900460ff1615611b97576040517f08c379a0000000000000000000000000000000000000000000000000000000008152600401611b8e90614507565b60405180910390fd5b6000601760003373ffffffffffffffffffffffffffffffffffffffff1673ffffffffffffffffffffffffffffffffffffffff168152602001908152602001600020905060008160020154905060008111611c26576040517f08c379a0000000000000000000000000000000000000000000000000000000008152600401611c1d90614573565b60405180910390fd5b611c2f33612c23565b60106000828254611c409190613d7f565b92505081905550611c503361187f565b60126000828254611c619190613d7f565b92505081905550600f6000815480929190611c7b90614593565b9190505550600082600201819055508060136000828254611c9c9190613dd5565b92505081905550600a60009054906101000a900473ffffffffffffffffffffffffffffffffffffffff1673ffffffffffffffffffffffffffffffffffffffff1663a9059cbb33836040518363ffffffff1660e01b8152600401611d00929190613c53565b602060405180830381600087803b158015611d1a57600080fd5b505af1158015611d2e573d6000803e3d6000fd5b505050506040513d601f19601f82011682018060405250810190611d529190613c91565b611d91576040517f08c379a0000000000000000000000000000000000000000000000000000000008152600401611d889061462f565b60405180910390fd5b3373ffffffffffffffffffffffffffffffffffffffff167f1a689b1a62e3bb77f9c98d8759c04f341a67deb5cc63cf53be8324b69106495082604051611dd791906132cd565b60405180910390a2809250505090565b60025481565b600160009054906101000a900473ffffffffffffffffffffffffffffffffffffffff1673ffffffffffffffffffffffffffffffffffffffff163373ffffffffffffffffffffffffffffffffffffffff1614611e7d576040517f08c379a0000000000000000000000000000000000000000000000000000000008152600401611e7490613b13565b60405180910390fd5b600d60009054906101000a900460ff1615611ecd576040517f08c379a0000000000000000000000000000000000000000000000000000000008152600401611ec490613f6e565b60405180910390fd5b60011515600960009054906101000a900460ff16151514611f23576040517f08c379a0000000000000000000000000000000000000000000000000000000008152600401611f1a9061469b565b60405180910390fd5b6000601660008373ffffffffffffffffffffffffffffffffffffffff1673ffffffffffffffffffffffffffffffffffffffff16815260200190815260200160002060006101000a81548160ff02191690831515021790555050565b600160009054906101000a900473ffffffffffffffffffffffffffffffffffffffff1673ffffffffffffffffffffffffffffffffffffffff163373ffffffffffffffffffffffffffffffffffffffff161461200e576040517f08c379a000000000000000000000000000000000000000000000000000000000815260040161200590613b13565b60405180910390fd5b600d60009054906101000a900460ff161561205e576040517f08c379a000000000000000000000000000000000000000000000000000000000815260040161205590613f6e565b60405180910390fd5b60011515600960009054906101000a900460ff161515146120b4576040517f08c379a00000000000000000000000000000000000000000000000000000000081526004016120ab9061469b565b60405180910390fd5b6001601660008373ffffffffffffffffffffffffffffffffffffffff1673ffffffffffffffffffffffffffffffffffffffff16815260200190815260200160002060006101000a81548160ff02191690831515021790555050565b60065481565b600e5481565b6000600d60049054906101000a900460ff1661216c576040517f08c379a00000000000000000000000000000000000000000000000000000000081526004016121639061472d565b60405180910390fd5b4260085410806121885750600d60059054906101000a900460ff165b6121c7576040517f08c379a00000000000000000000000000000000000000000000000000000000081526004016121be906147bf565b60405180910390fd5b60006121d284612cc1565b905060008111612217576040517f08c379a000000000000000000000000000000000000000000000000000000000815260040161220e9061482b565b60405180910390fd5b8281101561225a576040517f08c379a0000000000000000000000000000000000000000000000000000000008152600401612251906148bd565b60405180910390fd5b6000670de0b6b3a7640000600b54856122739190613ffa565b61227d9190614083565b905083601760008773ffffffffffffffffffffffffffffffffffffffff1673ffffffffffffffffffffffffffffffffffffffff16815260200190815260200160002060010160008282546122d19190613d7f565b9250508190555083601160008282546122ea9190613d7f565b9250508190555060098054906101000a900473ffffffffffffffffffffffffffffffffffffffff1673ffffffffffffffffffffffffffffffffffffffff1663a9059cbb60008054906101000a900473ffffffffffffffffffffffffffffffffffffffff16836040518363ffffffff1660e01b815260040161236c929190613c53565b602060405180830381600087803b15801561238657600080fd5b505af115801561239a573d6000803e3d6000fd5b505050506040513d601f19601f820116820180604052508101906123be9190613c91565b8015612473575060098054906101000a900473ffffffffffffffffffffffffffffffffffffffff1673ffffffffffffffffffffffffffffffffffffffff1663a9059cbb86866040518363ffffffff1660e01b8152600401612420929190613c53565b602060405180830381600087803b15801561243a57600080fd5b505af115801561244e573d6000803e3d6000fd5b505050506040513d601f19601f820116820180604052508101906124729190613c91565b5b6124b2576040517f08c379a00000000000000000000000000000000000000000000000000000000081526004016124a990614929565b60405180910390fd5b60008054906101000a900473ffffffffffffffffffffffffffffffffffffffff1673ffffffffffffffffffffffffffffffffffffffff168573ffffffffffffffffffffffffffffffffffffffff167f9bd10be98695714f5cb43cefb59ba6417808b354710acafafe05e81b264922318684604051612531929190613946565b60405180910390a3809250505092915050565b60125481565b60045481565b60166020528060005260406000206000915054906101000a900460ff1681565b600080600d60009054906101000a900460ff16156125c3576040517f08c379a00000000000000000000000000000000000000000000000000000000081526004016125ba90613f6e565b60405180910390fd5b600d60019054906101000a900460ff1615612613576040517f08c379a000000000000000000000000000000000000000000000000000000000815260040161260a90614409565b60405180910390fd5b600d60059054906101000a900460ff1615612663576040517f08c379a000000000000000000000000000000000000000000000000000000000815260040161265a90614995565b60405180910390fd5b600960009054906101000a900460ff1615806126c85750601660003373ffffffffffffffffffffffffffffffffffffffff1673ffffffffffffffffffffffffffffffffffffffff16815260200190815260200160002060009054906101000a900460ff165b612707576040517f08c379a00000000000000000000000000000000000000000000000000000000081526004016126fe90614a01565b60405180910390fd5b426008541015801561271b57504260075411155b61275a576040517f08c379a000000000000000000000000000000000000000000000000000000000815260040161275190614a93565b60405180910390fd5b600d60029054906101000a900460ff166128845760055460045461277e9190613d7f565b60098054906101000a900473ffffffffffffffffffffffffffffffffffffffff1673ffffffffffffffffffffffffffffffffffffffff166370a08231306040518263ffffffff1660e01b81526004016127d791906133e1565b60206040518083038186803b1580156127ef57600080fd5b505afa158015612803573d6000803e3d6000fd5b505050506040513d601f19601f820116820180604052508101906128279190613c26565b1015612868576040517f08c379a000000000000000000000000000000000000000000000000000000000815260040161285f90614b25565b60405180910390fd5b6001600d60026101000a81548160ff0219169083151502179055505b6000600654670de0b6b3a76400008561289d9190613ffa565b6128a79190614083565b90506000670de0b6b3a7640000600b54836128c29190613ffa565b6128cc9190614083565b9050600960019054906101000a900463ffffffff1663ffffffff16821015612929576040517f08c379a000000000000000000000000000000000000000000000000000000000815260040161292090614b91565b60405180910390fd5b6003548560135461293a9190613d7f565b111561297b576040517f08c379a000000000000000000000000000000000000000000000000000000000815260040161297290614c23565b60405180910390fd5b846013600082825461298d9190613d7f565b9250508190555081601060008282546129a69190613dd5565b9250508190555080601260008282546129bf9190613dd5565b92505081905550600254601354106129ed576001600d60046101000a81548160ff0219169083151502179055505b60035460135410612a1b576001600d60056101000a81548160ff02191690831515021790555042600e819055505b6000601760003373ffffffffffffffffffffffffffffffffffffffff1673ffffffffffffffffffffffffffffffffffffffff168152602001908152602001600020600201541415612a7f57600f6000815480929190612a7990614c43565b91905055505b84601760003373ffffffffffffffffffffffffffffffffffffffff1673ffffffffffffffffffffffffffffffffffffffff1681526020019081526020016000206002016000828254612ad19190613d7f565b92505081905550600a60009054906101000a900473ffffffffffffffffffffffffffffffffffffffff1673ffffffffffffffffffffffffffffffffffffffff166323b872dd3330886040518463ffffffff1660e01b8152600401612b3793929190614c8c565b602060405180830381600087803b158015612b5157600080fd5b505af1158015612b65573d6000803e3d6000fd5b505050506040513d601f19601f82011682018060405250810190612b899190613c91565b612bc8576040517f08c379a0000000000000000000000000000000000000000000000000000000008152600401612bbf90614d35565b60405180910390fd5b3373ffffffffffffffffffffffffffffffffffffffff167fcf5ef2b227e797b567f0df4c49cc8b6207cfb60054eb899e5608de08e5dcb1ef83604051612c0e91906132cd565b60405180910390a28181935093505050915091565b6000600654670de0b6b3a7640000601760008573ffffffffffffffffffffffffffffffffffffffff1673ffffffffffffffffffffffffffffffffffffffff16815260200190815260200160002060020154612c7e9190613ffa565b612c889190614083565b9050919050565b600b5481565b600d60069054906101000a900460ff1681565b600d60049054906101000a900460ff1681565b60055481565b600080601760008473ffffffffffffffffffffffffffffffffffffffff1673ffffffffffffffffffffffffffffffffffffffff1681526020019081526020016000209050600e54421015612d19576000915050612de7565b6000600e5442612d299190613dd5565b9050600960059054906101000a900463ffffffff1663ffffffff16811015612d5657600092505050612de7565b600960019054906101000a900463ffffffff1663ffffffff168110612d96578160010154612d8385612c23565b612d8d9190613dd5565b92505050612de7565b6000600960019054906101000a900463ffffffff1663ffffffff16612dba86612c23565b83612dc59190613ffa565b612dcf9190614083565b9050826001015481612de19190613dd5565b93505050505b919050565b600160009054906101000a900473ffffffffffffffffffffffffffffffffffffffff1673ffffffffffffffffffffffffffffffffffffffff163373ffffffffffffffffffffffffffffffffffffffff1614612e7c576040517f08c379a0000000000000000000000000000000000000000000000000000000008152600401612e7390613b13565b60405180910390fd5b600d60009054906101000a900460ff1615612ecc576040517f08c379a0000000000000000000000000000000000000000000000000000000008152600401612ec390613f6e565b60405180910390fd5b60011515600960009054906101000a900460ff16151514612f22576040517f08c379a0000000000000000000000000000000000000000000000000000000008152600401612f199061469b565b60405180910390fd5b6001600d60066101000a81548160ff02191690831515021790555060005b8151811015612fce57600160166000848481518110612f6257612f61614146565b5b602002602001015173ffffffffffffffffffffffffffffffffffffffff1673ffffffffffffffffffffffffffffffffffffffff16815260200190815260200160002060006101000a81548160ff0219169083151502179055508080612fc690614c43565b915050612f40565b5050565b600960059054906101000a900463ffffffff1681565b600160009054906101000a900473ffffffffffffffffffffffffffffffffffffffff1681565b60035481565b60011515600d60039054906101000a900460ff1615151415806130845750600160009054906101000a900473ffffffffffffffffffffffffffffffffffffffff1673ffffffffffffffffffffffffffffffffffffffff163373ffffffffffffffffffffffffffffffffffffffff16145b6130c3576040517f08c379a00000000000000000000000000000000000000000000000000000000081526004016130ba90614ded565b60405180910390fd5b80600c90805190602001906130d992919061311f565b50806040516130e89190614e49565b60405180910390207f09f579b21815d3f81581d32e97736ccba1cc89d1918e48da28e6e206acd9686460405160405180910390a250565b82805461312b90613e38565b90600052602060002090601f01602090048101928261314d5760008555613194565b82601f1061316657805160ff1916838001178555613194565b82800160010185558215613194579182015b82811115613193578251825591602001919060010190613178565b5b5090506131a191906131a5565b5090565b5b808211156131be5760008160009055506001016131a6565b5090565b6000604051905090565b600080fd5b600080fd5b600073ffffffffffffffffffffffffffffffffffffffff82169050919050565b6000613201826131d6565b9050919050565b613211816131f6565b811461321c57600080fd5b50565b60008135905061322e81613208565b92915050565b60006020828403121561324a576132496131cc565b5b60006132588482850161321f565b91505092915050565b600060ff82169050919050565b61327781613261565b82525050565b6000819050919050565b6132908161327d565b82525050565b60006060820190506132ab600083018661326e565b6132b86020830185613287565b6132c56040830184613287565b949350505050565b60006020820190506132e26000830184613287565b92915050565b60008115159050919050565b6132fd816132e8565b82525050565b600060208201905061331860008301846132f4565b92915050565b600063ffffffff82169050919050565b6133378161331e565b82525050565b6000602082019050613352600083018461332e565b92915050565b6000819050919050565b600061337d613378613373846131d6565b613358565b6131d6565b9050919050565b600061338f82613362565b9050919050565b60006133a182613384565b9050919050565b6133b181613396565b82525050565b60006020820190506133cc60008301846133a8565b92915050565b6133db816131f6565b82525050565b60006020820190506133f660008301846133d2565b92915050565b600081519050919050565b600082825260208201905092915050565b60005b8381101561343657808201518184015260208101905061341b565b83811115613445576000848401525b50505050565b6000601f19601f8301169050919050565b6000613467826133fc565b6134718185613407565b9350613481818560208601613418565b61348a8161344b565b840191505092915050565b600060208201905081810360008301526134af818461345c565b905092915050565b600080fd5b7f4e487b7100000000000000000000000000000000000000000000000000000000600052604160045260246000fd5b6134f48261344b565b810181811067ffffffffffffffff82111715613513576135126134bc565b5b80604052505050565b60006135266131c2565b905061353282826134eb565b919050565b600067ffffffffffffffff821115613552576135516134bc565b5b602082029050602081019050919050565b600080fd5b600061357b61357684613537565b61351c565b9050808382526020820190506020840283018581111561359e5761359d613563565b5b835b818110156135c757806135b3888261321f565b8452602084019350506020810190506135a0565b5050509392505050565b600082601f8301126135e6576135e56134b7565b5b81356135f6848260208601613568565b91505092915050565b600067ffffffffffffffff82111561361a576136196134bc565b5b602082029050602081019050919050565b6136348161327d565b811461363f57600080fd5b50565b6000813590506136518161362b565b92915050565b600061366a613665846135ff565b61351c565b9050808382526020820190506020840283018581111561368d5761368c613563565b5b835b818110156136b657806136a28882613642565b84526020840193505060208101905061368f565b5050509392505050565b600082601f8301126136d5576136d46134b7565b5b81356136e5848260208601613657565b91505092915050565b6136f78161331e565b811461370257600080fd5b50565b600081359050613714816136ee565b92915050565b613723816132e8565b811461372e57600080fd5b50565b6000813590506137408161371a565b92915050565b60008060008060008060008060008060006101608c8e03121561376c5761376b6131cc565b5b600061377a8e828f0161321f565b9b5050602061378b8e828f0161321f565b9a505060408c013567ffffffffffffffff8111156137ac576137ab6131d1565b5b6137b88e828f016135d1565b99505060608c013567ffffffffffffffff8111156137d9576137d86131d1565b5b6137e58e828f016136c0565b98505060806137f68e828f01613642565b97505060a06138078e828f01613642565b96505060c06138188e828f01613642565b95505060e06138298e828f01613705565b94505061010061383b8e828f01613705565b93505061012061384d8e828f01613731565b92505061014061385f8e828f01613642565b9150509295989b509295989b9093969950565b6000806000806080858703121561388c5761388b6131cc565b5b600061389a87828801613642565b94505060206138ab87828801613642565b93505060406138bc87828801613642565b92505060606138cd87828801613642565b91505092959194509250565b600080604083850312156138f0576138ef6131cc565b5b60006138fe8582860161321f565b925050602061390f85828601613642565b9150509250929050565b60006020828403121561392f5761392e6131cc565b5b600061393d84828501613642565b91505092915050565b600060408201905061395b6000830185613287565b6139686020830184613287565b9392505050565b600060208284031215613985576139846131cc565b5b600082013567ffffffffffffffff8111156139a3576139a26131d1565b5b6139af848285016135d1565b91505092915050565b600080fd5b600067ffffffffffffffff8211156139d8576139d76134bc565b5b6139e18261344b565b9050602081019050919050565b82818337600083830152505050565b6000613a10613a0b846139bd565b61351c565b905082815260208101848484011115613a2c57613a2b6139b8565b5b613a378482856139ee565b509392505050565b600082601f830112613a5457613a536134b7565b5b8135613a648482602086016139fd565b91505092915050565b600060208284031215613a8357613a826131cc565b5b600082013567ffffffffffffffff811115613aa157613aa06131d1565b5b613aad84828501613a3f565b91505092915050565b600082825260208201905092915050565b7f536565643a2063616c6c65722073686f756c642062652061646d696e00000000600082015250565b6000613afd601c83613ab6565b9150613b0882613ac7565b602082019050919050565b60006020820190508181036000830152613b2c81613af0565b9050919050565b7f536565643a20546865206162696c69747920746f20627579207365656420746f60008201527f6b656e73206d757374206861766520656e646564206265666f72652072656d6160208201527f696e696e67207365656420746f6b656e732063616e206265207769746864726160408201527f776e000000000000000000000000000000000000000000000000000000000000606082015250565b6000613bdb606283613ab6565b9150613be682613b33565b608082019050919050565b60006020820190508181036000830152613c0a81613bce565b9050919050565b600081519050613c208161362b565b92915050565b600060208284031215613c3c57613c3b6131cc565b5b6000613c4a84828501613c11565b91505092915050565b6000604082019050613c6860008301856133d2565b613c756020830184613287565b9392505050565b600081519050613c8b8161371a565b92915050565b600060208284031215613ca757613ca66131cc565b5b6000613cb584828501613c7c565b91505092915050565b7f536565643a2073686f756c64207472616e73666572207365656420746f6b656e60008201527f7320746f20726566756e64207265636569766572000000000000000000000000602082015250565b6000613d1a603483613ab6565b9150613d2582613cbe565b604082019050919050565b60006020820190508181036000830152613d4981613d0d565b9050919050565b7f4e487b7100000000000000000000000000000000000000000000000000000000600052601160045260246000fd5b6000613d8a8261327d565b9150613d958361327d565b9250827fffffffffffffffffffffffffffffffffffffffffffffffffffffffffffffffff03821115613dca57613dc9613d50565b5b828201905092915050565b6000613de08261327d565b9150613deb8361327d565b925082821015613dfe57613dfd613d50565b5b828203905092915050565b7f4e487b7100000000000000000000000000000000000000000000000000000000600052602260045260246000fd5b60006002820490506001821680613e5057607f821691505b60208210811415613e6457613e63613e09565b5b50919050565b7f536565643a2063616e6e6f74207769746864726177207768696c652066756e6460008201527f696e6720746f6b656e732063616e207374696c6c20626520776974686472617760208201527f6e20627920636f6e7472696275746f7273000000000000000000000000000000604082015250565b6000613eec605183613ab6565b9150613ef782613e6a565b606082019050919050565b60006020820190508181036000830152613f1b81613edf565b9050919050565b7f536565643a2073686f756c64206e6f7420626520636c6f736564000000000000600082015250565b6000613f58601a83613ab6565b9150613f6382613f22565b602082019050919050565b60006020820190508181036000830152613f8781613f4b565b9050919050565b7f536565643a2073686f756c642062652070617573656400000000000000000000600082015250565b6000613fc4601683613ab6565b9150613fcf82613f8e565b602082019050919050565b60006020820190508181036000830152613ff381613fb7565b9050919050565b60006140058261327d565b91506140108361327d565b9250817fffffffffffffffffffffffffffffffffffffffffffffffffffffffffffffffff048311821515161561404957614048613d50565b5b828202905092915050565b7f4e487b7100000000000000000000000000000000000000000000000000000000600052601260045260246000fd5b600061408e8261327d565b91506140998361327d565b9250826140a9576140a8614054565b5b828204905092915050565b7f536565643a20636f6e747261637420616c726561647920696e697469616c697a60008201527f6564000000000000000000000000000000000000000000000000000000000000602082015250565b6000614110602283613ab6565b915061411b826140b4565b604082019050919050565b6000602082019050818103600083015261413f81614103565b9050919050565b7f4e487b7100000000000000000000000000000000000000000000000000000000600052603260045260246000fd5b7f53656564466163746f72793a2073656564546f6b656e2063616e6e6f7420626560008201527f2066756e64696e67546f6b656e00000000000000000000000000000000000000602082015250565b60006141d1602d83613ab6565b91506141dc82614175565b604082019050919050565b60006020820190508181036000830152614200816141c4565b9050919050565b7f53656564466163746f72793a20686172644361702063616e6e6f74206265206c60008201527f657373207468616e20736f667443617000000000000000000000000000000000602082015250565b6000614263603083613ab6565b915061426e82614207565b604082019050919050565b6000602082019050818103600083015261429281614256565b9050919050565b7f53656564466163746f72793a2076657374696e674475726174696f6e2063616e60008201527f6e6f74206265206c657373207468616e2076657374696e67436c696666000000602082015250565b60006142f5603d83613ab6565b915061430082614299565b604082019050919050565b60006020820190508181036000830152614324816142e8565b9050919050565b7f53656564466163746f72793a20656e6454696d652063616e6e6f74206265206c60008201527f657373207468616e20657175616c20746f20737461727454696d650000000000602082015250565b6000614387603b83613ab6565b91506143928261432b565b604082019050919050565b600060208201905081810360008301526143b68161437a565b9050919050565b7f536565643a2073686f756c64206e6f7420626520706175736564000000000000600082015250565b60006143f3601a83613ab6565b91506143fe826143bd565b602082019050919050565b60006020820190508181036000830152614422816143e6565b9050919050565b7f536565643a20646973747269627574696f6e20686176656e277420737461727460008201527f6564000000000000000000000000000000000000000000000000000000000000602082015250565b6000614485602283613ab6565b915061449082614429565b604082019050919050565b600060208201905081810360008301526144b481614478565b9050919050565b7f536565643a206d696e696d756d2066756e64696e6720616d6f756e74206d6574600082015250565b60006144f1602083613ab6565b91506144fc826144bb565b602082019050919050565b60006020820190508181036000830152614520816144e4565b9050919050565b7f536565643a207a65726f2066756e64696e6720616d6f756e7400000000000000600082015250565b600061455d601983613ab6565b915061456882614527565b602082019050919050565b6000602082019050818103600083015261458c81614550565b9050919050565b600061459e8261327d565b915060008214156145b2576145b1613d50565b5b600182039050919050565b7f536565643a2063616e6e6f742072657475726e2066756e64696e6720746f6b6560008201527f6e7320746f206d73672e73656e64657200000000000000000000000000000000602082015250565b6000614619603083613ab6565b9150614624826145bd565b604082019050919050565b600060208201905081810360008301526146488161460c565b9050919050565b7f536565643a2073656564206973206e6f742077686974656c6973746564000000600082015250565b6000614685601d83613ab6565b91506146908261464f565b602082019050919050565b600060208201905081810360008301526146b481614678565b9050919050565b7f536565643a206d696e696d756d2066756e64696e6720616d6f756e74206e6f7460008201527f206d657400000000000000000000000000000000000000000000000000000000602082015250565b6000614717602483613ab6565b9150614722826146bb565b604082019050919050565b600060208201905081810360008301526147468161470a565b9050919050565b7f536565643a2074686520646973747269627574696f6e20686173206e6f74207960008201527f65742066696e6973686564000000000000000000000000000000000000000000602082015250565b60006147a9602b83613ab6565b91506147b48261474d565b604082019050919050565b600060208201905081810360008301526147d88161479c565b9050919050565b7f536565643a20616d6f756e7420636c61696d61626c6520697320300000000000600082015250565b6000614815601b83613ab6565b9150614820826147df565b602082019050919050565b6000602082019050818103600083015261484481614808565b9050919050565b7f536565643a20726571756573742069732067726561746572207468616e20636c60008201527f61696d61626c6520616d6f756e74000000000000000000000000000000000000602082015250565b60006148a7602e83613ab6565b91506148b28261484b565b604082019050919050565b600060208201905081810360008301526148d68161489a565b9050919050565b7f536565643a207365656420746f6b656e207472616e73666572206661696c6564600082015250565b6000614913602083613ab6565b915061491e826148dd565b602082019050919050565b6000602082019050818103600083015261494281614906565b9050919050565b7f536565643a206d6178696d756d2066756e64696e672072656163686564000000600082015250565b600061497f601d83613ab6565b915061498a82614949565b602082019050919050565b600060208201905081810360008301526149ae81614972565b9050919050565b7f536565643a2073656e64657220686173206e6f20726967687473000000000000600082015250565b60006149eb601a83613ab6565b91506149f6826149b5565b602082019050919050565b60006020820190508181036000830152614a1a816149de565b9050919050565b7f536565643a206f6e6c7920616c6c6f77656420647572696e672064697374726960008201527f627574696f6e20706572696f6400000000000000000000000000000000000000602082015250565b6000614a7d602d83613ab6565b9150614a8882614a21565b604082019050919050565b60006020820190508181036000830152614aac81614a70565b9050919050565b7f536565643a2073756666696369656e74207365656473206e6f742070726f766960008201527f6465640000000000000000000000000000000000000000000000000000000000602082015250565b6000614b0f602383613ab6565b9150614b1a82614ab3565b604082019050919050565b60006020820190508181036000830152614b3e81614b02565b9050919050565b7f536565643a20616d6f756e745665737465645065725365636f6e64203e203000600082015250565b6000614b7b601f83613ab6565b9150614b8682614b45565b602082019050919050565b60006020820190508181036000830152614baa81614b6e565b9050919050565b7f536565643a20616d6f756e74206578636565647320636f6e747261637420736160008201527f6c65206861726443617000000000000000000000000000000000000000000000602082015250565b6000614c0d602a83613ab6565b9150614c1882614bb1565b604082019050919050565b60006020820190508181036000830152614c3c81614c00565b9050919050565b6000614c4e8261327d565b91507fffffffffffffffffffffffffffffffffffffffffffffffffffffffffffffffff821415614c8157614c80613d50565b5b600182019050919050565b6000606082019050614ca160008301866133d2565b614cae60208301856133d2565b614cbb6040830184613287565b949350505050565b7f536565643a2066756e64696e6720746f6b656e207472616e7366657246726f6d60008201527f206661696c656400000000000000000000000000000000000000000000000000602082015250565b6000614d1f602783613ab6565b9150614d2a82614cc3565b604082019050919050565b60006020820190508181036000830152614d4e81614d12565b9050919050565b7f536565643a20636f6e74726163742073686f756c64206e6f7420626520696e6960008201527f7469616c697a6564206f722063616c6c65722073686f756c642062652061646d60208201527f696e000000000000000000000000000000000000000000000000000000000000604082015250565b6000614dd7604283613ab6565b9150614de282614d55565b606082019050919050565b60006020820190508181036000830152614e0681614dca565b9050919050565b600081905092915050565b6000614e23826133fc565b614e2d8185614e0d565b9350614e3d818560208601613418565b80840191505092915050565b6000614e558284614e18565b91508190509291505056fea26469706673582212206a8783bd4cfbf0cdef331d28f6da05000bfbae9448c99c8e5adebe0958b1e86b64736f6c63430008090033",
  "linkReferences": {},
  "deployedLinkReferences": {}
}